:020000040800F2
:10000000B86A00204501000889030008850300083C
:1000100087030008D50100089D06000800000000C5
:100020000000000000000000000000008D03000838
:1000300019020008000000008B0300085D010008A1
:100040005F0100085F0100085F0100085F01000810
:100050005F0100085F0100085F0100085F01000800
:100060005F0100085F0100085F0100085F010008F0
:100070005F010008D70100085F0100085F01000868
:100080005F0100085F0100085F0100085F010008D0
:100090005F0100085F0100085F0100085F010008C0
:1000A0005F0100085F0100085F0100085F010008B0
:1000B0005F0100085F010008950400085F01000867
:1000C0005F0100085F0100085F0100085F01000890
:1000D0005F01000891050008F90500085F010008AC
:1000E0005F0100085F0100085F0100085F01000870
:1000F0005F0100085F0100085F0100085F01000860
:100100005F0100085F0100085F0100085F0100084F
:100110005F0100085F0100085F0100085F0100083F
:100120005F0100085F0100085F0100085F0100082F
:10013000DFF80CD000F03CF800480047BD0600088E
:10014000B86A00200648804706480047FEE7FEE7F9
:10015000FEE7FEE7FEE7FEE7FEE7FEE7FEE7FEE777
:10016000450400083101000840EA01039B0703D061
:1001700009E008C9121F08C0042AFAD203E011F8E6
:10018000013B00F8013B521EF9D27047D2B201E0A8
:1001900000F8012B491EFBD270470022F6E710B58C
:1001A00013460A4604461946FFF7F0FF204610BDE5
:1001B000064C074D06E0E06840F0010394E80700B4
:1001C00098471034AC42F6D3FFF7B6FFA4070008F7
:1001D000C4070008FEE700F0B5B80000C10002D572
:1001E00002490860704702494860704704040240B1
:1001F0000000024002460020D10002D504490968EF
:1002000001E004490968114200D001207047000054
:100210000004024000000240704700000149C8602D
:10022000704700000020024070B505464FF43026AC
:10023000304600F059F8042811D1094C206940F0EB
:10024000020020616561206940F040002061304675
:1002500000F04AF8216941F6FD721140216170BD3C
:100260000020024004200849CA68D20701D00120BA
:100270007047CA68520701D502207047C968C9068D
:10028000FBD50320704700000020024002480169AE
:1002900041F080010161704700200240F0B5064640
:1002A0000D464FF40057384600F01EF804280CD1D4
:1002B000064C206940F0010020613580384600F08E
:1002C00013F82169BA1E11402161F0BD00200240DF
:1002D0000348024941600349416070472301674573
:1002E00000200240AB89EFCD00B50346FFF7BAFF0F
:1002F00002E0FFF7B7FF5B1E012801D1002BF8D108
:10030000002B00D1052000BD70B506460D465408EF
:10031000FFF7DEFF3520FFF781FF3046FFF784FF50
:1003200008E028786978AD1C40EA01213046FFF7E3
:10033000B5FFB61C641EA4B2F3D2BDE87040FFF74F
:10034000A5BF000070B54FF480663046FFF752FF3E
:100350000B4D012428B16C703046BDE87040FFF7AA
:100360003DBF4FF400763046FFF744FF002805D02C
:100370002C703046BDE87040FFF730BF70BD000004
:1003800000000020FEE7FEE770477047704700F06E
:1003900001B800000CB500220192009227480168C4
:1003A00041F4803101604FF4A063016801F4003131
:1003B00000910199491C0191009911B90199994243
:1003C000F3D10168890302D50121009100E0009278
:1003D0000099012930D11A490A6842F010020A60D6
:1003E0000A6822F003020A600A6842F002020A6008
:1003F0004168416041684160416841F48061416009
:10040000416821F47C114160416841F4E811416088
:10041000016841F08071016001688901FCD5416883
:1004200021F003014160416841F0020141604168EF
:10043000C1F381010229FAD10CBD00000010024075
:100440000020024010B50F48016841F00101016031
:1004500041680D4A1140416001680C4A1140016039
:10046000016821F480210160416821F4FE014160AE
:100470004FF41F018160FFF78AFF05494FF00060CC
:10048000086010BD001002400000FFF8FFFFF6FEFC
:1004900008ED00E010B5174C0121204600F069F886
:1004A000002825D00121204600F054F8124B134AB1
:1004B0001878A0B11178491CC9B21170814217D1C6
:1004C000002010701870508840F4004050800020C8
:1004D00000F016F8BDE81040632000F029B85088FD
:1004E00040F400405080BDE81040002000F008B803
:1004F00010BD00000008004008000020040000209B
:1005000010B50A4A00280AD014460021204600F0FF
:100510003CF82046BDE81040012100F01EB8BDE8BF
:1005200010400021104600F018B8000000080040FC
:1005300010B504460021064800F027F804492C3184
:10054000088800220A800A8822430A8010BD000021
:1005500000080040C94301827047002904D0018887
:1005600041F0010101807047018821F00101018003
:10057000704702460020138A0B4092890A40002BE4
:1005800002D0002A00D0012070478184704700000B
:1005900070B5164C40F22551204600F05BF800285B
:1005A0000ED0204600F076F8C1B2114A108803043C
:1005B00006D444044FF0000307D50A2901D0138064
:1005C00070BD40F40040108070BD0D290AD0094D67
:1005D000C0F30D042955401C80B21080C728F3D900
:1005E000138070BD40F48040108070BD0038014021
:1005F000020000200C00002070B5124C40F2255182
:10060000204600F027F8002816D0204600F042F8D7
:10061000C5B20D4C6088B0F5A05F0ED200210B482A
:10062000FFF7B3FF608810B90120FFF769FF60880A
:10063000411C618006490D5470BD40F4004060804B
:1006400070BD00000044004004000020000800408D
:10065000D814002070B5002440F66A12C1F342138A
:1006600001F01F05012606FA05F2012B0CD0022B22
:100670000DD0838A1340090A8E40008830400BB1A8
:1006800000B10124204670BD83891340F3E7038A3B
:100690001340F0E78088C0F308007047FEE702E0EF
:1006A00008C8121F08C1002AFAD1704770470020FD
:1006B00001E001C1121F002AFBD1704770B5284C20
:1006C00002252560201D32210646FFF766FD0E2219
:1006D00024A13046FFF748FD41F6BB50A06305203A
:1006E000E0630A2020643C2060642920A4F84800CC
:1006F0006620A4F84A0084F858500120E065A4F16F
:10070000F80101F5807001F5AE7100220A604A60BF
:100710008A6018A14430096881610277511E216600
:1007200042628262C2620260426082608263C2632D
:1007300012A1D1E900238968C0E90923C16213A18C
:1007400006C9C0E90E12092212A104F14C00FFF7FC
:100750000BFD982221461248FFF7D6FD002070BD00
:10076000D02900203132332E36302E34372E32311C
:100770003000000076312E3200000000313030327F
:10078000323130303030313900000000313030301B
:1007900030313900D4A5413030303139000000000B
:1007A00000C00308C4070008000000200C0000007F
:1007B0009E060008D00700080C000020AC6A00006C
:1007C000AE0600080000000000000000000000006D
:0400000508000131BD
:00000001FF
