:020000040800F2
:10500000D08C002045510008AF690008C567000832
:10501000AD690008CD5F0008D573000800000000EE
:10502000000000000000000000000000EF6B00081E
:105030007761000800000000656A00085D51000803
:105040005F5100085F5100085F5100085F51000880
:105050005F5100085F5100085F5100085F51000870
:105060005F5100085F5100085F5100085F51000860
:105070005F510008CF5F00085F5100085F510008D2
:105080005F5100085F5100085F5100085F51000840
:105090005F5100085F5100085F5100085F51000830
:1050A0005F5100085F5100085F5100085F51000820
:1050B0005F510008156D0008456D00085F5100083C
:1050C0005F5100085F5100085F5100085F51000800
:1050D0005F5100080D700008757000085F510008EE
:1050E0005F5100085F5100085F5100085F510008E0
:1050F0005F5100085F5100085F5100085F510008D0
:105100005F5100085F5100085F5100085F510008BF
:105110005F5100085F5100085F5100085F510008AF
:105120005F5100085F5100085F5100085F5100089F
:10513000DFF80CD000F04EFD004800472DA4000819
:10514000D08C00200648804706480047FEE7FEE76F
:10515000FEE7FEE7FEE7FEE7FEE7FEE7FEE7FEE727
:10516000C16C0008315100082DE9F05F05460020B0
:1051700092469B4688460646814640241BE02846C8
:1051800041464746224600F0BAFB53465A46C01AEB
:10519000914110D311461846224600F0A1FB2D1A6A
:1051A00067EB01084F4622460120002100F098FBE2
:1051B00017EB00094E41201EA4F10104DFDC484634
:1051C00031462A464346BDE8F09F0000004870473C
:1051D000CCCA000810B50446FFF7F8FF0068005D70
:1051E00000F0010010BD40EA01039B0703D009E075
:1051F00008C9121F08C0042AFAD203E011F8013BC3
:1052000000F8013B521EF9D27047D2B201E000F81B
:10521000012B491EFBD270470022F6E710B513465A
:105220000A4604461946FFF7F0FF204610BD30B588
:1052300005462A460B4612F8010B13F8014B08B13C
:10524000A042F8D01CB1002802D06D1CF1E728461E
:1052500030BD421C10F8011B0029FBD1801A704799
:10526000CBB203E00178994203D0401C521EF9D220
:105270000020704730B504460020034600E05B1C68
:10528000934203D2E05CCD5C401BF8D030BD2DE9E9
:10529000F04791460F4680460446002614F8015B0D
:1052A0002DB1FFF793FF0068405DC007F6D12B2DAD
:1052B00002D02D2D18D0641E4A463946204600F0F3
:1052C00040FB27B13968A14201D1C7F800807105C0
:1052D0004FF002040BD54042002803DD02F0F2F843
:1052E0000460A007BDE8F08746F48066E4E7002884
:1052F000F8DA02F0E7F804606FF00040F2E7F0B48B
:1053000080EA0102D40F4200B2EB410F02D2024602
:10531000084611464A0042D0C30DDDB2C1F3C75260
:10532000AD1A202D35DAC1F3160141F4000204B1A3
:105330005242C5F1200602FA06F12A411044B3EBAD
:10534000D05F23D0C4B1012DA0EBC35009DCF0BC69
:105350004FF0004202EAC352DBB200F5000000F059
:1053600096BB400000F1807000EBC350A0F180704C
:1053700040EAD170490009E0490841EAC071A0EB58
:10538000C35000F50000400800EBC350F0BC00F033
:1053900075BB6142012202EB4101001BF6E7F0BC44
:1053A000704781F00041AAE780F00040A7E780EA5B
:1053B000010210B502F00043400022D04A001FD085
:1053C000010E01EB1261C0F35600C2F3560240F425
:1053D000000042F40002A0FB022000047F39140404
:1053E00000D0401C50EA124001D44000491EC2B215
:1053F0000C0604EBD010401C4008802A02D003E0C9
:10540000002010BD20F00100002900DA0020184320
:1054100010BD2DE9FE4F804681EA0300C00F0C4607
:10542000009021F0004123F00045B8EB0200A941B3
:1054300005D24046214690461C460B46024623F0C4
:105440000040104347D0270DC7F30A00C3F30A51A9
:105450000290401A019040286BDAC3F3130040F425
:10546000801B0098924620B10023D2EB030A63EB25
:105470000B0B01985946C0F14002504600F030FA3B
:1054800006460D4650465946019A00F048FA10EB80
:1054900008006141002487EA115284EAE7731A4345
:1054A00040D0009A62B3019A012A4FEA075215DCF4
:1054B000001B61EB02014FF0004202EA0752CDE906
:1054C0000042001C41F5801132462B4600F01CFBC7
:1054D00003B0BDE8F08F40462146F9E7001B61EBC1
:1054E0000201001C41F5801300185B412018A2F551
:1054F000001747EB030140EAD570B6196D4111E082
:105500006D084FEA360645EAC0754FEA0752001BA0
:1055100061EB0201001C41F5801149084FEA30009F
:105520000019514132462B4603B0BDE8F04F00F060
:10553000DCBA0098012240000023D0EB020263EBAA
:10554000E073009821464FEAE074B8EB000061EB8D
:105550000401E9E783F000435BE781F0004158E78D
:105560002DE9FE4F81EA030404F0004421F00041DC
:1055700000944FF0000B23F0004350EA01045ED08A
:1055800052EA03045BD0C3F30A54C1F30A552C4416
:10559000A4F2F3340194A0FB0254C1F3130141F4CB
:1055A0008011C3F3130343F4801301FB024400FB97
:1055B000034E840A970A44EA815447EA8357A4FBBE
:1055C000076802958D0A05FB07854FEA932C04FBBB
:1055D0000C542705029D4FEA065847EA1637B5EBEB
:1055E00008056EEB070C870E920E47EA811742EA18
:1055F0008312A7FB0201B6EB0B0164EB00042B0D39
:1056000043EA0C335E1844EB1C50DA465146E7FB84
:105610000201C5F313044FEA0B3343EA14534FEA74
:105620000432019C43EA0603A4F10C040294009C9A
:10563000CDE900B400F068FA03B0BDE8F08F0020B7
:105640000146F9E72DE9F04D81EA030404F0004B2F
:1056500021F0004514464FF0000A23F0004150EAC3
:10566000050220D054EA01021DD0C5F30A570246B4
:10567000C5F31303C1F31300C1F30A5640F48015B8
:1056800043F48013A7EB0608101BD64608F2FD383A
:1056900073EB050002D308F1010801E092185B41A9
:1056A000B8F1000F03DA00200146BDE8F08D0020BC
:1056B0004FF48011064684460EE0171B73EB050776
:1056C00005D3121B63EB050306434CEA010C4908A2
:1056D0004FEA300092185B4150EA0107EDD152EADF
:1056E000030012D082EA040083EA0501084305D0D2
:1056F000101BAB4106D20122002306E000224FF02E
:10570000004302E06FF0010253101AEB06004CEB6D
:10571000085110EB0A0041EB0B01BDE8F04D00F021
:10572000E4B90EB5C10F80EAE0700844CA07002151
:1057300040F233438DE80E000A460B4600F0E4F9D0
:1057400003B000BD0EB540F2334102910021CDE916
:1057500000110A460B4600F0D7F903B000BD20F057
:105760000040C10DC0F3160040F400007F2901DAAB
:1057700000207047962903DCC1F19601C8407047AC
:1057800096398840704770B5C1F30A5201F0004560
:105790000024C1F3130140F2FF3341F480119A4217
:1057A00001DA002070BD40F233439A42A2F2334244
:1057B00003DC524200F0A3F800E090402C43F1D00B
:1057C000404270BDC1F30A5210B5C1F3130140F25B
:1057D000FF3341F480119A4201DA002010BD40F2FB
:1057E00033439A42A2F2334203DC524200F087F87C
:1057F00010BD904010BD00F0004230F000400AD0D3
:10580000C10D01F56071C0F3160042EA0151C208F2
:1058100040071143704700200146704730B5041E11
:1058200071F1000404DB4FF00044404264EB0101DD
:10583000141E73F1000405DB1C464FF00043524276
:1058400063EB04038B4208BF824230BD30B5041EB7
:1058500071F1000404DB4FF00044404264EB0101AD
:10586000141E73F1000405DB1C464FF00043524246
:1058700063EB0403994208BF904230BD01F000433E
:1058800030B421F0004150EA010206D00A0DA2F521
:105890006072C1F31301002A02DC30BC00207047A3
:1058A000440F44EAC104C100E01830BC00EBC25010
:1058B00000F0E4B830B50B46014600202022012458
:1058C00009E021FA02F59D4205D303FA02F5491BCE
:1058D00004FA02F52844151EA2F10102F1DC30BDE4
:1058E000202A04DB203A00FA02F1002070479140A0
:1058F000C2F1200320FA03F3194390407047202A95
:1059000004DB203A21FA02F00021704721FA02F369
:10591000D040C2F120029140084319467047202A26
:1059200006DBCB17203A41FA02F043EAE07306E0C7
:1059300041FA02F3D040C2F12002914008431946D7
:1059400070472DE9F05F82460078002715468B46A8
:105950000AF10104B946302801D09DB113E014F8D2
:10596000010B0127782803D0582801D045B10AE05F
:105970000DB1102D07D10027102514F8010B02E0FE
:10598000082500E00A250026B0460EE005FB0800C9
:1059900005FB06F1012701EB10461FFA80F8B6F56A
:1059A000803F00D3B94614F8010B294600F024F9D2
:1059B0000028EBDABBF1000F05D00FB1641E00E048
:1059C0005446CBF80040B9F1000F06D001F07AFD43
:1059D00002210160C81EBDE8F09F48EA0640FAE7D0
:1059E0000FB4002300B589B00CA900910B996FF09A
:1059F0000042CB601E4B06931E4B07930423CDE958
:105A000001321D4A089202466B46002000F082F9DE
:105A100009B05DF814FB70B586B006464FF0FF3054
:105A20000091CDE90101002015460C460490324654
:105A3000694604A8FFF7D4FF02460498211825B14F
:105A400008B1084600E020462860049800280DD0E0
:105A5000002A02DD0098884208D0081B0094CDE996
:105A600001043246694604A8FFF7BAFF06B070BDCC
:105A70004D5F00086B5F0008D55100080029A8BFE2
:105A80007047401C490008BF20F00100704710B467
:105A9000B0FA80FC00FA0CF050EA010404BF10BC1C
:105AA000704749B1CCF1200421FA04F411FA0CF149
:105AB00018BF012121430843A3EB0C01CB1D4FEA82
:105AC00000614FEA102042BF002010BC704700EB7D
:105AD000C35010440029A4BF10BC7047401C4900AB
:105AE00008BF20F0010010BC704710B5141E73F100
:105AF000000408DA401C41F1000192185B411A438E
:105B000001D120F0010010BD2DE9F04D92469B46D9
:105B100011B1B1FA81F202E0B0FA80F2203290467F
:105B2000FFF7DEFE04460F4640EA0A0041EA0B0199
:105B300053465A46084313D0114653EA010019D080
:105B4000C8F140025046FFF7DAFE05460E465046C1
:105B500059464246FFF7C4FE084305D0012004E041
:105B600020463946BDE8F08D0020054346EAE07640
:105B70002C4337430A986305E40AA0EB080000228F
:105B8000FD0A44EA47540A3002D500200146E9E7FD
:105B9000010510196941DDE9084500196941BDE8B1
:105BA000F04DA2E7C1F30A52C1F3130140F2FF33F3
:105BB00041F480119A4202DA00200146704740F217
:105BC00033439A42A2F2334202DC5242FFF797BEBD
:105BD000FFF786BE064C074D06E0E06840F0010383
:105BE00094E8070098471034AC42F6D3FFF7A4FAC4
:105BF00004CC000824CC00083A2800D2303820F029
:105C00002002412A01D3A2F13700884201D34FF08C
:105C1000FF3070472DE9FF4F087881B09946FF2883
:105C200005D0491C2D2804D00024002308E00023BF
:105C30000BE00124F9E703EB830300EB4303491C6A
:105C40000878FF28F7D104B15B4200200090147857
:105C500001462D2C01D02B2C04D1521C2D2C12D0FE
:105C60000024009400251678FF2E0ED00A24A0FBF5
:105C700004C801FB0481002700FB0711521C16EB2E
:105C80000C006941EFE70124EBE7994450EA010277
:105C90000ED00024AA4D2646DFF8A88200F076F93F
:105CA00082468B46B9F1000009DAC9F100071BE012
:105CB00001980021C0E9001105B0BDE8F08F07464A
:105CC00012E0F80707D022462B4630464146FFF740
:105CD00047FC0646884622462B4610461946FFF7E3
:105CE0003FFC04460D467F10002FEAD1B9F1000FAA
:105CF000324643465046594602DAFFF7A3FC01E01C
:105D0000FFF72EFC009A0AB181F00041019AC2E926
:105D10000001D1E72DE9FF4F1F468DB0D7E90146BD
:105D20004FF0FF382E2045464FF000090B90B9691F
:105D30006D1C0E988847396A824688470028F6D13C
:105D4000BAF1FF3F0AD024F4D064002E11DDBAF17D
:105D50002B0F08D0BAF12D0F0BD102E0404611B045
:105D6000ABE744F48064B9696D1C0E98884782469D
:105D7000761E6946600501D52D2000E02B208DF8A8
:105D8000000001F1010B0DF1200809E0B9696D1C5B
:105D90000E98884782460F9844F40074761E05607A
:105DA000002E02DDBAF1300FF0D00B998A453ED1BA
:105DB00044F0800406E00F99681CA9F1010944F43D
:105DC00000740860B9696D1C761E0E98884782467B
:105DD0003028F0D02BE00B998A4505D1200603D45A
:105DE00044F08004761E18E0504601F041FC08B3F0
:105DF0000DF11301761E44F400748B4508D2AAF10C
:105E000030000BF8010B200607D5A9F1010003E0D3
:105E1000200602D409F101008146A00502D50F99A0
:105E2000681C0860B9696D1C0E9888478246002E70
:105E3000D1DC53E0002E51DDBAF1650F02D0BAF18A
:105E4000450F4BD1A00549D5B9696D1C24F44074A8
:105E5000761E0E9888478246002E0CDD2B2804D033
:105E6000BAF12D0F07D144F48074B9696D1C0E98F6
:105E700088478246761EE00501D52D2100E02B21C2
:105E800008F8011BCDF82C8021E00DF12901761EC8
:105E900044F4007488450CD2AAF1300010F0FF00E1
:105EA00088F8000002D10B99884509D908F101084A
:105EB00006E0E00501D5244801E042F20F7081467A
:105EC000B9696D1C0E98884782460F980560002EB0
:105ED00004DD504601F0CCFB0028D6D1F9690E98BC
:105EE0008847FF208BF8000088F80000002006900B
:105EF00007904B466A4608A906A8FFF78BFEA00547
:105F000002D46FF001002AE714F0240F0AD0E00752
:105F100014D1DDE906123868031D3B600068C0E952
:105F200000120BE0DDE90601FFF7A8FC0146E007DF
:105F300004D13868021D3A600068016028460EE707
:105F4000000024400000F03FF1D8FFFF426842B15A
:105F5000016811F8013B23B1521EC0E90012184636
:105F600070470121C160881E704742685AB1C368FA
:105F7000016843B983688B4205D0491E521CC0E9B1
:105F80000012002070474FF0FF3070470EB540F20E
:105F9000334202920022CDE900221346FFF7B4FDFE
:105FA00003B000BD10B503460020002202E09C5C57
:105FB0006040521C8A42FAD310BD00F00F01000964
:105FC00000EB800001EB4000C0B27047FEE700F03C
:105FD00097BB0000C10002D5024908607047024922
:105FE000486070470404024000000240002904D0C9
:105FF000016841F001010160704701684FF6FE72CF
:10600000114001607047000001684FF6FE721140B8
:1060100001600021016041608160C1603649364AFB
:106020000839904204D1486840F00F00486070473A
:10603000314A1432904204D1486840F0F000486080
:1060400070472D4A2832904204D1486840F470606D
:1060500048607047284A3C32904204D1486840F476
:10606000704048607047244A5032904204D14868DA
:1060700040F47020486070471F4A6432904204D157
:10608000486840F47000486070471B4A783290427C
:1060900004D1486840F0706048607047174A111F8B
:1060A000904204D1086840F00F0008607047134A1E
:1060B0001432904204D1086840F0F0000860704744
:1060C0000E4A2832904204D1086840F4706008609B
:1060D00070470A4A3C32904204D1086840F470404C
:1060E00008607047054A50329042FAD1086840F47F
:1060F0007020086070470000080002400804024059
:1061000002460020D10002D50449096801E0044993
:106110000968114200D001207047000000040240CD
:1061200000000240002A03D002680A430260704760
:1061300002688A430260704730B5026847F6F07320
:106140009A430C6A8B682343D1E904452C432343CB
:106150008C692343CC6923434C6A23438C6A2343D1
:1061600013430360CA6842600A6882604968C1607C
:1061700030BD416070477047010201EB102080B2D2
:106180007047010600F47F4201EB022100F47F0218
:1061900001EB122101EB1060704700002DE9F04780
:1061A00081460F4616469846002E04D0D8F80010B7
:1061B000B1EB470F07D2164916A001F037F94FF09F
:1061C000FF30BDE8F0873046FFF726F800240025B1
:1061D0007D2108E019F805007E280BD07D2810D01D
:1061E0002A19B0546D1CBD42F4D33819C8F8000008
:1061F0000020E6E728193154304402224270641C22
:10620000F0E728193154304401224270641CE9E758
:106210003FCA00085B25735D204641494C45442038
:106220000D0A00000149C8607047000000200240CC
:1062300070B505464FF43026304600F059F8042872
:1062400011D1094C206940F002002061656120698C
:1062500040F040002061304600F04AF8216941F6E4
:10626000FD721140216170BD0020024004200849E8
:10627000CA68D20701D001207047CA68520701D509
:1062800002207047C968C906FBD50320704700008B
:10629000002002400248016941F08001016170471D
:1062A00000200240F0B506460D464FF40057384630
:1062B00000F01EF804280CD1064C206940F00100C3
:1062C00020613580384600F013F82169BA1E11406C
:1062D0002161F0BD002002400348024941600349AA
:1062E000416070472301674500200240AB89EFCD34
:1062F00000B50346FFF7BAFF02E0FFF7B7FF5B1EEA
:10630000012801D1002BF8D1002B00D1052000BDC0
:1063100070B506460D465408FFF7DEFF3520FFF73F
:1063200081FF3046FFF784FF08E028786978AD1CCC
:1063300040EA01213046FFF7B5FFB61C641EA4B247
:10634000F3D2BDE87040FFF7A5BF704770B5A0B0AD
:1063500080216846FEF760FF264C02262660A4F1E5
:106360007000002545678567C567C0F880500E221C
:1063700021A17430FEF737FF41F6BB506061A66182
:106380000A20E0613C2020622920A0846620E0846D
:1063900004F110008561C56105621BA10A68826174
:1063A0008A8882838979817784F834600121A163A6
:1063B00005634563856316A10968016380F834505D
:1063C000681EE06380216846FEF726FF4C222146C6
:1063D0006846FEF708FF802269460F48FFF798FFDE
:1063E0000EA001F023F814A0A16B01F01FF820B05B
:1063F000002070BD083400203132312E352E31346A
:10640000302E313236000000696E697400000000E1
:1064100076312E320000000000C00308464C415384
:10642000485F577269746520535543434553532160
:1064300021212121210D0A00696E6974466163746E
:106440006F7279506172616D6574657273203D3D44
:10645000202564200D0A00002DE9F0470F46002A90
:1064600070D00C2A6ED8066844688568C168D0F878
:106470001090D0F814A0BBB301EB0208B8F1180FCC
:1064800019D3A8F11808012C16D0032C14D0052C10
:1064900012D0072C10D0082C0ED00A2C0CD0042CB3
:1064A00011D0062C0FD0092C0DD00B2C0BD0022CA8
:1064B00010D00C2C1CD066E01F2D01D26D1C62E0A8
:1064C0000125641C5FE01E2D01D26D1C5BE00125DF
:1064D000641C58E01D2D08D01C2D03D1F0B200F033
:1064E000D4F910B16D1C4EE00AE0012503244AE006
:1064F0001F2D01D26D1C46E001250124761C42E0CF
:10650000914202D3A1EB02083DE0A1EB020808F1A1
:106510001808022C17D0042C15D0062C13D0082CE8
:1065200011D0092C0FD00B2C0DD0052C12D0072C1C
:1065300010D00A2C0ED00C2C0CD0032C11D0012C16
:106540001AD020E028E0012D01D96D1E1BE01F2587
:10655000641E18E0012D01D96D1E14E01E25641E75
:1065600011E0012D03D1F0B200F08FF908B16D1EDA
:1065700009E01C25022406E0012D01D96D1E02E070
:106580001F250C24761E3E607C60BD60C7F80C8021
:10659000C7F81090C7F814A0BDE8F0872DE9F041C6
:1065A0000022CC7804F00F03E40601D58C78234355
:1065B0000C784FF00F0714F0FF0F4FF0010C1CD0B8
:1065C00005680CFA02F40E882640A64211D1960006
:1065D00007FA06F825EA080503FA06F848EA050569
:1065E000CE78282E02D0482E02D002E0446100E08E
:1065F0000461521C082AE4D305600A88FF2A1ED9C8
:106600004568002202F108060CFA06F40E882640BE
:10661000A64210D1960007FA06F825EA080503FA03
:1066200006F848EA0505CE78282E00D14461CE78D8
:10663000482E00D10461521C082AE3D34560BDE80E
:10664000F0810246002092680A4200D00120704783
:10665000416170470161704710B500F071F8BDE805
:10666000104000F001B8000010B58CB001210846C0
:1066700000F0FAF9154801901548029000200390A7
:106680004FF40061049105908021069107900890D5
:1066900020210991C9010A910B900E4C01A92046B5
:1066A000FFF74AFD00F018F8012206212046FFF707
:1066B00039FD01212046FFF799FC044801224021C1
:1066C000001F00F083FD0CB010BD00000448004026
:1066D000CD0000203000024008B54FF4C06000F04B
:1066E0009DF90D208DF8000001208DF8010000219A
:1066F0008DF802108DF80300684600F05DF908BDC2
:1067000070B54FF480663046FFF7FAFC0B4D01245C
:1067100028B16C703046BDE87040FFF75BBC4FF4A9
:1067200000763046FFF7ECFC002805D02C70304690
:10673000BDE87040FFF74EBC70BD00002C0000208B
:1067400010B586B00121082000F0B8F901218804B5
:1067500000F098F94FF48060ADF8140018208DF81F
:10676000170003208DF81600144C05A92046FFF7EA
:1067700015FFE114ADF8141004218DF8171005A9C8
:106780002046FFF70BFF4FF4E13001900020ADF8F9
:106790000800ADF80A00ADF80C00ADF810000C20B0
:1067A000ADF80E00064C01A9204600F0ADFD012118
:1067B000204600F0FFFC06B010BD0000000C0140B8
:1067C00000480040FEE70A21B0FBF1F201FB120293
:1067D000B0FBF1F002EB0010C0B2704700B5A1B001
:1067E000802101A8FEF718FD144800214167816748
:1067F000C167C0F880100E2211A17430FEF7F3FCBF
:10680000134841F6BB51C0F884110521C0F8881126
:10681000802101A8FEF700FD08494C22703101A833
:10682000FEF7E1FC802201A90A48FFF771FD0AA0EA
:1068300000F0FCFD21B0002000BD000098330020D6
:106840003132312E352E3134302E313236000000C7
:106850009832002000C003084950464C4153485F1D
:106860005772697465205355434345535321212181
:106870002121210D0A00000003E010F8013B01F87E
:10688000013B521E92B2F8D2704700F5FA608107C0
:1068900001D0002070474FF4C871B0FBF1F201FB4A
:1068A000120131B16421B0FBF1F201FB12000028AA
:1068B000F0D00120704700002DE9F0410126264C60
:1068C000002800D026702078DFF89080244D4FF407
:1068D000004778B120214046FFF7B3FE88B1394622
:1068E0002846FFF7AEFE60B101212846FFF7A9FE5A
:1068F000012806D020214046FFF7A3FE01281DD025
:1069000028E00A2001F08AFD002020702021404666
:10691000FFF797FE58B139462846FFF792FE48B177
:1069200001212846FFF78DFE012805D012E0012045
:10693000BDE8F0810220FBE70320F9E7394628464D
:10694000FFF77FFE012805D101212846FFF779FED8
:1069500000B926700020EBE7340000200010014051
:106960000008014070B504460121242000F0A6F87B
:106970004FF4807020801026E6700325A570214614
:106980000848FFF70BFE02202080E670A570214624
:10699000054C2046FFF702FE2046BDE8704002216C
:1069A000FFF758BE0008014000100140FEE77047A5
:1069B0004FF4A06000F032B870B50F23C278012602
:1069C0000178002A1ED0144A126802F4E062C2F56F
:1069D000E062120AC2F10404D3404578A5408278EF
:1069E0001A402A43120101F1E02181F800240078C5
:1069F00000F01F018E404009800000F1E020C0F847
:106A0000006170BD01F01F0086404809800000F160
:106A1000E020C0F8806170BD0CED00E00249084341
:106A200002490860704700000000FA050CED00E024
:106A300010B504460121102000F040F8022020800B
:106A40001020E0700320A0702146054C2046FFF77F
:106A5000A5FD2046BDE810400221FFF7FBBD000068
:106A60000010014070470000054A002903D0516919
:106A70000143516170475169814351617047000082
:106A800000100240054A002903D0D1690143D161B9
:106A90007047D1698143D161704700000010024006
:106AA000054A002903D0116901431161704711693A
:106AB000814311617047000000100240054A00291F
:106AC00003D091690143916170479169814391615C
:106AD0007047000000100240054A002903D0D16829
:106AE0000143D1607047D1688143D1607047000095
:106AF0000010024010B5264A516801F00C01254BE8
:106B0000002927D0042927D0082927D003605168FD
:106B100001F0F0010909204B5C5C0168E140416033
:106B2000546804F4E064240A1C5D21FA04F48460CF
:106B3000546804F46054E40A1B5DD940C160526893
:106B400002F44042920B144B1B1F9A5CB1FBF2F112
:106B5000016110BD0360DAE70360D8E7516801F412
:106B60007011536803F48033022404EB914133B174
:106B700053689B0307D5094B59430160C7E7074B8F
:106B800059430160C3E7034B59430160BFE700006D
:106B90000010024000127A001800002000093D0099
:106BA000F0B50025002416E0065D7D2E03D10719FF
:106BB0007F78022F02D07D2E06D009E07E26671B4B
:106BC000D655641C6D1C05E007197F78012F08D08D
:106BD000671BD655641C8C42E6D3481B1860002006
:106BE000F0BD7D26671BD655641C6D1CF2E770470F
:106BF000AFF300800CB50022019200922748016893
:106C000041F4803101604FF4A063016801F4003168
:106C100000910199491C0191009911B9019999427A
:106C2000F3D10168890302D50121009100E00092AF
:106C30000099012930D11A490A6842F010020A600D
:106C40000A6822F003020A600A6842F002020A603F
:106C50004168416041684160416841F48061416040
:106C6000416821F47C114160416841F4E8114160C0
:106C7000016841F08071016001688901FCD54168BB
:106C800021F003014160416841F002014160416827
:106C9000C1F381010229FAD10CBD000000100240AD
:106CA000002002404FF0E021042804D0086920F0C1
:106CB000040008617047086940F0040008617047EB
:106CC00010B50F48016841F00101016041680D4AAB
:106CD0001140416001680C4A11400160016821F4D3
:106CE00080210160416821F4FE0141604FF41F01E1
:106CF0008160FFF77DFF06490448086010BD000071
:106D0000001002400000FFF8FFFFF6FE00500008F0
:106D100008ED00E010B5094C0121204600F0ADF867
:106D2000012809D106480168491C01602046BDE8D8
:106D30001040012100F092B810BD00000004004096
:106D40002800002010B5174C0121204600F095F8CE
:106D5000002825D00121204600F080F8124B134A6C
:106D60001878A0B11178491CC9B21170814217D1AD
:106D7000002010701870508840F4004050800020AF
:106D800000F042F8BDE81040632000F055B850888C
:106D900040F400405080BDE81040002000F034B8BE
:106DA00010BD0000000800403A000020360000201E
:106DB0007FB504460D4601210420FFF763FEADF8C0
:106DC0000440ADF800500020ADF80600ADF8020018
:106DD0000C4C6946204600F069F801221146204615
:106DE00000F057F81E208DF80C0001208DF80D00E2
:106DF00002218DF80E108DF80F0003A8FFF7DCFDBF
:106E00007FBD00000008004010B50A4A00280AD0E3
:106E100014460021204600F046F82046BDE8104008
:106E2000012100F01EB8BDE810400021104600F01E
:106E300018B800000008004010B5044600210648BC
:106E400000F031F804492C31088800220A800A88B1
:106E500022430A8010BD000000080040C94301829F
:106E60007047002904D0018841F00101018070477A
:106E7000018821F001010180704702460020138A39
:106E80000B4092890A40002B02D0002A00D001203A
:106E90007047002A03D082890A4382817047828921
:106EA0008A438281704781847047000030B5028830
:106EB0001B4C1C4DA0420DD0A8420BD0B0F1804F0E
:106EC00008D0194B984205D0184B984202D0184B65
:106ED000984203D122F070034A881A43154B984216
:106EE00006D0154B984203D022F44073CA881A4347
:106EF00002808A8882850A880285A0420AD0A84238
:106F000008D00E4A904205D00D4A904202D00D4A58
:106F1000904201D1097A01860121818230BD0000B1
:106F2000002C0140003401400004004000080040F3
:106F3000000C0040001000400014004000400140E0
:106F400000440140004801407FB505460E4601213E
:106F50000220FFF797FD0024ADF80A40ADF8064087
:106F6000ADF80850ADF804600E4D01A92846FFF7B2
:106F70009DFF012211462846FFF78BFF1D218DF84A
:106F8000001001218DF803108DF8014003218DF8C8
:106F900002106846FFF710FD01212846FFF761FF48
:106FA0007FBD00000004004070B58CB006460C4662
:106FB000154601210846FFF757FD3046FFF724F834
:106FC00001940295102003900021049105918020E6
:106FD000069007910891099140010A900B9101A92F
:106FE0003046FFF7A9F80CB070BD70B504460D46E9
:106FF00000212046FEF7FAFF29462046FFF7B9F8A0
:107000002046BDE870400121FEF7F0BF70B5164C78
:1070100040F22551204600F03CF900280ED02046D1
:1070200000F0D0F9C1B2114A1088030406D4440418
:107030004FF0000307D50A2901D0138070BD40F43A
:107040000040108070BD0D290AD0094DC0F30D0419
:107050002955401C80B21080C728F3D9138070BD19
:1070600040F48040108070BD003801402E000020A8
:10707000CD08002070B5124C40F22551204600F09A
:1070800008F9002816D0204600F09CF9C5B20D4C36
:107090006088B0F5A05F0ED200210B48FFF703FF18
:1070A000608810B90120FFF7AFFE6088411C618045
:1070B00006490D5470BD40F40040608070BD000072
:1070C000004400403600002000080040981D0020C9
:1070D0002DE9F04186B0044601210420FFF7EEFCC3
:1070E00001214804FFF7CEFC2D4F384600F078F818
:1070F0000426ADF8106003258DF8125018208DF885
:107100001300DFF8A08004A94046FFF747FA0820E3
:10711000ADF810008DF8136004A94046FFF73EFA61
:1071200000940024ADF80440ADF80640ADF80840E6
:10713000ADF80C400C20ADF80A006946384600F066
:10714000E3F801228021384600F040F8164A391D44
:107150001648FFF729FF0121384600F02BF80122DD
:1071600040F22551384600F0B4F826208DF814007E
:1071700002208DF815008DF8165001208DF81700AB
:1071800005A8FFF719FC41F61F416320FFF710FE29
:10719000074844800020FFF737FE06B0BDE8F081C5
:1071A000004400400008014098090020800002408F
:1071B00036000020002904D0818941F400518181EA
:1071C0007047818921F4005181817047002A03D0E2
:1071D000828A0A4382827047828A8A438282704707
:1071E00010B5234988420AD101218C032046FFF7BC
:1071F00073FC2046BDE810400021FFF76DBC1D491F
:1072000088420AD101214C042046FFF749FC204660
:10721000BDE810400021FFF743BC174988420AD15E
:1072200001218C042046FFF73BFC2046BDE81040BE
:107230000021FFF735BC114988420AD10121CC0455
:107240002046FFF72DFC2046BDE810400021FFF747
:1072500027BC0B4988420AD101210C052046FFF7C3
:107260001FFC2046BDE810400021FFF719BC10BDEF
:10727000003801400044004000480040004C0040FD
:10728000005000400246002012880A4200D001202F
:10729000704770B5002440F66A12C1F3421301F042
:1072A0001F05012606FA05F2012B0CD0022B0DD08A
:1072B000838A1340090A8E40008830400BB100B128
:1072C0000124204670BD83891340F3E7038A1340ED
:1072D000F0E710B540F66A13C1F3421301F01F0442
:1072E0000121A140012B07D0022B07D014303AB165
:1072F00002680A43026010BD0C30F8E71030F6E770
:1073000002688A43026010BD30B585B004460D4660
:10731000208A4CF6FF710840E98801432182A08948
:107320004EF6F3110840A9882A8911436A8902435D
:107330001143A181A08A4FF6FF410840A98901436A
:10734000A1826846FFF7D6FB1D48844201D103980D
:1073500000E00298A189090408D500EBC00101EB07
:10736000001029684900B0FBF1F007E000EBC00114
:1073700001EB001029688900B0FBF1F06422B0FB3A
:10738000F2F109010B096FF018056B4300EB830064
:10739000A3891D044FF0320307D503EBC000B0FBF7
:1073A000F2F000F00700084306E003EB0010B0FB2A
:1073B000F2F000F00F000843208105B030BD00005E
:1073C000003801408088C0F308007047C1F308010D
:1073D00081807047FEE710B504462046FFF7F6FFB0
:1073E00080212046FFF74EFF0028F9D010BD2DE97F
:1073F000F04107460D46164600243846295DFFF742
:10740000EAFF641CB442F8D3BDE8F0810FB4054B29
:1074100010B503A9044A029800F08AFB10BC5DF87D
:1074200014FB00007D870008300000200FB4054BDE
:1074300010B503A9044A029800F072F910BC5DF877
:1074400014FB00007D870008300000200FB4084BBB
:1074500010B504A902AA039800F062F9044602A933
:10746000002000F030FF204610BC5DF814FB000047
:10747000C78200087CB5044600201D461646002938
:107480000BD0491ECDE90041044B6A4629463046DF
:1074900000F04EFB009A002111707CBDB182000803
:1074A00037B514460846064B6A46214600F040FBB5
:1074B00004466946002000F00BFF20463EBD000058
:1074C000D182000800487047BC00002002E008C8D4
:1074D000121F08C1002AFAD170477047002001E04E
:1074E00001C1121F002AFBD1704700002DE9FF5F88
:1074F00082B00021DDE90430020DDDF840B0034325
:1075000018D044F61050A2F2FF32424315141198DD
:1075100001281FD0A5EB0B00401C5FEA000A4FF0CA
:1075200000064E4FDFF83891B046504615D5CAF1E7
:10753000000413E0119801244AA3012801D16FEA45
:107540000B010298119AC0E90031C0E9024206B06D
:10755000BDE8F09FCBF10000DFE704460021404A80
:10756000491842EB0450CDE9001012E0E00707D0C3
:1075700032463B4640464946FDF7F2FF8046894683
:1075800032463B4610461946FDF7EAFF06460F46CF
:107590006410002CEAD1DDE90401DDE90023BAF131
:1075A000000F06DAFDF7DCFF42464B46FDF7D8FF39
:1075B00005E0FEF747F842464B46FEF743F804461F
:1075C0000E460022284BFEF741F903D84FF0FF305A
:1075D000014607E00022254B20463146FDF719FF02
:1075E000FEF7E0FA102409E0002C0ADB0A2200234F
:1075F000FDF7BAFD039B30321A55641E50EA0102B2
:10760000F2D1641C039AC4F111031444119A012AA3
:1076100003D0012208430DD10AE0084304D0002022
:107620004FF0110B119072E7A3EB0B056D1E0DE0EF
:107630005B4504DD4FF0000205F1010504E003DACB
:107640004FF00002A5F10105002AECD00298119933
:10765000C0E90231C0E9004579E7000000001440AC
:107660000000F03F300000000000F0430000E03F69
:1076700030380A2801D201207047002070470000EE
:10768000FEB5002402F114052E1F331F06290BD06E
:10769000082914D0092912D00A2910D010A003F00B
:1076A0002FFDCCB10020FEBDCDE9006515A204F090
:1076B00061FE032801D00024F3E70124F1E718322A
:1076C000CDE90065029212A204F054FE042801D014
:1076D0000024E6E70124E4E74FF0FF30FEBD0000A0
:1076E0005061727365206F662074696D65206572E4
:1076F000726F722028666F726D6174206572726F8E
:10770000722921002532642532642532640000008C
:107710002532642532642532642E25640000000081
:107720002DE9FF4F8DB00F460546002606E02528BF
:107730000BD0DDE90F1290476D1C761C28780028CD
:10774000F5D111B03046BDE8F08F0024A246A14625
:107750000122EC4900E0044315F8013F203B02FA06
:1077600003F00842F7D128782A2810D06FF02F02B2
:107770002878A0F13001092914D80AEB8A0102EB1C
:10778000410144F0020400EB010A6D1CF0E701CF57
:107790005FEA000A03D544F40054CAF1000A44F039
:1077A00002046D1C28782E2817D115F8010F44F01B
:1077B00004042A280ED06FF02F022878A0F130019F
:1077C00009290AD809EB890102EB410100EB010903
:1077D0006D1CF2E757F8049B6D1C28786C280FD0BD
:1077E00006DC4C2817D068280DD06A2814D104E094
:1077F000742810D07A280FD10DE044F400140AE068
:1078000044F4801401E044F440146978814202D1C8
:1078100004F580146D1C6D1C2A786E2A1FD00CDCB8
:10782000632A31D004DC002A8BD0582A11D1A3E07E
:10783000642A68D0692A0CD165E0732A2ED004DC52
:107840006F2A73D0702A04D19BE0752A6FD0782AF2
:107850006ED01046DDE90F129047761C50E1C4F35C
:107860000250022806D0032809D0042801CF09D0ED
:10787000066045E101CFF117C0E9006140E101CFA9
:1078800006803DE106703BE117F8040B8DF800001F
:1078900000208DF80100EB46012003E057F804BBFF
:1078A0004FF0FF3061074FF0000102D40DE008F106
:1078B0000101884649450FDA8045F8DB1BF80810BE
:1078C0000029F4D108E008F1010188468142FADB81
:1078D0001BF808100029F6D1DDE90F23AAEB0800F8
:1078E0008146214600F0B6FC304400EB080604E077
:1078F000DDE90F121BF8010B9047B8F10108F7D230
:1079000021464846F7E00A21C4F302534FF0000B2A
:107910000891022B04D001CFC117032B09D00AE034
:10792000FF1D27F00707F7E8020108E032E01FE03B
:1079300020E000B2C117042B01D140B2C117031ED1
:1079400071F1000307DA4FF0000CD0EB0C006CEB88
:1079500001012D2302E0230504D52B238DF82430CB
:10796000012303E0E30701D02023F7E7984658E01E
:107970000A2110E010210EE010204FF0000B0890BB
:107980000CE010214FF0000B44F004044FF0080904
:10799000089103E008214FF0000B0891C4F3025353
:1079A000022B04D001CF0021032B06D006E0FF1DDF
:1079B00027F00707F7E8020103E080B2042B00D1AB
:1079C000C0B24FF0000823072BD5702A07D0DDF88E
:1079D00020C08CF0100C5CEA0B0C05D00EE04023AC
:1079E0008DF82430012308E050EA010306D030234B
:1079F0008DF824308DF8252002239846DDF820C02C
:107A00008CF0080C5CEA0B0C0BD150EA010301D19D
:107A1000630706D530238DF824304FF00108A9F113
:107A20000109582A04D038A20B9208AA0A920BE046
:107A30003AA2F9E75B46089AFDF796FB0B9B9B5C25
:107A40000A9A521E0A92137050EA0102F2D10A9861
:107A5000ADEB000000F1200B600702D524F4803468
:107A600001E04FF00109D94502DDA9EB0B0000E070
:107A7000002000EB0B0141440890AAEB010AE0034F
:107A800006D4DDE90F232146504600F0E3FB06440F
:107A90004FF0000908E009A911F80900DDE90F120B
:107AA000904709F10109761CC145F4DBE0030CD5D0
:107AB000DDE90F232146504600F0CCFB064404E0EC
:107AC000DDE90F1230209047761C0899481E089077
:107AD0000029F5DC08E00A980A990078491C0A9107
:107AE000DDE90F129047761CBBF10001ABF1010BF1
:107AF000F1DC21465046DDE90F2300F087FB064408
:107B00006D1C1BE60928010030313233343536371D
:107B100038396162636465660000000030313233D9
:107B20003435363738394142434445460000000079
:107B30002DE9FF4F95B09B468946064600250FE28A
:107B4000252877D100242746F84A0121059400E032
:107B5000044316F8013F203B01FA03F01042F7D12D
:107B600030782A2811D06FF02F033078A0F130023E
:107B7000092A16D8059A44F0020402EB820203EBAC
:107B800042021044761C0590EFE759F8042B059249
:107B9000002A03DA504244F40054059044F00204F1
:107BA000761C30782E2816D116F8010F44F0040404
:107BB0002A280DD06FF02F023078A0F13003092B66
:107BC00009D807EB870302EB4303C718761CF3E7DA
:107BD00059F8047B761C30786C280FD006DC4C28D2
:107BE00017D068280DD06A2814D104E0742810D06A
:107BF0007A280FD10DE044F400140AE044F4801414
:107C000001E044F440147278824202D104F58014F9
:107C1000761C761C307866280BD013DC582877D079
:107C200009DC002875D04528F6D04628F4D047282E
:107C30001AD19DE118E0632835D0642879D06528F1
:107C400012D195E1702873D008DC6728F1D069283B
:107C50006FD06E280DD06F2806D1B5E073282CD0D8
:107C6000752875D0782874D05A46179990476D1C9E
:107C700075E1C4F30250022809D003280DD0D9F8C9
:107C8000001004280DD00D6009F1040967E1D9F84E
:107C90000010EA17C1E90052F6E7D9F800100D808C
:107CA000F2E70D70F0E719F8041B8DF800100020C2
:107CB0008DF80100EA46012003E059F804AB4FF0CB
:107CC000FF3061074FF0000102D40DE008F101011F
:107CD0008846B9420FDA8045F8DB1AF80810002907
:107CE000F4D108E008F1010188468142FADB1AF874
:107CF00008100029F6D105985B46A0EB080721463D
:107D00003846179A00F0BDFA284400EB080507E052
:107D10004DE029E10DE01AF8010B5A4617999047FA
:107D2000B8F10108F7D25B4621463846179A13E1AD
:107D300042E00A220092C4F302524FF0000A022AE3
:107D400008D059F804CB032A4FEAEC710AD00DE0B1
:107D500029E02AE009F1070121F00702F2E802C157
:107D6000914609E00FFA8CFC4FEAEC71042A03D12A
:107D70004FFA8CFC4FEAEC71002907DA0A46002121
:107D8000DCF1000C61EB02012D2202E0220504D59A
:107D90002B228DF80420012203E0E20701D02022EB
:107DA000F7E7904659E00A2102E010220DE0102189
:107DB0004FF0000A00910BE010224FF0000A44F04F
:107DC00004040827009203E008224FF0000A009202
:107DD000C4F30252022A05D059F804CB0021032A29
:107DE00008D009E009F1070121F00702F2E802C119
:107DF000914605E01FFA8CFC042A01D10CF0FF0C1F
:107E00004FF00008220728D5702806D0009B83F089
:107E1000100353EA0A0305D00EE040228DF8042037
:107E2000012208E05CEA010206D030228DF804202D
:107E30008DF8050002229046009B83F0080353EA68
:107E40000A030AD15CEA010201D1620705D530229A
:107E50008DF804204FF001087F1E582804D034A06C
:107E600003900EA802900DE036A0F9E75346604655
:107E7000009AFDF779F984460398825C0298401EC7
:107E8000029002705CEA0100F0D1029806A9081A7B
:107E900000F1200A600702D524F4803400E00127B5
:107EA000574502DDA7EB0A0000E0002000EB0A01C5
:107EB000009005984144401A0590E00306D45B46C3
:107EC0002146179A059800F0DCF90544002706E0E2
:107ED00001A85A46C05D179990476D1C7F1C474505
:107EE000F6DBE0030CD55B462146179A059800F0B7
:107EF000C8F9054404E030205A46179990476D1C94
:107F00000099481E00900029F5DC08E002980299CB
:107F10005A460078491C0291179990476D1CBAF196
:107F20000001AAF1010AF1DC65E100000928010065
:107F300030313233343536373839616263646566DF
:107F400000000000303132333435363738394142A1
:107F5000434445460000000000F06AF90544761CE1
:107F6000307800287FF4ECAD19B02846BDE8F08FDA
:107F7000620700D4062709F1070222F0070CFCE88B
:107F80000223E14603F000485FEA080C02D00FF23A
:107F9000702C0DE05FEA045C02D50FF2682C07E05C
:107FA0005FEAC47C02D00FF2602C01E0AFF2700CEB
:107FB0004FF0FF3823F00043CDF850C065280CD0B7
:107FC00006DC452809D046281DD047283DD13DE094
:107FD000662818D067287ED138E00021112F01DBF8
:107FE000112000E0781CCDE9000106A90EA8FFF7DA
:107FF0007DFADDE90F010E9A03910021009207F14D
:10800000010A04914DE04FF000400097CDE90110C6
:1080100006A90EA8FFF76AFADDE90F0203920E9B8C
:1080200011990022DDF80CA00093049211B9791C7B
:1080300000EB010AB7EB0A0004D4C0F1FF3007F1EE
:10804000010A0490AAEB0700019044E0012F00DA36
:1080500001270021112F01DD112000E03846CDE974
:10806000000106A90EA8FFF741FADDE90F010E9AFB
:108070000391002104910092BA4621070CD4039980
:10808000514500DA8A46BAF1010F05DD009AAAF1DE
:108090000101515C302908D0B84202DA10F1040F16
:1080A00006DA0121CDE9011015E0AAF10101E9E7A5
:1080B000002805DC049901440491AAEB000102E0C8
:1080C000411C514500DD8A460499401A401C01902C
:1080D0004FF000400290200704D40198504501DB86
:1080E000CDF8048000208DF84F0002980DF14F0765
:1080F000B0F1004F25D02B200E9002984FF00208CF
:1081000000280CDA404202902D200E9007E00A2150
:108110000298FDF7CFFB3031029007F8011DB8F14E
:108120000001A8F10108F2DC02980028EFD1791EC5
:108130000E980870307800F0200040F0450007F8F5
:10814000020D12A8C01B00F107081498007800B1B6
:10815000012000EB0A01019801EBE0710598414410
:10816000401A401E0590E00306D45B462146179A4C
:10817000059800F086F805441498007818B15A461E
:10818000179990476D1CE00324D55B462146179A4A
:10819000059800F076F805441CE00498002807DBF9
:1081A000DDE90301884203DD0098405C179901E096
:1081B000179930205A469047049805F10105401C54
:1081C00004900198401E019004D12E205A46179920
:1081D00090476D1CBAF10001AAF1010ADDDC05E04F
:1081E00017F8010B5A46179990476D1CB8F100011A
:1081F000A8F10108F4DC5B462146179A0598ABE626
:108200002D0000002B000000200000002DE9F041AF
:10821000044600251E461746880404D405E0394666
:108220002020B0476D1C641EF9D52846BDE8F081BA
:108230002DE9F041044600251E461746880404D463
:1082400005E039462020B0476D1C641EF9D528464C
:10825000BDE8F0812DE9F041044600251E46904618
:10826000C80301D5302700E02027880404D505E0A5
:1082700041463846B0476D1C641EF9D52846BDE816
:10828000F0812DE9F041044600251E469046C803C2
:1082900001D5302700E02027880404D505E04146B9
:1082A0003846B0476D1C641EF9D52846BDE8F081FC
:1082B0004A68002A06D00A68531C0B601070486890
:1082C000401E486070470A68531C0B60107070476E
:1082D0000A68531C0B6010707047000000B5A1B015
:1082E000802101A8FCF798FF0B494FF0AA30C1F894
:1082F000AC01802101A8FCF78FFF4C22074901A89F
:10830000FCF771FF802201A90548FEF701F805A0DE
:10831000FFF78CF821B000BD98320020083400200F
:1083200000C00308626F6F745F6C6F616465725F99
:10833000666C6167207772697465205355434345C5
:1083400053532121212121210D0A000010B5094B91
:10835000094C1A68914202D94FF0000010BD04D1B7
:10836000605402F101021A6000E060544FF0010015
:1083700010BD000098000020D0340020044A034BB8
:1083800011685854491C116070470000D034002017
:108390009800002070B505460E46002D01D000243F
:1083A00005E0002070BD285DFFF7E8FF641CB442C3
:1083B000F9D3012070BD000010B54FF4806103486F
:1083C000FCF72AFF02490020086010BDD0340020CD
:1083D000980000200221FFF7DDBF0421FFF7DABF7C
:1083E00010B56FF00400FEF75DFC0948094900680C
:1083F000B0FBF1F00849C0B2087000EB4002C2EBDC
:10840000C0104FF6FF7202EAC000488010BD0000A5
:108410000000002000127A00800000200B494988EB
:1084200048434FF0E021486100238B61086940F028
:10843000010008610869C20701D0C003FAD50869C4
:1084400020F0010008618B6170470000800000206F
:1084500001460020054A1288130406D5044BC2F3D6
:108460000E0298541846FCF7E2BE70473800002010
:10847000981D00202DE9F041ADF6080D00240027DD
:10848000454D00262E804FF47A70009043A343A2FE
:1084900044A145A000F0DAF82E804FF4FA683FA31B
:1084A0003EA240A141A0CDF8008000F0CFF82E8080
:1084B0003AA33AA23BA13FA0CDF8008000F0C6F855
:1084C0002E8005E02E806420FFF7A8FF641CE4B234
:1084D00032A332A23AA13EA0CDF8008000F0B6F857
:1084E000012801D00A2CEDD32E800A2C4CD02BA3CE
:1084F0002CA23AA13CA0CDF8008000F0A7F82E8075
:10850000C820FFF78BFF25A324A226A139A0CDF810
:10851000008000F09BF82E80C820FFF77FFF1FA38C
:108520001EA220A136A0CDF8008000F08FF82E808A
:10853000C820FFF773FF4FF4006102A8FCF76CFE40
:10854000334834A100F5BA72D0F8843102A8FEF79E
:108550007DFF12A313A238A102A8CDF8008000F07D
:1085600075F804462E80C820FFF758FF2E80012C96
:108570000CD0022C0AD0032C08D0012F06D00020EA
:108580000DF6080DBDE8F0810020F9E721462CA08A
:10859000FEF74CFF0120F3E7380000204E554C4C0D
:1085A000000000004F4B0000415400004154453092
:1085B0000000000041542B4350494E3F0000000092
:1085C0000D0A2B435245473A20302C310000000061
:1085D00041542B435245473F0D0A00002B4347416E
:1085E00054543A203100000041542B434741545425
:1085F0003F0D0A0041542B51494143543F0D0A009D
:1086000041542B5149434C4F53453D300D0A000016
:108610009832002041542B51494F50454E3D312C4A
:10862000302C22544350222C222573222C25642CDA
:10863000302C320D0A000000434F4E4E454354008B
:10864000646174613D25640D0A0000002DE9F05F4E
:108650000A9C0746894692469B4600252E4EA84610
:10866000A6F80080FF2F07D82C48D0F884100029E6
:10867000FBD12B48078007E039462AA004F046F8D2
:10868000394628A0FEF7D2FE284FA4F580604C386A
:1086900005D10B20387042F20F70FEF7CDFBB9F117
:1086A000000F00D07CBBBBF1000F00D05CBBBAF167
:1086B000000F2FD03CBB2DE0787828B10020FEF7CA
:1086C000FBF80546032D10D00A20FFF7A7FE3088DF
:1086D00000041BD516A11748FEF798FE4846FFF781
:1086E000B7FE20B10120BDE8F09F0220FBE7504615
:1086F000FFF7AEFE08B10220F5E75846FFF7A8FEE7
:1087000010B10320EFE701E0A6F80080641E240406
:10871000240CD1D12846E6E73800002000000240B2
:108720000444004025730D0A000000003A000020B8
:108730000D0A0000981D00207047000010B5024689
:1087400000200021044B33F81140944200D1012055
:10875000491C0929F7DB10BD8400002010B5024632
:1087600000200021044B33F81140944200D1012035
:10877000491C0A29F7DB10BDA000002004490A8823
:108780005206FCD5024AC1B2121D1180704700008A
:108790000038014010B5002821D0114B0022001FE5
:1087A000196803E0814203D80A4649680029F9D1D3
:1087B00052B11368841A9C4204D1006818441060B6
:1087C000104602E0506000E0186039B102680B1AF0
:1087D000934203D10B681A4402604968416010BD9E
:1087E000B400002070B505460E4609A0FEF71EFE37
:1087F000002405E0295D09A0FEF718FE641CA4B260
:10880000B442F7DBBDE8704005A0FEF70FBE0000E4
:108810000D0A496E666F3A200000000025630000D3
:108820000A000000F0B5A1B007460D4614468021AD
:1088300001A8FCF7F1FC002F24D0002D22D0681CE9
:1088400002F0B8F806462A4639463046FCF7CBFC1B
:10885000307884F8A401802101A8FCF7DDFC4C22CB
:1088600004F5B87101A8FCF7BEFC802201A90648F6
:10887000FDF74EFD94F8A41104A0FEF7D7FD304695
:10888000FFF788FF21B0F0BD00C0030868616E6487
:108890006C655F436172506C617465436F6C6F729D
:1088A000203D3D3D3D20307825303278200D0A00B6
:1088B000F0B5A1B006460D461446802101A8FCF78C
:1088C000ABFC002E2ED0002D2CD0681C02F072F8CC
:1088D00007462A4631463846FCF785FC0020C4F896
:1088E0009801C4F89C01C4F8A0012A4604F5CC7094
:1088F00039460546FCF777FC802101A8FCF78CFC83
:108900004C2204F5B87101A8FCF76DFC802201A986
:108910000548FDF7FDFC294604A0FEF787FD384613
:10892000FFF738FF21B0F0BD00C0030868616E6436
:108930006C655F436172506C6174654E756D203D6E
:108940003D3D3D202573200D0A000000F0B5A1B08B
:1089500006460D46144680216846FCF75DFC002E55
:108960002CD0002D2AD0284602F024F807462A46AB
:1089700031463846FCF737FC2A46394620A8FCF732
:1089800032FCBDF88000FDF7F7FBA4F896018021CA
:108990006846FCF741FC4C2204F5B8716846FCF7C8
:1089A00022FC802269460648FDF7B2FCB4F8961115
:1089B00004A0FEF73BFD3846FFF7ECFE21B0F0BD0A
:1089C00000C0030868616E646C655F43697479492F
:1089D00044203D3D3D3D202564200D0A000000005F
:1089E000F0B5A1B006460D46144680216846FCF756
:1089F00013FC002E2BD0002D29D0284601F0DAFFE1
:108A000007462A4631463846FCF7EDFB2A463946EA
:108A100020A8FCF7E8FB2098FDF7B3FBC4F88C0115
:108A200080216846FCF7F8FB4C2204F5B8716846D3
:108A3000FCF7D9FB802269460648FDF769FC06A0D1
:108A4000D4F88811FEF7F2FC3846FFF7A3FE21B0F8
:108A5000F0BD000000C0030868616E646C655F448F
:108A6000656661756C7454696D655265706F72747A
:108A700054696D65496E74657276616C203D3D3D4B
:108A80003D202564200D0A00F0B5A1B006460D4634
:108A9000144680216846FCF7BFFB002E31D0002D24
:108AA0002FD0284601F086FF07462A463146384631
:108AB000FCF799FB2A46394620A8FCF794FB20983E
:108AC000FDF75FFB1E2800D31E20022800D80220DD
:108AD000C4F8880180216846FCF79EFB4C2204F50F
:108AE000B8716846FCF77FFB802269460648FDF7AF
:108AF0000FFC06A0D4F88811FEF798FC3846FFF763
:108B000049FE21B0F0BD000000C0030868616E643A
:108B10006C655F44656661756C7454696D6552651A
:108B2000706F727454696D65496E74657276616CAC
:108B3000203D3D3D3D202564200D0A00F0B5A1B04B
:108B400004460F46154680216846FCF765FB002C5D
:108B50002BD0002F29D0384601F02CFF06463A468C
:108B600021463046FCF73FFB3A46314620A8FCF749
:108B70003AFB2098FDF705FB0446C5F870018021FB
:108B80006846FCF749FB4C2205F5B8716846FCF7CE
:108B90002AFB214606A0FEF749FC802269460D48C3
:108BA000FDF7B6FB3046FFF7F5FD21B0F0BD000044
:108BB00068616E646C655F4865617274426561747A
:108BC000496E74657276616C203D3D3D3D202564A3
:108BD000200D0A0000C00308F0B5A1B006460D46FE
:108BE0001446802101A8FCF717FB002E30D0002D81
:108BF0002ED0681C01F0DEFE07462A463146384674
:108C0000FCF7F1FA0020C4F87401C4F87801C4F844
:108C10007C01C4F880012A4604F5BA70394605463D
:108C2000FCF7E1FA802101A8FCF7F6FA4C2204F5E2
:108C3000B87101A8FCF7D7FA802201A90548FDF711
:108C400067FB294604A0FEF7F1FB3846FFF7A2FDBB
:108C500021B0F0BD00C0030868616E646C655F4DB3
:108C600061696E536572766572416464726573738F
:108C7000203D3D3D3D202573200D0A00F0B5A1B0FB
:108C800006460D46144680216846FCF7C5FA002EBC
:108C90002BD0002D29D0284601F08CFE07462A460D
:108CA00031463846FCF79FFA2A46394620A8FCF799
:108CB0009AFA2098FDF765FAC4F890018021684679
:108CC000FCF7AAFA4C2204F5B8716846FCF78BFA57
:108CD000802269460648FDF71BFB06A0D4F89011D8
:108CE000FEF7A4FB3846FFF755FD21B0F0BD0000AC
:108CF00000C0030868616E646C655F4D61785370F5
:108D0000656564203D3D3D3D202564200D0A000041
:108D1000F0B5A1B006460D46144680216846FCF722
:108D20007BFA002E2CD0002D2AD0284601F042FEDE
:108D300007462A4631463846FCF755FA2A46394650
:108D400020A8FCF750FABDF88000FDF715FAA4F84A
:108D5000940180216846FCF75FFA4C2204F5B87153
:108D60006846FCF740FA802269460648FDF7D0FACB
:108D7000B4F8941104A0FEF759FB3846FFF70AFD3A
:108D800021B0F0BD00C0030868616E646C655F507F
:108D9000726F76696E63654944203D3D3D3D2025F7
:108DA00064200D0A00000000F0B5A1B006460D4693
:108DB000144680216846FCF72FFA002E2BD0002D98
:108DC00029D0284601F0F6FD07462A4631463846A6
:108DD000FCF709FA2A46394620A8FCF704FA20983D
:108DE000FDF7CFF9C4F8840180216846FCF714FA36
:108DF0004C2204F5B8716846FCF7F5F98022694603
:108E00000648FDF785FA06A0D4F88411FEF70EFB9C
:108E10003846FFF7BFFC21B0F0BD000000C00308DA
:108E200068616E646C655F536572766572506F72CF
:108E300074203D3D3D3D202564200D0A00000000CA
:108E400010B5044648F203020D490EA0FEF7EEFAF3
:108E500001F0D2F98CB10D21B4F82401800400D5C1
:108E600011210E484218405C527802EB0020A4F811
:108E7000E000FDF76AFA002010BD4FF0FF3010BD92
:108E800053C900085B25735D206D73675F696420BB
:108E90003D203078253034780D0A0000D03800208D
:108EA00010B548F20122034903A0FEF7BFFA0020E3
:108EB00010BD000020CA00085B25735D206D73673C
:108EC0005F6964203D203078253034780D0A000039
:108ED00010B540F20122034903A0FEF7A7FA0020D3
:108EE00010BD00001DC900085B25735D206D736710
:108EF0005F6964203D203078253034780A00000016
:108F000010B548F20612034903A0FEF78FFA0020BD
:108F100010BD0000CAC900085B25735D206D736732
:108F20005F6964203D203078253034780D0A0000D8
:108F300010B548F20412034903A0FEF777FA0020A7
:108F400010BD0000ACC900085B25735D206D736720
:108F50005F6964203D203078253034780D0A0000A8
:108F600010B54FF48272034903A0FEF75FFA0020A8
:108F700010BD0000D3C800085B25735D206D7367CA
:108F80005F6964203D203078253034780A00000085
:108F90001FB5044600200290039054F8A00FFDF77F
:108FA000F0F8019001A8FFF718FA6068FDF7E9F8FA
:108FB000019001A8FFF711FAA068FDF7E2F801900F
:108FC00001A8FFF70AFAE068FDF7DBF8019001A8B5
:108FD000FFF703FA208AFDF7CFF800906846FFF705
:108FE000F9F9608AFDF7C8F800906846FFF7F2F9D2
:108FF000A08AA03CFDF7C0F800906846FFF7EAF9A8
:1090000004F1B6000446FCF724F9024602A9204602
:1090100001F04AF8062102A8FFF7BCF93020FFF75B
:10902000ADF90120FFF7AAF95320FFF7A7F9312086
:10903000FFF7A4F90120FFF7A1F90B20FFF79EF934
:10904000E020FFF79BF90120FFF798F90320FFF7D5
:1090500095F9EE20FFF792F90120FFF78FF9022032
:10906000FFF78CF9282004B010BD000010B50028CF
:1090700016D00D210289920400D511210A4B00F56A
:109080008E705A18595C547804EB01218180D17894
:10909000937801EB0321418011790170002010BD0C
:1090A0004FF0FF3010BD0000D03800202DE9F84F00
:1090B000814601F0A1F848F20312214921A0FEF7F0
:1090C000B5F94FF0FF32B9F1000F11D00D20B9F80A
:1090D00024118B0400D51120C1F3090159B1DFF827
:1090E0007C8018F80070401C84B237B1002522E063
:1090F0001046BDE8F88F1046FBE71046F9E708EB8D
:10910000040000680090FDF73CF88246241DA4B2DC
:109110005046FFF723FB18F80460641CA4B2012832
:1091200006D1F2B208EB04014B46504600F074FF42
:10913000A01984B26D1CBD42E1DB0020D9E700001C
:109140008EC900085B25735D206D73675F696420BD
:109150003D203078253034780D0A0000D0380020CA
:1091600070B50446D4F86C01FCF773F805464FF46B
:109170008172054905A0FEF759F92946D4F86C011A
:10918000FFF708F9284670BDB4C800085B25735D79
:10919000206D73675F6964203D2030782530347816
:1091A000200D0A0010B548F20512034903A0FEF78E
:1091B0003DF9002010BD0000F0C900085B25735D7B
:1091C000206D73675F6964203D20307825303478E6
:1091D0000D0A000038B5044605250122124913A0E6
:1091E000FEF724F9FE34E08EFCF7C6FF00906846D7
:1091F000FFF7F0F8E18E14A0FEF718F9A08CFCF749
:10920000BBFF00906846FFF7E5F8A18C14A0FEF7BD
:109210000DF914F8FE0CFFF7B1F8A17F16A0FEF7C8
:1092200005F9284638BD000064C800085B25735D59
:1092300020206D73675F6964203D203078253034CD
:1092400078200D0A0000000020666C6F775F6E7555
:109250006D203D3D20307825303478200D0A000007
:10926000206D73675F6964203D3D20307825303480
:1092700078200D0A0000000020726573706F6E6523
:109280005F726573756C74203D3D203078253032F7
:1092900078200D0A000000000020704710B503225E
:1092A000024903A0FEF7C2F8002010BD9DC80008C7
:1092B0005B25735D203C6E6F206D65737361676520
:1092C00020626F64793E206D73675F6964203D2082
:1092D0003078253034780D0A0000000038B5044697
:1092E0004FF480721C491DA0FEF7A0F8204600F044
:1092F0003DF92525E08BFCF73FFF00906846FFF71E
:1093000069F8208CFCF738FF00906846FFF762F898
:10931000052104F12200FFF73DF8142104F1270094
:10932000FFF738F8072104F13B00FFF733F894F812
:109330004200FFF723F894F8420050B104F14300D3
:109340000446FBF786FF054629462046FFF722F82C
:109350002535284638BD000084C800085B25735DAC
:10936000206D73675F6964203D2030782530347844
:10937000200D0A0070B504464FF401421D491EA09D
:10938000FEF754F8ECB10D20B4F82411890400D58F
:1093900011201F490D18085C6A7802EB002082B288
:1093A000A4F8202113491BA0FEF740F8AA7884F8FE
:1093B0001C21104920A0FEF739F894F81C0118B1BF
:1093C00016E04FF0FF3070BD04F592742088C0F3B2
:1093D0000900C01E86B2701C01F0ECFAA064E91C02
:1093E0003246FBF700FF03491BA0A26CFEF71EF8F4
:1093F000002070BD6DC900085B25735D206D73672B
:109400005F6964203D203078253034780D0A0000F3
:10941000D03800205B25735D20726573706F6E65B8
:109420005F666C6F775F6E756D20203D203078250C
:109430003034780D0A0000005B25735D207265737F
:10944000706F6E655F726573756C7420203D20309F
:1094500078253032780D0A005B25735D20617574C4
:1094600068656E7469636174696F6E5F636F64656C
:10947000203D2025730D0A0010B548F20812054959
:1094800005A0FDF7D3FF00F0A5FFFEF727FF0020A2
:1094900010BD000008CA00085B25735D206D73676E
:1094A0005F6964203D203078253034780D0A000053
:1094B00010B54FF48472064906A0FDF7B7FF0020EF
:1094C000FEF75CFF0020FEF759FF042010BD0000EE
:1094D000F9C800085B25735D206D73675F696420C0
:1094E0003D203078253034780A00000070B50546FC
:1094F0000C4608A0FDF79AFF0D4E356029460DA0D9
:10950000FDF794FF74602146BDE8704010A0FDF7A0
:109510008DBF00000A0D5B496E69744C6F63617406
:10952000696F6E496E666F5D204F4B20210D0A00FA
:1095300038330020706172612D3E616C61726D2E56
:1095400076616C7565203D2025640D0A00000000E1
:10955000706172612D3E7374617475732E76616CE7
:109560007565203D2025640D0A00000070B5044695
:1095700029A0FDF75BFFB4F89411E1832EA0FDF75D
:1095800055FFB4F89611218435A0FDF74FFF05254E
:1095900004F1220029460646FBF73EFE2A463AA180
:1095A0003046FBF720FE314639A0FDF73FFF0B2583
:1095B00004F1270029460646FBF72EFE2A463FA166
:1095C0003046FBF710FE31463FA0FDF72FFF94F821
:1095D000A41184F8421047A0FDF728FF94F8420038
:1095E00078B14334D4F855012060D4F85901606053
:1095F000D4F85D01A060433C04F1430149A0FDF7AC
:1096000015FF16A0FDF712FF51A0FDF70FFFBDE8F3
:10961000704012A0FDF70ABF0D0A5B20696E6974E5
:109620005265676973746572496E666F205D204F7D
:109630004B20210D0A000000706172612D3E7265A1
:109640006769737465725F696E666F2E70726F768C
:10965000696E63655F6964203D2025640D0A000022
:10966000706172612D3E72656769737465725F69BE
:109670006E666F2E636974795F6964203D202530C2
:1096800034640D0A0000000058494E4441000000B7
:10969000706172612D3E72656769737465725F698E
:1096A0006E666F2E6D616E7566616374757265723C
:1096B0005F6964203D2025730D0A00005A58494116
:1096C000542D435A30310000706172612D3E726535
:1096D0006769737465725F696E666F2E7465726D0B
:1096E000696E616C5F6D6F64656C203D2025730D44
:1096F0000A000000706172612D3E726567697374C3
:1097000065725F696E666F2E6361725F706C617403
:10971000655F636F6C6F72203D2030782530327842
:109720000D0A0000706172612D3E72656769737485
:1097300065725F696E666F2E6361725F706C6174D3
:10974000655F6E756D203D2025730D0A00000000D9
:10975000E6B3A8E5868CE4BFA1E681AFE69BB4E65C
:1097600096B0E5AE8CE688900D0A0000F0B5A1B089
:109770000546802101A8FBF74FFD3B4E802201A941
:109780003046FDF779F839484C210746FBF744FD90
:10979000802201A93846FBF726FD354CC4F8A851B4
:1097A000294634A0FDF742FED4F8A80178B9FCF7A9
:1097B000CDFD802201A93046FDF75EF84C213846E8
:1097C000FBF72AFD802201A93846FBF70CFD31A0EA
:1097D000FDF72CFE38A0FDF729FE24493FA04031BB
:1097E000FDF724FE34A0FDF721FE2AA0FDF71EFEA2
:1097F00004F5B87441A02168FDF718FE1B4946A086
:10980000091DFDF713FE4CA06169FDF70FFE4FA087
:10981000A169FDF70BFE57A0E169FDF707FE5FA008
:10982000216AFDF703FEA18C61A0FDF7FFFDE18C2D
:1098300064A0FDF7FBFD0D4966A02831FDF7F6FD9C
:1098400094F8341069A0FDF7F1FD6FA0E16BFDF70E
:10985000EDFD0FA0FDF7EAFD73A0FDF7E7FD0CA0FD
:10986000FDF7E4FD21B0F0BD00C00308083400207E
:1098700098320020696E6974466163746F72795022
:109880006172616D6574657273203D3D20256420B1
:109890000D0A00002D2D3E2D2D2D2D2D2D2D2D2D84
:1098A0002D2D2D2D2D2D2D2D2D2D2D2D2D2D2D2DE8
:1098B0002D2D0D0A000000002D2D3E2020202020FF
:1098C0002020202020202020202020202020202098
:1098D0002020202020200D0A000000002D2D3E20F9
:1098E00020202020202056657273696F6E203D2055
:1098F0002573202020202009090D0A004865617287
:109900007442656174496E74657276616C203D3D88
:10991000202564200D0A00004D61696E5365727642
:10992000657241646472657373203D3D2022257326
:1099300022200D0A00000000536572766572506F98
:109940007274203D3D202564200D0A004465666147
:10995000756C7454696D655265706F727454696D7D
:1099600065496E74657276616C203D3D20256420EA
:109970000D0A0000436F726E6572506F696E74520B
:10998000657472616E736D697373696F6E416E6732
:109990006C65203D3D202564200D0A004D61785303
:1099A00070656564203D3D202564200D0A0000009F
:1099B00050726F76696E63654944203D3D20256491
:1099C000200D0A00436974794944203D3D202564F7
:1099D000200D0A00436172506C6174654E756D20F4
:1099E0003D3D202573200D0A0000000043617250A8
:1099F0006C617465436F6C6F72203D3D2025303281
:109A000078200D0A00000000626F6F745F6C6F6158
:109A10006465725F666C616720203D202030782588
:109A20006C78200D0A000000696E697453797374B4
:109A3000656D506172616D65746572732053554335
:109A4000434553532121212121210D0A000000000B
:109A5000F0B504460F463B460A2615E02078FCF791
:109A6000ACFA0546B5FBF6F030301870581C397862
:109A7000302900D13846B5FBF6F106FB11513031E3
:109A800000F8011B0346641C521E501CE6D13846E8
:109A9000F0BD0146CA884FF0FF30B2F5817F25D076
:109AA0000BDC012A19D0022A1AD0032A1BD0B2F5E6
:109AB000807F27D10846FFF711BCB2F5827F18D00E
:109AC000B2F5847F18D0B2F5007F18D0A2F50072ED
:109AD000013A17D10846FFF7FBB90846FFF77ABBF2
:109AE0000846FFF7D9BB0846FFF7D8BB0846FFF783
:109AF00037BB0846FFF734BA0846FFF7D9BC08461B
:109B0000FFF746BA704730B40146B1F822314FF042
:109B1000FF3048F204141A1BA34227D00EDC6FF466
:109B200000429A1816D0022A18D0FF2A1AD0B2F58D
:109B3000817F2BD130BC0846FFF7B8BA012A1DD06F
:109B4000022A17D0042A1DD0FD2A1FD130BC084696
:109B5000FFF7A6B930BC0846FFF788BA30BC084604
:109B6000FFF76EB930BC0846FFF704BC30BC0846AE
:109B7000FFF7DEB930BC0846FFF7C2B930BC084673
:109B8000FFF710BB30BC0846FFF776BC30BC70470F
:109B90003EB504460020009001902088FCF7ECFAC6
:109BA000029002A8FEF716FC6088FCF7E5FA029026
:109BB00002A8FEF70FFC201DFBF74BFB024669468F
:109BC000201D00F071FA06216846FEF7E3FB608A6B
:109BD000FCF7D2FA0290022102A8FEF7DBFB6088B4
:109BE000800411D5A08A01280ED9FCF7C5FA02908D
:109BF000022102A8FEF7CEFBE08AFCF7BDFA029034
:109C0000022102A8FEF7C6FB00203EBD2DE9F0416F
:109C100005460F4614464FF0FF38002C01D00F2F99
:109C200005D21DA0FDF702FC4046BDE8F081A878F2
:109C3000697800EB012020802879E97800EB012089
:109C4000608000266660A660E6600622211D681D11
:109C5000FFF7FEFE80B1287BE97A00EB01206082ED
:109C60006088810404D5C0F30900381A132808D08D
:109C7000A682E6820020D8E70FA0FDF7D7FB40467A
:109C8000D3E7A87B697B00EB0120A082287CE97BDD
:109C900000EB0120E082EDE76D73675F686561644A
:109CA000203D3D204E554C4C207C7C20696E5F6CE5
:109CB000656E203C203135006A7438303842636468
:109CC000546F537472696E67436F6D70726573730E
:109CD000206572726F72200D0A00000070B5044694
:109CE000FEF76AFB00F0DCF9A01DFFF751FF4FF013
:109CF000FF35002804DA16A0FDF798FB284670BD52
:109D00002046FFF7C6FE014600291FDBA01D00F01C
:109D10001DF9002804DA0EA0FDF788FB284670BD67
:109D2000134801681348491EFCF73CF9FEF726FB6F
:109D30007E20FEF723FB00F031F9002804DA0EA0A4
:109D4000FDF774FB284670BD002070BD284670BD2D
:109D50006A743830384672616D6548656164506177
:109D6000636B616765204641494C4544200D0A00FC
:109D700098000020D13400205B6A743830384D736D
:109D8000674573636170655D204641494C454400F9
:109D9000F8B50D4614464FF0FF36002C1CD0014696
:109DA0002A462A48FBF71FFA294F3D6000952846AE
:109DB00000F000FE054628460099FBF72DFA6B4699
:109DC0002A4622483968FCF7EBFE002809DA21A070
:109DD000FDF72CFB3046F8BD24A0FDF727FB3046ED
:109DE000F8BD00993960C91E681CFCF7DBF80099C2
:109DF0006A1812F8022C904204D020A0FDF716FB3E
:109E00003046F8BD04F591722846FFF7FFFE20B1F9
:109E10001FA0FDF70BFB3046F8BDD4F82601C4F8AF
:109E20000A00D4F82A01C4F80E00B4F82E016082AA
:109E300094F8300120752046FFF765FE044615B101
:109E40002846FEF7A7FC2046F8BD0000D0380020C9
:109E50009C0000205265766572736545736361707E
:109E6000655F43204552524F520D0A007061726186
:109E7000203D3D204E554C4C200D0A00426363436B
:109E80006865636B53756D204552524F520D0A0041
:109E90006A743830384672616D6548656164506136
:109EA000727365204552524F520D0A0010B54FF49F
:109EB000007002F047FB0C480C4902680C48FDF7A3
:109EC00096FA0C4C0CA02168FDF7B0FA10A061685E
:109ED000FDF7ACFA218914A0FDF7A8FA618916A054
:109EE000FDF7A4FA002010BD98000020D034002017
:109EF00000440040403300206C61746974756465EF
:109F0000202A2031653620093D2025640D0A0000F5
:109F10006C6F6E676974756465202A203165362020
:109F20003D2025640D0A0000616C746974756465D8
:109F3000203D2025640D0A007370656564202A2089
:109F40003130203D2025640D0A0000001CB50A4672
:109F50000E4909680C2905D20DA0FDF767FA4FF0EC
:109F6000FF301CBD40880090BDF8000062F309007E
:109F70000090FCF701F9019007489DF80410C170AA
:109F80009DF80510017100201CBD00009800002004
:109F90002564200D0A000000D034002038B5174A8F
:109FA00000211170164D2868024402F8011C40007F
:109FB000009000F0FFFC04466B4622460F482968DB
:109FC000FCF7ECF8002806DA0E490FA0FDF72EFA90
:109FD0004FF0FF3038BD7E2020700099214401F8F9
:109FE000010C21460548009AFBF7FDF8009828600F
:109FF00014B12046FEF7CEFB002038BDD03400203F
:10A000009800002044C900085B25735D2046414943
:10A010004C4544200D0A000030B40C4611461A4647
:10A0200055282BD012DC182820D007DC012819D0A5
:10A03000132833D1204630BCFEF7CEBD292819D0D5
:10A0400030282BD1204630BCFEF7CABC812819D05D
:10A0500082281BD083281DD084281FD1204630BCE5
:10A06000FEF7E0BB204630BCFEF768BD204630BCA2
:10A07000FEF79ABE204630BCFEF706BD204630BC37
:10A08000FEF7FCBD204630BCFEF742BE204630BC89
:10A09000FEF75CBC204630BCFEF70ABC30BC704703
:10A0A00000217E20FEF752B930B504460D462B46FE
:10A0B000D00715D014F8010B3038C0B2FCF783FB81
:10A0C00003F8010B0CE0303800EB800040006178B1
:10A0D000A41C08443038C0B2FCF775FB03F8010B30
:10A0E00020780028EFD11870284630BD2DE9F05FA8
:10A0F00082460024DFF88890DFF888B0DFF8888097
:10A10000224D4FF481760027304602F01BFA204999
:10A110005846D9F80020FDF76AF94FF47A70FEF737
:10A120007DF9288801041AD5C0F30E012980194849
:10A1300002F052FA98F81C0188B9B8F81E01B04232
:10A140000DD10120CAF8000013A0FDF76FF913A08C
:10A15000FDF76CF910A0FDF769F92F800CE02F8056
:10A16000641C0DA0FDF762F917A0FDF75FF90AA0C6
:10A17000FDF75CF9032CC7DB0020BDE8F09F000071
:10A180009800002000440040983200203800002051
:10A19000D0340020981D00200D0A00005465726D17
:10A1A000696E616C41757468656E74696361746928
:10A1B0006F6E2053554343455353212121212121C3
:10A1C00021210D0A000000005465726D696E616CFA
:10A1D00041757468656E7469636174696F6E204659
:10A1E00041494C45442052455452592121212121B5
:10A1F0002121210D0A00000010B5012002F0A2F972
:10A200000748084902680848FDF7F1F807A0FDF77C
:10A210000DF94FF47A70FEF701F9002010BD00002F
:10A2200098000020D0340020004400406A74383088
:10A23000385465726D696E616C47656E6572616CEC
:10A24000526573706F6E7365207265706F727420E3
:10A2500053554343455353210D0A000010B50220C6
:10A2600002F070F90348044902680448FDF7BFF89A
:10A27000002010BD98000020D03400200044004091
:10A2800010B5032002F05EF9054806490268064849
:10A29000FDF7ADF805A0FDF7C9F8002010BD0000DE
:10A2A00098000020D0340020004400406A74383008
:10A2B000385465726D696E616C4C6F674F757420B0
:10A2C0007265706F72742053554343455353212177
:10A2D00021200D0A000000002DE9F05F81460024D6
:10A2E000DFF88880DFF888B0224F234D4FF4807A62
:10A2F0000026504602F026F920495846D8F800209A
:10A30000FDF775F84FF47A70FEF788F82888010495
:10A310000DD5C0F30E012980194802F05DF997F8B8
:10A320001C0120B9B7F82201B0F5014F0FD02E80E3
:10A3300014A0FDF77BF814A0FDF778F811A0FDF745
:10A3400075F8641C032CD4DB0020BDE8F09F0120CD
:10A35000C9F800000BA0FDF769F814A0FDF766F836
:10A3600008A0FDF763F82E80EEE7000098000020BB
:10A37000004400409832002038000020D0340020F3
:10A38000981D00200D0A00005465726D696E616CA5
:10A39000526567697374657220535543434553533F
:10A3A0002121212121210D0A000000005465726D38
:10A3B000696E616C526567697374657220535543A9
:10A3C00043455353212121212121212121210D0AFE
:10A3D0000000000010B548F2081002F0B3F805487C
:10A3E000054902680548FDF702F805A0FDF71EF8CB
:10A3F000002010BD98000020D03400200044004010
:10A400006A743830385465726D696E616C4C6F6770
:10A410004F7574207265706F7274205355434345B5
:10A420005353212121200D0A00000000D2B0ADF5C8
:10A43000805D0DF580540020C4F840018146C4F8C9
:10A440003C91C4F838918246C4F83401C4F8300114
:10A45000D7A0D0E90032D0E90210C4F80031C4F826
:10A460000421C4F80811C4F80C0100260DF6EC40D4
:10A4700001F049FDFCF79CFAFDF7B2FFFC342046E1
:10A48000FCF7D6FA4FF47A70FDF7C8FF4FF4E135C8
:10A49000284602F059F92846FCF71AFEFCF7DCF8CA
:10A4A0002046FCF75FFAC6A0FCF7C0FFC5A0FCF78A
:10A4B000BDFFC3A0FCF7BAFFDFF820B34FF00008E0
:10A4C0000027C74CC4F800900120FFF74FF90C217A
:10A4D000C4A002F0CFF80821C6A002F0A1F80DF543
:10A4E0008050D0F8400190B9FDF7C4FF012802D098
:10A4F000FCF774F9E2E7C1A0FCF798FF0DF5805175
:10A500000120C1F840014FF4FA60FDF787FF0DF517
:10A510008050D0F83C0148B941F23C106844FFF744
:10A52000DBFE0DF58050D0F83C0128B10DF58050D0
:10A53000D0F8380118B10CE002F0D4F8BEE741F2CF
:10A5400038106844FFF7D2FD0DF58050D0F838017F
:10A55000F8B10DF58050D0F83011D0F83401FEF785
:10A56000C5FF02F055F841F61F4142F20F70FCF7AB
:10A57000EBFCA74C207878B10DF5D1634FF48062E5
:10A58000A4490DF6EC4000F0E7FE84F800900126A7
:10A5900011E002F0A7F891E79F4C207858B10DF533
:10A5A000D1634FF480629D490DF6EC4000F0D4FE7B
:10A5B00084F800900126012E29D14FF4CC620DF5CC
:10A5C000D16102A8CDF86866FAF70DFE0DF5885442
:10A5D00004F11400031DCDE900041A1D111D1430EF
:10A5E00000F0E8FC82460DF5805101F58A7107C93B
:10A5F000CDE900210DF58051CDE9020401F59072FD
:10A6000001F594710CCA03C902F0F0F80026DBF8DA
:10A610008C01FBF797F80DF5805204460D46D2F8F1
:10A620001011D2F81401FAF7BCFEFBF7E4F821F0A0
:10A63000004122462B46FBF709F90CD80DF5805254
:10A64000D2F81401C2F810017548DBF88C11FCF740
:10A65000EDFEFFF72BFC624CDBF888012168884295
:10A6600010D8BAF1010F19D06EA0FCF7DFFEFFF78A
:10A67000F5FDC4F8009008F101084FF480717348AB
:10A68000FBF7E6FF724C208801047DD5C0F30E0174
:10A690002180704802787E2A0ED074E06EA0FCF70C
:10A6A000C5FEFFF703FCC4F800907F1C4FF48071D7
:10A6B0006648FBF7CFFFE5E7084410F8010C7E2859
:10A6C00061D1644801F088FF9BF81C0180B9BBF898
:10A6D0001E01B0F5007F0BD1002739A0FCF7A6FEC4
:10A6E00068A0FCF7A3FE36A0FCF7A0FEA4F800903B
:10A6F0009BF81C0180B9BBF81E0102280CD14FF059
:10A7000000082FA0FCF792FE6EA0FCF78FFE2CA095
:10A71000FCF78CFEA4F80090BBF82201A0F50141E3
:10A72000033907D0A0F5014108390FD09BF81C016F
:10A73000C0B128E022A0FCF779FE6FA0FCF776FEFE
:10A740001FA0FCF773FEFFF79BFDB7E61CA0FCF70C
:10A750006DFE74A0FCF76AFE19A0FCF767FEFFF718
:10A760008FFDABE6BBF81E0103280CD114A0FCF74B
:10A770005DFE76A0FCF75AFE11A0FCF757FEA4F888
:10A78000009001F0AFFF00E001E0A4F80090052F79
:10A7900003DAB8F1050FFFF6ECAE394676A0FCF708
:10A7A00045FE41467CA0FCF741FE01F09BFF85E69B
:10A7B0003730303130313030303030300000000050
:10A7C0000D0A000053595354454D20494E49542019
:10A7D000535543434553530D0A000000983200205F
:10A7E00028000020313030323231303030323036D3
:10A7F0000000000031303030323036007365727640
:10A80000657220636F6E6E65637465640D0A000087
:10A810002D000020CD0000202C000020CD040020C1
:10A82000D0CA0008486561727442656174212121B3
:10A8300021212121212121212121212121212053D7
:10A840005543434553530D0A0000000000080140E2
:10A8500038000020981D00206C6F636174696F6E72
:10A860005265706F72742121212121212121212122
:10A870002121212121212120535543434553530DAB
:10A880000A000000506C6174666F726D2067656E1F
:10A890006572616C20726573706F6E7365206C6F8A
:10A8A000636174696F6E207265706F72742070617D
:10A8B0007273652053554343455353212121210D84
:10A8C0000A2000006A743830385465726D696E6110
:10A8D0006C486561727442656174207265706F7254
:10A8E000742070617273652053554343455353215F
:10A8F000212121200D0A20005365745465726D6971
:10A900006E616C506172616D657465727320706107
:10A910007273652053554343455353212121210D23
:10A920000A2000006B5465726D696E616C5570672A
:10A9300072616465207061727365205355434345AD
:10A940005353212121210D0A200000006A74383060
:10A95000385465726D696E616C4C6F674F75742009
:10A960007061727365205355434345535321212130
:10A9700021200D0A200000004C6F636174696F6E26
:10A980005265706F7274436F756E746572203D3DD1
:10A99000202564200D0A00004865617274426561DB
:10A9A00074436F756E746572203D3D202564200DE3
:10A9B0000A000000F0B50B30154D20F0070100240F
:10A9C000144A0FE003688B420BD38B4205D95E1A01
:10A9D00043184768C3E9006700E04368136002C09A
:10A9E00004E0021D10680028ECD12046002802D1A6
:10A9F000286808B10020F0BD064A07481060074AE1
:10AA0000121A22F00702C0E9002401202860D7E7CB
:10AA1000B8000020B4000020D43C0020D04C00201E
:10AA20002DE9F0410026383010F8382C4A62D0E980
:10AA30001A23C1E90A23D0E91C23C1E90C23D0E978
:10AA40001E233838C1E90E2300234FF0010C0022E9
:10AA500000EB83070DE0BC6854B102EB820501EB0B
:10AA60008505D5F87083444502D1C5F874C3761CBA
:10AA7000521CD1F86C439442EDDC5B1C252BE6DBC9
:10AA8000C1F86863086840F080000860BDE8F081A4
:10AA900070B5D0E900329A4233DC2523B3EB820F44
:10AAA0002FDB012A01DA012242608268C1F86C239F
:10AAB0004268521E92008368141DA34201DA9D1A57
:10AAC00000E00425002216E043685B1E02EB8303CE
:10AAD00002EB820403EB830300EB840401EB8303AA
