:020000040801F1
:10400000A0760020494101082B4E0108754C01089B
:10401000294E0108C9470108CD5E010800000000D3
:104020000000000000000000000000009955010899
:104030006F49010800000000B94E01086141010804
:1040400063410108634101086341010819520108F5
:1040500063410108634101086341010863410108AC
:10406000634101086341010863410108634101089C
:1040700063410108CB47010863410108634101081E
:10408000634101086341010863410108634101087C
:10409000634101086341010863410108634101086C
:1040A000634101086341010863410108634101085C
:1040B0006341010841580108715801086341010832
:1040C000634101086341010863410108634101083C
:1040D00063410108195B0108815B01086341010824
:1040E000634101086341010863410108634101081C
:1040F000634101086341010863410108634101080C
:1041000063410108634101086341010863410108FB
:1041100063410108634101086341010863410108EB
:1041200063410108634101086341010863410108DB
:10413000DFF810D000F0DEF900480047996601086A
:10414000AFF30080A076002006488047064800476D
:10415000FEE7FEE7FEE7FEE7FEE7FEE7FEE7FEE737
:10416000FEE7FEE7ED570108314101082DE9F05F58
:104170000546002092469B468846064681464024D6
:104180001BE0284641464746224600F00EF95346BA
:104190005A46C01A914110D311461846224600F0E3
:1041A000F5F82D1A67EB01084F4622460120002141
:1041B00000F0ECF817EB00094E41201EA4F10104B9
:1041C000DFDC484631462A464346BDE8F09F2DE9EC
:1041D000FE4F81EA030404F0004421F00041009402
:1041E0004FF0000B23F0004350EA01045ED052EA86
:1041F00003045BD0C3F30A54C1F30A552C44A4F260
:10420000F3340194A0FB0254C1F3130141F4801173
:10421000C3F3130343F4801301FB024400FB034E7A
:10422000840A970A44EA815447EA8357A4FB076843
:1042300002958D0A05FB07854FEA932C04FB0C546D
:104240002705029D4FEA065847EA1637B5EB0805E1
:104250006EEB070C870E920E47EA811742EA831233
:10426000A7FB0201B6EB0B0164EB00042B0D43EA44
:104270000C335E1844EB1C50DA465146E7FB020152
:10428000C5F313044FEA0B3343EA14534FEA0432E5
:10429000019C43EA0603A4F10C040294009CCDE9BE
:1042A00000B400F0D8F803B0BDE8F08F002001465C
:1042B000F9E770B521F0004303430CD0C1F30A5570
:1042C0000024D5EB040564EB0403D617AD1AB34103
:1042D00002DB0020014670BD201841EB025170BD89
:1042E0000EB540F2334102910021CDE900110A469A
:1042F0000B4600F0B0F803B000BD20F00040C10D47
:10430000C0F3160040F400007F2901DA0020704756
:10431000962903DCC1F19601C84070479639884060
:104320007047000030B5041E71F1000404DB4FF04B
:104330000044404264EB0101141E73F1000405DBEC
:104340001C464FF00043524263EB0403994208BFFE
:10435000904230BD01F0004330B421F0004150EAFA
:10436000010206D00A0DA2F56072C1F31301002A02
:1043700002DC30BC00207047440F44EAC104C10095
:10438000E01830BC00EBC25000F01FB8202A04DB5C
:10439000203A00FA02F1002070479140C2F1200358
:1043A00020FA03F3194390407047202A04DB203A97
:1043B00021FA02F00021704721FA02F3D040C2F145
:1043C000200291400843194670470029A8BF704752
:1043D000401C490008BF20F00100704710B4B0FA3B
:1043E00080FC00FA0CF050EA010404BF10BC7047D6
:1043F00049B1CCF1200421FA04F411FA0CF118BFF0
:10440000012121430843A3EB0C01CB1D4FEA0061BE
:104410004FEA102042BF002010BC704700EBC35091
:1044200010440029A4BF10BC7047401C490008BFBD
:1044300020F0010010BC704710B5141E73F1000489
:1044400008DA401C41F1000192185B411A4301D186
:1044500020F0010010BD2DE9F04D92469B4611B1B0
:10446000B1FA81F202E0B0FA80F220329046FFF712
:104470008DFF04460F4640EA0A0041EA0B0153460D
:104480005A46084313D0114653EA010019D0C8F127
:1044900040025046FFF789FF05460E4650465946F2
:1044A0004246FFF773FF084305D0012004E0204691
:1044B0003946BDE8F08D0020054346EAE0762C43FE
:1044C00037430A986305E40AA0EB08000022FD0ABE
:1044D00044EA47540A3002D500200146E9E70105C5
:1044E00010196941DDE9084500196941BDE8F04D41
:1044F000A2E70000064C074D06E0E06840F001032B
:1045000094E8070098471034AC42F6D3FFF714FE46
:10451000D0800108F080010870B58C1810F8015B9C
:1045200015F0070301D110F8013B2A1106D110F84C
:10453000012B03E010F8016B01F8016B5B1EF9D150
:104540002B0705D40023521E0DD401F8013BFAE7D6
:1045500010F8013BCB1A921C03E013F8015B01F841
:10456000015B521EF9D5A142D8D3002070BD0029AD
:1045700004D0816841F0010181607047816821F0B9
:10458000010181607047000010B5154988420AD1C9
:1045900044150121204600F0D3FC2046BDE8104020
:1045A000002100F0CDBC0F4988420AD10415012139
:1045B000204600F0C5FC2046BDE81040002100F078
:1045C000BFBC094988420AD10121CC03204600F032
:1045D000B7FC2046BDE81040002100F0B1BC10BD82
:1045E0000024014000280140003C01400146002019
:1045F0008968490700D501207047C06C80B27047B8
:104600000246002012680A4200D00120704701468D
:1046100000208968090700D50120704710B542685D
:104620000E4B1A400C790B6842EA04221343436094
:1046300082680B4B1A40D1E9024323434C7942EA8A
:10464000440213438360C26A22F47002097C491E4B
:10465000C9B242EA0151C16210BD0000FFFEF0FF85
:10466000FDF7F1FF70B5072609290AD9C568A1F140
:104670000A0404EB4404A640B543A3401D43C560AF
:1046800007E0056901EB4104A640B543A3401D4383
:1046900005611F23072A09D2446B521E02EB8202D6
:1046A00093409C4391400C43446370BD0D2A09D252
:1046B000046BD21F02EB820293409C4391400C4357
:1046C000046370BDC46A0D3A02EB820293409C43BE
:1046D00091400C43C46270BD816841F00801816063
:1046E0007047002904D0816841F4A00181607047BF
:1046F000816821F4A00181607047816841F0040164
:104700008160704730B587B0012148F2800000F029
:1047100009FC4FF4004000F0D1FB4FF48070ADF87D
:10472000040000248DF8074001A9164800F068F93C
:10473000154D2846FFF728FF02948DF80C408DF8A0
:104740000D404FF460210491059401218DF818105B
:1047500002A92846FFF762FF01212846FFF707FF5D
:104760002846FFF7B9FF2846FFF751FF0028FAD186
:104770002846FFF7C2FF2846FFF738FF0028FAD186
:1047800007B030BD001C0140003C014010B50120C5
:1047900000F0E4FBBDE81040002000F0DFBB0000AB
:1047A00008B50349084400900098008808BD00003F
:1047B000006C004008B5034A104400900098016066
:1047C00008BD0000006C0040FEE700F0C3B9000027
:1047D000C10002D50249086070470249486070472D
:1047E0000404024000000240002904D0016841F0A6
:1047F00001010160704701684FF6FE7211400160CF
:104800007047000001684FF6FE7211400160002100
:10481000016041608160C1603649364A0839904282
:1048200004D1486840F00F0048607047314A1432A4
:10483000904204D1486840F0F000486070472D4A2B
:104840002832904204D1486840F470604860704754
:10485000284A3C32904204D1486840F47040486095
:104860007047244A5032904204D1486840F4702086
:10487000486070471F4A6432904204D1486840F44F
:104880007000486070471B4A7832904204D14868F3
:1048900040F0706048607047174A111F904204D181
:1048A000086840F00F0008607047134A14329042C5
:1048B00004D1086840F0F000086070470E4A2832C2
:1048C000904204D1086840F47060086070470A4A5A
:1048D0003C32904204D1086840F470400860704750
:1048E000054A50329042FAD1086840F470200860BE
:1048F0007047000008000240080402400246002001
:10490000D10002D50449096801E00449096811424F
:1049100000D0012070470000000402400000024067
:10492000002A03D002680A430260704702688A4383
:104930000260704730B5026847F6F0739A430C6A1C
:104940008B682343D1E904452C4323438C692343DB
:10495000CC6923434C6A23438C6A2343134303608B
:10496000CA6842600A6882604968C16030BD7047A9
:10497000002240F27E4306E00021491C89B29942A0
:10498000FBD3521C92B28242F6D37047002101E061
:10499000491C89B28142FBD37047000070B50446C0
:1049A0000121B42000F0BEFA032525801026E67010
:1049B000A57021460F4800F023F822202080E670E1
:1049C000A57021460C4800F01BF880202080E6707E
:1049D000A5700A4E2146304600F012F8B01520802E
:1049E0000020E070A57021463046BDE8704000F020
:1049F00007B800000008014000100140001C014001
:104A00002DE9F0410022CC7804F00F03E40601D533
:104A10008C7823430C784FF00F0714F0FF0F4FF002
:104A2000010C1CD005680CFA02F40E882640A64240
:104A300011D1960007FA06F825EA080503FA06F8E8
:104A400048EA0505CE78282E02D0482E02D002E092
:104A5000446100E00461521C082AE4D305600A881E
:104A6000FF2A1ED94568002202F108060CFA06F456
:104A70000E882640A64210D1960007FA06F825EACD
:104A8000080503FA06F848EA0505CE78282E00D175
:104A90004461CE78482E00D10461521C082AE3D329
:104AA0004560BDE8F081416170470161704710B514
:104AB00000F070F8BDE81040AFF3008010B58CB086
:104AC0000121084600F004FA1548019015480290AB
:104AD000002003904FF4006104910590802106911D
:104AE0000790089020210991C9010A910B900E4C62
:104AF00001A92046FFF71EFF00F018F80122062149
:104B00002046FFF70DFF01212046FFF76DFE044808
:104B100001224021001F01F0DFF80CB010BD0000A1
:104B200004480040840100203000024008B54FF4E2
:104B3000C06000F0B1F90D208DF8000001208DF863
:104B4000010000218DF802108DF80300684600F086
:104B500071F908BD70B54FF480663046FFF7CEFEA0
:104B60000B4D012428B16C703046BDE87040FFF752
:104B70002FBE4FF400763046FFF7C0FE002805D068
:104B80002C703046BDE87040FFF722BE70BD0000BB
:104B90002C00002010B586B00121082000F0C2F9D9
:104BA0000121880400F0A2F94FF48060ADF81400F0
:104BB00018208DF8170003208DF81600144C05A955
:104BC0002046FFF71DFFE114ADF8141004218DF805
:104BD000171005A92046FFF713FF4FF4E1300190AD
:104BE0000020ADF80800ADF80A00ADF80C00ADF8F3
:104BF00010000C20ADF80E00064C01A9204601F073
:104C000003F90121204601F05BF806B010BD000059
:104C1000000C01400048004010B50B4C0146072332
:104C200001222046FFF71EFD01212046FFF759FD16
:104C300002212046FFF7E4FC0028F9D02046BDE819
:104C40001040FFF7DABC0000003C01402DE9F041C4
:104C500007460E460025002405E03846FFF7DCFF36
:104C60000544641CE4B2B442F7D3B5FBF6F080B25D
:104C7000BDE8F081FEE703E010F8013B01F8013BDD
:104C8000521E92B2F8D27047810701D000207047BF
:104C90006421B0FBF1F201FB120109B10120704760
:104CA0004FF4C871B0FBF1F201FB120008B1002013
:104CB0007047012070472DE9F04781460E461746A0
:104CC0009846B025284600F08FFC0021102000F007
:104CD000A1FC0024484600F0C3FC304600F0C0FCB4
:104CE000384600F0BDFC404600F0BAFC641CE4B25B
:104CF000212CEFD36D1CEDB2B82DE3D3BDE8F087C6
:104D0000F8B50121102000F00DF90A20ADF80000DF
:104D100010258DF8035003248DF80240304E69466B
:104D20003046FFF76DFE0A213046FFF7BEFE012137
:104D3000802000F0F7F80E20ADF800008DF8035049
:104D40008DF80240274C69462046FFF759FE0E2198
:104D50002046FFF7AAFE00F047F81420FFF708FEF0
:104D6000A02000F041FC1420FFF702FEC82000F054
:104D70003BFC1420FFF7FCFDA32000F035FC2720AE
:104D800000F032FC1721812000F044FC1420FFF7D2
:104D9000EFFD2C2000F028FC1420FFF7E9FD2E2069
:104DA00000F022FC1420FFF7E3FD2F2000F01CFC94
:104DB0001420FFF7DDFD602000F016FC002110201C
:104DC00000F028FCB02000F00FFCAF2000F00CFC3D
:104DD00000231A4619461846FFF76DFFF8BD00007C
:104DE00000100140001C014010B50E4C0821204667
:104DF000FFF759FE04212046FFF757FE0A20FFF770
:104E0000B7FD04212046FFF74EFE6420FFF7B0FDFA
:104E100004212046FFF749FEBDE810403220FFF78D
:104E2000A7BD0000001C0140FEE770474FF4A060E2
:104E300000F032B870B50F23C27801260178002A3D
:104E40001ED0144A126802F4E062C2F5E062120A4F
:104E5000C2F10404D3404578A54082781A402A4321
:104E6000120101F1E02181F80024007800F01F0117
:104E70008E404009800000F1E020C0F8006170BD64
:104E800001F01F0086404809800000F1E020C0F8D2
:104E9000806170BD0CED00E00249084302490860E2
:104EA000704700000000FA050CED00E001490862BF
:104EB0007047000000000E4270470000034A51682E
:104EC00021F440410143516070470000001002404E
:104ED000054A002903D05169014351617047516966
:104EE000814351617047000000100240054A0029CB
:104EF00003D0D1690143D1617047D1698143D16148
:104F00007047000000100240054A002903D01169D3
:104F100001431161704711698143116170470000BD
:104F200000100240054A002903D0916901439161B4
:104F30007047916981439161704700000010024001
:104F4000054A002903D0D1680143D1607047D16878
:104F50008143D160704700000010024001490860A1
:104F6000704700004004424210B5264A516801F0E3
:104F70000C01254B002927D0042927D0082927D048
:104F80000360516801F0F0010909204B5C5C016885
:104F9000E1404160546804F4E064240A1C5D21FA95
:104FA00004F48460546804F46054E40A1B5DD9403E
:104FB000C160526802F44042920B144B1B1F9A5C72
:104FC000B1FBF2F1016110BD0360DAE70360D8E7DD
:104FD000516801F47011536803F48033022404EB28
:104FE000914133B153689B0307D5094B5943016085
:104FF000C7E7074B59430160C3E7034B59430160BF
:10500000BFE700000010024000127A0018000020E4
:1050100000093D00034600205909094A01290AD028
:1050200002290AD0516A03F01F02012393400B4268
:1050300000D0012070471168F5E7116AF3E700001E
:1050400000100240084900220A7001F820290128B6
:1050500005D0042802D1052081F8200070470120E6
:1050600081F82000704700002010024001490860CC
:10507000704700003C04424202490A6A02430A6245
:10508000704700000010024002490A8882430A80EB
:1050900070470000042800400248018841F01001D8
:1050A00001807047042800400248018821F0100167
:1050B00001807047042800402DE9F04700F06AF8AD
:1050C0000646304FB6FBF7F32F48304D0188994222
:1050D00031D0038040F2B2744FF4B7784FF4B67910
:1050E0000FE02046FFF7D0FD38B1434502D3A3F5CA
:1050F000B77304E0641CA4B205E0A3F26D13641C52
:10510000A4B24B45EDD8AC800024DFF884800CE0DD
:10511000A888FFF7B9FD08B1012C2FD018F80400BA
:10512000984204D81B1A641CA4B21C2BF0D2641C35
:10513000AC715B1CEB71B6FBF7F007FB10604FF432
:105140006161B0FBF1F22A70B0FBF1F201FB1203D6
:105150003C22B3FBF2F36B70B0FBF1F301FB1300E5
:10516000B0FBF2F102FB1100A870EA79A979A888D6
:1051700000F02AF828720020BDE8F0871D2BD6D356
:105180001D3BD0E7805101003A0000205032002042
:10519000C4800108034800880249091F098840EAC1
:1051A000014070471C28004006490988C2B21140DE
:1051B000044A121F1288024202D009B1012070472E
:1051C000002070470428004030B56423B0FBF3F49E
:1051D000E4B2B0FBF3F503FB1500132C01D96430E6
:1051E000C0B200EB90030724B3FBF4F504FB1533C6
:1051F000084D1A440D4415F8015C2A4492B2800708
:1052000003D1032901D2521E92B2B2FBF4F004FB87
:10521000102030BDB88001080EB50120FFF7C4FF93
:1052200008B1FFF749FF0220FFF7BEFF88B1022057
:10523000FFF72AFFFFF740FF09488178427803789B
:10524000CDE900320291C3798279818805A000F00E
:1052500065FE0520FFF718FFBDE80E4000F01CB901
:1052600050320020416C61726D2054696D653A25A1
:10527000642D25642D25642025643A25643A25642F
:105280000A000000054A002903D01188014311805B
:10529000704711888143118070470000002800404A
:1052A0002DE9FC5F8046DDE90C67894692469B4606
:1052B000002401214FF0C050FFF718FE0120FFF736
:1052C000F5FD0420FFF76CFA45F25005A8423DD0E9
:1052D000FFF75CFA0120FFF7B5FE04E0641CE4B2BE
:1052E0000A2001F09DF84120FFF794FE08B9FA2C3E
:1052F000F4D3FA2C02D30120BDE8FC9F4FF4807058
:10530000FFF7BAFE0120FFF7B1FE00F0C5F800F08C
:10531000CBF801210846FFF7B5FF00F0BDF8FFF715
:10532000BBFE47F6FF7000F0A7F800F0B5F85B464B
:10533000524649464046CDE9006700F025F8FFF7A0
:10534000B3FE29460420FFF735FA07E000F0ACF879
:1053500001210846FFF796FF00F09EF800F004F8E0
:10536000FFF7AAFE0020C7E708B503208DF800006C
:1053700000208DF801008DF8020001208DF8030057
:105380006846FFF757FD08BD2DE9F05F0646DDF8DA
:1053900028A0894690460024A6F2B270822802D343
:1053A0000120BDE8F09F40F2B275274FDFF89CB0B6
:1053B00008E02846FFF768FC08B13C4400E05C4484
:1053C0006D1CADB2B542F4D3A9F1010909F0FF0794
:1053D0000025DFF87C90DFF87CB00FE019F80500BD
:1053E00040F2A321484304EBC0143046FFF74CFCC5
:1053F00010B1012D00D15C446D1CADB2BD42EDD3A6
:10540000A8F1010840F2A32008FB00F804EBC81043
:10541000C3EB4311C1EB032100EB0110CAEB0A11EE
:1054200000EB81000B99441801214FF0C050FFF7A9
:105430005DFD0120FFF73AFD204600F00DF800F079
:105440002BF80020ADE700000085E2018033E10188
:10545000C48001088051010000B50246FFF71CFE20
:105460000449100C0880081D02805DF804EBFFF76A
:105470001BBE00001828004000B50246FFF70CFED6
:105480000449C2F303400880081D02805DF804EB64
:10549000FFF70ABE08280040024801888906FCD5AB
:1054A00070470000042800400448018821F00801EA
:1054B000018001880907FCD57047000004280040DE
:1054C00010B5242210491148FFF7D5FB0E4C10A04F
:1054D0000834216800F022FD13A0616800F01EFD71
:1054E000218917A000F01AFD61891BA000F016FDAC
:1054F000A1891EA000F012FD04F10E01BDE81040CC
:1055000020A000F00BBD00009C33002000480308E1
:10551000706172612D3E6C61746974756465203DC3
:105520002025640D0A000000706172612D3E6C6FD1
:105530006E676974756465203D2025640D0A00005E
:10554000706172612D3E616C746974756465203D93
:105550002025640D0A000000706172612D3E737099
:10556000656564203D2025640D0A0000706172614C
:105570002D3E62656172696E67203D2025640D0ACB
:1055800000000000706172612D3E74696D65203D00
:105590002025730D0A0000007047000070B5054615
:1055A0000024104E280604D502213046FFF77DFA6C
:1055B00003E002213046FFF776FA08213046FFF774
:1055C00074FA0220FFF7E2F908213046FFF76BFA80
:1055D0000220FFF7DBF96806050E641CE4B2082C14
:1055E000E0D370BD0010014070B50546084C0221A3
:1055F0002046FFF758FA08212046FFF754FA2846BC
:10560000FFF7CCFF2046BDE870400821FFF74DBAF8
:10561000001C014070B506460D46104C0221204684
:10562000FFF741FA08212046FFF73DFA3046FFF721
:10563000B5FF08212046FFF738FA02212046FFF780
:1056400032FA08212046FFF72EFA2846FFF7A6FF78
:105650002046BDE870400821FFF727BA001C014032
:1056600070B50546084C02212046FFF71EFA0821B6
:105670002046FFF718FA2846FFF790FF2046BDE8BE
:1056800070400821FFF711BA001C0140AFF3008001
:105690000CB50022019200922748016841F4803144
:1056A00001604FF4A063016801F400310091019999
:1056B000491C0191009911B901999942F3D10168EE
:1056C000890302D50121009100E00092009901298F
:1056D00030D11A490A6842F010020A600A6822F0C2
:1056E00003020A600A6842F002020A6041684160EF
:1056F00041684160416841F480614160416821F442
:105700007C114160416841F4E8114160016841F059
:105710008071016001688901FCD5416821F00301B5
:105720004160416841F0020141604168C1F381017B
:105730000229FAD10CBD00000010024000200240F6
:105740002DE9F84306460D4614461F46DDF8208035
:105750001AE00090434622462946304600F07AFE81
:10576000B8F1100F17D0B8F1180F22D0A41DE4B271
:105770000F2C03D90F3CE4B26D1CEDB2182D02D9E9
:105780001025761CF6B27F1C3878A0F120015E2926
:10579000DFD9BDE8F8830834E4B20F2C03D90F3CFD
:1057A000E4B26D1CEDB2182DEDD91025761CF6B2C1
:1057B000E9E70C34E4B20F2C03D90F3CE4B26D1CC2
:1057C000EDB2182DDFD91025761CF6B2DBE74FF0CD
:1057D000E021042804D0086920F004000861704723
:1057E000086940F0040008617047000010B50F48D8
:1057F000016841F00101016041680D4A11404160BA
:1058000001680C4A11400160016821F480210160A7
:10581000416821F4FE0141604FF41F018160FFF7F0
:1058200035FF06490448086010BD00000010024022
:105830000000FFF8FFFFF6FE0040010808ED00E061
:1058400010B5094C0121204600F0ADF8012809D11E
:1058500006480168491C01602046BDE8104001214E
:1058600000F092B810BD00000004004028000020A5
:1058700010B5174C0121204600F095F8002825D0DE
:105880000121204600F080F8124B134A1878A0B18D
:105890001178491CC9B21170814217D100201070D3
:1058A0001870508840F400405080002000F042F80A
:1058B000BDE81040632000F055B8508840F4004027
:1058C0005080BDE81040002000F034B810BD00004A
:1058D0000008004038000020340000207FB5044656
:1058E0000D4601210420FFF701FBADF80440ADF89F
:1058F00000500020ADF80600ADF802000C4C6946DF
:10590000204600F069F801221146204600F057F8C1
:105910001E208DF80C0001208DF80D0002218DF85D
:105920000E108DF80F0003A8FFF784FA7FBD00006A
:105930000008004010B50A4A00280AD01446002189
:10594000204600F046F82046BDE81040012100F056
:105950001EB8BDE810400021104600F018B8000045
:105960000008004010B504460021064800F031F858
:1059700004492C31088800220A800A8822430A80C0
:1059800010BD000000080040C94301827047002993
:1059900004D0018841F0010101807047018821F0A5
:1059A00001010180704702460020138A0B40928952
:1059B0000A40002B02D0002A00D001207047002AA4
:1059C00003D082890A438281704782898A43828117
:1059D000704781847047000030B502881B4C1C4D15
:1059E000A0420DD0A8420BD0B0F1804F08D0194B87
:1059F000984205D0184B984202D0184B984203D1D8
:105A000022F070034A881A43154B984206D0154B72
:105A1000984203D022F44073CA881A4302808A88CD
:105A200082850A880285A0420AD0A84208D00E4A80
:105A3000904205D00D4A904202D00D4A904201D1C9
:105A4000097A01860121818230BD0000002C0140CD
:105A5000003401400004004000080040000C0040F9
:105A6000001000400014004000400140004401408C
:105A7000004801407FB505460E4601210220FFF790
:105A800035FA0024ADF80A40ADF80640ADF80850EC
:105A9000ADF804600E4D01A92846FFF79DFF0122D5
:105AA00011462846FFF78BFF1D218DF800100121BC
:105AB0008DF803108DF8014003218DF8021068461F
:105AC000FFF7B8F901212846FFF761FF7FBD00000D
:105AD0000004004070B58CB006460C461546012106
:105AE0000846FFF7F5F93046FEF78CFE0194029563
:105AF00010200390002104910591802006900791C9
:105B00000891099140010A900B9101A93046FEF7D6
:105B100011FF0CB070BD000070B5164C40F225515D
:105B2000204600F035F900280ED0204600F0CAF9D2
:105B3000C1B2114A1088030406D444044FF0000394
:105B400007D50A2901D0138070BD40F400401080B1
:105B500070BD0D290AD0094DC0F30D042955401C14
:105B600080B21080C728F3D9138070BD40F4804004
:105B7000108070BD003801402E00002084090020F4
:105B800070B5124C40F22551204600F001F9002872
:105B900016D0204600F096F9C5B20D4C6088B0F5DD
:105BA000A05F0ED200210B48FFF713FF608810B9E9
:105BB0000120FFF7BFFE6088411C618006490D543B
:105BC00070BD40F40040608070BD000000440040A3
:105BD0003400002000080040501E00202DE9F04154
:105BE00086B0044601210420FFF79CF901214804F6
:105BF000FFF77CF92D4F384600F078F80426ADF811
:105C0000106003258DF8125018208DF81300DFF86E
:105C1000A08004A94046FEF7F3FE0820ADF810006E
:105C20008DF8136004A94046FEF7EAFE00940024B4
:105C3000ADF80440ADF80640ADF80840ADF80C40B2
:105C40000C20ADF80A006946384600F0DDF8012264
:105C50008021384600F040F8164A391D1648FFF7F3
:105C600039FF0121384600F02BF8012240F225517E
:105C7000384600F0ADF826208DF8140002208DF88B
:105C800015008DF8165001208DF8170005A8FFF7B4
:105C9000D1F841F61F416320FFF720FE07484480FA
:105CA0000020FFF747FE06B0BDE8F0810044004049
:105CB00000080140500A002080000240340000200B
:105CC000002904D0818941F4005181817047818984
:105CD00021F4005181817047002A03D0828A0A434F
:105CE00082827047828A8A438282704710B5234934
:105CF00088420AD101218C032046FFF721F9204672
:105D0000BDE810400021FFF71BB91D4988420AD1A8
:105D100001214C042046FFF7F7F82046BDE810406B
:105D20000021FFF7F1B8174988420AD101218C04FC
:105D30002046FFF7E9F82046BDE810400021FFF7B4
:105D4000E3B8114988420AD10121CC042046FFF76B
:105D5000DBF82046BDE810400021FFF7D5B80B491D
:105D600088420AD101210C052046FFF7CDF82046D4
:105D7000BDE810400021FFF7C7B810BD0038014052
:105D80000044004000480040004C004000500040EB
:105D900070B5002440F66A12C1F3421301F01F05EA
:105DA000012606FA05F2012B0CD0022B0DD0838AB6
:105DB0001340090A8E40008830400BB100B1012425
:105DC000204670BD83891340F3E7038A1340F0E750
:105DD00010B540F66A13C1F3421301F01F0401210C
:105DE000A140012B07D0022B07D014303AB1026832
:105DF0000A43026010BD0C30F8E71030F6E7026885
:105E00008A43026010BD000030B585B004460D46DF
:105E1000208A4CF6FF710840E98801432182A0895D
:105E20004EF6F3110840A9882A8911436A89024372
:105E30001143A181A08A4FF6FF410840A98901437F
:105E4000A1826846FFF790F81D48844201D103986B
:105E500000E00298A189090408D500EBC00101EB1C
:105E6000001029684900B0FBF1F007E000EBC00129
:105E700001EB001029688900B0FBF1F06422B0FB4F
:105E8000F2F109010B096FF018056B4300EB830079
:105E9000A3891D044FF0320307D503EBC000B0FB0C
:105EA000F2F000F00700084306E003EB0010B0FB3F
:105EB000F2F000F00F000843208105B030BD000073
:105EC000003801408088C0F308007047FEE710B535
:105ED000012901D0022901D10C31401E4B1C03EBDA
:105EE0004303052493FBF4F302EB41011944C21769
:105EF000014400EB927201EBA201642290FBF2F2EA
:105F0000891A4FF4C87290FBF2F00844401C072134
:105F100090FBF1F201FB120010BD00000FB4054B25
:105F200010B503A9044A029800F02CF810BC5DF8E3
:105F300014FB000081660108300000200FB4084BFC
:105F400010B504A902AA039800F01CF8044602A99F
:105F5000002000F042FA204610BC5DF814FB00005F
:105F6000DB63010802E008C8121F08C1002AFAD149
:105F700070477047002001E001C1121F002AFBD1C9
:105F8000704700002DE9FF4F8DB00F4605460026F3
:105F900006E025280BD0DDE90F1290476D1C761C1A
:105FA00028780028F5D111B03046BDE8F08F0024E4
:105FB000A246A1460122E94900E0044315F8013F49
:105FC000203B02FA03F00842F7D128782A2810D0A3
:105FD0006FF02F022878A0F13001092914D80AEBBC
:105FE0008A0102EB410144F0020400EB010A6D1C3E
:105FF000F0E701CF5FEA000A03D544F40054CAF188
:10600000000A44F002046D1C28782E2817D115F8D8
:10601000010F44F004042A280ED06FF02F022878D4
:10602000A0F1300109290AD809EB890102EB4101ED
:1060300000EB01096D1CF2E757F8049B6D1C2878F2
:106040006C280FD006DC4C2817D068280DD06A28A1
:1060500014D104E0742810D07A280FD10DE044F454
:1060600000140AE044F4801401E044F44014697818
:10607000814202D104F580146D1C6D1C28786E28B5
:106080001ED00CDC632830D004DC00288BD05828CC
:1060900011D19FE0642867D069280CD164E073288F
:1060A0002DD004DC6F2872D0702804D194E07528BC
:1060B0006ED078286DD0DDE90F129047761C4BE149
:1060C000C4F30250022806D0032809D0042801CFC7
:1060D00009D0066040E101CFF117C0E900613BE162
:1060E00001CF068038E1067036E117F8040B8DF811
:1060F000000000208DF80100EB46012003E057F876
:1061000004BB4FF0FF3061074FF0000102D40DE0F7
:1061100008F10101884649450FDA8045F8DB1BF894
:1061200008100029F4D108E008F1010188468142F5
:10613000FADB1BF808100029F6D1DDE90F23AAEBE2
:1061400008008146214600F031F9304400EB080692
:1061500004E0DDE90F121BF8010B9047B8F10108CC
:10616000F7D221464846F2E00A21C4F302524FF02A
:10617000000B0891022A04D001CFC117032A09D0CD
:106180000AE0FF1D27F00707F7E8020108E02CE00E
:106190001EE01FE000B2C117042A01D140B2C117AE
:1061A000021E71F1000206DA0023D0EB030063EB5C
:1061B00001012D2202E0220504D52B228DF8242096
:1061C000012203E0E20701D02022F7E7904653E0E6
:1061D0000A210BE0102109E010214FF0000B44F0E0
:1061E00004044FF00809089103E008214FF0000B68
:1061F0000891C4F30252022A04D001CF0021032ADD
:1062000006D006E0FF1D27F00707F7E8020103E0CC
:1062100080B2042A00D1C0B24FF0000822072BD56B
:106220002A78702A07D0DDF820C08CF0100C5CEAC8
:106230000B0C05D00EE040228DF82420012208E04E
:1062400050EA010306D030238DF824308DF8252044
:1062500002229046089B83F0080353EA0B030BD1FC
:1062600050EA010201D1620706D530228DF82420C0
:106270004FF00108A9F101092A78582A04D038A260
:106280000B9208AA0A920BE03AA2F9E75B46089A39
:10629000FDF76CFF0B9B9B5C0A9A521E0A921370CF
:1062A00050EA0102F2D10A98ADEB000000F1200B98
:1062B000600702D524F4803401E04FF00109D9458C
:1062C00002DDA9EB0B0000E0002000EB0B014144D4
:1062D0000890AAEB010AE00306D4DDE90F2321466A
:1062E000504600F063F806444FF0000908E009A9A1
:1062F00011F80900DDE90F12904709F10109761C38
:10630000C145F4DBE0030CD5DDE90F2321465046FF
:1063100000F04CF8064404E0DDE90F12302090470D
:10632000761C0899481E08900029F5DC08E00A98B8
:106330000A990078491C0A91DDE90F129047761CF2
:10634000BBF10001ABF1010BF1DC21465046DDE968
:106350000F2300F019F806446D1C21E609280100FE
:1063600030313233343536373839616263646566CB
:10637000000000003031323334353637383941428D
:1063800043444546000000002DE9F0410446002545
:106390001E461746880404D405E039462020B0473D
:1063A0006D1C641EF9D52846BDE8F0812DE9F04149
:1063B000044600251E469046C80301D5302700E05C
:1063C0002027880404D505E041463846B0476D1CB7
:1063D000641EF9D52846BDE8F0810A68531C0B609D
:1063E0001070704710B56FF00400FFF7F0F909481E
:1063F00009490068B0FBF1F00849C0B2087000EB31
:106400004002C2EBC0104FF6FF7202EAC0004880A3
:1064100010BD00000000002000127A003C000020A7
:106420000B49498848434FF0E021486100238B61C4
:10643000086940F0010008610869C20701D0C00383
:10644000FAD5086920F0010008618B6170470000EF
:106450003C0000202DE9F047814608980F46904601
:106460002038C5B209F10106182B2AD0102B61D0B3
:106470000C2B24D14846FFF7B7F841463846FFF7C2
:10648000C9F800243D4905EB450001EB8005204695
:10649000641CE4B2285CFFF7E3F8062CF7D3F0B2F3
:1064A000FFF7A2F841463846FFF7B4F80624204625
:1064B000641CE4B2285CFFF7D3F80C2CF7D3BDE8DA
:1064C000F0874846FFF790F841463846FFF7A2F8B4
:1064D00000242B4905EBC50001EB80052046641C18
:1064E000E4B2285CFFF7BCF80C2CF7D3F0B2FFF74E
:1064F0007BF841463846FFF78DF80C242046641C93
:10650000E4B2285CFFF7ACF8182CF7D309F10209C4
:1065100009F0FF00FFF768F841463846FFF77AF8C0
:1065200018242046641CE4B2285CFFF799F8242C58
:10653000F7D3C4E74846FFF757F841463846FFF718
:1065400069F800240F4800EB05152046641CE4B2EE
:10655000285CFFF785F8082CF7D3F0B2FFF744F872
:1065600041463846FFF756F808242046641CE4B23A
:10657000285CFFF775F8102CF7D3A0E7F86801083E
:106580005C7301086C6D01082DE9F04106460F4669
:1065900090461D463046FFF727F841463846FFF73C
:1065A00039F80024285DFFF75BF8641CE4B2102C76
:1065B000F8D3761CF0B2FFF717F841463846FFF7DC
:1065C00029F800242819007CFFF74AF8641CE4B27B
:1065D000102CF7D3BDE8F0812DE9F05F074688461F
:1065E00091469A463846FEF7FFFF49464046FFF778
:1065F00011F80025214E002405EB450006EBC00BE9
:106600001BF80400FFF72CF8641CE4B20C2CF7D341
:106610006D1CEDB2022DEED300240AF1010A0AEB43
:106620004A0006EBC005285DFFF71AF8641CE4B2C7
:106630000C2CF8D37F1CF8B2FEF7D6FF4946404633
:10664000FEF7E8FF00270C2407EB470006EBC00825
:1066500018F80400FFF704F8641CE4B2182CF7D310
:106660007F1CFFB2022FEED30C24285DFEF7F8FF4B
:10667000641CE4B2182CF8D3BDE8F09F640000203D
:1066800004490A885206FCD5024AC1B2121D118083
:1066900070470000003801400EB5FEF7C7FBFFF75A
:1066A000A1FE02A8FEF77AF902213348FEF7FDF9B0
:1066B0004FF47A70FFF7B4FE4FF4E134204600F057
:1066C000C9F82046FFF78AFAFEF7F1F9FEF71AF843
:1066D000FEF716FB294C01212046FEF7E6F90221C0
:1066E0002046FEF7E2F94FF4FA70FFF799FE022117
:1066F0002046FEF7D8F922A0FFF710FC21A0FFF7F3
:106700000DFC1FA0FFF70AFC0020009003460122A9
:10671000019011464FF4FA60FEF7C2FD41F61F41A9
:1067200042F20F70FFF7A6F9FEF7CAFE4FF066348B
:106730001A4D6FF00B066710DFF8648000F032F836
:106740000A210620FEF782FAFDF7CAFD22462B46F3
:10675000FDF73DFD3246FDF7ACFDFDF7FBFDFDF716
:10676000CCFDC0B2FDF7BCFD3A464346FDF7DAFD6D
:10677000E4D200F05DF8E1E70010014000080140BC
:106780000D0A000053595354454D20494E49542099
:10679000535543434553530D0A00000066660A40B3
:1067A0003333FB3F7FB5174CE279A179A088FFF71F
:1067B0008EFB154D286008B907202860124B002277
:1067C0001B1D1421B020FFF7DFFE00221021B42092
:1067D0002B68FFF701FFA07861782278E379CDE993
:1067E0000032CDE90210A379A28808A10F48FFF773
:1067F000A5FB0C2000900D4B00221021B620FEF7C7
:106800009FFF7FBD503200204000002025303464BF
:106810002D253032642D253032642C253032643AF7
:10682000253032643A2530326400000038360020CA
:10683000012080F3138805480168054A01F4E061EE
:1068400011430160BFF34F8FFEE700000CED00E045
:106850000400FA05F0B587B00546012144F20400B2
:10686000FEF760FB224E3046FFF740FA7015ADF898
:10687000180003248DF81A4018208DF81B001D4FB6
:1068800006A93846FEF7BCF83015ADF8180004200C
:106890008DF81B0006A93846FEF7B2F825208DF8C2
:1068A00004008DF805408DF8064001208DF80700A2
:1068B00001A8FEF7BFFA02950020ADF80C00ADF874
:1068C0000E00ADF81000ADF814000C20ADF8120069
:1068D00002A93046FFF798FA012240F225513046CE
:1068E000FFF776FA01213046FFF7EAF907B0F0BD6D
:1068F00000380140000801400000000000000000D6
:10690000000000000000FC00000000000200000089
:10691000000C020C020000000000000090D0BCD06F
:10692000BC900003000300001824FE448C00030206
:10693000070201001824D8B04C80000300010201B6
:10694000C038E438E000010202010202080600003B
:106950000000000000000000000000F80402000039
:1069600000010204000204F800000004020100001B
:106970009060F86090000000010000002020FC20E2
:1069800020000000010000000000000000000806D8
:106990000000000020202020200000000000000057
:1069A0000000000000000002000000000080601CE9
:1069B0000200040300000000F8040404F8000102CF
:1069C000020201000008FC000000000203020000B7
:1069D000188444241800030202020200080424243C
:1069E000D80001020202010040B088FC80000000D3
:1069F000000302003C242424C4000102020201001E
:106A0000F824242CC0000102020201000C04E41C42
:106A10000400000003000000D8242424D800010250
:106A20000202010038444444F8000003020201005D
:106A30000000100000000000020000000000200024
:106A40000000000006000000002050880402000042
:106A50000000010290909090900000000000000063
:106A60000002048850200002010000001804C42421
:106A70001800000002000000F804E494F80001028D
:106A80000202020000E09CF080000203000003020A
:106A900004FC2424D800020302020100F8040404C8
:106AA0000C0001020202010004FC0404F8000203CD
:106AB0000202010004FC24740C0002030202030021
:106AC00004FC24740C00020302000000F0080444DB
:106AD000CC4000010202010004FC2020FC0402035F
:106AE000000003020404FC0404000202030202008A
:106AF000000404FC040406040403000004FC24D085
:106B00000C0402030200030204FC04000000020360
:106B100002020203FC3CC03CFC0003000300030033
:106B200004FC30C4FC04020302000300F804040463
:106B3000F80001020202010004FC242418000203F0
:106B400002000000F8848404F80001020207050036
:106B500004FC246498000203020003021824244465
:106B60008C000302020201000C04FC040C00000271
:106B70000302000004FC0000FC040001020201000A
:106B8000047C80E01C040000030000001CE03CE0EA
:106B90001C00000300030000049C609C040002032E
:106BA00000030200041CE01C0400000203020000B9
:106BB0000C84641C04000203020203000000FE02B5
:106BC0000200000007040400000E30C000000000B6
:106BD00000010200000202FE0000000404070000A1
:106BE000000402040000000000000000000000009B
:106BF0000000080808080808000002000000000063
:106C0000000000000040A0A0C0000001020203023A
:106C100004FC2020C00000030202010000C020206C
:106C2000600000010202020000C02024FC000001FC
:106C30000202030200C0A0A0C00000010202020084
:106C40000020F82424040002030202000040A0A057
:106C5000602000070A0A0A0404FC2020C000020386
:106C6000020003020020E400000000020302000012
:106C7000000020E4000008080807000004FC80E091
:106C800020200203020003020404FC0000000202B0
:106C900003020200E020E020C00003000300030024
:106CA00020E02020C00002030200030200C02020D8
:106CB000C00000010202010020E02020C000080FF7
:106CC0000A02010000C02020E0000001020A0F08B3
:106CD00020E0402020000203020000000060A0A08D
:106CE00020000002020203000020F8200000000043
:106CF0000102020020E00020E00000010202030285
:106D000020E0208060200000030100006080E0801F
:106D10006000000300030000206080602000020388
:106D20000003020020E02080602008080701000026
:106D30000020A0602000000203020200000020DE0C
:106D40000200000000070400000000FF0000000037
:106D5000000F00000002DE20000000040700000019
:106D60000201020404020000000000000000000014
:106D7000000000000000000000000000000000F81B
:106D800000000000000000333000000000100C067E
:106D9000100C0600000000000000000040C0784019
:106DA000C0784000043F04043F040400007088FCE5
:106DB00008300000001820FF211E0000F008F0003D
:106DC000E018000000211C031E211E0000F00888AE
:106DD000700000001E2123241927211010160E0018
:106DE000000000000000000000000000000000E0C3
:106DF00018040200000000071820400000020418D8
:106E0000E00000000040201807000000404080F033
:106E1000804040000202010F01020200000000F069
:106E2000000000000101011F01010100000000003D
:106E30000000000080B070000000000000000000B2
:106E4000000000000001010101010101000000003B
:106E500000000000003030000000000000000000D2
:106E600080601804006018060100000000E01008AF
:106E70000810E000000F102020100F00001010F884
:106E8000000000000020203F2020000000700808C3
:106E90000888700000302824222130000030088843
:106EA000884830000018202020110E000000C0206B
:106EB00010F8000000070424243F240000F808888C
:106EC000880808000019212020110E0000E0108819
:106ED00088180000000F112020110E00003808084B
:106EE000C83808000000003F00000000007088085B
:106EF00008887000001C222121221C0000E01008DC
:106F00000810E0000000312222110F00000000C034
:106F1000C0000000000000303000000000000080D1
:106F200000000000000080600000000000008040C1
:106F300020100800000102040810200040404040DA
:106F4000404040000404040404040400000810202D
:106F50004080000000201008040201000070480872
:106F60000808F0000000003036010000C030C828DA
:106F7000E810E0000718272423140B000000C03895
:106F8000E0000000203C23020227382008F888880F
:106F900088700000203F202020110E00C03008081B
:106FA00008083800071820202010080008F80808F2
:106FB0000810E000203F202020100F0008F88888EB
:106FC000E8081000203F20202320180008F88888B7
:106FD000E8081000203F200003000000C03008082F
:106FE0000838000007182020221E020008F80800B8
:106FF0000008F808203F210101213F20000808F87F
:10700000080800000020203F2020000000000808A1
:10701000F8080800C08080807F00000008F888C061
:1070200028180800203F20012638200008F8080012
:1070300000000000203F20202020300008F8F80049
:10704000F8F80800203F003F003F200008F830C05B
:107050000008F808203F200007183F00E01008084B
:107060000810E0000F10202020100F0008F808087A
:107070000808F000203F210101010000E01008088D
:107080000810E0000F18242438504F0008F88888B2
:1070900088887000203F2000030C30200070880892
:1070A000080838000038202121221C00180808F8A0
:1070B000080818000000203F2000000008F8080021
:1070C0000008F808001F202020201F0008788800F2
:1070D00000C83808000007380E010000F80800F862
:1070E0000008F800033C0700073C0300081868800C
:1070F0008068180820302C03032C30200838C80082
:10710000C83808000000203F2000000010080808D0
:10711000C83808002038262120201800000000FE72
:10712000020202000000007F40404000000C30C01E
:1071300000000000000000010638C000000202024A
:10714000FE000000004040407F00000000000402FC
:107150000202040000000000000000000000000027
:107160000000000080808080808080800002020417
:10717000000000000000000000000000000080800F
:10718000808000000019242222223F2008F800807D
:1071900080000000003F112020110E000000008040
:1071A00080800000000E11202020110000000080CF
:1071B0008088F800000E112020103F200000808001
:1071C00080800000001F222222221300008080F015
:1071D000888888180020203F202000000000808040
:1071E00080808000006B94949493600008F8008085
:1071F00080800000203F210000203F2000809898E0
:10720000000000000020203F20200000000000803F
:107210009898000000C08080807F000008F800007F
:1072200080808000203F24022D302000000808F8D4
:10723000000000000020203F20200000808080808F
:1072400080808000203F20003F20003F8080008021
:1072500080800000203F210000203F20000080802F
:1072600080800000001F202020201F0080800080E0
:107270008000000080FFA12020110E00000000808F
:1072800080808000000E112020A0FF808080800080
:107290008080800020203F212000010000008080AD
:1072A000808080000033242424241900008080E0A2
:1072B000808000000000001F20200000808000006F
:1072C00000808000001F202020103F208080800050
:1072D0000080808000010E30080601008080008060
:1072E000008080800F300C030C300F000080800085
:1072F000808080000020312E0E31200080808000B0
:107300000080808080818E7018060100008080805F
:10731000808080000021302C2221300000000000FD
:10732000807C020200000000003F4040000000009E
:10733000FF00000000000000FF0000000002027CCF
:10734000800000000040403F0000000000060101F6
:107350000202040400000000000000000000000021
:10736000000000000000000000000000000000001D
:10737000000000000000000000000000000000000D
:107380000000000000F0F0F000000000000000002D
:1073900000017F010000000000000000001C1C1C18
:1073A0000000000000008060301C8C60301C0C006D
:1073B00000000000000000000000000000000000CD
:1073C0000000000000000000000000E000000000DD
:1073D00000E000000086E69F86868686E69F86009F
:1073E00000011F01010101011F010100000080C017
:1073F0006020F820E0C00000000003070C18FF70B8
:10740000E18100000000070F10107F100F0700003F
:107410008060206080000000E02000000F302030FD
:107420009F70DC371030C0000000100E03000718FA
:10743000101807000000C02020E0C000000000007D
:1074400080E01F38E88703C43C040000070F1810D1
:10745000100B070D1010080000808C4C3800000045
:10746000000000000000000000000000000000001C
:10747000000000000000000000000000000000000C
:10748000000080E0300804000000000000FEFF0162
:1074900000000000000000000000030F1820400062
:1074A00000040830E0800000000000000000000040
:1074B00001FFFE0000000000004020180F03000044
:1074C00000000000000000000000C00000000000FC
:1074D000004266663C18FF183C66664200000000E9
:1074E0000000030000000000000000000000800019
:1074F00000000000001010101010FF1010101010ED
:107500000000000000000300000000000000000078
:10751000000000000000000000000000000000006B
:107520000000000000808C4C3800000000000000CB
:10753000000000000000000000000000001010101B
:1075400010101010101010000000000000000000CB
:10755000000000000000000000000000000000002B
:1075600000000000000000000000000000001C1CE3
:107570001C000000000000000000000000000000EF
:10758000E0380C000000000080701C0300000000C8
:107590000060380E0100000000000000000080C004
:1075A00060202060C080000000FEFF01000000009D
:1075B00001FFFE000001070E181010180E07010051
:1075C0000000808080C0E00000000000000000009B
:1075D00000FFFF000000000000001010101F1F102F
:1075E000101000000080402020202060C08000009B
:1075F00000030300804020381F070000001C1A19F8
:1076000018181818181F00000080C020202060C023
:1076100080000000000303001010182FE780000016
:1076200000070F10101010180F07000000000000D6
:107630000000C0E0F000000000C0B088868180FF3C
:10764000FF808000000000000010101F1F101000BD
:107650000000E060606060606060000000003F105B
:1076600008080818F0E0000000070B101010101CAC
:107670000F030000000080C040202020E0C0000078
:1076800000FCFF211008080818F0E0000001070CBA
:1076900018101010080F03000000C0E06060606068
:1076A00060E06000000003000000E0180700000038
:1076B00000000000001F1F00000000000080C060EC
:1076C0002020202060C080000087EF2C1818303068
:1076D00068CF830000070F0810101010180F070064
:1076E0000000C0C020202020C0800000001F3F609C
:1076F0004040402010FFFE0000000C1C101010083D
:107700000F03000000000000000000000000000067
:1077100000000000000E0E0E00000000000000003F
:10772000001C1C1C00000000000000000000000005
:107730000000000000000000000C0C000000000031
:1077400000000000005838000000000000000000A9
:10775000000000804020100000001028448201003A
:1077600000000000000000000000010204081000FA
:10777000000000000000000000000000008484847D
:10778000848484848484840000000000000000005D
:1077900000000000000010204080000000000000F9
:1077A00000000000000001824428100000001008C2
:1077B000040201000000000000C020201010101082
:1077C00030E0C0000003030000F010080C070300C5
:1077D000000000001C1C1C0000000000000000C095
:1077E000406020202040C00000FCFF01F00E03C1DB
:1077F000FE03807F0001070E081111101109040219
:107800000000000080E0E000000000000000807C3C
:107810004340477FF880000010181F100000000050
:10782000131F1C1020E0E02020202060C0800000FA
:1078300000FFFF10101010182FE78000101F1F10FE
:1078400010101010180F0700000080C040202020EA
:107850002060E00000FCFF010000000000000100CB
:107860000001070E181010100804030020E0E020AB
:1078700020202040C080000000FFFF00000000002A
:1078800001FFFE00101F1F10101018080E07010046
:1078900020E0E020202020202060800000FFFF105A
:1078A0001010107C00000000101F1F10101010108E
:1078B0001018060020E0E0202020202060608000DA
:1078C00000FFFF101010107C00000100101F1F109F
:1078D0000000000000000000000080C060202020A8
:1078E00040E0000000FCFF0100004040C0C14040FB
:1078F0000001070E181010100F0F000020E0E0200C
:107900000000000020E0E02000FFFF101010101029
:1079100010FFFF00101F1F1000000000101F1F109D
:107920000000202020E0E0202020000000000000D7
:1079300000FFFF000000000000001010101F1F10CB
:107940001010000000000000202020E0E020202097
:1079500000000000000000FFFF0000000060E08069
:107960008080C07F3F00000020E0E020000020A0D9
:107970006020200000FFFF30187CE3C00000000002
:10798000101F1F10000001131F1C181020E0E02022
:10799000000000000000000000FFFF0000000000E9
:1079A00000000000101F1F1010101010101806000B
:1079B00020E0E0E000000000E0E0E02000FF013F08
:1079C000FEC0E01E01FFFF00101F1000031F030098
:1079D000101F1F1020E0E0C0000000000020E02089
:1079E00000FF0003071C78E08000FF00101F10005C
:1079F00000000000030F1F00000080C06020206016
:107A0000C080000000FEFF010000000000FFFE003B
:107A10000001070E181010180C07010020E0E020EC
:107A20002020202060C0800000FFFF202020202098
:107A3000301F0F00101F1F1000000000000000008A
:107A4000000080C060202060C080000000FEFF01B8
:107A50000000000000FFFE000001070E1111133CA2
:107A60007C67210020E0E0202020202060C08000F2
:107A700000FFFF101030F0D0080F0700101F1F107C
:107A8000000000030F1C10100080C0602020202088
:107A90004040E00000070F0C1818303060E0810013
:107AA000001F0C0810101010180F07008060202015
:107AB00020E0E020202060800100000000FFFF00A7
:107AC0000000000100000000101F1F100000000057
:107AD00020E0E020000000000020E02000FFFF0088
:107AE000000000000000FF0000070F181010101029
:107AF000100807002060E0E02000000020E0602087
:107B00000000077FF88000807C0300000000000078
:107B1000071F1C070000000020E0E02000E0E0203C
:107B20000020E0200007FFF8E01FFFFCE01F00003E
:107B30000000031F0300011F03000000002060E09D
:107B4000A0000020E0602000000000038F7CF8C649
:107B5000010000000010181E130001171F1810006C
:107B60002060E0E02000000020E06020000001072D
:107B70003EF8E0180700000000000010101F1F1062
:107B80001000000000806020202020A0E0E0200005
:107B900000000000C0F03E0F0300000000101C1F9A
:107BA00017101010101806000000000000FC04045C
:107BB000040404000000000000FF000000000000BA
:107BC00000000000007F404040404000000010E006
:107BD000000000000000000000000000031C6080A6
:107BE0000000000000000000000000030C70800096
:107BF00000000404040404FC000000000000000075
:107C0000000000FF00000000000040404040407FB6
:107C10000000000000000010080C040C0810000018
:107C20000000000000000000000000000000000054
:107C30000000000000000000000000000000000044
:107C40000000000000000000000000000000000034
:107C50008080808080808080808080800000000420
:107C60000408080000000000000000000000000000
:107C70000000000000000000000000000000000004
:107C8000000000000000000000000000000098D884
:107C900044642424FCF80000000F1F181010100882
:107CA0001F1F10180020E0F000000000000000007E
:107CB0000000FFFF180804040CF8F00000001F0F7C
:107CC00018101010180F0300000000000000000042
:107CD0000000000000E0F8180404043C3800000034
:107CE00000030F0C10101010080600000000000028
:107CF00000000020E0F0000000E0F81C040404088C
:107D0000FFFF000000030F18101010081F0F0800DD
:107D10000000000000000000000000000000E0F88B
:107D2000484444444C7870000000030F0C181010B5
:107D3000100804000000000080C0602020E0C000A7
:107D400000040404FFFF04040404000000001010F9
:107D50001F1F1010100000000000000000000000B5
:107D600000000000000070F88C04048CF874040C0F
:107D7000007076CF8D8D8D89C87870000020E0F07E
:107D800000000000000000000000FFFF08040404E1
:107D9000FCF8000000101F1F100000101F1F100033
:107DA000000000000060600000000000000004040B
:107DB00004FCFC000000000000001010101F1F1049
:107DC00010100000000000000000006060000000D3
:107DD00000000000040404FCFC0000000000C0C01F
:107DE0008080C07F3F0000000020E0F00000000025
:107DF000000000000000FFFF80C0F41C040400002D
:107E000000101F1F1100031F1C1010000000202075
:107E100020E0F000000000000000000000FFFF0074
:107E20000000000000001010101F1F1010100000B4
:107E300000000000000000000000000004FCFC083E
:107E400004FCFC0804FCFC00101F1F10001F1F1086
:107E5000001F1F10000000000000000000000000D4
:107E60000004FCFC08080404FCF8000000101F1FBC
:107E7000100000101F1F1000000000000000000094
:107E80000000000000E0F0180C04040C18F0E00002
:107E900000030F0C101010100C0F03000000000066
:107EA00000000000000000000004FCFC08040404C2
:107EB0000CF8F0000080FFFF889010101C0F0300EA
:107EC00000000000000000000000000000E0F81CBE
:107ED00004040408F8FC000000030F181010908838
:107EE000FFFF800000000000000000000000000014
:107EF000040404FCFC100804040C0C001010101FF7
:107F00001F10101000000000000000000000000022
:107F10000000000000003078CCC48484840C1C0075
:107F200000001E1810101011190F060000000000AC
:107F300000C000000000000000040404FFFF04046F
:107F400004000000000000000F1F1010100C0000C3
:107F50000000000000000000000000000004FCFE23
:107F600000000004FCFE000000000F1F18101008A5
:107F70001F0F0800000000000000000000000000CB
:107F800000040C3CFCC40000C43C0C0400000000D5
:107F9000010F1E0E010000000000000000000000A4
:107FA00000000000043CFCC400E47CFC84807C04F1
:107FB0000000071F070000071F0700000000000067
:107FC00000000000000000000004041C7CE4C03439
:107FD0001C0404000010101C1601131F1C181000B4
:107FE00000000000000000000000000000040C3C45
:107FF000FCC400C43C0404000000C080C1370E0172
:108000000000000000000000000000000000000070
:1080100000001C0404C4F47C1C0400000000101CBC
:108020001F17111010180E0000000000000000F8CB
:108030000C04000000000000001028EF0000000009
:10804000000000000000003F604000000000000051
:108050000000FF0000000000000000000000FF0022
:1080600000000000000000000000FF000000000011
:108070000000040CF80000000000000000000000F8
:10808000EF28100000000000000040603F000000EA
:10809000000000000018060202040810202030082A
:1080A00000000000000000000000000000000000D0
:1080B00000000000000000000003030601040602A7
:1080C000050003051F1C1F1E1F1E1F1F1E1F1E1F36
:1080D000F08001080000002084010000184501081C
:1080E000E0810108840100201C750000745F010814
:1080F0001184A24A04680D0102030406070809025C
:10810000040608106914011D8BF80801147840C09A
:108110008B1F1001141E02031EDF959595F5042296
:108120009F1F09080A0A0A0F041308081704FF54BE
:1081300054FF0415FE9292FE10090905010105097C
:10814000080713080F8A4001E16A0401990B290D01
:108150004B0242012202998A21200BFE02827E02FA
:10816000027E8282FE5B0F052F120F1F022222E287
:108170003E220539302B0E092D1A0F3019AE100989
:10818000D0111610509010106408040313030C1A39
:10819000202C1CA27EA2061A2030140402011C010D
:1081A00002043015FE2222FE1708488808FF083511
:1081B000070202071A09BF11180C20102C23E02017
:1081C0002023EC10206119491960291D1712D2FED5
:1081D00091403812FF1304B812012A0F4C294D1197
:04000005080141317C
:00000001FF
