:020000040800F2
:10000000588C0020450100086F1900088D17000862
:100010006D190008B70F0008D52300080000000084
:10002000000000000000000000000000F11B0008BC
:100030005F11000800000000251A00085D0100089B
:100040005F0100085F0100085F0100085F01000810
:100050005F0100085F0100085F0100085F01000800
:100060005F0100085F0100085F0100085F010008F0
:100070005F010008B90F00085F0100085F01000878
:100080005F0100085F0100085F0100085F010008D0
:100090005F0100085F0100085F0100085F010008C0
:1000A0005F0100085F0100085F0100085F010008B0
:1000B0005F010008151D0008451D00085F010008CC
:1000C0005F0100085F0100085F0100085F01000890
:1000D0005F0100080D200008752000085F0100087E
:1000E0005F0100085F0100085F0100085F01000870
:1000F0005F0100085F0100085F0100085F01000860
:100100005F0100085F0100085F0100085F0100084F
:100110005F0100085F0100085F0100085F0100083F
:100120005F0100085F0100085F0100085F0100082F
:10013000DFF80CD000F036FD00480047FD51000804
:10014000588C00200648804706480047FEE7FEE737
:10015000FEE7FEE7FEE7FEE7FEE7FEE7FEE7FEE777
:10016000C51C0008310100082DE9F05F054600209C
:1001700092469B4688460646814640241BE0284618
:1001800041464746224600F0A2FB53465A46C01A53
:10019000914110D311461846224600F089FB2D1AD2
:1001A00067EB01084F4622460120002100F080FB4A
:1001B00017EB00094E41201EA4F10104DFDC484684
:1001C00031462A464346BDE8F09F0000004870478C
:1001D000A87A000810B50446FFF7F8FF0068005D34
:1001E00000F0010010BD40EA01039B0703D009E0C5
:1001F00008C9121F08C0042AFAD203E011F8013B13
:1002000000F8013B521EF9D27047D2B201E000F86B
:10021000012B491EFBD270470022F6E710B51346AA
:100220000A4604461946FFF7F0FF204610BD30B5D8
:1002300005462A460B4612F8010B13F8014B08B18C
:10024000A042F8D01CB1002802D06D1CF1E728466E
:1002500030BD421C10F8011B0029FBD1801A7047E9
:10026000CBB203E00178994203D0401C521EF9D270
:100270000020704730B504460020034600E05B1CB8
:10028000934203D2E05CCD5C401BF8D030BD2DE939
:10029000F04791460F4680460446002614F8015B5D
:1002A0002DB1FFF793FF0068405DC007F6D12B2DFD
:1002B00002D02D2D18D0641E4A463946204600F043
:1002C00028FB27B13968A14201D1C7F80080710528
:1002D0004FF002040BD54042002803DD02F0E2F8A3
:1002E0000460A007BDE8F08746F48066E4E70028D4
:1002F000F8DA02F0D7F804606FF00040F2E7F0B4EB
:1003000080EA0102D40F4200B2EB410F02D2024652
:10031000084611464A0042D0C30DDDB2C1F3C752B0
:10032000AD1A202D35DAC1F3160141F4000204B1F3
:100330005242C5F1200602FA06F12A411044B3EBFD
:10034000D05F23D0C4B1012DA0EBC35009DCF0BCB9
:100350004FF0004202EAC352DBB200F5000000F0A9
:100360007EBB400000F1807000EBC350A0F18070B4
:1003700040EAD170490009E0490841EAC071A0EBA8
:10038000C35000F50000400800EBC350F0BC00F083
:100390005DBB6142012202EB4101001BF6E7F0BCAC
:1003A000704781F00041AAE780F00040A7E780EAAB
:1003B000010210B502F00043400022D04A001FD0D5
:1003C000010E01EB1261C0F35600C2F3560240F475
:1003D000000042F40002A0FB022000047F39140454
:1003E00000D0401C50EA124001D44000491EC2B265
:1003F0000C0604EBD010401C4008802A02D003E019
:10040000002010BD20F00100002900DA0020184370
:1004100010BD2DE9FE4F804681EA0300C00F0C4657
:10042000009021F0004123F00045B8EB0200A94103
:1004300005D24046214690461C460B46024623F014
:100440000040104347D0270DC7F30A00C3F30A51F9
:100450000290401A019040286BDAC3F3130040F475
:10046000801B0098924620B10023D2EB030A63EB75
:100470000B0B01985946C0F14002504600F018FAA3
:1004800006460D4650465946019A00F030FA10EBE8
:1004900008006141002487EA115284EAE7731A4395
:1004A00040D0009A62B3019A012A4FEA075215DC44
:1004B000001B61EB02014FF0004202EA0752CDE956
:1004C0000042001C41F5801132462B4600F004FB2F
:1004D00003B0BDE8F08F40462146F9E7001B61EB11
:1004E0000201001C41F5801300185B412018A2F5A1
:1004F000001747EB030140EAD570B6196D4111E0D2
:100500006D084FEA360645EAC0754FEA0752001BF0
:1005100061EB0201001C41F5801149084FEA3000EF
:100520000019514132462B4603B0BDE8F04F00F0B0
:10053000C4BA0098012240000023D0EB020263EB12
:10054000E073009821464FEAE074B8EB000061EBDD
:100550000401E9E783F000435BE781F0004158E7DD
:100560002DE9FE4F81EA030404F0004421F000412C
:1005700000944FF0000B23F0004350EA01045ED0DA
:1005800052EA03045BD0C3F30A54C1F30A552C4466
:10059000A4F2F3340194A0FB0254C1F3130141F41B
:1005A0008011C3F3130343F4801301FB024400FBE7
:1005B000034E840A970A44EA815447EA8357A4FB0E
:1005C000076802958D0A05FB07854FEA932C04FB0B
:1005D0000C542705029D4FEA065847EA1637B5EB3B
:1005E00008056EEB070C870E920E47EA811742EA68
:1005F0008312A7FB0201B6EB0B0164EB00042B0D89
:1006000043EA0C335E1844EB1C50DA465146E7FBD4
:100610000201C5F313044FEA0B3343EA14534FEAC4
:100620000432019C43EA0603A4F10C040294009CEA
:10063000CDE900B400F050FA03B0BDE8F08F00201F
:100640000146F9E72DE9F04D81EA030404F0004B7F
:1006500021F0004514464FF0000A23F0004150EA13
:10066000050220D054EA01021DD0C5F30A57024604
:10067000C5F31303C1F31300C1F30A5640F4801508
:1006800043F48013A7EB0608101BD64608F2FD388A
:1006900073EB050002D308F1010801E092185B41F9
:1006A000B8F1000F03DA00200146BDE8F08D00200C
:1006B0004FF48011064684460EE0171B73EB0507C6
:1006C00005D3121B63EB050306434CEA010C4908F2
:1006D0004FEA300092185B4150EA0107EDD152EA2F
:1006E000030012D082EA040083EA0501084305D022
:1006F000101BAB4106D20122002306E000224FF07E
:10070000004302E06FF0010253101AEB06004CEBBD
:10071000085110EB0A0041EB0B01BDE8F04D00F071
:10072000CCB90EB5C10F80EAE0700844CA070021B9
:1007300040F233438DE80E000A460B4600F0CCF938
:1007400003B000BD0EB540F2334102910021CDE966
:1007500000110A460B4600F0BFF903B000BD20F0BF
:100760000040C10DC0F3160040F400007F2901DAFB
:1007700000207047962903DCC1F19601C8407047FC
:1007800096398840704770B5C1F30A5201F00045B0
:100790000024C1F3130140F2FF3341F480119A4267
:1007A00001DA002070BD40F233439A42A2F2334294
:1007B00003DC524200F08BF800E090402C43F1D073
:1007C000404270BDC1F30A5210B5C1F3130140F2AB
:1007D000FF3341F480119A4201DA002010BD40F24B
:1007E00033439A42A2F2334203DC524200F06FF8E4
:1007F00010BD904010BD00F0004230F000400AD023
:10080000C10D01F56071C0F3160042EA0151C20842
:1008100040071143704700200146704730B5041E61
:1008200071F1000404DB4FF00044404264EB01012D
:10083000141E73F1000405DB1C464FF000435242C6
:1008400063EB0403994208BF904230BD01F00043BE
:1008500030B421F0004150EA010206D00A0DA2F5A1
:100860006072C1F31301002A02DC30BC0020704723
:10087000440F44EAC104C100E01830BC00EBC25090
:1008800000F0E4B830B50B460146002020220124D8
:1008900009E021FA02F59D4205D303FA02F5491B4E
:1008A00004FA02F52844151EA2F10102F1DC30BD64
:1008B000202A04DB203A00FA02F100207047914020
:1008C000C2F1200320FA03F3194390407047202A15
:1008D00004DB203A21FA02F00021704721FA02F3EA
:1008E000D040C2F120029140084319467047202AA7
:1008F00006DBCB17203A41FA02F043EAE07306E048
:1009000041FA02F3D040C2F1200291400843194657
:1009100070472DE9F05F82460078002715468B4628
:100920000AF10104B946302801D09DB113E014F852
:10093000010B0127782803D0582801D045B10AE0DF
:100940000DB1102D07D10027102514F8010B02E07E
:10095000082500E00A250026B0460EE005FB080049
:1009600005FB06F1012701EB10461FFA80F8B6F5EA
:10097000803F00D3B94614F8010B294600F024F952
:100980000028EBDABBF1000F05D00FB1641E00E0C8
:100990005446CBF80040B9F1000F06D001F082FDBB
:1009A00002210160C81EBDE8F09F48EA0640FAE750
:1009B0000FB4002300B589B00CA900910B996FF01A
:1009C0000042CB601E4B06931E4B07930423CDE9D8
:1009D00001321D4A089202466B46002000F082F95F
:1009E00009B05DF814FB70B586B006464FF0FF30D5
:1009F0000091CDE90101002015460C4604903246D5
:100A0000694604A8FFF7D4FF02460498211825B1CF
:100A100008B1084600E020462860049800280DD060
:100A2000002A02DD0098884208D0081B0094CDE916
:100A300001043246694604A8FFF7BAFF06B070BD4C
:100A40001D0F00083B0F0008D50100080029A8BFB2
:100A50007047401C490008BF20F00100704710B4E7
:100A6000B0FA80FC00FA0CF050EA010404BF10BC9C
:100A7000704749B1CCF1200421FA04F411FA0CF1C9
:100A800018BF012121430843A3EB0C01CB1D4FEA02
:100A900000614FEA102042BF002010BC704700EBFD
:100AA000C35010440029A4BF10BC7047401C49002B
:100AB00008BF20F0010010BC704710B5141E73F180
:100AC000000408DA401C41F1000192185B411A430E
:100AD00001D120F0010010BD2DE9F04D92469B465A
:100AE00011B1B1FA81F202E0B0FA80F22032904600
:100AF000FFF7DEFE04460F4640EA0A0041EA0B011A
:100B000053465A46084313D0114653EA010019D000
:100B1000C8F140025046FFF7DAFE05460E46504641
:100B200059464246FFF7C4FE084305D0012004E0C1
:100B300020463946BDE8F08D0020054346EAE076C0
:100B40002C4337430A986305E40AA0EB080000220F
:100B5000FD0A44EA47540A3002D500200146E9E77D
:100B6000010510196941DDE9084500196941BDE831
:100B7000F04DA2E7C1F30A52C1F3130140F2FF3373
:100B800041F480119A4202DA00200146704740F297
:100B900033439A42A2F2334202DC5242FFF797BE3D
:100BA000FFF786BE064C074D06E0E06840F0010303
:100BB00094E8070098471034AC42F6D3FFF7BCFA2C
:100BC000E07B0008007C00083A2800D2303820F092
:100BD0002002412A01D3A2F13700884201D34FF00D
:100BE000FF3070472DE9FF4F087881B09946FF2804
:100BF00005D0491C2D2804D00024002308E0002340
:100C00000BE00124F9E703EB830300EB4303491CEA
:100C10000878FF28F7D104B15B42002000901478D7
:100C200001462D2C01D02B2C04D1521C2D2C12D07E
:100C30000024009400251678FF2E0ED00A24A0FB75
:100C400004C801FB0481002700FB0711521C16EBAE
:100C50000C006941EFE70124EBE7994450EA0102F7
:100C60000ED00024AA4D2646DFF8A88200F076F9BF
:100C700082468B46B9F1000009DAC9F100071BE092
:100C800001980021C0E9001105B0BDE8F08F0746CA
:100C900012E0F80707D022462B4630464146FFF7C0
:100CA0005FFC0646884622462B4610461946FFF74B
:100CB00057FC04460D467F10002FEAD1B9F1000F12
:100CC000324643465046594602DAFFF7BBFC01E084
:100CD000FFF746FC009A0AB181F00041019AC2E98F
:100CE0000001D1E72DE9FF4F1F468DB0D7E901463E
:100CF0004FF0FF382E2045464FF000090B90B969A0
:100D00006D1C0E988847396A824688470028F6D1BC
:100D1000BAF1FF3F0AD024F4D064002E11DDBAF1FD
:100D20002B0F08D0BAF12D0F0BD102E0404611B0C5
:100D3000ABE744F48064B9696D1C0E98884782461D
:100D4000761E6946600501D52D2000E02B208DF828
:100D5000000001F1010B0DF1200809E0B9696D1CDB
:100D60000E98884782460F9844F40074761E0560FA
:100D7000002E02DDBAF1300FF0D00B998A453ED13A
:100D800044F0800406E00F99681CA9F1010944F4BD
:100D900000740860B9696D1C761E0E9888478246FB
:100DA0003028F0D02BE00B998A4505D1200603D4DA
:100DB00044F08004761E18E0504601F049FC08B368
:100DC0000DF11301761E44F400748B4508D2AAF18C
:100DD00030000BF8010B200607D5A9F1010003E054
:100DE000200602D409F101008146A00502D50F9921
:100DF000681C0860B9696D1C0E9888478246002EF1
:100E0000D1DC53E0002E51DDBAF1650F02D0BAF10A
:100E1000450F4BD1A00549D5B9696D1C24F4407428
:100E2000761E0E9888478246002E0CDD2B2804D0B3
:100E3000BAF12D0F07D144F48074B9696D1C0E9876
:100E400088478246761EE00501D52D2100E02B2142
:100E500008F8011BCDF82C8021E00DF12901761E48
:100E600044F4007488450CD2AAF1300010F0FF0061
:100E700088F8000002D10B99884509D908F10108CA
:100E800006E0E00501D5244801E042F20F708146FA
:100E9000B9696D1C0E98884782460F980560002E30
:100EA00004DD504601F0D4FB0028D6D1F9690E9834
:100EB0008847FF208BF8000088F80000002006908B
:100EC00007904B466A4608A906A8FFF78BFEA005C7
:100ED00002D46FF001002AE714F0240F0AD0E007D3
:100EE00014D1DDE906123868031D3B600068C0E9D3
:100EF00000120BE0DDE90601FFF7A8FC0146E00760
:100F000004D13868021D3A600068016028460EE787
:100F1000000024400000F03FF1D8FFFF426842B1DA
:100F2000016811F8013B23B1521EC0E900121846B6
:100F300070470121C160881E704742685AB1C3687A
:100F4000016843B983688B4205D0491E521CC0E931
:100F50000012002070474FF0FF3070470EB540F28E
:100F6000334202920022CDE900221346FFF7B4FD7E
:100F700003B000BD10B50024002202E0835C5C4099
:100F8000521C8A42FAD3034903A001F03FFA2046DB
:100F900010BD00001A7A00085B25735D204F4B20BE
:100FA000210D0A0000F00F01000900EB800001EBA9
:100FB0004000C0B27047FEE700F086BBC10002D51A
:100FC00002490860704702494860704704040240C3
:100FD00000000240002904D0016841F001010160D5
:100FE000704701684FF6FE721140016070470000C3
:100FF00001684FF6FE7211400160002101604160FE
:101000008160C1603649364A0839904204D1486847
:1010100040F00F0048607047314A1432904204D1CA
:10102000486840F0F000486070472D4A28329042EE
:1010300004D1486840F4706048607047284A3C32E8
:10104000904204D1486840F4704048607047244A98
:101050005032904204D1486840F470204860704794
:101060001F4A6432904204D1486840F470004860DE
:1010700070471B4A7832904204D1486840F0706053
:1010800048607047174A111F904204D1086840F029
:101090000F0008607047134A1432904204D1086868
:1010A00040F0F000086070470E4A2832904204D1A8
:1010B000086840F47060086070470A4A3C32904209
:1010C00004D1086840F4704008607047054A503207
:1010D0009042FAD1086840F4702008607047000020
:1010E000080002400804024002460020D10002D558
:1010F0000449096801E004490968114200D001204F
:10110000704700000004024000000240002A03D0A3
:1011100002680A430260704702688A4302607047AF
:1011200030B5026847F6F0739A430C6A8B68234324
:10113000D1E904452C4323438C692343CC692343E1
:101140004C6A23438C6A234313430360CA6842609A
:101150000A6882604968C16030BD4160704770476D
:10116000010201EB102080B27047010600F47F42BB
:1011700001EB022100F47F0201EB122101EB106070
:10118000704700002DE9F04781460F461646984605
:10119000002E04D0D8F80010B1EB470F07D2164943
:1011A00016A001F033F94FF0FF30BDE8F08730466C
:1011B000FFF732F8002400257D2108E019F805002A
:1011C0007E280BD07D2810D02A19B0546D1CBD424A
:1011D000F4D33819C8F800000020E6E72819315484
:1011E000304402224270641CF0E728193154304424
:1011F00001224270641CE9E7117A00085B25735DE7
:10120000204641494C4544000149C86070470000F0
:101210000020024070B505464FF43026304600F0FD
:1012200059F8042811D1094C206940F002002061CE
:101230006561206940F040002061304600F04AF8C6
:10124000216941F6FD721140216170BD002002400C
:1012500004200849CA68D20701D001207047CA6833
:10126000520701D502207047C968C906FBD5032083
:1012700070470000002002400248016941F08001EF
:101280000161704700200240F0B506460D464FF45C
:101290000057384600F01EF804280CD1064C20698F
:1012A00040F0010020613580384600F013F82169D4
:1012B000BA1E11402161F0BD0020024003480249DE
:1012C00041600349416070472301674500200240A7
:1012D000AB89EFCD00B50346FFF7BAFF02E0FFF799
:1012E000B7FF5B1E012801D1002BF8D1002B00D1E4
:1012F000052000BD70B506460D465408FFF7DEFF19
:101300003520FFF781FF3046FFF784FF08E028789B
:101310006978AD1C40EA01213046FFF7B5FFB61CE5
:10132000641EA4B2F3D2BDE87040FFF7A5BF000071
:10133000F0B591B0402101A8FEF76EFF214C0227C5
:101340002760A4F134050026AE63EE632E646E645C
:101350000E221DA1201DFEF746FF41F6BB50606125
:101360000820A0610A20E0613C2020622920A0849E
:101370006620E084EE652E666E6617A00168E9655A
:101380008088A5F86000792085F8620084F83470C0
:101390000120A063402101A8FEF73EFF3C22214628
:1013A00001A8FEF720FF402201A90D48FFF7A2FF88
:1013B0000CA001F02BF812A0A16B01F027F811B0DE
:1013C0000020F0BDCC3300203132332E36302E34A5
:1013D000372E323130000000666163746F7279001D
:1013E00000800008464C4153485F5772697465207D
:1013F000535543434553532121212121210D0A00F7
:10140000696E6974466163746F7279506172616D5F
:101410006574657273203D3D202564200D0A00002F
:101420002DE9F0470F46002A70D00C2A6ED80668C6
:1014300044688568C168D0F81090D0F814A0BBB398
:1014400001EB0208B8F1180F19D3A8F11808012C04
:1014500016D0032C14D0052C12D0072C10D0082C39
:101460000ED00A2C0CD0042C11D0062C0FD0092C35
:101470000DD00B2C0BD0022C10D00C2C1CD066E005
:101480001F2D01D26D1C62E00125641C5FE01E2D42
:1014900001D26D1C5BE00125641C58E01D2D08D0B5
:1014A0001C2D03D1F0B200F0D0F910B16D1C4EE04C
:1014B0000AE0012503244AE01F2D01D26D1C46E0FD
:1014C00001250124761C42E0914202D3A1EB0208DF
:1014D0003DE0A1EB020808F11808022C17D0042CFB
:1014E00015D0062C13D0082C11D0092C0FD00B2CA2
:1014F0000DD0052C12D0072C10D00A2C0ED00C2C9D
:101500000CD0032C11D0012C1AD020E028E0012DA2
:1015100001D96D1E1BE01F25641E18E0012D01D9A5
:101520006D1E14E01E25641E11E0012D03D1F0B2E2
:1015300000F08BF908B16D1E09E01C25022406E0BD
:10154000012D01D96D1E02E01F250C24761E3E6080
:101550007C60BD60C7F80C80C7F81090C7F814A075
:10156000BDE8F0872DE9F0410022CC7804F00F03AC
:10157000E40601D58C7823430C784FF00F0714F064
:10158000FF0F4FF0010C1CD005680CFA02F40E8816
:101590002640A64211D1960007FA06F825EA08056A
:1015A00003FA06F848EA0505CE78282E02D0482E20
:1015B00002D002E0446100E00461521C082AE4D336
:1015C00005600A88FF2A1ED94568002202F1080634
:1015D0000CFA06F40E882640A64210D1960007FAAF
:1015E00006F825EA080503FA06F848EA0505CE7864
:1015F000282E00D14461CE78482E00D10461521CBF
:10160000082AE3D34560BDE8F081024600209268D5
:101610000A4200D001207047416170470161704764
:1016200010B500F071F8BDE8104000F001B80000FE
:1016300010B58CB00121084600F0F6F9154801906C
:1016400015480290002003904FF40061049105902A
:10165000802106910790089020210991C9010A91E3
:101660000B900E4C01A92046FFF75AFD00F018F828
:10167000012206212046FFF749FD01212046FFF700
:10168000A9FC044801224021001F00F09FFD0CB07E
:1016900010BD000004480040CC0000203000024093
:1016A00008B54FF4C06000F099F90D208DF80000E6
:1016B00001208DF8010000218DF802108DF8030043
:1016C000684600F059F908BD70B54FF480663046A1
:1016D000FFF70AFD0B4D012428B16C703046BDE8C0
:1016E0007040FFF76BBC4FF400763046FFF7FCFC10
:1016F000002805D02C703046BDE87040FFF75EBC76
:1017000070BD00002C00002010B586B0012108201B
:1017100000F0B4F90121880400F094F94FF48060DE
:10172000ADF8140018208DF8170003208DF816006E
:10173000144C05A92046FFF715FFE114ADF814106D
:1017400004218DF8171005A92046FFF70BFF4FF471
:10175000E13001900020ADF80800ADF80A00ADF8C6
:101760000C00ADF810000C20ADF80E00064C01A9DD
:10177000204600F0C9FD0121204600F01BFD06B007
:1017800010BD0000000C014000480040FEE70A21A7
:10179000B0FBF1F201FB1202B0FBF1F002EB001022
:1017A000C0B2704700B591B0402101A8FEF734FDEA
:1017B000134800218163C163016441640E2211A1B9
:1017C0003830FEF710FD134841F6BB51C0F8481100
:1017D0000821C0F84C11402101A8FEF71DFD084961
:1017E0003C22343101A8FEF7FEFC402201A90A4840
:1017F000FFF780FD09A000F009FE11B0002000BD38
:10180000983300203132312E352E3134302E3132A2
:10181000360000009832002000800008464C4153FA
:10182000485F5772697465205355434345535321AC
:1018300021212121210D0A0003E010F8013B01F8CC
:10184000013B521E92B2F8D2704700F5FA60810750
:1018500001D0002070474FF4C871B0FBF1F201FBDA
:10186000120131B16421B0FBF1F201FB120000283A
:10187000F0D00120704700002DE9F0410126264CF0
:10188000002800D026702078DFF89080244D4FF497
:10189000004778B120214046FFF7B7FE88B13946AE
:1018A0002846FFF7B2FE60B101212846FFF7ADFEE2
:1018B000012806D020214046FFF7A7FE01281DD0B1
:1018C00028E00A2001F02CFB002020702021404657
:1018D000FFF79BFE58B139462846FFF796FE48B100
:1018E00001212846FFF791FE012805D012E00120D2
:1018F000BDE8F0810220FBE70320F9E739462846DE
:10190000FFF783FE012805D101212846FFF77DFE60
:1019100000B926700020EBE73400002000100140E1
:101920000008014070B504460121242000F0A6F80B
:101930004FF4807020801026E6700325A5702146A4
:101940000848FFF70FFE02202080E670A5702146B0
:10195000054C2046FFF706FE2046BDE870400221F8
:10196000FFF75CBE0008014000100140FEE7704731
:101970004FF4A06000F032B870B50F23C278012692
:101980000178002A1ED0144A126802F4E062C2F5FF
:10199000E062120AC2F10404D3404578A54082787F
:1019A0001A402A43120101F1E02181F80024007855
:1019B00000F01F018E404009800000F1E020C0F8D7
:1019C000006170BD01F01F0086404809800000F1F1
:1019D000E020C0F8806170BD0CED00E002490843D2
:1019E00002490860704700000000FA050CED00E0B5
:1019F00010B504460121102000F040F8022020809C
:101A00001020E0700320A0702146054C2046FFF70F
:101A1000A9FD2046BDE810400221FFF7FFBD0000F0
:101A20000010014070470000054A002903D05169A9
:101A30000143516170475169814351617047000012
:101A400000100240054A002903D0D1690143D16149
:101A50007047D1698143D161704700000010024096
:101A6000054A002903D011690143116170471169CA
:101A7000814311617047000000100240054A0029AF
:101A800003D09169014391617047916981439161EC
:101A90007047000000100240054A002903D0D168B9
:101AA0000143D1607047D1688143D1607047000025
:101AB0000010024010B5264A516801F00C01254B78
:101AC000002927D0042927D0082927D0036051688E
:101AD00001F0F0010909204B5C5C0168E1404160C4
:101AE000546804F4E064240A1C5D21FA04F4846060
:101AF000546804F46054E40A1B5DD940C160526824
:101B000002F44042920B144B1B1F9A5CB1FBF2F1A2
:101B1000016110BD0360DAE70360D8E7516801F4A2
:101B20007011536803F48033022404EB914133B104
:101B300053689B0307D5094B59430160C7E7074B1F
:101B400059430160C3E7034B59430160BFE70000FD
:101B50000010024000127A001800002000093D0029
:101B60002DE9F047064688461746994618A000F02A
:101B70004DFC0025002419E0315D7D2903D1301989
:101B80004078022802D07D2906D009E07E20611B22
:101B90007854641C6D1C08E030194078012811D07D
:101BA000601B39540FA000F031FC641C4445E3D3A2
:101BB0000EA000F02BFCA8EB0500C9F800000020E7
:101BC000BDE8F0877D20611B7854641C6D1CECE738
:101BD0005B526576657273654573636170655F43DB
:101BE0005D3A000025303278200000000D0A000028
:101BF000704700F001B800000CB50022019200927D
:101C00002748016841F4803101604FF4A063016806
:101C100001F4003100910199491C0191009911B919
:101C200001999942F3D10168890302D501210091FC
:101C300000E000920099012930D11A490A6842F067
:101C400010020A600A6822F003020A600A6842F081
:101C500002020A604168416041684160416841F4A4
:101C600080614160416821F47C114160416841F428
:101C7000E8114160016841F08071016001688901EB
:101C8000FCD5416821F003014160416841F0020147
:101C900041604168C1F381010229FAD10CBD000005
:101CA00000100240002002404FF0E021042804D040
:101CB000086920F0040008617047086940F00400DA
:101CC0000861704710B50F48016841F001010160DB
:101CD00041680D4A1140416001680C4A11400160A1
:101CE000016821F480210160416821F4FE01416016
:101CF0004FF41F018160FFF77CFF05494FF0006042
:101D0000086010BD001002400000FFF8FFFFF6FE63
:101D100008ED00E010B5094C0121204600F0ADF8B7
:101D2000012809D106480168491C01602046BDE828
:101D30001040012100F092B810BD000000040040E6
:101D40002800002010B5174C0121204600F095F81E
:101D5000002825D00121204600F080F8124B134ABC
:101D60001878A0B11178491CC9B21170814217D1FD
:101D7000002010701870508840F4004050800020FF
:101D800000F042F8BDE81040632000F055B85088DC
:101D900040F400405080BDE81040002000F034B80E
:101DA00010BD0000000800403A000020360000206E
:101DB0007FB504460D4601210420FFF743FEADF830
:101DC0000440ADF800500020ADF80600ADF8020068
:101DD0000C4C6946204600F069F801221146204665
:101DE00000F057F81E208DF80C0001208DF80D0032
:101DF00002218DF80E108DF80F0003A8FFF7BCFD2F
:101E00007FBD00000008004010B50A4A00280AD033
:101E100014460021204600F046F82046BDE8104058
:101E2000012100F01EB8BDE810400021104600F06E
:101E300018B800000008004010B50446002106480C
:101E400000F031F804492C31088800220A800A8801
:101E500022430A8010BD000000080040C9430182EF
:101E60007047002904D0018841F0010101807047CA
:101E7000018821F001010180704702460020138A89
:101E80000B4092890A40002B02D0002A00D001208A
:101E90007047002A03D082890A4382817047828971
:101EA0008A438281704781847047000030B5028880
:101EB0001B4C1C4DA0420DD0A8420BD0B0F1804F5E
:101EC00008D0194B984205D0184B984202D0184BB5
:101ED000984203D122F070034A881A43154B984266
:101EE00006D0154B984203D022F44073CA881A4397
:101EF00002808A8882850A880285A0420AD0A84288
:101F000008D00E4A904205D00D4A904202D00D4AA8
:101F1000904201D1097A01860121818230BD000001
:101F2000002C014000340140000400400008004043
:101F3000000C004000100040001400400040014030
:101F400000440140004801407FB505460E4601218E
:101F50000220FFF777FD0024ADF80A40ADF80640F7
:101F6000ADF80850ADF804600E4D01A92846FFF702
:101F70009DFF012211462846FFF78BFF1D218DF89A
:101F8000001001218DF803108DF8014003218DF818
:101F900002106846FFF7F0FC01212846FFF761FFB9
:101FA0007FBD00000004004070B58CB006460C46B2
:101FB000154601210846FFF737FD3046FFF718F8B0
:101FC0000194029510200390002104910591802036
:101FD000069007910891099140010A900B9101A97F
:101FE0003046FFF79DF80CB070BD70B504460D4645
:101FF00000212046FEF7EEFF29462046FFF7ADF808
:102000002046BDE870400121FEF7E4BF70B5164CD4
:1020100040F22551204600F03CF900280ED0204621
:1020200000F0D0F9C1B2114A1088030406D4440468
:102030004FF0000307D50A2901D0138070BD40F48A
:102040000040108070BD0D290AD0094DC0F30D0469
:102050002955401C80B21080C728F3D9138070BD69
:1020600040F48040108070BD003801402E000020F8
:10207000CC08002070B5124C40F22551204600F0EB
:1020800008F9002816D0204600F09CF9C5B20D4C86
:102090006088B0F5A05F0ED200210B48FFF703FF68
:1020A000608810B90120FFF7AFFE6088411C618095
:1020B00006490D5470BD40F40040608070BD0000C2
:1020C000004400403600002000080040981D002019
:1020D0002DE9F04186B0044601210420FFF7CEFC33
:1020E00001214804FFF7AEFC2D4F384600F078F888
:1020F0000426ADF8106003258DF8125018208DF8D5
:102100001300DFF8A08004A94046FFF72BFA08204F
:10211000ADF810008DF8136004A94046FFF722FACD
:1021200000940024ADF80440ADF80640ADF8084036
:10213000ADF80C400C20ADF80A006946384600F0B6
:10214000E3F801228021384600F040F8164A391D94
:102150001648FFF729FF0121384600F02BF801222D
:1021600040F22551384600F0B4F826208DF81400CE
:1021700002208DF815008DF8165001208DF81700FB
:1021800005A8FFF7F9FB41F61F416320FFF710FE9A
:10219000074844800020FFF737FE06B0BDE8F08115
:1021A00000440040000801409809002080000240DF
:1021B00036000020002904D0818941F4005181813A
:1021C0007047818921F4005181817047002A03D032
:1021D000828A0A4382827047828A8A438282704757
:1021E00010B5234988420AD101218C032046FFF70C
:1021F00053FC2046BDE810400021FFF74DBC1D49AF
:1022000088420AD101214C042046FFF729FC2046D0
:10221000BDE810400021FFF723BC174988420AD1CE
:1022200001218C042046FFF71BFC2046BDE810402E
:102230000021FFF715BC114988420AD10121CC04C5
:102240002046FFF70DFC2046BDE810400021FFF7B7
:1022500007BC0B4988420AD101210C052046FFF733
:10226000FFFB2046BDE810400021FFF7F9BB10BD81
:10227000003801400044004000480040004C00404D
:10228000005000400246002012880A4200D001207F
:10229000704770B5002440F66A12C1F3421301F092
:1022A0001F05012606FA05F2012B0CD0022B0DD0DA
:1022B000838A1340090A8E40008830400BB100B178
:1022C0000124204670BD83891340F3E7038A13403D
:1022D000F0E710B540F66A13C1F3421301F01F0492
:1022E0000121A140012B07D0022B07D014303AB1B5
:1022F00002680A43026010BD0C30F8E71030F6E7C0
:1023000002688A43026010BD30B585B004460D46B0
:10231000208A4CF6FF710840E98801432182A08998
:102320004EF6F3110840A9882A8911436A890243AD
:102330001143A181A08A4FF6FF410840A9890143BA
:10234000A1826846FFF7B6FB1D48844201D103987D
:1023500000E00298A189090408D500EBC00101EB57
:10236000001029684900B0FBF1F007E000EBC00164
:1023700001EB001029688900B0FBF1F06422B0FB8A
:10238000F2F109010B096FF018056B4300EB8300B4
:10239000A3891D044FF0320307D503EBC000B0FB47
:1023A000F2F000F00700084306E003EB0010B0FB7A
:1023B000F2F000F00F000843208105B030BD0000AE
:1023C000003801408088C0F308007047C1F308015D
:1023D00081807047FEE710B504462046FFF7F6FF00
:1023E00080212046FFF74EFF0028F9D010BD2DE9CF
:1023F000F04107460D46164600243846295DFFF792
:10240000EAFF641CB442F8D3BDE8F0810FB4054B79
:1024100010B503A9044A029800F072F910BC5DF8E7
:1024200014FB000081320008300000200FB4084B7C
:1024300010B504A902AA039800F062F9044602A9A3
:10244000002000F0FFFC204610BC5DF814FB0000EB
:10245000452E00087CB5044600201D46164600297E
:102460000BD0491ECDE90041044B6A46294630464F
:1024700000F046F9009A002111707CBD2F2E000853
:1024800037B514460846064B6A46214600F038F92F
:1024900004466946002000F0D5FC20463EBD000001
:1024A000452E000800487047BC00002002E008C824
:1024B000121F08C1002AFAD170477047002001E0BE
:1024C00001C1121F002AFBD1704700002DE9FF5FF8
:1024D00082B00021DDE90430020DDDF840B0034395
:1024E00018D044F61050A2F2FF324243151411984E
:1024F00001281FD0A5EB0B00401C5FEA000A4FF03B
:1025000000064E4FDFF83891B046504615D5CAF157
:10251000000413E0119801244AA3012801D16FEAB5
:102520000B010298119AC0E90031C0E9024206B0DD
:10253000BDE8F09FCBF10000DFE704460021404AF0
:10254000491842EB0450CDE9001012E0E00707D033
:1025500032463B4640464946FEF702F880468946E9
:1025600032463B4610461946FDF7FAFF06460F462F
:102570006410002CEAD1DDE90401DDE90023BAF1A1
:10258000000F06DAFDF7ECFF42464B46FDF7E8FF89
:1025900005E0FEF757F842464B46FEF753F804466F
:1025A0000E460022284BFEF739F903D84FF0FF30D2
:1025B000014607E00022254B20463146FDF729FF62
:1025C000FEF7D8FA102409E0002C0ADB0A220023C7
:1025D000FDF7CAFD039B30321A55641E50EA010212
:1025E000F2D1641C039AC4F111031444119A012A14
:1025F00003D0012208430DD10AE0084304D0002093
:102600004FF0110B119072E7A3EB0B056D1E0DE05F
:102610005B4504DD4FF0000205F1010504E003DA3B
:102620004FF00002A5F10105002AECD002981199A3
:10263000C0E90231C0E9004579E70000000014401C
:102640000000F03F300000000000F0430000E03FD9
:1026500030380A2801D2012070470020704700005E
:10266000FEB5002402F114052E1F331F06290BD0DE
:10267000082914D0092912D00A2910D010A003F07B
:102680008DFBCCB10020FEBDCDE9006515A204F0A4
:10269000BFFC032801D00024F3E70124F1E718323E
:1026A000CDE90065029212A204F0B2FC042801D028
:1026B0000024E6E70124E4E74FF0FF30FEBD000010
:1026C0005061727365206F662074696D6520657254
:1026D000726F722028666F726D6174206572726FFE
:1026E00072292100253264253264253264000000FD
:1026F0002532642532642532642E256400000000F2
:102700002DE9FF4F95B09B468946064600250FE20E
:10271000252877D100242746F84A0121059400E0B6
:10272000044316F8013F203B01FA03F01042F7D1B1
:1027300030782A2811D06FF02F033078A0F13002C2
:10274000092A16D8059A44F0020402EB820203EB30
:1027500042021044761C0590EFE759F8042B0592CD
:10276000002A03DA504244F40054059044F0020475
:10277000761C30782E2816D116F8010F44F0040488
:102780002A280DD06FF02F023078A0F13003092BEA
:1027900009D807EB870302EB4303C718761CF3E75E
:1027A00059F8047B761C30786C280FD006DC4C2856
:1027B00017D068280DD06A2814D104E0742810D0EE
:1027C0007A280FD10DE044F400140AE044F4801498
:1027D00001E044F440147278824202D104F580147E
:1027E000761C761C307866280BD013DC582877D0FE
:1027F00009DC002875D04528F6D04628F4D04728B3
:102800001AD19DE118E0632835D0642879D0652875
:1028100012D195E1702873D008DC6728F1D06928BF
:102820006FD06E280DD06F2806D1B5E073282CD05C
:10283000752875D0782874D05A46179990476D1C22
:1028400075E1C4F30250022809D003280DD0D9F84D
:10285000001004280DD00D6009F1040967E1D9F8D2
:102860000010EA17C1E90052F6E7D9F800100D8010
:10287000F2E70D70F0E719F8041B8DF80010002046
:102880008DF80100EA46012003E059F804AB4FF04F
:10289000FF3061074FF0000102D40DE008F10101A3
:1028A0008846B9420FDA8045F8DB1AF8081000298B
:1028B000F4D108E008F1010188468142FADB1AF8F8
:1028C00008100029F6D105985B46A0EB08072146C1
:1028D0003846179A00F094FA284400EB080507E000
:1028E0004DE029E10DE01AF8010B5A46179990477F
:1028F000B8F10108F7D25B4621463846179A13E132
:1029000042E00A220092C4F302524FF0000A022A67
:1029100008D059F804CB032A4FEAEC710AD00DE035
:1029200029E02AE009F1070121F00702F2E802C1DB
:10293000914609E00FFA8CFC4FEAEC71042A03D1AE
:102940004FFA8CFC4FEAEC71002907DA0A460021A5
:10295000DCF1000C61EB02012D2202E0220504D51E
:102960002B228DF80420012203E0E20701D020226F
:10297000F7E7904659E00A2102E010220DE010210D
:102980004FF0000A00910BE010224FF0000A44F0D3
:1029900004040827009203E008224FF0000A009286
:1029A000C4F30252022A05D059F804CB0021032AAD
:1029B00008D009E009F1070121F00702F2E802C19D
:1029C000914605E01FFA8CFC042A01D10CF0FF0CA3
:1029D0004FF00008220728D5702806D0009B83F00E
:1029E000100353EA0A0305D00EE040228DF80420BC
:1029F000012208E05CEA010206D030228DF80420B2
:102A00008DF8050002229046009B83F0080353EAEC
:102A10000A030AD15CEA010201D1620705D530221E
:102A20008DF804204FF001087F1E582804D034A0F0
:102A300003900EA802900DE036A0F9E753466046D9
:102A4000009AFDF791FB84460398825C0298401E31
:102A5000029002705CEA0100F0D1029806A9081AFF
:102A600000F1200A600702D524F4803400E0012739
:102A7000574502DDA7EB0A0000E0002000EB0A0149
:102A8000009005984144401A0590E00306D45B4647
:102A90002146179A059800F0B3F90544002706E08F
:102AA00001A85A46C05D179990476D1C7F1C474589
:102AB000F6DBE0030CD55B462146179A059800F03B
:102AC0009FF9054404E030205A46179990476D1C41
:102AD0000099481E00900029F5DC08E00298029950
:102AE0005A460078491C0291179990476D1CBAF11B
:102AF0000001AAF1010AF1DC65E1000009280100EA
:102B00003031323334353637383961626364656663
:102B10000000000030313233343536373839414225
:102B2000434445460000000000F058F90544761C77
:102B3000307800287FF4ECAD19B02846BDE8F08F5E
:102B4000620700D4062709F1070222F0070CFCE80F
:102B50000223E14603F000485FEA080C02D00FF2BE
:102B6000702C0DE05FEA045C02D50FF2682C07E0E0
:102B70005FEAC47C02D00FF2602C01E0AFF2700C6F
:102B80004FF0FF3823F00043CDF850C065280CD03B
:102B900006DC452809D046281DD047283DD13DE018
:102BA000662818D067287ED138E00021112F01DB7C
:102BB000112000E0781CCDE9000106A90EA8FFF75E
:102BC00085FCDDE90F010E9A03910021009207F1C7
:102BD000010A04914DE04FF000400097CDE901104B
:102BE00006A90EA8FFF772FCDDE90F0203920E9B07
:102BF00011990022DDF80CA00093049211B9791C00
:102C000000EB010AB7EB0A0004D4C0F1FF3007F172
:102C1000010A0490AAEB0700019044E0012F00DABA
:102C200001270021112F01DD112000E03846CDE9F8
:102C3000000106A90EA8FFF749FCDDE90F010E9A75
:102C40000391002104910092BA4621070CD4039904
:102C5000514500DA8A46BAF1010F05DD009AAAF162
:102C60000101515C302908D0B84202DA10F1040F9A
:102C700006DA0121CDE9011015E0AAF10101E9E729
:102C8000002805DC049901440491AAEB000102E04C
:102C9000411C514500DD8A460499401A401C0190B0
:102CA0004FF000400290200704D40198504501DB0A
:102CB000CDF8048000208DF84F0002980DF14F07E9
:102CC000B0F1004F25D02B200E9002984FF0020853
:102CD00000280CDA404202902D200E9007E00A21D5
:102CE0000298FDF7CFFD3031029007F8011DB8F1D1
:102CF0000001A8F10108F2DC02980028EFD1791E4A
:102D00000E980870307800F0200040F0450007F879
:102D1000020D12A8C01B00F107081498007800B13A
:102D2000012000EB0A01019801EBE0710598414494
:102D3000401A401E0590E00306D45B462146179AD0
:102D4000059800F05DF805441498007818B15A46CB
:102D5000179990476D1CE00324D55B462146179ACE
:102D6000059800F04DF805441CE00498002807DBA6
:102D7000DDE90301884203DD0098405C179901E01A
:102D8000179930205A469047049805F10105401CD8
:102D900004900198401E019004D12E205A461799A4
:102DA00090476D1CBAF10001AAF1010ADDDC05E0D3
:102DB00017F8010B5A46179990476D1CB8F100019E
:102DC000A8F10108F4DC5B462146179A0598ABE6AA
:102DD0002D0000002B000000200000002DE9F04134
:102DE000044600251E461746880404D405E03946EB
:102DF0002020B0476D1C641EF9D52846BDE8F0813F
:102E00002DE9F041044600251E469046C80301D531
:102E1000302700E02027880404D505E041463846E5
:102E2000B0476D1C641EF9D52846BDE8F0814A689C
:102E3000002A06D00A68531C0B6010704868401EB8
:102E4000486070470A68531C0B60107070470000A0
:102E500010B5094B094C1A68914202D94FF0000095
:102E600010BD04D1605402F101021A6000E0605408
:102E70004FF0010010BD00009800002058340020E1
:102E8000044A034B11685854491C116070470000F4
:102E9000583400209800002070B505460E46002DDD
:102EA00001D0002405E0002070BD285DFFF7E8FF99
:102EB000641CB442F9D3012070BD000010B54FF47A
:102EC00080610348FDF7A8F902490020086010BDA1
:102ED00058340020980000200221FFF7DDBF0421B4
:102EE000FFF7DABF10B56FF00400FEF7DDFE09480A
:102EF00009490068B0FBF1F00849C0B2087000EB66
:102F00004002C2EBC0104FF6FF7202EAC0004880D8
:102F100010BD00000000002000127A008000002098
:102F20000B49498848434FF0E021486100238B61F9
:102F3000086940F0010008610869C20701D0C003B8
:102F4000FAD5086920F0010008618B617047000024
:102F50008000002001460020054A1288130406D58F
:102F6000044BC2F30E0298541846FDF760B970473F
:102F700038000020981D00202DE9F041ADF6080D25
:102F800000240027454D00262E804FF47A700090D3
:102F900043A343A244A145A000F0DAF82E804FF4E9
:102FA000FA683FA33EA240A141A0CDF8008000F006
:102FB000CFF82E803AA33AA23BA13FA0CDF80080E3
:102FC00000F0C6F82E8005E02E806420FFF7A8FFF1
:102FD000641CE4B232A332A23AA13EA0CDF8008034
:102FE00000F0B6F8012801D00A2CEDD32E800A2C6F
:102FF0004CD02BA32CA23AA13CA0CDF8008000F02D
:10300000A7F82E80C820FFF78BFF25A324A226A1B6
:1030100039A0CDF8008000F09BF82E80C820FFF783
:103020007FFF1FA31EA220A136A0CDF8008000F0D4
:103030008FF82E80C820FFF773FF4FF4006102A8BD
:10304000FDF7EAF8334834A100F59C72D0F8483116
:1030500002A8FFF7EBF912A313A238A102A8CDF83A
:10306000008000F075F804462E80C820FFF758FF56
:103070002E80012C0CD0022C0AD0032C08D0012F5A
:1030800006D000200DF6080DBDE8F0810020F9E71C
:1030900021462CA0FFF7BAF90120F3E73800002001
:1030A0004E554C4C000000004F4B000041540000B6
:1030B000415445300000000041542B4350494E3FDD
:1030C000000000000D0A2B435245473A20302C31B6
:1030D0000000000041542B435245473F0D0A0000B9
:1030E0002B43474154543A203100000041542B43B4
:1030F000474154543F0D0A0041542B514941435418
:103100003F0D0A0041542B5149434C4F53453D302C
:103110000D0A00009832002041542B51494F504570
:103120004E3D312C302C22544350222C2225732228
:103130002C25642C302C320D0A000000434F4E4EDB
:1031400045435400646174613D25640D0A0000002C
:103150002DE9F05F0A9C0746894692469B4600256A
:103160002E4EA846A6F80080FF2F07D82C48D0F88E
:1031700084100029FBD12B48078007E039462AA09C
:1031800004F04CFA394628A0FFF740F9284FA4F57F
:1031900080604C3805D10B20387042F20F70FEF77A
:1031A0004BFEB9F1000F00D07CBBBBF1000F00D08B
:1031B0005CBBBAF1000F2FD03CBB2DE0787828B172
:1031C0000020FEF759FB0546032D10D00A20FFF71B
:1031D000A7FE308800041BD516A11748FFF716F983
:1031E0004846FFF7B7FE20B10120BDE8F09F02205E
:1031F000FBE75046FFF7AEFE08B10220F5E7584660
:10320000FFF7A8FE10B10320EFE701E0A6F8008069
:10321000641E2404240CD1D12846E6E7380000209F
:10322000000002400444004025730D0A0000000025
:103230003A0000200D0A0000981D00207047000091
:1032400010B5024600200021044B33F8114094428F
:1032500000D10120491C0929F7DB10BD84000020A2
:1032600010B5024600200021044B33F8114094426F
:1032700000D10120491C0A29F7DB10BDA000002065
:1032800004490A885206FCD5024AC1B2121D1180B7
:10329000704700000038014010B5002821D0114BC4
:1032A0000022001F196803E0814203D80A464968DA
:1032B0000029F9D152B11368841A9C4204D10068E4
:1032C00018441060104602E0506000E0186039B108
:1032D00002680B1A934203D10B681A4402604968D2
:1032E000416010BDB400002070B505460E4609A02F
:1032F000FFF78CF8002405E0295D09A0FFF786F8A8
:10330000641CA4B2B442F7DBBDE8704005A0FFF72F
:103310007DB800000D0A496E666F3A20000000007B
:10332000256300000A000000F0B591B007460D4685
:103330001446402101A8FCF76FFF002F24D0002D78
:1033400022D0681C02F0CCF906462A46394630469F
:10335000FCF749FF307884F86801402101A8FCF7A8
:103360005BFF3C2204F59A7101A8FCF73CFF402268
:1033700001A90648FDF7BEFF94F8681104A0FFF705
:1033800045F83046FFF788FF11B0F0BD0080000817
:1033900068616E646C655F436172506C6174654313
:1033A0006F6C6F72203D3D3D3D2030782530327886
:1033B000200D0A00F0B591B006460D461446402196
:1033C00001A8FCF729FF002E2ED0002D2CD0681C60
:1033D00002F086F907462A4631463846FCF703FFD5
:1033E0000020C4F85C01C4F86001C4F864012A46F6
:1033F00004F5AE7039460546FCF7F5FE402101A8FC
:10340000FCF70AFF3C2204F59A7101A8FCF7EBFED9
:10341000402201A90548FDF76DFF294604A0FEF7EB
:10342000F5FF3846FFF738FF11B0F0BD0080000807
:1034300068616E646C655F436172506C6174654E67
:10344000756D203D3D3D3D202573200D0A00000097
:10345000F0B591B006460D46144640216846FCF78B
:10346000DBFE002E2CD0002D2AD0284602F038F9A1
:1034700007462A4631463846FCF7B5FE2A46394605
:1034800010A8FCF7B0FEBDF84000FDF769FEA4F8F7
:103490005A0140216846FCF7BFFE3C2204F59A71B0
:1034A0006846FCF7A0FE402269460648FDF722FF69
:1034B000B4F85A1104A0FEF7A9FF3846FFF7ECFE56
:1034C00011B0F0BD0080000868616E646C655F43F8
:1034D0006974794944203D3D3D3D202564200D0A15
:1034E00000000000F0B591B006460D46144640219C
:1034F0006846FCF791FE002E2BD0002D29D02846DF
:1035000002F0EEF807462A4631463846FCF76BFED5
:103510002A46394610A8FCF766FE1098FDF725FEEE
:10352000C4F8500140216846FCF776FE3C2204F5C1
:103530009A716846FCF757FE402269460648FDF737
:10354000D9FE06A0D4F84C11FEF760FF3846FFF70D
:10355000A3FE11B0F0BD00000080000868616E6439
:103560006C655F44656661756C7454696D65526520
:10357000706F727454696D65496E74657276616CB2
:10358000203D3D3D3D202564200D0A00F0B591B061
:1035900006460D46144640216846FCF73DFE002EC7
:1035A0002ED0002D2CD0284602F09AF807462A4645
:1035B00031463846FCF717FE2A46394610A8FCF774
:1035C00012FE1098FDF7D1FD082800D30820C4F89A
:1035D0004C0140216846FCF71FFE3C2204F59A711D
:1035E0006846FCF700FE402269460648FDF782FE69
:1035F00005A0D4F84C11FEF709FF3846FFF74CFE42
:1036000011B0F0BD0080000868616E646C655F44B5
:10361000656661756C7454696D655265706F72741E
:1036200054696D65496E74657276616C203D3D3DEF
:103630003D202564200D0A00F0B591B004460F46E8
:10364000154640216846FCF7E7FD002C2BD0002FE3
:1036500029D0384602F044F806463A46214630461C
:10366000FCF7C1FD3A46314610A8FCF7BCFD1098A6
:10367000FDF77BFD0446C5F8340140216846FCF7A0
:10368000CBFD3C2205F59A716846FCF7ACFD21465E
:1036900006A0FEF7BBFE402269460D48FDF72AFE54
:1036A0003046FFF7F9FD11B0F0BD000068616E64AF
:1036B0006C655F486561727442656174496E7465DA
:1036C0007276616C203D3D3D3D202564200D0A0051
:1036D00000800008F0B591B006460D461446402122
:1036E00001A8FCF799FD002E30D0002D2ED0681CCB
:1036F00001F0F6FF07462A4631463846FCF773FDCF
:103700000020C4F83801C4F83C01C4F84001C4F8F2
:1037100044012A4604F59C7039460546FCF763FDD2
:10372000402101A8FCF778FD3C2204F59A7101A81C
:10373000FCF759FD402201A90548FDF7DBFD2946AC
:1037400004A0FEF763FE3846FFF7A6FD11B0F0BDFA
:103750000080000868616E646C655F4D61696E533E
:10376000657276657241646472657373203D3D3D98
:103770003D202573200D0A00F0B591B006460D4698
:10378000144640216846FCF747FD002E2BD0002D43
:1037900029D0284601F0A4FF07462A46314638467C
:1037A000FCF721FD2A46394610A8FCF71CFD1098AD
:1037B000FDF7DBFCC4F8540140216846FCF72CFD02
:1037C0003C2204F59A716846FCF70DFD40226946DB
:1037D0000648FDF78FFD06A0D4F85411FEF716FE3B
:1037E0003846FFF759FD11B0F0BD00000080000819
:1037F00068616E646C655F4D6178537065656420C7
:103800003D3D3D3D202564200D0A0000F0B591B0FE
:1038100006460D46144640216846FCF7FDFC002E86
:103820002CD0002D2AD0284601F05AFF07462A4600
:1038300031463846FCF7D7FC2A46394610A8FCF733
:10384000D2FCBDF84000FDF78BFCA4F858014021E4
:103850006846FCF7E1FC3C2204F59A716846FCF7E7
:10386000C2FC402269460648FDF744FDB4F85811F1
:1038700004A0FEF7CBFD3846FFF70EFD11B0F0BDFA
:103880000080000868616E646C655F50726F7669D5
:103890006E63654944203D3D3D3D202564200D0A71
:1038A00000000000F0B591B006460D4614464021D8
:1038B0006846FCF7B1FC002E2BD0002D29D02846FD
:1038C00001F00EFF07462A4631463846FCF78BFCCE
:1038D0002A46394610A8FCF786FC1098FDF745FCEF
:1038E000C4F8480140216846FCF796FC3C2204F5E8
:1038F0009A716846FCF777FC402269460648FDF756
:10390000F9FC06A0D4F84811FEF780FD3846FFF711
:10391000C3FC11B0F0BD00000080000868616E6457
:103920006C655F536572766572506F7274203D3DB1
:103930003D3D202564200D0A0000000010B548F22E
:103940000102034903A0FEF761FD002010BD000045
:10395000017900085B25735D206D73675F696420E2
:103960003D203078253034780D0A000010B548F23B
:103970000122034903A0FEF749FD002010BD00000D
:10398000CE7900085B25735D206D73675F696420E5
:103990003D203078253034780D0A000010B540F213
:1039A0000122034903A0FEF731FD002010BD0000F5
:1039B000957800085B25735D206D73675F696420EF
:1039C0003D203078253034780A00000010B548F2E8
:1039D0000612034903A0FEF719FD002010BD0000E8
:1039E000787900085B25735D206D73675F696420DB
:1039F0003D203078253034780D0A000010B548F2AB
:103A00000412034903A0FEF701FD002010BD0000D1
:103A10005A7900085B25735D206D73675F696420C8
:103A20003D203078253034780D0A000010B54FF471
:103A30008272034903A0FEF7E9FC002010BD0000DC
:103A4000347800085B25735D206D73675F696420BF
:103A50003D203078253034780A0000001FB5044638
:103A60000020029003904FF40072364936A0FEF712
:103A7000CDFC54F8900FFDF778FB019001A8FFF7FB
:103A80002EFA6068FDF771FB019001A8FFF727FA95
:103A9000A068FDF76AFB019001A8FFF720FAE06833
:103AA000FDF763FB019001A8FFF719FA208AFDF7E3
:103AB00057FB00906846FFF70FFA608AFDF750FB4E
:103AC00000906846FFF708FAA08A903CFDF748FB93
:103AD00000906846FFF700FA04F1A6000446FCF7E0
:103AE000B8FB024602A9204601F000FA062102A80E
:103AF000FFF7D2F93020FFF7C3F90120FFF7C0F933
:103B00005320FFF7BDF93120FFF7BAF90120FFF785
:103B1000B7F90B20FFF7B4F9E020FFF7B1F9012066
:103B2000FFF7AEF90320FFF7ABF9EE20FFF7A8F996
:103B30000120FFF7A5F90220FFF7A2F9282004B021
:103B400010BD00007E7800085B25735D206D7367F3
:103B50005F6964203D203078253034780D0A0000FC
:103B600070B5044648F20102164917A0FEF74EFC54
:103B7000002C23D00D202189890400D5112018495B
:103B80000D18085C6A78E03402EB002082B2A28053
:103B90000C4914A0FEF73AFCE878A97800EB012064
:103BA00082B26280074918A0FEF730FC2A792270A1
:103BB00004491DA0FEF72AFC002070BD4FF0FF3025
:103BC00070BD0000E17800085B25735D206D7367B0
:103BD0005F6964203D203078253034780D0A00007C
:103BE000583800205B25735D2020726573706F6EFE
:103BF000655F666C6F775F6E756D203D2030782550
:103C00003034780D0A0000005B25735D2072657307
:103C1000706F6E655F6D73675F6964203D203078FB
:103C2000253034780D0A00005B25735D20726573C2
:103C3000706F6E655F726573756C74203D203078AF
:103C4000253034780D0A00002DE9F84F814601F047
:103C5000F5F948F20312214921A0FEF7D7FB4FF0F6
:103C6000FF32B9F1000F11D00D20B9F8E8108B0424
:103C700000D51120C1F3090159B1DFF87C8018F893
:103C80000070401C84B237B1002522E01046BDE828
:103C9000F88F1046FBE71046F9E708EB04000068D0
:103CA0000090FDF762FA8246241DA4B25046FFF749
:103CB000D7FA18F80460641CA4B2012806D1F2B245
:103CC00008EB04014B46504601F0C8F8A01984B235
:103CD0006D1CBD42E1DB0020D9E700003C79000803
:103CE0005B25735D206D73675F6964203D203078CC
:103CF000253034780D0A00005838002070B504468D
:103D0000D4F83001FCF7A5FA05464FF48172054955
:103D100005A0FEF77BFB2946D4F83001FFF7BCF87D
:103D2000284670BD157800085B25735D206D7367AC
:103D30005F6964203D20307825303478200D0A00FA
:103D400010B548F20512034903A0FEF75FFB0020FF
:103D500010BD00009E7900085B25735D206D7367C0
:103D60005F6964203D203078253034780D0A0000EA
:103D700038B5044605250122124913A0FEF746FB7B
:103D8000C234E08EFDF7ECF900906846FFF7A4F826
:103D9000E18E14A0FEF73AFBA08CFDF7E1F900904C
:103DA0006846FFF799F8A18C14A0FEF72FFB14F8D2
:103DB000C20CFFF765F8A17F16A0FEF727FB284687
:103DC00038BD0000AB7700085B25735D20206D7364
:103DD000675F6964203D20307825303478200D0AF3
:103DE0000000000020666C6F775F6E756D203D3DB2
:103DF00020307825303478200D0A0000206D73675C
:103E00005F6964203D3D20307825303478200D0AEC
:103E10000000000020726573706F6E655F726573DD
:103E2000756C74203D3D20307825303278200D0AA5
:103E30000000000010B50222024903A0FEF7E6FAD6
:103E4000002010BDCB7700085B25735D203C6E6FB2
:103E5000206D65737361676520626F64793E202011
:103E60006D73675F6964203D203078253034782099
:103E70000D0A200010B50322024903A0FEF7C6FA7E
:103E8000002010BDFE7700085B25735D203C6E6F3F
:103E9000206D65737361676520626F64793E206D84
:103EA00073675F6964203D203078253034780A00DC
:103EB00038B504464FF480721C491DA0FEF7A6FADF
:103EC000204600F031F92525E08BFDF749F90090F7
:103ED0006846FFF701F8208CFDF742F9009068462C
:103EE000FEF7FAFF052104F12200FEF7D5FF1421A9
:103EF00004F12700FEF7D0FF072104F13B00FEF795
:103F0000CBFF94F84200FEF7BBFF94F8420050B19B
:103F100004F143000446FCF79CF905462946204677
:103F2000FEF7BAFF2535284638BD0000E5770008C2
:103F30005B25735D206D73675F6964203D20307879
:103F400025303478200D0A0070B504464FF4014244
:103F50001C491DA0FEF75AFAE4B10D20B4F8E81090
:103F6000890400D511201E490D18085C6A78E034D8
:103F700002EB002082B2A28012491AA0FEF746FA94
:103F8000AA7822700F4920A0FEF740FA14F8E00941
:103F900018B115E04FF0FF3070BD34F8E80FC0F3F2
:103FA0000900C01E86B2701C01F09AFBA064E91CD7
:103FB0003246FCF718F903491BA0A26CFEF726FA5B
:103FC000002070BD1B7900085B25735D206D736751
:103FD0005F6964203D203078253034780D0A000078
:103FE000583800205B25735D20726573706F6E65B5
:103FF0005F666C6F775F6E756D20203D2030782591
:104000003034780D0A0000005B25735D2072657303
:10401000706F6E655F726573756C7420203D203023
:1040200078253032780D0A005B25735D2061757448
:1040300068656E7469636174696F6E5F636F6465F0
:10404000203D2025730D0A0010B548F208120349DF
:1040500003A0FEF7DBF9002010BD0000B6790008D0
:104060005B25735D206D73675F6964203D20307848
:10407000253034780D0A000010B54FF484720349DE
:1040800003A0FEF7C3F9002010BD00005A78000815
:104090005B25735D206D73675F6964203D20307818
:1040A000253034780A00000070B505460C4608A09B
:1040B000FEF7ACF90D4E356029460DA0FEF7A6F9C6
:1040C00074602146BDE8704010A0FEF79FB9000063
:1040D0000A0D5B496E69744C6F636174696F6E4958
:1040E0006E666F5D204F4B20210D0A0028330020A3
:1040F000706172612D3E616C61726D2E76616C75BE
:1041000065203D2025640D0A000000007061726189
:104110002D3E7374617475732E76616C7565203DE8
:104120002025640D0A00000070B5044631A0FEF79A
:104130006DF9B4F85811E18336A0FEF767F9B4F8C9
:104140005A1121843DA0FEF761F9052504F12200F2
:1041500029460646FCF760F82A4642A13046FCF79D
:1041600042F8314641A0FEF751F90B2504F1270032
:1041700029460646FCF750F82A4647A13046FCF788
:1041800032F8314647A0FEF741F9082504F13B001B
:1041900029460646FCF740F82A464DA13046FCF772
:1041A00022F831464CA0FEF731F994F8681184F8F2
:1041B000421053A0FEF72AF994F8420078B1433434
:1041C000D4F819012060D4F81D016060D4F82101F1
:1041D000A060433C04F1430155A0FEF717F916A077
:1041E000FEF714F95DA0FEF711F9BDE8704012A0CA
:1041F000FEF70CB90D0A5B20696E69745265676938
:1042000073746572496E666F205D204F4B20210DDF
:104210000A000000706172612D3E726567697374F7
:1042200065725F696E666F2E70726F76696E636518
:104230005F6964203D2025640D0A00007061726191
:104240002D3E72656769737465725F696E666F2E65
:10425000636974795F6964203D20253034640D0AF8
:104260000000000058494E44410000007061726136
:104270002D3E72656769737465725F696E666F2E35
:104280006D616E7566616374757265725F696420D5
:104290003D2025730D0A00005A584941542D435AB8
:1042A00030310000706172612D3E72656769737410
:1042B00065725F696E666F2E7465726D696E616C92
:1042C0005F6D6F64656C203D2025730D0A00000052
:1042D0003130303030303000706172612D3E7265A7
:1042E0006769737465725F696E666F2E7465726D4F
:1042F000696E616C5F6964203D2025730D0A0000C2
:10430000706172612D3E72656769737465725F6971
:104310006E666F2E6361725F706C6174655F636F50
:104320006C6F72203D203078253032780D0A000005
:10433000706172612D3E72656769737465725F6941
:104340006E666F2E6361725F706C6174655F6E750F
:104350006D203D2025730D0A00000000E6B3A8E59E
:10436000868CE4BFA1E681AFE69BB4E696B0E5AEED
:104370008CE688900D0A000010B590B04021684688
:10438000FBF74AFF402269462748FDF755FA2748C0
:104390003C210446FBF740FF402269462046FBF7DC
:1043A00022FF234C23A0D4F86C11FEF72FF8D4F889
:1043B0006C0108B9FCF7BCFF04F59A7425A02168CC
:1043C000FEF724F819492AA0091DFEF71FF830A0AE
:1043D0006169FEF71BF833A0A169FEF717F83BA04F
:1043E000E169FEF713F843A0216AFEF70FF8A18CEC
:1043F00045A0FEF70BF8E18C48A0FEF707F80B4943
:104400004AA02831FEF702F894F834104DA0FDF7C9
:10441000FDFF0FA0FDF7FAFF51A0FDF7F7FF0CA07D
:10442000FDF7F4FF10B010BD00800008CC33002071
:1044300098320020696E6974466163746F727950B6
:104440006172616D6574657273203D3D2025642045
:104450000D0A0000486561727442656174496E74AA
:10446000657276616C203D3D202564200D0A0000B8
:104470004D61696E536572766572416464726573ED
:1044800073203D3D2022257322200D0A00000000EC
:10449000536572766572506F7274203D3D202564BD
:1044A000200D0A0044656661756C7454696D65522F
:1044B00065706F727454696D65496E74657276616A
:1044C0006C203D3D202564200D0A0000436F726E74
:1044D0006572506F696E7452657472616E736D6946
:1044E0007373696F6E416E676C65203D3D20256476
:1044F000200D0A004D61785370656564203D3D20B4
:104500002564200D0A00000050726F76696E6365A5
:104510004944203D3D202564200D0A0043697479FB
:104520004944203D3D202564200D0A00436172501E
:104530006C6174654E756D203D3D202573200D0A1C
:1045400000000000436172506C617465436F6C6FD2
:1045500072203D3D2025303278200D0A00000000F9
:10456000696E697453797374656D506172616D65BC
:1045700074657273205355434345535321212121C0
:1045800021210D0A00000000F0B504460F463B460D
:104590000A2615E02078FCF705FD0546B5FBF6F088
:1045A00030301870581C3978302900D13846B5FBA6
:1045B000F6F106FB1151303100F8011B0346641C73
:1045C000521E501CE6D13846F0BD000070B50546BD
:1045D000E9880C464FF0FF3626A0FDF717FFB4F52B
:1045E000817F2CD009DC012C15D0022C18D0032C93
:1045F00020D0B4F5807F3AD117E0B4F5827F23D084
:10460000B4F5847F25D0B4F5007F27D0A4F50074DD
:10461000013C2CD127E02846FFF7AAFB064626E0FE
:104620002846FFF707FC064621E02846FFF740FC36
:1046300006461CE02846FFF71DFC064617E0284604
:10464000FFF75CFB064612E02846FFF7EFF9064647
:104650000DE02846FFF710FD064608E02846FFF764
:10466000FDF9064603E02846FFF798F9064630466E
:1046700070BD00005B6A743830384672616D654207
:104680006F64795061636B6167655D206D73675F0F
:1046900069643A203078253034780D0A0000000033
:1046A00070B50646B6F8E6404FF0FF35224626497B
:1046B00026A0FDF7ABFE48F20410211A844229D04F
:1046C0000BDC6FF40040211810D0022913D0FF2911
:1046D00016D0B1F5817F35D117E0012924D0022908
:1046E0001DD0042925D0FD292CD127E03046FFF725
:1046F00037FA054626E03046FFF720F9054621E067
:104700003046FFF721FC05461CE03046FFF79CFAD7
:10471000054617E03046FFF771F9054612E03046CE
:10472000FFF754F905460DE03046FFF709FB054653
:1047300008E03046FFF788FC054603E03046FFF707
:1047400015F90546284670BDED7900085B25735DB7
:104750002063757272656E74206D73675F69643A69
:10476000203078253034780D0A0000003EB504462C
:104770000020009001902088FCF7F2FC029002A833
:10478000FEF7AAFB6088FCF7EBFC029002A8FEF79C
:10479000A3FB201DFBF75DFD02466946201D00F0CE
:1047A000A5FB06216846FEF777FB608AFCF7D8FC7C
:1047B0000290022102A8FEF76FFB6088800411D5E9
:1047C000A08A01280ED9FCF7CBFC0290022102A896
:1047D000FEF762FBE08AFCF7C3FC0290022102A80C
:1047E000FEF75AFB00203EBD2DE9F04105460F467D
:1047F00014464FF0FF38002C01D00F2F05D226A011
:10480000FDF704FE4046BDE8F081A878697800EB2A
:10481000012081B2218028A0FDF7F8FD2879E978F0
:1048200000EB012081B2618030A0FDF7EFFD002692
:104830006660A660E6600622211D681DFFF7A4FEE3
:10484000002818D0211D39A0FDF7E0FD287BE97A6A
:1048500000EB012081B2618242A0FDF7D7FD6088A4
:10486000810404D5C0F30900381A132808D0A682A1
:10487000E6820020C7E74AA0FDF7C8FD4046C2E730
:10488000A87B697B00EB0120A082287CE97B00EB00
:104890000120E082EDE700006D73675F6865616489
:1048A000203D3D204E554C4C207C7C20696E5F6C39
:1048B000656E203C203135005B6A743830384672B2
:1048C000616D654865616450617273655D206D73EB
:1048D000675F686561642D3E6D73675F6964203D45
:1048E000203078253032780D0A0000005B6A743879
:1048F00030384672616D65486561645061727365F8
:104900005D206D73675F686561642D3E6D736762DE
:104910006F64795F617474722E75313676616C20C4
:104920003D203078253032780D0A00005B6A7438FB
:1049300030384672616D65486561645061727365B7
:104940005D206D73675F686561642D3E70686F6E92
:10495000655F6E756D203D202573202121210D0A94
:10496000000000005B6A743830384672616D65483B
:1049700065616450617273655D206D73675F686522
:1049800061642D3E6D73675F666C6F775F6E756DEA
:10499000203D20307825303278202121210D0A0059
:1049A0006A74383038426364546F537472696E6746
:1049B000436F6D7072657373206572726F72000061
:1049C00070B50446FEF77AFA00F08CFA1EA0FDF7E7
:1049D0001DFDA01DFFF7CAFE4FF0FF35002804DAC9
:1049E00022A0FDF713FD284670BD28A0FDF70EFD9F
:1049F0002046FFF7EBFD0146002922DBA01D00F059
:104A0000B3F9002804DA19A0FDF700FD284670BDAF
:104A1000264801682648491EFCF7ACFAFEF730FA32
:104A20007E20FEF72DFA23A0FDF7F0FC00F0D0F970
:104A3000002804DA2AA0FDF7E9FC284670BD002012
:104A400070BD284670BD00005B6A7438303853650D
:104A5000744672616D65466C616748656164657234
:104A60005D204F4B20210D0A000000006A74383091
:104A7000384672616D65486561645061636B61675A
:104A800065204641494C4544000000005B6A74388B
:104A900030384672616D65486561645061636B6171
:104AA00067655D204F4B20210D0A00009800002013
:104AB000593400205B5772697465206275666665BB
:104AC0007273656E6420656E642050524F544F437C
:104AD0004F4C5F5349474E5D204F4B20210D0A003C
:104AE0005B6A743830384D73674573636170655D18
:104AF000204641494C454400F8B506460D4614464B
:104B00004FF4A0723B493CA0FDF780FC4FF0FF370B
:104B10001CB32A4631464148FBF765FB404E3560E1
:104B20000095284600F0DCFD054628460099FBF775
:104B300073FB4FF4A6722F493AA0009BFDF766FC69
:104B40006B462A4635483168FDF70AF8002809DA2D
:104B50003CA0FDF75BFC3846F8BD40A0FDF756FCD5
:104B60003846F8BD009B33604FF4AB7221493FA03B
:104B7000FDF74CFC0099681CC91EFCF7FBF9009975
:104B8000294411F8021C884204D045A0FDF73EFCE0
:104B90003846F8BD4FF4AF72164946A0FDF736FC13
:104BA00004F1E60228460099FFF71EFE20B149A055
:104BB000FDF72CFC3846F8BD4FF4B3720D494CA0FC
:104BC000FDF724FCD4F8EA00C4F80A00D4F8EE009B
:104BD000C4F80E00B4F8F200608294F8F400207576
:104BE0002046FFF75DFD044615B12846FEF754FB4D
:104BF0002046F8BD017A000825735B25645D3A20E4
:104C00006A743830384672616D6550617273652020
:104C10002D2D3E3120212121200D0A005838002061
:104C20009C00002025735B25645D3A206F757442FB
:104C3000756666657253697A65203D202564200D8E
:104C40000A00000052657665727365457363617092
:104C5000655F43204552524F520D0A0070617261E8
:104C6000203D3D204E554C4C0000000025735B2537
:104C7000645D3A2052657665727365457363617051
:104C8000655F432E20206F757442756666657253AA
:104C9000697A65203D20256420202121210D0A000C
:104CA000426363436865636B53756D204552524F91
:104CB000520D0A0025735B25645D3A20426363430D
:104CC0006865636B53756D2E202D2D3E3320212199
:104CD000210D0A006A743830384672616D65486586
:104CE00061645061727365204552524F520D0A0043
:104CF00025735B25645D3A20206A7438303846722B
:104D0000616D654865616450617273652E202D2D5B
:104D10003E34202121210D0A0000000010B54FF47F
:104D2000007002F05DFA0548054902680548FDF784
:104D30005EFB05A0FDF76AFB002010BD9800002077
:104D400058340020004400406A743830384C6F6397
:104D50006174696F6E5265706F727420535543436E
:104D6000455353210D0A00001CB50A461049096835
:104D70000C2905D20FA0FDF749FB4FF0FF301CBDF9
:104D800040880090BDF8000062F309000090FCF735
:104D9000E7F9019009489DF80410C1709DF80510CD
:104DA0000171074907A0FDF731FB00201CBD000081
:104DB000980000202564200D0A00000058340020CF
:104DC000BC7800085B25735D204F4B20210D0A0045
:104DD00038B5194A00211170184D2868024402F8AC
:104DE000011C4000009000F07BFC04466B4622460C
:104DF00011482968FCF7C6F9002806DA104911A005
:104E0000FDF704FB4FF0FF3038BD7E202070009985
:104E1000214401F8010C21460748009AFBF7E3F909
:104E20000098286014B12046FEF736FA044908A01D
:104E3000FDF7ECFA002038BD58340020980000201F
:104E4000D27800085B25735D204641494C454400FB
:104E50005B25735D204F4B20210D0A0030B40C46BA
:104E600011461A4655282BD012DC182820D007DC12
:104E7000012819D0132833D1204630BCFEF72ABCB4
:104E8000292819D030282BD1204630BCFEF72ABB68
:104E9000812819D082281BD083281DD084281FD1B7
:104EA000204630BCFEF740BA204630BCFEF7C4BBFB
:104EB000204630BCFEF7F6BC204630BCFEF766BB91
:104EC000204630BCFEF758BC204630BCFEF79EBCE6
:104ED000204630BCFEF7BCBA204630BCFEF76ABAAA
:104EE00030BC704700217E20FDF7B2BF30B50446CC
:104EF0000D462B46D00715D014F8010B3038C0B240
:104F0000FCF745FC03F8010B0CE0303800EB8000A7
:104F100040006178A41C08443038C0B2FCF737FC6C
:104F200003F8010B20780028EFD11870284630BD17
:104F30002DE9F05F82460024DFF88890DFF888B022
:104F4000DFF88880224D4FF481760027304602F04A
:104F500047F920495846D9F80020FDF748FA4FF4A0
:104F60007A70FDF7DDFF288801041AD5C0F30E0121
:104F70002980194802F098F998F8E00088B9B8F843
:104F8000E200B0420DD10120CAF8000013A0FDF7E5
:104F90003DFA13A0FDF73AFA10A0FDF737FA2F807B
:104FA0000CE02F80641C0DA0FDF730FA17A0FDF770
:104FB0002DFA0AA0FDF72AFA032CC7DB0020BDE872
:104FC000F09F00009800002000440040983200202C
:104FD0003800002058340020981D00200D0A0000E1
:104FE0005465726D696E616C41757468656E746943
:104FF000636174696F6E20535543434553532121B8
:105000002121212121210D0A000000005465726D2B
:10501000696E616C41757468656E74696361746909
:105020006F6E204641494C45442052455452592107
:10503000212121212121210D0A00000010B501208C
:1050400002F0CEF80748084902680848FDF7CFF992
:1050500007A0FDF7DBF94FF47A70FDF761FF002040
:1050600010BD00009800002058340020004400408B
:105070006A743830385465726D696E616C47656E5C
:105080006572616C526573706F6E736520726570C6
:105090006F72742053554343455353210D0A00004A
:1050A00010B5022002F09CF8074808490268084839
:1050B000FDF79DF907A0FDF7A9F94FF47A70FDF708
:1050C0002FFF002010BD0000980000205834002061
:1050D000004400406A743830385465726D696E61FE
:1050E0006C486561727442656174207265706F729C
:1050F000742053554343455353210D0A00000000CB
:105100002DE9F05F81460024DFF88880DFF888B061
:10511000224F234D4FF4807A0026504602F060F86B
:1051200020495846D8F80020FDF761F94FF47A700D
:10513000FDF7F6FE288801040DD5C0F30E01298085
:10514000194802F0B1F897F8E00020B9B7F8E60086
:10515000B0F5014F0FD02E8014A0FDF757F914A021
:10516000FDF754F911A0FDF751F9641C032CD4DBB1
:105170000020BDE8F09F0120C9F800000BA0FDF75A
:1051800045F914A0FDF742F908A0FDF73FF92E807C
:10519000EEE7000098000020004400409832002014
:1051A0003800002058340020981D00200D0A00000F
:1051B0005465726D696E616C52656769737465726E
:1051C00020535543434553532121212121210D0AC9
:1051D000000000005465726D696E616C526567690C
:1051E0007374657220535543434553532121212144
:1051F0002121212121210D0A00000000ADF58A5D49
:1052000000250DF58054A846C4F83C81C4F83881C7
:10521000AA460020C4F83401C4F83001CCA004F53B
:10522000807490E80E00C0680EC4A4F58674C4F8BB
:105230000C0100270DF6EC4001F0B3FCFCF798FBE5
:10524000FDF750FEFC342046FCF7D2FB4FF47A7099
:10525000FDF766FE4FF4E136304602F0FDF93046C8
:10526000FCF736FFFCF7DCF92046FCF75BFBDFF8C8
:10527000F0B24FF000090026BA4CC4F80080FFF7E6
:105280007BF86DB9FDF778FE012802D0FCF78AFAA9
:10529000EFE7B5A0FDF7BAF84FF4FA60FDF740FE6E
:1052A0000B21B6A002F098F90DF58050D0F83C0122
:1052B00048B941F23C106844FFF722FF0DF58050D9
:1052C000D0F83C0128B10DF58050D0F8380110B16C
:1052D0000BE00025CDE741F238106844FFF728FEC7
:1052E0000DF58050D0F83801F8B10DF58050D0F8A8
:1052F0003011D0F83401FEF7D7FE02F065F941F61F
:105300001F4142F20F70FCF71FFE9F4C207890B1B6
:105310000DF5D1634FF480629C490DF6EC4000F02E
:1053200069FE84F80080012714E00DF58050C0F874
:105330003C8100259DE7964C207858B10DF5D1634E
:105340004FF4806293490DF6EC4000F053FE84F870
:1053500000800127012F29D14FF4CC620DF5D161D6
:1053600002A8CDF86876FAF73EFF0DF5885404F1EF
:105370001400031DCDE900041A1D111D143000F0A6
:10538000AFFC82460DF5805101F58A7107C9CDE960
:1053900000210DF58051CDE9020401F5907201F56F
:1053A00094710CCA03C902F0A9F90027DBF8500177
:1053B000FBF7C8F90DF5805C04460D46DCF81011CA
:1053C000DCF81401FAF7EDFFFBF715FA21F00041C4
:1053D00022462B46FBF722FA18D80DF58052D2F858
:1053E0001401C2F81001FFF799FC6B48DBF850116B
:1053F000FDF70CF8761C0DF58052D2F81001FBF782
:10540000FAF902460B4665A0FDF700F8554CDBF8AB
:105410004C012168884216D8BAF1010F1FD056A05E
:10542000FCF7F4FF63A0FCF7F1FF53A0FCF7EEFFDD
:10543000FFF736FEC4F8008009F101094FF48071CE
:105440006448FCF7E9F8644C2088010453D5C0F3A4
:105450000E012180614802787E2A14D049E046A0DE
:10546000FCF7D4FF5EA0FCF7D1FF43A0FCF7CEFF12
:10547000FFF754FCC4F80080761C4FF48071554847
:10548000FCF7CCF8DFE7084410F8010C7E2830D197
:10549000524801F009FF9BF8E00080B9BBF8E20038
:1054A000B0F5007F0BD1002633A0FCF7AFFF55A06D
:1054B000FCF7ACFF30A0FCF7A9FFA4F800809BF834
:1054C000E00080B9BBF8E20002280CD14FF00009DF
:1054D00029A0FCF79BFF5BA0FCF798FF26A0FCF738
:1054E00095FFA4F80080BBF8E600A0F50141033960
:1054F0001AD0A4F80080052E03DAB9F1050FFFF6E3
:1055000004AF31465CA0FCF781FF494662A0FCF77E
:105510007DFF0DF58050C0F83C810025C0F8388132
:105520001048C0F80080A4E613A0FCF76FFF61A04C
:10553000FCF76CFF10A0FCF769FF0DF58050C0F878
:105540003C810025C0F838812348A0F8008090E60F
:105550003730303130313030303030300000000002
:1055600098320020280000207365727665722063EF
:105570006F6E6E65637465640D0A000031353633F5
:1055800037313432313135002D000020CC0000207D
:105590002C000020CC040020AC7A00086D5F62650E
:1055A0006172696E67203D3D3D3D3D2025662020AE
:1055B0000D0A000048656172744265617421212101
:1055C0002121212121212121212121212121200DE0
:1055D0000A0000000008014038000020981D00204B
:1055E0006C6F636174696F6E5265706F72742121A4
:1055F000212121212121212121212121212121209C
:105600000D0A0000506C6174666F726D2067656EE4
:105610006572616C20726573706F6E7365206C6F5C
:10562000636174696F6E207265706F72742070614F
:105630007273652053554343455353212121210D56
:105640000A2000006A743830385465726D696E61E2
:105650006C486561727442656174207265706F7226
:105660007420706172736520535543434553532131
:10567000212121200D0A20004C6F636174696F6E37
:105680005265706F7274436F756E746572203D3D24
:10569000202564200D0A000048656172744265612E
:1056A00074436F756E746572203D3D202564200D36
:1056B0000A0000005365745465726D696E616C5028
:1056C0006172616D657465727320706172736520BB
:1056D00053554343455353212121210D0A200000F6
:1056E000F0B50B30154D20F007010024144A0FE0EF
:1056F00003688B420BD38B4205D95E1A4318476867
:10570000C3E9006700E04368136002C004E0021DC3
:1057100010680028ECD12046002802D1286808B182
:105720000020F0BD064A07481060074A121A22F00E
:105730000702C0E9002401202860D7E7B800002054
:10574000B40000205C3C0020584C00202DE9F041C2
:105750000026383010F8382C4A62D0E91A23C1E903
:105760000A23D0E91C23C1E90C23D0E91E233838D1
:10577000C1E90E2300234FF0010C002200EB830748
:105780000DE0BC6854B102EB820501EB8505D5F84C
:105790007083444502D1C5F874C3761C521CD1F8FD
:1057A0006C439442EDDC5B1C252BE6DBC1F868639F
:1057B000086840F080000860BDE8F08170B5D0E96D
:1057C00000329A4233DC2523B3EB820F2FDB012A10
:1057D00001DA012242608268C1F86C234268521EDD
:1057E00092008368141DA34201DA9D1A00E004258B
:1057F000002216E043685B1E02EB830302EB820487
:1058000003EB830300EB840401EB830303F55C7378
:10581000E6681E6066699E60A669DE60E4691C61D8
:10582000521CAA42E6DB086840F04000086070BDE8
:10583000C2680A6102694A6142698A618269CA6111
:10584000C26B0A62D0E91223C1E90C23D0E9142308
:10585000C1E9142390F828204E2A16D0D0E9082355
:1058600083F00043C1E9102390F83820452A0FD077
:10587000D0E90C2383F00043C1E91223006CC86710
:10588000086840F4805008607047D0E90823E9E7D1
:10589000D0E90C23F0E790F83820412A02D0562AAC
:1058A00009D00CE00B6A022203B90A624B6A012B91
:1058B00005D14A6203E000220A6201224A62027AAA
:1058C0004E2A1FD0D0E9002383F00043C1E9102302
:1058D000027E452A19D0D0E9042383F00043C1E9B0
:1058E0001223826A0A61C26A4A61026B8A61426B50
:1058F000CA6190F8390081F87800086840F40070B7
:1059000008607047D0E90023E0E7D0E90423E6E728
:1059100070B505460C46287F412802D0562809D08C
:105920000CE0216A022001B92062616A012905D1D7
:10593000606203E000202062012060621C22294690
:10594000201DFAF750FC95F828004E2828D0D5E9FC
:10595000080181F00041C4E9100195F8380045289C
:1059600021D0D5E90C0181F00041C4E91201D5E94B
:105970001001C4E91601D5E910010C4A0C4BFAF7E5
:10598000EFFDC4E91801D5E91201C4E91A0195F83F
:10599000590084F87800206840F40060206070BDF1
:1059A000D5E90801D7E7D5E90C01DEE76F1283C01E
:1059B000CAA1FD3FD0E90023C1E91A23D0E904239D
:1059C000C1E91C23D0E90823C1E91623D0E90C233F
:1059D000C1E9182390F8390081F87800086840F48C
:1059E00080600860704710B50C4601461C22201DDF
:1059F000FAF7F9FB206840F48070206010BDC2689F
:105A00000A6102694A6142698A618269CA61C26B3C
:105A10000A62D0E91223C1E90C23D0E91423C1E9B9
:105A2000142390F828204E2A14D0D0E9082383F0BC
:105A30000043C1E9102390F83820452A0DD0D0E961
:105A40000C2080F00040C1E91220086840F00100FD
:105A500008607047D0E90823EBE7D0E90C20F2E7B3
:105A60002DE9F0410026383050F8342C4A62D0E954
:105A70001A23C1E90A23D0E91C23C1E90C23D0E988
:105A80001E233838C1E90E2300234FF0010C0022F9
:105A900000EB83070DE0BC6854B102EB820501EB1B
:105AA0008505D5F88480444502D1C5F888C0761CA8
:105AB000521CD1F880409442EDDC5B1C252BE6DBC8
:105AC000CE67086840F002000860BDE8F08170B55C
:105AD000D0E900329A4232DC2523B3EB820F2EDB71
