:020000040800F2
:10000000108C0020450100087716000871150008C3
:1000100075160008AD0E00088520000800000000DD
:10002000000000000000000000000000CD180008E3
:100030005710000800000000F91600085D010008D4
:100040005F0100085F0100085F0100085F01000810
:100050005F0100085F0100085F0100085F01000800
:100060005F0100085F0100085F0100085F010008F0
:100070005F010008AF0E00085F0100085F01000883
:100080005F0100085F0100085F0100085F010008D0
:100090005F0100085F0100085F0100085F010008C0
:1000A0005F0100085F0100085F0100085F010008B0
:1000B0005F010008F1190008551A00085F010008E7
:1000C0005F0100085F0100085F0100085F01000890
:1000D0005F010008BD1C0008251D00085F01000825
:1000E0005F0100085F0100085F0100085F01000870
:1000F0005F0100085F0100085F0100085F01000860
:100100005F0100085F0100085F0100085F0100084F
:100110005F0100085F0100085F0100085F0100083F
:100120005F0100085F0100085F0100085F0100082F
:10013000DFF80CD000F0BEFC00480047D54C0008AA
:10014000108C00200648804706480047FEE7FEE77F
:10015000FEE7FEE7FEE7FEE7FEE7FEE7FEE7FEE777
:10016000A1190008310100082DE9F05F05460020C3
:1001700092469B4688460646814640241BE0284618
:1001800041464746224600F02AFB53465A46C01ACB
:10019000914110D311461846224600F011FB2D1A4A
:1001A00067EB01084F4622460120002100F008FBC2
:1001B00017EB00094E41201EA4F10104DFDC484684
:1001C00031462A464346BDE8F09F0000004870478C
:1001D0006C75000810B50446FFF7F8FF0068005D75
:1001E00000F0010010BD40EA01039B0703D009E0C5
:1001F00008C9121F08C0042AFAD203E011F8013B13
:1002000000F8013B521EF9D27047D2B201E000F86B
:10021000012B491EFBD270470022F6E710B51346AA
:100220000A4604461946FFF7F0FF204610BD30B5D8
:1002300005462A460B4612F8010B13F8014B08B18C
:10024000A042F8D01CB1002802D06D1CF1E728466E
:1002500030BD421C10F8011B0029FBD1801A7047E9
:10026000CBB203E00178994203D0401C521EF9D270
:100270000020704730B504460020034600E05B1CB8
:10028000934203D2E05CCD5C401BF8D030BD2DE939
:10029000F04791460F4680460446002614F8015B5D
:1002A0002DB1FFF793FF0068405DC007F6D12B2DFD
:1002B00002D02D2D18D0641E4A463946204600F043
:1002C000B0FA27B13968A14201D1C7F800807105A1
:1002D0004FF002040BD54042002803DD01F04AFF35
:1002E0000460A007BDE8F08746F48066E4E70028D4
:1002F000F8DA01F03FFF04606FF00040F2E780EAB7
:10030000010210B502F00043400022D04A001FD085
:10031000010E01EB1261C0F35600C2F3560240F425
:10032000000042F40002A0FB022000047F39140404
:1003300000D0401C50EA124001D44000491EC2B215
:100340000C0604EBD010401C4008802A02D003E0C9
:10035000002010BD20F00100002900DA0020184321
:1003600010BD2DE9FE4F804681EA0300C00F0C4608
:10037000009021F0004123F00045B8EB0200A941B4
:1003800005D24046214690461C460B46024623F0C5
:100390000040104347D0270DC7F30A00C3F30A51AA
:1003A0000290401A019040286BDAC3F3130040F426
:1003B000801B0098924620B10023D2EB030A63EB26
:1003C0000B0B01985946C0F14002504600F0F8F975
:1003D00006460D4650465946019A00F010FA10EBB9
:1003E00008006141002487EA115284EAE7731A4346
:1003F00040D0009A62B3019A012A4FEA075215DCF5
:10040000001B61EB02014FF0004202EA0752CDE906
:100410000042001C41F5801132462B4600F0E4FA00
:1004200003B0BDE8F08F40462146F9E7001B61EBC1
:100430000201001C41F5801300185B412018A2F551
:10044000001747EB030140EAD570B6196D4111E082
:100450006D084FEA360645EAC0754FEA0752001BA1
:1004600061EB0201001C41F5801149084FEA3000A0
:100470000019514132462B4603B0BDE8F04F00F061
:10048000A4BA0098012240000023D0EB020263EBE3
:10049000E073009821464FEAE074B8EB000061EB8E
:1004A0000401E9E783F000435BE781F0004158E78E
:1004B0002DE9FE4F81EA030404F0004421F00041DD
:1004C00000944FF0000B23F0004350EA01045ED08B
:1004D00052EA03045BD0C3F30A54C1F30A552C4417
:1004E000A4F2F3340194A0FB0254C1F3130141F4CC
:1004F0008011C3F3130343F4801301FB024400FB98
:10050000034E840A970A44EA815447EA8357A4FBBE
:10051000076802958D0A05FB07854FEA932C04FBBB
:100520000C542705029D4FEA065847EA1637B5EBEB
:1005300008056EEB070C870E920E47EA811742EA18
:100540008312A7FB0201B6EB0B0164EB00042B0D39
:1005500043EA0C335E1844EB1C50DA465146E7FB85
:100560000201C5F313044FEA0B3343EA14534FEA75
:100570000432019C43EA0603A4F10C040294009C9B
:10058000CDE900B400F030FA03B0BDE8F08F0020F0
:100590000146F9E72DE9F04D81EA030404F0004B30
:1005A00021F0004514464FF0000A23F0004150EAC4
:1005B000050220D054EA01021DD0C5F30A570246B5
:1005C000C5F31303C1F31300C1F30A5640F48015B9
:1005D00043F48013A7EB0608101BD64608F2FD383B
:1005E00073EB050002D308F1010801E092185B41AA
:1005F000B8F1000F03DA00200146BDE8F08D0020BD
:100600004FF48011064684460EE0171B73EB050776
:1006100005D3121B63EB050306434CEA010C4908A2
:100620004FEA300092185B4150EA0107EDD152EADF
:10063000030012D082EA040083EA0501084305D0D2
:10064000101BAB4106D20122002306E000224FF02E
:10065000004302E06FF0010253101AEB06004CEB6E
:10066000085110EB0A0041EB0B01BDE8F04D00F022
:10067000ACB90EB5C10F80EAE0700844CA0700218A
:1006800040F233438DE80E000A460B4600F0ACF909
:1006900003B000BD20F00040C10DC0F3160040F4CF
:1006A00000007F2901DA00207047962903DCC1F1A0
:1006B0009601C840704796398840704770B5C1F3BD
:1006C0000A5201F000450024C1F3130140F2FF3348
:1006D00041F480119A4201DA002070BD40F23343A8
:1006E0009A42A2F2334203DC524200F078F800E072
:1006F00090402C43F1D0404270BDC1F30A5210B576
:10070000C1F3130140F2FF3341F480119A4201DA40
:10071000002010BD40F233439A42A2F2334203DC80
:10072000524200F05CF810BD904010BD30B5041E80
:1007300071F1000404DB4FF00044404264EB01011E
:10074000141E73F1000405DB1C464FF000435242B7
:1007500063EB0403994208BF904230BD01F00043AF
:1007600030B421F0004150EA010206D00A0DA2F592
:100770006072C1F31301002A02DC30BC0020704714
:10078000440F44EAC104C100E01830BC00EBC25081
:1007900000F0E4B830B50B460146002020220124C9
:1007A00009E021FA02F59D4205D303FA02F5491B3F
:1007B00004FA02F52844151EA2F10102F1DC30BD55
:1007C000202A04DB203A00FA02F100207047914011
:1007D000C2F1200320FA03F3194390407047202A06
:1007E00004DB203A21FA02F00021704721FA02F3DB
:1007F000D040C2F120029140084319467047202A98
:1008000006DBCB17203A41FA02F043EAE07306E038
:1008100041FA02F3D040C2F1200291400843194648
:1008200070472DE9F05F82460078002715468B4619
:100830000AF10104B946302801D09DB113E014F843
:10084000010B0127782803D0582801D045B10AE0D0
:100850000DB1102D07D10027102514F8010B02E06F
:10086000082500E00A250026B0460EE005FB08003A
:1008700005FB06F1012701EB10461FFA80F8B6F5DB
:10088000803F00D3B94614F8010B294600F024F943
:100890000028EBDABBF1000F05D00FB1641E00E0B9
:1008A0005446CBF80040B9F1000F06D001F062FCCD
:1008B00002210160C81EBDE8F09F48EA0640FAE741
:1008C0000FB4002300B589B00CA900910B996FF00B
:1008D0000042CB601E4B06931E4B07930423CDE9C9
:1008E00001321D4A089202466B46002000F082F950
:1008F00009B05DF814FB70B586B006464FF0FF30C6
:100900000091CDE90101002015460C4604903246C5
:10091000694604A8FFF7D4FF02460498211825B1C0
:1009200008B1084600E020462860049800280DD051
:10093000002A02DD0098884208D0081B0094CDE907
:1009400001043246694604A8FFF7BAFF06B070BD3D
:100950002D0E00084B0E0008D50100080029A8BF85
:100960007047401C490008BF20F00100704710B4D8
:10097000B0FA80FC00FA0CF050EA010404BF10BC8D
:10098000704749B1CCF1200421FA04F411FA0CF1BA
:1009900018BF012121430843A3EB0C01CB1D4FEAF3
:1009A00000614FEA102042BF002010BC704700EBEE
:1009B000C35010440029A4BF10BC7047401C49001C
:1009C00008BF20F0010010BC704710B5141E73F171
:1009D000000408DA401C41F1000192185B411A43FF
:1009E00001D120F0010010BD2DE9F04D92469B464B
:1009F00011B1B1FA81F202E0B0FA80F220329046F1
:100A0000FFF7DEFE04460F4640EA0A0041EA0B010A
:100A100053465A46084313D0114653EA010019D0F1
:100A2000C8F140025046FFF7DAFE05460E46504632
:100A300059464246FFF7C4FE084305D0012004E0B2
:100A400020463946BDE8F08D0020054346EAE076B1
:100A50002C4337430A986305E40AA0EB0800002200
:100A6000FD0A44EA47540A3002D500200146E9E76E
:100A7000010510196941DDE9084500196941BDE822
:100A8000F04DA2E7C1F30A52C1F3130140F2FF3364
:100A900041F480119A4202DA00200146704740F288
:100AA00033439A42A2F2334202DC5242FFF797BE2E
:100AB000FFF786BE064C074D06E0E06840F00103F4
:100AC00094E8070098471034AC42F6D3FFF734FBA4
:100AD000F4760008147700083A2800D2303820F065
:100AE0002002412A01D3A2F13700884201D34FF0FE
:100AF000FF3070472DE9FF4F087881B09946FF28F5
:100B000005D0491C2D2804D00024002308E0002330
:100B10000BE00124F9E703EB830300EB4303491CDB
:100B20000878FF28F7D104B15B42002000901478C8
:100B300001462D2C01D02B2C04D1521C2D2C12D06F
:100B40000024009400251678FF2E0ED00A24A0FB66
:100B500004C801FB0481002700FB0711521C16EB9F
:100B60000C006941EFE70124EBE7994450EA0102E8
:100B70000ED00024AA4D2646DFF8A88200F076F9B0
:100B800082468B46B9F1000009DAC9F100071BE083
:100B900001980021C0E9001105B0BDE8F08F0746BB
:100BA00012E0F80707D022462B4630464146FFF7B1
:100BB0007FFC0646884622462B4610461946FFF71C
:100BC00077FC04460D467F10002FEAD1B9F1000FE3
:100BD000324643465046594602DAFFF7DBFC01E055
:100BE000FFF766FC009A0AB181F00041019AC2E960
:100BF0000001D1E72DE9FF4F1F468DB0D7E901462F
:100C00004FF0FF382E2045464FF000090B90B96990
:100C10006D1C0E988847396A824688470028F6D1AD
:100C2000BAF1FF3F0AD024F4D064002E11DDBAF1EE
:100C30002B0F08D0BAF12D0F0BD102E0404611B0B6
:100C4000ABE744F48064B9696D1C0E98884782460E
:100C5000761E6946600501D52D2000E02B208DF819
:100C6000000001F1010B0DF1200809E0B9696D1CCC
:100C70000E98884782460F9844F40074761E0560EB
:100C8000002E02DDBAF1300FF0D00B998A453ED12B
:100C900044F0800406E00F99681CA9F1010944F4AE
:100CA00000740860B9696D1C761E0E9888478246EC
:100CB0003028F0D02BE00B998A4505D1200603D4CB
:100CC00044F08004761E18E0504601F029FB08B37A
:100CD0000DF11301761E44F400748B4508D2AAF17D
:100CE00030000BF8010B200607D5A9F1010003E045
:100CF000200602D409F101008146A00502D50F9912
:100D0000681C0860B9696D1C0E9888478246002EE1
:100D1000D1DC53E0002E51DDBAF1650F02D0BAF1FB
:100D2000450F4BD1A00549D5B9696D1C24F4407419
:100D3000761E0E9888478246002E0CDD2B2804D0A4
:100D4000BAF12D0F07D144F48074B9696D1C0E9867
:100D500088478246761EE00501D52D2100E02B2133
:100D600008F8011BCDF82C8021E00DF12901761E39
:100D700044F4007488450CD2AAF1300010F0FF0052
:100D800088F8000002D10B99884509D908F10108BB
:100D900006E0E00501D5244801E042F20F708146EB
:100DA000B9696D1C0E98884782460F980560002E21
:100DB00004DD504601F0B4FA0028D6D1F9690E9846
:100DC0008847FF208BF8000088F80000002006907C
:100DD00007904B466A4608A906A8FFF78BFEA005B8
:100DE00002D46FF001002AE714F0240F0AD0E007C4
:100DF00014D1DDE906123868031D3B600068C0E9C4
:100E000000120BE0DDE90601FFF7A8FC0146E00750
:100E100004D13868021D3A600068016028460EE778
:100E2000000024400000F03FF1D8FFFF426842B1CB
:100E3000016811F8013B23B1521EC0E900121846A7
:100E400070470121C160881E704742685AB1C3686B
:100E5000016843B983688B4205D0491E521CC0E922
:100E60000012002070474FF0FF3070470EB540F27F
:100E7000334202920022CDE900221346FFF7B4FD6F
:100E800003B000BD10B503460020002202E09C5CC8
:100E90006040521C8A42FAD310BD00F00F010009D5
:100EA00000EB800001EB4000C0B27047FEE700F0AD
:100EB000FDBA0000C10002D502490860704702492E
:100EC000486070470404024000000240002904D03A
:100ED000016841F001010160704701684FF6FE7240
:100EE000114001607047000001684FF6FE7211402A
:100EF00001600021016041608160C1603649364A6D
:100F00000839904204D1486840F00F0048607047AB
:100F1000314A1432904204D1486840F0F0004860F1
:100F200070472D4A2832904204D1486840F47060DE
:100F300048607047284A3C32904204D1486840F4E7
:100F4000704048607047244A5032904204D148684B
:100F500040F47020486070471F4A6432904204D1C8
:100F6000486840F47000486070471B4A78329042ED
:100F700004D1486840F0706048607047174A111FFC
:100F8000904204D1086840F00F0008607047134A8F
:100F90001432904204D1086840F0F00008607047B5
:100FA0000E4A2832904204D1086840F4706008600C
:100FB00070470A4A3C32904204D1086840F47040BD
:100FC00008607047054A50329042FAD1086840F4F0
:100FD00070200860704700000800024008040240CA
:100FE00002460020D10002D50449096801E0044905
:100FF0000968114200D0012070470000000402403F
:1010000000000240002A03D002680A4302607047D1
:1010100002688A430260704730B5026847F6F07391
:101020009A430C6A8B682343D1E904452C4323433C
:101030008C692343CC6923434C6A23438C6A234342
:1010400013430360CA6842600A6882604968C160ED
:1010500030BD416070477047010201EB102080B243
:101060007047010600F47F4201EB022100F47F0289
:1010700001EB122101EB106070472DE9F04781462A
:101080000F4616469846002E04D0D8F80010B1EB53
:10109000470F03D24FF0FF30BDE8F0873046FFF72F
:1010A000BBF8002400257D2108E019F805007E2802
:1010B0000BD07D2810D02A19B0546D1CBD42F4D33A
:1010C0003819C8F800000020E6E7281931543044E8
:1010D00002224270641CF0E7281931543044012286
:1010E0004270641CE9E700000149C86070470000D5
:1010F0000020024070B505464FF43026304600F01F
:1011000059F8042811D1094C206940F002002061EF
:101110006561206940F040002061304600F04AF8E7
:10112000216941F6FD721140216170BD002002402D
:1011300004200849CA68D20701D001207047CA6854
:10114000520701D502207047C968C906FBD50320A4
:1011500070470000002002400248016941F0800110
:101160000161704700200240F0B506460D464FF47D
:101170000057384600F01EF804280CD1064C2069B0
:1011800040F0010020613580384600F013F82169F5
:10119000BA1E11402161F0BD0020024003480249FF
:1011A00041600349416070472301674500200240C8
:1011B000AB89EFCD00B50346FFF7BAFF02E0FFF7BA
:1011C000B7FF5B1E012801D1002BF8D1002B00D105
:1011D000052000BD70B506460D465408FFF7DEFF3A
:1011E0003520FFF781FF3046FFF784FF08E02878BD
:1011F0006978AD1C40EA01213046FFF7B5FFB61C07
:10120000641EA4B2F3D2BDE87040FFF7A5BF2DE97C
:10121000F0470F46002A70D00C2A6ED80668446842
:101220008568C168D0F81090D0F814A0BBB301EB6A
:101230000208B8F1180F19D3A8F11808012C16D01C
:10124000032C14D0052C12D0072C10D0082C0ED053
:101250000A2C0CD0042C11D0062C0FD0092C0DD048
:101260000B2C0BD0022C10D00C2C1CD066E01F2DA8
:1012700001D26D1C62E00125641C5FE01E2D01D2CD
:101280006D1C5BE00125641C58E01D2D08D01C2D51
:1012900003D1F0B200F081F910B16D1C4EE00AE00C
:1012A000012503244AE01F2D01D26D1C46E00125D3
:1012B0000124761C42E0914202D3A1EB02083DE0FA
:1012C000A1EB020808F11808022C17D0042C15D045
:1012D000062C13D0082C11D0092C0FD00B2C0DD0BC
:1012E000052C12D0072C10D00A2C0ED00C2C0CD0B0
:1012F000032C11D0012C1AD020E028E0012D01D9B7
:101300006D1E1BE01F25641E18E0012D01D96D1E06
:1013100014E01E25641E11E0012D03D1F0B200F08F
:101320003CF908B16D1E09E01C25022406E0012DE0
:1013300001D96D1E02E01F250C24761E3E607C60E4
:10134000BD60C7F80C80C7F81090C7F814A0BDE8BE
:10135000F0872DE9F0410022CC7804F00F03E40679
:1013600001D58C7823430C784FF00F0714F0FF0F52
:101370004FF0010C1CD005680CFA02F40E882640D0
:10138000A64211D1960007FA06F825EA080503FAE5
:1013900006F848EA0505CE78282E02D0482E02D05D
:1013A00002E0446100E00461521C082AE4D30560B5
:1013B0000A88FF2A1ED94568002202F108060CFAA5
:1013C00006F40E882640A64210D1960007FA06F8C9
:1013D00025EA080503FA06F848EA0505CE78282E1E
:1013E00000D14461CE78482E00D10461521C082AF5
:1013F000E3D34560BDE8F0810246002092680A42CE
:1014000000D00120704710B500F070F8BDE8104022
:10141000AFF3008010B58CB00121084600F06EF9E2
:101420001548019015480290002003904FF4006188
:101430000491059080210691079008902021099140
:10144000C9010A910B900E4C01A92046FFF7E4FD5B
:1014500000F018F8012206212046FFF7D3FD0121F4
:101460002046FFF733FD044801224021001F00F011
:1014700005FD0CB010BD000004480040C80000206D
:101480003000024008B54FF4C06000F02BF90D2089
:101490008DF8000001208DF8010000218DF8021068
:1014A0008DF80300684600F0EBF808BD70B54FF406
:1014B00080663046FFF794FD0B4D012428B16C7017
:1014C0003046BDE87040FFF7F5BC4FF4007630467B
:1014D000FFF786FD002805D02C703046BDE870402F
:1014E000FFF7E8BC70BD00002800002010B586B0F2
:1014F0000121082000F02CF90121880400F00CF9EA
:101500004FF48060ADF8140018208DF81700032008
:101510008DF81600144C05A92046FFF71AFFE114B8
:10152000ADF8141004218DF8171005A92046FFF717
:1015300010FF4FF4E13001900020ADF80800ADF845
:101540000A00ADF80C00ADF810000C20ADF80E004C
:10155000064C01A9204600F02FFD0121204600F095
:1015600081FC06B010BD0000000C014000480040A6
:10157000FEE70A21B0FBF1F201FB1202B0FBF1F031
:1015800002EB0010C0B2704703E010F8013B01F815
:10159000013B521E92B2F8D2704700F5FA60810703
:1015A00001D0002070474FF4C871B0FBF1F201FB8D
:1015B000120131B16421B0FBF1F201FB12000028ED
:1015C000F0D00120704700002DE9F0410126264CA3
:1015D000002800D026702078DFF89080244D4FF44A
:1015E000004778B120214046FFF706FF88B1394611
:1015F0002846FFF701FF60B101212846FFF7FCFEF6
:10160000012806D020214046FFF7F6FE01281DD014
:1016100028E00A2001F022FD002020702021404611
:10162000FFF7EAFE58B139462846FFF7E5FE48B114
:1016300001212846FFF7E0FE012805D012E0012035
:10164000BDE8F0810220FBE70320F9E73946284690
:10165000FFF7D2FE012805D101212846FFF7CCFE75
:1016600000B926700020EBE7300000200010014098
:1016700000080140FEE770474FF4A06000F032B868
:1016800070B50F23C27801260178002A1ED0144AB3
:10169000126802F4E062C2F5E062120AC2F10404C8
:1016A000D3404578A54082781A402A43120101F1BF
:1016B000E02181F80024007800F01F018E404009ED
:1016C000800000F1E020C0F8006170BD01F01F0053
:1016D00086404809800000F1E020C0F8806170BDBC
:1016E0000CED00E002490843024908607047000021
:1016F0000000FA050CED00E070470000054A0029E3
:1017000003D051690143516170475169814351616F
:101710007047000000100240054A002903D0D1693B
:101720000143D1617047D1698143D16170470000A5
:1017300000100240054A002903D0116901431161DC
:101740007047116981431161704700000010024029
:10175000054A002903D0916901439161704791695D
:10176000814391617047000000100240054A002942
:1017700003D0D1680143D1607047D1688143D16003
:10178000704700000010024010B5264A516801F071
:101790000C01254B002927D0042927D0082927D060
:1017A0000360516801F0F0010909204B5C5C01689D
:1017B000E1404160546804F4E064240A1C5D21FAAD
:1017C00004F48460546804F46054E40A1B5DD94056
:1017D000C160526802F44042920B144B1B1F9A5C8A
:1017E000B1FBF2F1016110BD0360DAE70360D8E7F5
:1017F000516801F47011536803F48033022404EB40
:10180000914133B153689B0307D5094B594301609C
:10181000C7E7074B59430160C3E7034B59430160D6
:10182000BFE700000010024000127A0018000020FC
:1018300000093D002DE9F0470646884617469946BF
:1018400018A000F04BFC0025002419E0315D7D2933
:1018500003D130194078022802D07D2906D009E052
:101860007E20611B7854641C6D1C08E030194078A0
:10187000012811D0601B395411A000F02FFC641C0A
:101880004445E3D310A000F029FCA8EB0500C9F8FB
:1018900000000020BDE8F0877D20611B7854641CA7
:1018A0006D1CECE75BE98086E8BDACE4B989526564
:1018B00076657273654573636170655F435D3A0079
:1018C00025303278200000000D0A0000704700F03B
:1018D00001B800000CB5002201920092274801686F
:1018E00041F4803101604FF4A063016801F40031DC
:1018F00000910199491C0191009911B901999942EE
:10190000F3D10168890302D50121009100E0009222
:101910000099012930D11A490A6842F010020A6080
:101920000A6822F003020A600A6842F002020A60B2
:101930004168416041684160416841F480614160B3
:10194000416821F47C114160416841F4E811416033
:10195000016841F08071016001688901FCD541682E
:1019600021F003014160416841F00201416041689A
:10197000C1F381010229FAD10CBD00000010024020
:10198000002002404FF0E021042804D0086920F034
:10199000040008617047086940F00400086170475E
:1019A00010B50F48016841F00101016041680D4A1E
:1019B0001140416001680C4A11400160016821F446
:1019C00080210160416821F4FE0141604FF41F0154
:1019D0008160FFF77CFF05494FF00060086010BD93
:1019E000001002400000FFF8FFFFF6FE08ED00E0E7
:1019F00010B50D4C0121204600F0C7F8012812D186
:101A00000121204600F0B2F8601505F01FF9074CDF
:101A100007A0216800F062FB2268BDE810400B4976
:101A20000B4800F03CBB10BD0004004094000020B7
:101A30005265616C42756666657253656E64536982
:101A40007A65203D202564200D0A00001034002016
:101A50000044004010B5174C0121204600F095F8D5
:101A6000002825D00121204600F080F8124B134AAF
:101A70001878A0B11178491CC9B21170814217D1F0
:101A8000002010701870508840F4004050800020F2
:101A900000F042F8BDE81040632000F055B85088CF
:101AA00040F400405080BDE81040002000F034B801
:101AB00010BD000000080040360000203200002069
:101AC0007FB504460D4601210420FFF725FEADF841
:101AD0000440ADF800500020ADF80600ADF802005B
:101AE0000C4C6946204600F069F801221146204658
:101AF00000F057F81E208DF80C0001208DF80D0025
:101B000002218DF80E108DF80F0003A8FFF7B8FD25
:101B10007FBD00000008004010B50A4A00280AD026
:101B200014460021204600F046F82046BDE810404B
:101B3000012100F01EB8BDE810400021104600F061
:101B400018B800000008004010B5044600210648FF
:101B500000F031F804492C31088800220A800A88F4
:101B600022430A8010BD000000080040C9430182E2
:101B70007047002904D0018841F0010101807047BD
:101B8000018821F001010180704702460020138A7C
:101B90000B4092890A40002B02D0002A00D001207D
:101BA0007047002A03D082890A4382817047828964
:101BB0008A438281704781847047000030B5028873
:101BC0001B4C1C4DA0420DD0A8420BD0B0F1804F51
:101BD00008D0194B984205D0184B984202D0184BA8
:101BE000984203D122F070034A881A43154B984259
:101BF00006D0154B984203D022F44073CA881A438A
:101C000002808A8882850A880285A0420AD0A8427A
:101C100008D00E4A904205D00D4A904202D00D4A9B
:101C2000904201D1097A01860121818230BD0000F4
:101C3000002C014000340140000400400008004036
:101C4000000C004000100040001400400040014023
:101C5000004401400048014070B58CB006460C4677
:101C6000154601210846FFF749FD3046FFF73CF9CC
:101C70000194029510200390002104910591802089
:101C8000069007910891099140010A900B9101A9D2
:101C90003046FFF7C1F90CB070BD70B504460D4673
:101CA00000212046FFF712F929462046FFF7D1F917
:101CB0002046BDE870400121FFF708B970B5164C09
:101CC00040F22551204600F03CF900280ED0204675
:101CD00000F0D0F9C1B2114A1088030406D44404BC
:101CE0004FF0000307D50A2901D0138070BD40F4DE
:101CF0000040108070BD0D290AD0094DC0F30D04BD
:101D00002955401C80B21080C728F3D9138070BDBC
:101D100040F48040108070BD003801402A0000204F
:101D2000C808002070B5124C40F22551204600F042
:101D300008F9002816D0204600F09CF9C5B20D4CD9
:101D40006088B0F5A05F0ED200210B48FFF733FF8B
:101D5000608810B90120FFF7DFFE6088411C6180B8
:101D600006490D5470BD40F40040608070BD000015
:101D7000004400403200002000080040901D002078
:101D80002DE9F04186B0044601210420FFF7E0FC74
:101D900001214804FFF7C0FC2D4F384600F078F8C9
:101DA0000426ADF8106003258DF8125018208DF828
:101DB0001300DFF8A08004A94046FFF7CAFA082004
:101DC000ADF810008DF8136004A94046FFF7C1FA82
:101DD00000940024ADF80440ADF80640ADF808408A
:101DE000ADF80C400C20ADF80A006946384600F00A
:101DF000E3F801228021384600F040F8164A391DE8
:101E00001648FFF729FF0121384600F02BF8012280
:101E100040F22551384600F0B4F826208DF8140021
:101E200002208DF815008DF8165001208DF817004E
:101E300005A8FFF725FC41F61F416320FFF740FE90
:101E4000074844800020FFF767FE06B0BDE8F08138
:101E5000004400400008014090090020800002403A
:101E600032000020002904D0818941F40051818191
:101E70007047818921F4005181817047002A03D085
:101E8000828A0A4382827047828A8A4382827047AA
:101E900010B5234988420AD101218C032046FFF75F
:101EA00065FC2046BDE810400021FFF75FBC1D49DE
:101EB00088420AD101214C042046FFF73BFC204612
:101EC000BDE810400021FFF735BC174988420AD110
:101ED00001218C042046FFF72DFC2046BDE8104070
:101EE0000021FFF727BC114988420AD10121CC0407
:101EF0002046FFF71FFC2046BDE810400021FFF7F9
:101F000019BC0B4988420AD101210C052046FFF774
:101F100011FC2046BDE810400021FFF70BBC10BDAE
:101F2000003801400044004000480040004C0040A0
:101F3000005000400246002012880A4200D00120D2
:101F4000704770B5002440F66A12C1F3421301F0E5
:101F50001F05012606FA05F2012B0CD0022B0DD02D
:101F6000838A1340090A8E40008830400BB100B1CB
:101F70000124204670BD83891340F3E7038A134090
:101F8000F0E710B540F66A13C1F3421301F01F04E5
:101F90000121A140012B07D0022B07D014303AB108
:101FA00002680A43026010BD0C30F8E71030F6E713
:101FB00002688A43026010BD30B585B004460D4604
:101FC000208A4CF6FF710840E98801432182A089EC
:101FD0004EF6F3110840A9882A8911436A89024301
:101FE0001143A181A08A4FF6FF410840A98901430E
:101FF000A1826846FFF7C8FB1D48844201D10398BF
:1020000000E00298A189090408D500EBC00101EBAA
:10201000001029684900B0FBF1F007E000EBC001B7
:1020200001EB001029688900B0FBF1F06422B0FBDD
:10203000F2F109010B096FF018056B4300EB830007
:10204000A3891D044FF0320307D503EBC000B0FB9A
:10205000F2F000F00700084306E003EB0010B0FBCD
:10206000F2F000F00F000843208105B030BD000001
:10207000003801408088C0F308007047C1F30801B0
:1020800081807047FEE710B504462046FFF7F6FF53
:1020900080212046FFF74EFF0028F9D010BD2DE922
:1020A000F04107460D46164600243846295DFFF7E5
:1020B000EAFF641CB442F8D3BDE8F0810FB4054BCD
:1020C00010B503A9044A029800F08AFB10BC5DF821
:1020D00014FB0000013400082C0000200FB4054B55
:1020E00010B503A9044A029800F072F910BC5DF81B
:1020F00014FB0000013400082C0000200FB4084B32
:1021000010B504A902AA039800F062F9044602A9D6
:10211000002000F030FF204610BC5DF814FB0000EA
:10212000772F00087CB5044600201D46164600297E
:102130000BD0491ECDE90041044B6A462946304682
:1021400000F04EFB009A002111707CBD612F000849
:1021500037B514460846064B6A46214600F040FB58
:1021600004466946002000F00BFF20463EBD0000FB
:10217000812F000800487047B800002002E008C81E
:10218000121F08C1002AFAD170477047002001E0F1
:1021900001C1121F002AFBD1704700002DE9FF5F2B
:1021A00082B00021DDE90430020DDDF840B00343C8
:1021B00018D044F61050A2F2FF3242431514119881
:1021C00001281FD0A5EB0B00401C5FEA000A4FF06E
:1021D00000064E4FDFF83891B046504615D5CAF18B
:1021E000000413E0119801244AA3012801D16FEAE9
:1021F0000B010298119AC0E90031C0E9024206B011
:10220000BDE8F09FCBF10000DFE704460021404A23
:10221000491842EB0450CDE9001012E0E00707D066
:1022200032463B4640464946FEF742F980468946DB
:1022300032463B4610461946FEF73AF906460F4627
:102240006410002CEAD1DDE90401DDE90023BAF1D4
:10225000000F06DAFEF72CF942464B46FEF728F946
:1022600005E0FEF797F942464B46FEF793F9044620
:102270000E460022284BFEF759FA03D84FF0FF30E4
:10228000014607E00022254B20463146FEF769F85B
:10229000FEF7F8FB102409E0002C0ADB0A220023D9
:1022A000FDF762FF039B30321A55641E50EA0102AB
:1022B000F2D1641C039AC4F111031444119A012A47
:1022C00003D0012208430DD10AE0084304D00020C6
:1022D0004FF0110B119072E7A3EB0B056D1E0DE093
:1022E0005B4504DD4FF0000205F1010504E003DA6F
:1022F0004FF00002A5F10105002AECD002981199D7
:10230000C0E90231C0E9004579E70000000014404F
:102310000000F03F300000000000F0430000E03F0C
:1023200030380A2801D20120704700207047000091
:10233000FEB5002402F114052E1F331F06290BD011
:10234000082914D0092912D00A2910D010A003F0AE
:1023500041FACCB10020FEBDCDE9006515A204F024
:1023600073FB032801D00024F3E70124F1E71832BE
:10237000CDE90065029212A204F066FB042801D0A8
:102380000024E6E70124E4E74FF0FF30FEBD000043
:102390005061727365206F662074696D6520657287
:1023A000726F722028666F726D6174206572726F31
:1023B0007229210025326425326425326400000030
:1023C0002532642532642532642E25640000000025
:1023D0002DE9FF4F8DB00F460546002606E0252863
:1023E0000BD0DDE90F1290476D1C761C2878002871
:1023F000F5D111B03046BDE8F08F0024A246A146C9
:102400000122EC4900E0044315F8013F203B02FAA9
:1024100003F00842F7D128782A2810D06FF02F0255
:102420002878A0F13001092914D80AEB8A0102EBBF
:10243000410144F0020400EB010A6D1CF0E701CFFA
:102440005FEA000A03D544F40054CAF1000A44F0DC
:1024500002046D1C28782E2817D115F8010F44F0BE
:1024600004042A280ED06FF02F022878A0F1300142
:1024700009290AD809EB890102EB410100EB0109A6
:102480006D1CF2E757F8049B6D1C28786C280FD060
:1024900006DC4C2817D068280DD06A2814D104E037
:1024A000742810D07A280FD10DE044F400140AE00B
:1024B00044F4801401E044F440146978814202D16C
:1024C00004F580146D1C6D1C2A786E2A1FD00CDC5C
:1024D000632A31D004DC002A8BD0582A11D1A3E022
:1024E000642A68D0692A0CD165E0732A2ED004DCF6
:1024F0006F2A73D0702A04D19BE0752A6FD0782A96
:102500006ED01046DDE90F129047761C50E1C4F3FF
:102510000250022806D0032809D0042801CF09D090
:10252000066045E101CFF117C0E9006140E101CF4C
:1025300006803DE106703BE117F8040B8DF80000C2
:1025400000208DF80100EB46012003E057F804BBA2
:102550004FF0FF3061074FF0000102D40DE008F1A9
:102560000101884649450FDA8045F8DB1BF8081061
:102570000029F4D108E008F1010188468142FADB24
:102580001BF808100029F6D1DDE90F23AAEB08009B
:102590008146214600F0B6FC304400EB080604E01A
:1025A000DDE90F121BF8010B9047B8F10108F7D2D3
:1025B00021464846F7E00A21C4F302534FF0000BCE
:1025C0000891022B04D001CFC117032B09D00AE0D8
:1025D000FF1D27F00707F7E8020108E032E01FE0DF
:1025E00020E000B2C117042B01D140B2C117031E75
:1025F00071F1000307DA4FF0000CD0EB0C006CEB2C
:1026000001012D2302E0230504D52B238DF824306E
:10261000012303E0E30701D02023F7E7984658E0C1
:102620000A2110E010210EE010204FF0000B08905E
:102630000CE010214FF0000B44F004044FF00809A7
:10264000089103E008214FF0000B0891C4F30253F6
:10265000022B04D001CF0021032B06D006E0FF1D82
:1026600027F00707F7E8020103E080B2042B00D14E
:10267000C0B24FF0000823072BD5702A07D0DDF831
:1026800020C08CF0100C5CEA0B0C05D00EE040234F
:102690008DF82430012308E050EA010306D03023EE
:1026A0008DF824308DF8252002239846DDF820C0CF
:1026B0008CF0080C5CEA0B0C0BD150EA010301D141
:1026C000630706D530238DF824304FF00108A9F1B7
:1026D0000109582A04D038A20B9208AA0A920BE0EA
:1026E0003AA2F9E75B46089AFDF73EFD0B9B9B5C1F
:1026F0000A9A521E0A92137050EA0102F2D10A9805
:10270000ADEB000000F1200B600702D524F480340B
:1027100001E04FF00109D94502DDA9EB0B0000E013
:10272000002000EB0B0141440890AAEB010AE003F2
:1027300006D4DDE90F232146504600F0E3FB0644B2
:102740004FF0000908E009A911F80900DDE90F12AE
:10275000904709F10109761CC145F4DBE0030CD573
:10276000DDE90F232146504600F0CCFB064404E08F
:10277000DDE90F1230209047761C0899481E08901A
:102780000029F5DC08E00A980A990078491C0A91AA
:10279000DDE90F129047761CBBF10001ABF1010B94
:1027A000F1DC21465046DDE90F2300F087FB0644AB
:1027B0006D1C1BE6092801003031323334353637C1
:1027C000383961626364656600000000303132337D
:1027D000343536373839414243444546000000001D
:1027E0002DE9FF4F95B09B468946064600250FE22E
:1027F000252877D100242746F84A0121059400E0D6
:10280000044316F8013F203B01FA03F01042F7D1D0
:1028100030782A2811D06FF02F033078A0F13002E1
:10282000092A16D8059A44F0020402EB820203EB4F
:1028300042021044761C0590EFE759F8042B0592EC
:10284000002A03DA504244F40054059044F0020494
:10285000761C30782E2816D116F8010F44F00404A7
:102860002A280DD06FF02F023078A0F13003092B09
:1028700009D807EB870302EB4303C718761CF3E77D
:1028800059F8047B761C30786C280FD006DC4C2875
:1028900017D068280DD06A2814D104E0742810D00D
:1028A0007A280FD10DE044F400140AE044F48014B7
:1028B00001E044F440147278824202D104F580149D
:1028C000761C761C307866280BD013DC582877D01D
:1028D00009DC002875D04528F6D04628F4D04728D2
:1028E0001AD19DE118E0632835D0642879D0652895
:1028F00012D195E1702873D008DC6728F1D06928DF
:102900006FD06E280DD06F2806D1B5E073282CD07B
:10291000752875D0782874D05A46179990476D1C41
:1029200075E1C4F30250022809D003280DD0D9F86C
:10293000001004280DD00D6009F1040967E1D9F8F1
:102940000010EA17C1E90052F6E7D9F800100D802F
:10295000F2E70D70F0E719F8041B8DF80010002065
:102960008DF80100EA46012003E059F804AB4FF06E
:10297000FF3061074FF0000102D40DE008F10101C2
:102980008846B9420FDA8045F8DB1AF808100029AA
:10299000F4D108E008F1010188468142FADB1AF817
:1029A00008100029F6D105985B46A0EB08072146E0
:1029B0003846179A00F0BDFA284400EB080507E0F6
:1029C0004DE029E10DE01AF8010B5A46179990479E
:1029D000B8F10108F7D25B4621463846179A13E151
:1029E00042E00A220092C4F302524FF0000A022A87
:1029F00008D059F804CB032A4FEAEC710AD00DE055
:102A000029E02AE009F1070121F00702F2E802C1FA
:102A1000914609E00FFA8CFC4FEAEC71042A03D1CD
:102A20004FFA8CFC4FEAEC71002907DA0A460021C4
:102A3000DCF1000C61EB02012D2202E0220504D53D
:102A40002B228DF80420012203E0E20701D020228E
:102A5000F7E7904659E00A2102E010220DE010212C
:102A60004FF0000A00910BE010224FF0000A44F0F2
:102A700004040827009203E008224FF0000A0092A5
:102A8000C4F30252022A05D059F804CB0021032ACC
:102A900008D009E009F1070121F00702F2E802C1BC
:102AA000914605E01FFA8CFC042A01D10CF0FF0CC2
:102AB0004FF00008220728D5702806D0009B83F02D
:102AC000100353EA0A0305D00EE040228DF80420DB
:102AD000012208E05CEA010206D030228DF80420D1
:102AE0008DF8050002229046009B83F0080353EA0C
:102AF0000A030AD15CEA010201D1620705D530223E
:102B00008DF804204FF001087F1E582804D034A00F
:102B100003900EA802900DE036A0F9E753466046F8
:102B2000009AFDF721FB84460398825C0298401EC0
:102B3000029002705CEA0100F0D1029806A9081A1E
:102B400000F1200A600702D524F4803400E0012758
:102B5000574502DDA7EB0A0000E0002000EB0A0168
:102B6000009005984144401A0590E00306D45B4666
:102B70002146179A059800F0DCF90544002706E085
:102B800001A85A46C05D179990476D1C7F1C4745A8
:102B9000F6DBE0030CD55B462146179A059800F05A
:102BA000C8F9054404E030205A46179990476D1C37
:102BB0000099481E00900029F5DC08E0029802996F
:102BC0005A460078491C0291179990476D1CBAF13A
:102BD0000001AAF1010AF1DC65E100000928010009
:102BE0003031323334353637383961626364656683
:102BF0000000000030313233343536373839414245
:102C0000434445460000000000F06AF90544761C84
:102C1000307800287FF4ECAD19B02846BDE8F08F7D
:102C2000620700D4062709F1070222F0070CFCE82E
:102C30000223E14603F000485FEA080C02D00FF2DD
:102C4000702C0DE05FEA045C02D50FF2682C07E0FF
:102C50005FEAC47C02D00FF2602C01E0AFF2700C8E
:102C60004FF0FF3823F00043CDF850C065280CD05A
:102C700006DC452809D046281DD047283DD13DE037
:102C8000662818D067287ED138E00021112F01DB9B
:102C9000112000E0781CCDE9000106A90EA8FFF77D
:102CA0007DFADDE90F010E9A03910021009207F1F0
:102CB000010A04914DE04FF000400097CDE901106A
:102CC00006A90EA8FFF76AFADDE90F0203920E9B30
:102CD00011990022DDF80CA00093049211B9791C1F
:102CE00000EB010AB7EB0A0004D4C0F1FF3007F192
:102CF000010A0490AAEB0700019044E0012F00DADA
:102D000001270021112F01DD112000E03846CDE917
:102D1000000106A90EA8FFF741FADDE90F010E9A9E
:102D20000391002104910092BA4621070CD4039923
:102D3000514500DA8A46BAF1010F05DD009AAAF181
:102D40000101515C302908D0B84202DA10F1040FB9
:102D500006DA0121CDE9011015E0AAF10101E9E748
:102D6000002805DC049901440491AAEB000102E06B
:102D7000411C514500DD8A460499401A401C0190CF
:102D80004FF000400290200704D40198504501DB29
:102D9000CDF8048000208DF84F0002980DF14F0708
:102DA000B0F1004F25D02B200E9002984FF0020872
:102DB00000280CDA404202902D200E9007E00A21F4
:102DC0000298FDF7E7FC3031029007F8011DB8F1D9
:102DD0000001A8F10108F2DC02980028EFD1791E69
:102DE0000E980870307800F0200040F0450007F899
:102DF000020D12A8C01B00F107081498007800B15A
:102E0000012000EB0A01019801EBE07105984144B3
:102E1000401A401E0590E00306D45B462146179AEF
:102E2000059800F086F805441498007818B15A46C1
:102E3000179990476D1CE00324D55B462146179AED
:102E4000059800F076F805441CE00498002807DB9C
:102E5000DDE90301884203DD0098405C179901E039
:102E6000179930205A469047049805F10105401CF7
:102E700004900198401E019004D12E205A461799C3
:102E800090476D1CBAF10001AAF1010ADDDC05E0F2
:102E900017F8010B5A46179990476D1CB8F10001BD
:102EA000A8F10108F4DC5B462146179A0598ABE6C9
:102EB0002D0000002B000000200000002DE9F04153
:102EC000044600251E461746880404D405E039460A
:102ED0002020B0476D1C641EF9D52846BDE8F0815E
:102EE0002DE9F041044600251E461746880404D407
:102EF00005E039462020B0476D1C641EF9D52846F0
:102F0000BDE8F0812DE9F041044600251E469046BB
:102F1000C80301D5302700E02027880404D505E048
:102F200041463846B0476D1C641EF9D52846BDE8B9
:102F3000F0812DE9F041044600251E469046C80365
:102F400001D5302700E02027880404D505E041465C
:102F50003846B0476D1C641EF9D52846BDE8F0819F
:102F60004A68002A06D00A68531C0B601070486833
:102F7000401E486070470A68531C0B601070704711
:102F80000A68531C0B6010707047000010B5094BA5
:102F9000094C1A68914202D94FF0000010BD04D1CB
:102FA000605402F101021A6000E060544FF0010029
:102FB00010BD00009400002010340020044A034B90
:102FC00011685854491C11607047000010340020EB
:102FD0009400002070B505460E46002D01D0002457
:102FE00005E0002070BD285DFFF7E8FF641CB442D7
:102FF000F9D3012070BD000010B54FF48061034883
:10300000FDF70AF902490020086010BD10340020C5
:10301000940000200221FFF7DDBF0421FFF7DABF93
:1030200010B56FF00400FEF7ADFC094809490068CF
:10303000B0FBF1F00849C0B2087000EB4002C2EBEF
:10304000C0104FF6FF7202EAC000488010BD0000B9
:103050000000002000127A007C0000200B49498803
:1030600048434FF0E021486100238B61086940F03C
:10307000010008610869C20701D0C003FAD50869D8
:1030800020F0010008618B61704700007C00002087
:1030900001460020054A1288130406D5044BC2F3EA
:1030A0000E0298541846FDF7C2B87047340000204D
:1030B000901D00202DE9F041ADF6080D00240027F9
:1030C000444D00262E804FF47A70009042A342A215
:1030D00043A144A000F0DEF82E804FF4FA683EA32E
:1030E0003DA23FA140A0CDF8008000F0D3F82E8093
:1030F00039A339A23AA13EA0CDF8008000F0CAF869
:103100002E8005E02E806420FFF7A8FF641CE4B247
:1031100031A331A239A13DA0CDF8008000F0BAF86A
:10312000012801D00A2CEDD32E800A2C4AD02AA3E4
:103130002BA239A13BA0CDF8008000F0ABF82E8087
:10314000C820FFF78BFF24A323A225A138A0CDF828
:10315000008000F09FF82E80C820FFF77FFF1EA39D
:103160001DA21FA135A0CDF8008000F093F82E809D
:10317000C820FFF773FF4FF4006102A8FDF74CF879
:1031800041F6BB5331A235A102A8FEF7B7FF12A347
:1031900013A23BA102A8CDF8008000F07BF8044602
:1031A0002E80C820FFF75AFF2E80012C0CD0022C55
:1031B0000AD0032C08D0012F06D000200DF6080DF0
:1031C000BDE8F0810020F9E721462FA0FEF786FF39
:1031D0000120F3E7340000204E554C4C0000000065
:1031E0004F4B0000415400004154453000000000A6
:1031F00041542B4350494E3F000000000D0A2B4321
:103200005245473A20302C310000000041542B43F6
:103210005245473F0D0A00002B43474154543A2082
:103220003100000041542B43474154543F0D0A00E4
:1032300041542B51494143543F0D0A0041542B51F5
:1032400049434C4F53453D300D0A00003132312E79
:10325000352E3134302E31323600000041542B519E
:10326000494F50454E3D312C302C22544350222C96
:10327000222573222C25642C302C320D0A000000EC
:10328000434F4E4E45435400646174613D25640DC7
:103290000A0000002DE9F05F0A9C07468946924625
:1032A0009B4600252E4EA846A6F80080FF2F07D883
:1032B0002C48D0F884100029FBD12B48078007E068
:1032C00039462AA003F0D6FE394628A0FEF706FFAD
:1032D000284FA4F580604C3805D10B20387042F29D
:1032E0000F70FEF731FCB9F1000F00D07CBBBBF1D1
:1032F000000F00D05CBBBAF1000F2FD03CBB2DE01B
:10330000787828B10020FEF75FF90546032D10D02C
:103310000A20FFF7A3FE308800041BD516A117482A
:10332000FEF7CCFE4846FFF7B3FE20B10120BDE812
:10333000F09F0220FBE75046FFF7AAFE08B10220EB
:10334000F5E75846FFF7A4FE10B10320EFE701E0D0
:10335000A6F80080641E2404240CD1D12846E6E798
:1033600034000020000002400444004025730D0A90
:1033700000000000360000200D0A0000901D002013
:1033800070B505460E4609A0FEF7A8FE002405E02C
:10339000295D09A0FEF7A2FE641CA4B2B442F7DBCB
:1033A000BDE8704005A0FEF799BE00000D0A457209
:1033B000726F723A20000000256300000A000000CE
:1033C00010B5024600200021044B33F8114094420E
:1033D00000D10120491C0929F7DB10BD8000002025
:1033E00010B5024600200021044B33F811409442EE
:1033F00000D10120491C0A29F7DB10BD9C000020E8
:1034000004490A885206FCD5024AC1B2121D118035
:10341000704700000038014010B5002821D0114B42
:103420000022001F196803E0814203D80A46496858
:103430000029F9D152B11368841A9C4204D1006862
:1034400018441060104602E0506000E0186039B186
:1034500002680B1A934203D10B681A440260496850
:10346000416010BDB000002070B505460E4609A0B1
:10347000FEF734FE002405E0295D09A0FEF72EFECC
:10348000641CA4B2B442F7DBBDE8704005A0FEF7AF
:1034900025BE00000D0A496E666F3A20000000004C
:1034A000256300000A000000F0B591B006460C4606
:1034B0001546402101A8FCF7AFFE002E1CD0002CC1
:1034C0001AD0601C01F0FEFC074622463146384601
:1034D000FCF789FE387885F82C01402101A8FCF71B
:1034E0009BFE382205F1F80101A8FCF77CFE402282
:1034F00001A90248FDF76EFE11B0F0BD0080000882
:10350000F0B591B007460D461446402101A8FCF7DE
:1035100083FE002F28D0002D26D0681C01F0D2FC9D
:1035200006462A4639463046FCF75DFE0020C4F8C0
:103530002001C4F8240104F58071C4F82801307812
:1035400081F82000402101A8FCF766FE382204F132
:10355000F80101A8FCF747FE402201A90348FDF746
:1035600039FE3046FFF758FF11B0F0BD008000086B
:10357000F0B591B006460D46144640216846FCF76A
:103580004BFE002E27D0002D25D0284601F09AFCB6
:1035900007462A4631463846FCF725FE2A46394674
:1035A00010A8FCF720FEBDF84000FDF755FDA4F87B
:1035B0001E0140216846FCF72FFE382204F1F80175
:1035C0006846FCF710FE402269460448FDF702FEFB
:1035D0003846FFF721FF11B0F0BD00000080000861
:1035E000F0B591B006460D46144640216846FCF7FA
:1035F00013FE002E26D0002D24D0284601F062FCB8
:1036000007462A4631463846FCF7EDFD2A4639463C
:1036100010A8FCF7E8FD1098FDF723FDC4F814018D
:1036200040216846FCF7F8FD382204F1F8016846AD
:10363000FCF7D9FD402269460348FDF7CBFD38462B
:10364000FFF7EAFE11B0F0BD00800008F0B591B0C0
:1036500006460D46144640216846FCF7DDFD002E67
:1036600026D0002D24D0284601F02CFC07462A46FF
:1036700031463846FCF7B7FD2A46394610A8FCF714
:10368000B2FD1098FDF7EDFCC4F81001402168462A
:10369000FCF7C2FD382204F1F8016846FCF7A3FDEF
:1036A000402269460348FDF795FD3846FFF7B4FE12
:1036B00011B0F0BD00800008F0B591B006460D468F
:1036C000144640216846FCF7A7FD002E26D0002DA9
:1036D00024D0284601F0F6FB07462A4631463846F4
:1036E000FCF781FD2A46394610A8FCF77CFD1098AE
:1036F000FDF7B7FCC4F8F80040216846FCF78CFDE4
:10370000382204F1F8016846FCF76DFD4022694655
:103710000348FDF75FFD3846FFF77EFE11B0F0BDB0
:1037200000800008F0B591B007460D4614464021D0
:1037300001A8FCF771FD002F28D0002D26D0681CB1
:1037400001F0C0FB06462A4639463046FCF74BFDE1
:1037500004F18001002044F8FC0F6060A060E0608C
:10376000FC3C307881F87C00402101A8FCF754FD36
:10377000382204F1F80101A8FCF735FD402201A927
:103780000348FDF727FD3046FFF746FE11B0F0BDB8
:1037900000800008F0B591B006460D461446402161
:1037A0006846FCF739FD002E26D0002D24D028468F
:1037B00001F088FB07462A4631463846FCF713FDE0
:1037C0002A46394610A8FCF70EFD1098FDF749FC73
:1037D000C4F8180140216846FCF71EFD382204F1A8
:1037E000F8016846FCF7FFFC402269460348FDF7F4
:1037F000F1FC3846FFF710FE11B0F0BD0080000864
:10380000F0B591B006460D46144640216846FCF7D7
:1038100003FD002E27D0002D25D0284601F052FBB5
:1038200007462A4631463846FCF7DDFC2A4639462B
:1038300010A8FCF7D8FCBDF84000FDF70DFCA4F87B
:103840001C0140216846FCF7E7FC382204F1F8012E
:103850006846FCF7C8FC402269460448FDF7BAFCFC
:103860003846FFF7D9FD11B0F0BD00000080000818
:10387000F0B591B006460D46144640216846FCF767
:10388000CBFC002E26D0002D24D0284601F01AFBB8
:1038900007462A4631463846FCF7A5FC2A463946F3
:1038A00010A8FCF7A0FC1098FDF7DBFBC4F80C0196
:1038B00040216846FCF7B0FC382204F1F801684664
:1038C000FCF791FC402269460348FDF783FC38462B
:1038D000FFF7A2FD11B0F0BD0080000810B548F25E
:1038E0000102034903A0FEF7F9FB002010BD000010
:1038F000EC7300085B25735D206D73675F6964205E
:103900003D203078253034780D0A000010B548F29B
:103910000122034903A0FEF7E1FB002010BD0000D7
:10392000B97400085B25735D20E4BD8DE7BDAEE48E
:10393000BFA1E681AFE69FA5E8AFA2206D73675FE8
:103940006964203D203078253034780D0A0000006D
:1039500010B540F20122034903A0FEF7BFFB00208F
:1039600010BD0000A57300085B25735D206D7367B3
:103970005F6964203D203078253034780A000000EB
:1039800010B548F20612034903A0FEF7A7FB00207A
:1039900010BD0000637400085B25735D20E69FA5E1
:1039A000E8AFA2E68C87E5AE9AE7BB88E7ABAFE568
:1039B0008F82E695B0206D73675F6964203D20308B
:1039C00078253034780D0A0010B548F20412034906
:1039D00003A0FEF783FB002010BD00004574000823
:1039E0005B25735D20E69FA5E8AFA2E7BB88E7AB48
:1039F000AFE58F82E695B0206D73675F6964203D07
:103A0000203078253034780D0A00000010B54FF4CE
:103A10008272034903A0FEF761FB002010BD000085
:103A2000447300085B25735D206D73675F696420D4
:103A30003D203078253034780A0000001FB5044658
:103A40000020029003904FF40072364936A0FEF732
:103A500045FB54F8540FFDF704FB019001A8FFF754
:103A6000DCFA6068FDF7FDFA019001A8FFF7D5FACE
:103A7000A068FDF7F6FA019001A8FFF7CEFAE0681A
:103A8000FDF7EFFA019001A8FFF7C7FA208AFDF7CA
:103A9000E3FA00906846FFF7BDFA608AFDF7DCFAAA
:103AA00000906846FFF7B6FAA08A543CFDF7D4FAB6
:103AB00000906846FFF7AEFA04F16A000446FCF78E
:103AC000C8FB024602A9204601F024F8062102A8FC
:103AD000FFF780FA3020FFF771FA0120FFF76EFA46
:103AE0005320FFF76BFA3120FFF768FA0120FFF748
:103AF00065FA0B20FFF762FAE020FFF75FFA01207A
:103B0000FFF75CFA0320FFF759FAEE20FFF756FAA9
:103B10000120FFF753FA0220FFF750FA282004B0E3
:103B200010BD00008E7300085B25735DE4BD8DE75A
:103B3000BDAEE4B88AE68AA5206D73675F6964202C
:103B40003D203078253034780D0A000070B50446E9
:103B500048F20102164917A0FEF7C0FA002C23D044
:103B60000D202189890400D511201D490D18085CFC
:103B70006A78A43402EB002082B2A2800C4919A01A
:103B8000FEF7ACFAE878A97800EB012082B26280F7
:103B9000074921A0FEF7A2FA2A79227004492BA036
:103BA000FEF79CFA002070BD4FF0FF3070BD0000A2
:103BB000CC7300085B25735D20E5B9B3E58FB0E9F0
:103BC000809AE794A8E5BA94E7AD94206D73675F97
:103BD0006964203D203078253034780D0A000000DB
:103BE000103800205B25735D20E5B9B3E58FB0E99F
:103BF000809AE794A8E5BA94E7AD9420E5BA94E7F3
:103C0000AD94E6B581E6B0B4E58FB7203D203078BD
:103C1000253034780D0A00005B25735D20E5B9B3CB
:103C2000E58FB0E9809AE794A8E5BA94E7AD9420CF
:103C3000E5BA94E7AD94E6B688E681AF4944203D05
:103C4000203078253034780D0A0000005B25735D44
:103C500020E5B9B3E58FB0E9809AE794A8E5BA9476
:103C6000E7AD9420E5BA94E7AD94E7BB93E69E9C5C
:103C7000203D203078253034780D0A002DE9F84FAA
:103C8000814648F20312214921A0FEF727FA4FF09E
:103C9000FF32B9F1000F11D00D20B9F8AC108B0430
:103CA00000D51120C1F3090159B1DFF8908018F84F
:103CB0000070401C84B237B1002522E01046BDE8F8
:103CC000F88F1046FBE71046F9E708EB04000068A0
:103CD0000090FDF7C6F98246241DA4B25046FFF7B6
:103CE0007FFB18F80460641CA4B2012806D1F2B26C
:103CF00008EB04014B46504600F0C4FEA01984B204
:103D00006D1CBD42E1DB0020D9E7000027740008EC
:103D10005B25735D20E8AEBEE7BDAEE7BB88E7ABD1
:103D2000AFE58F82E695B0206D73675F6964203DD3
:103D3000203078253034780D0A000000103800203B
:103D400070B5044654F8F40FFCF783FA05464FF4B7
:103D50008172054905A0FEF7C1F929462068FFF7E1
:103D600039F9284670BD0000257300085B25735D96
:103D700020E7BB88E7ABAFE989B4E69D83206D738C
:103D8000675F6964203D20307825303478200D0A43
:103D90000000000010B548F20512034903A0FEF729
:103DA0009DF9002010BD0000897400085B25735D3B
:103DB00020E7BB88E7ABAFE68EA7E588B6206D733A
:103DC000675F6964203D203078253034780D0A0023
:103DD00010B50222024903A0FEF780F9002010BDB1
:103DE000DB7200085B25735D20E7BB88E7ABAFE5BE
:103DF000BF83E8B7B3203CE6B688E681AFE4BD9365
:103E0000E4B8BAE7A9BA3E20206D73675F69642001
:103E10003D203078253034780A00000010B50322A8
:103E2000024903A0FEF75AF9002010BD0E730008E6
:103E30005B25735D20E7BB88E7ABAFE6B3A8E994E9
:103E400080203CE6B688E681AFE4BD93E4B8BAE7EB
:103E5000A9BA3E206D73675F6964203D20307825E4
:103E60003034780A0000000038B504464FF4807200
:103E70001C491DA0FEF732F9204600F061F9252506
:103E8000E08BFDF7E9F800906846FFF7C3F8208C57
:103E9000FDF7E2F800906846FFF7BCF8052104F151
:103EA0002200FFF797F8142104F12700FFF792F89A
:103EB000072104F13B00FFF78DF894F84200FFF76B
:103EC0007DF894F8420050B104F143000446FCF739
:103ED000C0F9054629462046FFF77CF825352846D7
:103EE00038BD0000F57200085B25735D20E7BB88D4
:103EF000E7ABAFE6B3A8E5868C206D73675F6964B6
:103F0000203D20307825303478200D0A0000000054
:103F100070B504464FF401421D491EA0FEF7DEF8BD
:103F2000002C1CD00D20B4F8AC10890400D5112051
:103F300023490D18085C6A78A43402EB002082B291
:103F4000A28013491FA0FEF7C9F8AA782270104971
:103F500028A0FEF7C3F814F8A40918B115E04FF033
:103F6000FF3070BD34F8AC0FC0F30900C01E86B23C
:103F7000701C00F0A7FFA064E91C3246FCF733F97F
:103F8000034927A0A26CFEF7A9F8002070BD00002D
:103F9000067400085B25735D20E7BB88E7ABAFE6DE
:103FA000B3A8E5868CE5BA94E7AD94206D73675F9E
:103FB0006964203D203078253034780D0A000000F7
:103FC000103800205B25735D20E7BB88E7ABAFE6C8
:103FD000B3A8E5868CE5BA94E7AD94E6B581E6B082
:103FE000B4E58FB720203D203078253034780D0A95
:103FF000000000005B25735D20E7BB88E7ABAFE600
:10400000B3A8E5868CE5BA94E7AD94E7BB93E69E4A
:104010009C20203D203078253032780D0A000000A9
:104020005B25735D20E7BB88E7ABAFE6B3A8E58609
:104030008CE5BA94E7AD94E989B4E69D83E7A08165
:10404000203D2025730D0A0010B548F208120349DF
:1040500003A0FEF743F8002010BD0000A174000883
:104060005B25735D20E4B88BE58F91E7BB88E7ABF8
:10407000AFE58D87E7BAA7E58C85206D73675F692B
:1040800064203D203078253034780D0A000000008F
:1040900010B54FF48472034903A0FEF71FF8002007
:1040A00010BD00006A7300085B25735D206D7367A7
:1040B0005F6964203D203078253034780A000000A4
:1040C00070B505460C4608A0FEF708F80D4E75655C
:1040D00029460DA0FEF702F8B4652146BDE8704000
:1040E00010A0FDF7FBBF00000A0D5B496E69744C20
:1040F0006F636174696F6E496E666F5D204F4B2010
:10410000210D0A0090320020706172612D3E616CB9
:1041100061726D2E76616C7565203D2025640D0AF7
:1041200000000000706172612D3E737461747573DC
:104130002E76616C7565203D2025640D0A00000017
:1041400070B504462BA0FDF7C9FFB4F81C11E1833C
:104150002FA0FDF7C3FFB4F81E11218436A0FDF790
:10416000BDFF052504F1220029460646FCF754F858
:104170002A463BA13046FCF736F80B2504F1270010
:1041800029460646FCF748F82A4637A13046FCF790
:104190002AF8072504F13B0029460646FCF73CF8BF
:1041A0002A4634A13046FCF71EF894F82C1184F806
:1041B000421032A0FDF792FF94F8420078B14334E8
:1041C000D4F8DD002060D4F8E1006060D4F8E500A8
:1041D000A060433C04F1430134A0FDF77FFF15A02C
:1041E000FDF77CFF3CA0FDF779FFBDE8704011A012
:1041F000FDF774BF0D0A5B696E6974526567697378
:10420000746572496E666F5D204F4B20210D0A0068
:10421000706172612D3E72656769737465725F6962
:104220006E666F2E70726F76696E63655F6964206B
:104230003D2025640D0A0000706172612D3E72659B
:104240006769737465725F696E666F2E63697479EE
:104250005F6964203D20253034640D0A00000000B1
:1042600058494E44410000005A584941542D435A80
:10427000303500003232313230330000706172610B
:104280002D3E72656769737465725F696E666F2E25
:104290006361725F706C6174655F636F6C6F7220D5
:1042A0003D203078253032780D0A0000706172614F
:1042B0002D3E72656769737465725F696E666F2EF5
:1042C0006361725F706C6174655F6E756D203D2017
:1042D00025730D0A00000000E6B3A8E5868CE4BF54
:1042E000A1E681AFE69BB4E696B0E5AE8CE6889099
:1042F0000D0A000010B590B040216846FBF78CFF16
:10430000402269460B48FDF73FF90B483821044627
:10431000FBF782FF402269462046FBF764FF07A0B7
:10432000FDF7DCFE06A0FDF7D9FE04A0FDF7D6FEE2
:1043300010B010BD00800008883300200D0A000076
:10434000E7B3BBE7BB9FE58F82E695B0E5889DE5C7
:10435000A78BE58C96E68890E58A9FEFBC81EFBC41
:1043600081EFBC81210D0A00F0B504460F463B46A3
:104370000A2615E02078FCF790FD0546B5FBF6F01F
:1043800030301870581C3978302900D13846B5FBC8
:10439000F6F106FB1151303100F8011B0346641C95
:1043A000521E501CE6D13846F0BD000070B50546DF
:1043B000E9880C464FF0FF3626A0FDF78FFEB4F5D6
:1043C000817F2CD009DC012C15D0022C18D0032CB5
:1043D00020D0B4F5807F3AD117E0B4F5827F23D0A6
:1043E000B4F5847F25D0B4F5007F27D0A4F5007400
:1043F000013C2CD127E02846FFF708FB064626E0C3
:104400002846FFF7E5FC064621E02846FFF72CFD8D
:1044100006461CE02846FFF701FD064617E0284641
:10442000FFF78EFC064612E02846FFF7EFFA064635
:104430000DE02846FFF72CFE064608E02846FFF769
:10444000FDFA064603E02846FFF782FA06463046A4
:1044500070BD00005B6A74383038E6B688E681AF1C
:10446000E4BD93E68993E58C855D20E78EB0E59CFD
:10447000A8E79A84206D73675F69643A20307825D5
:104480003034780D0A00000070B50646B6F8AA4030
:104490004FF0FF35214626A0FDF720FE48F204101C
:1044A000221A844229D00BDC6FF40040211810D06E
:1044B000022913D0FF2916D0B1F5817F35D117E03D
:1044C000012A24D0022A1DD0042A25D0FD2A2CD16D
:1044D00027E03046FFF73AFB054626E03046FFF777
:1044E000FDF9054621E03046FFF712FD05461CE0C8
:1044F0003046FFF7C3FB054617E03046FFF764FA86
:10450000054612E03046FFF73BFA05460DE030461F
:10451000FFF740FC054608E03046FFF795FD0546ED
:1045200003E03046FFF7F2F90546284670BD00006B
:104530005B6A74383038E6B688E681AFE4BD93E84C
:10454000A7A3E69E905D2063757272656E74206D00
:1045500073675F69643A203078253034780D0A003B
:104560003EB504460020009001902088FCF774FDC1
:10457000029002A8FEF74EFD6088FCF76DFD0290E8
:1045800002A8FEF747FD201DFBF763FE02466946C1
:10459000201D00F0BFFA06216846FEF71BFD608A69
:1045A000FCF75AFD0290022102A8FEF713FD608875
:1045B000800411D5A08A01280ED9FCF74DFD029088
:1045C000022102A8FEF706FDE08AFCF745FD0290F5
:1045D000022102A8FEF7FEFC00203EBD2DE9F041BD
:1045E00005460F4614464FF0FF38002C01D00F2F20
:1045F00002D24046BDE8F081A878697800EB01203E
:1046000081B221801EA0FDF769FD2879E97800EBD1
:10461000012081B2618027A0FDF760FD0026666061
:10462000A660E6600622211D681DFFF79DFE00289A
:1046300018D0211D2FA0FDF751FD287BE97A00EB52
:10464000012081B2618239A0FDF748FD60888104B4
:1046500004D5C0F30900381A132805D0A682E682D3
:104660000020C7E74046C5E7A87B697B00EB012037
:10467000A082287CE97B00EB0120E082F0E70000CB
:104680005B6A74383038E6B688E681AFE5A4B4E8F2
:10469000A7A3E69E905D206D73675F686561642DDA
:1046A0003E6D73675F6964203D2030782530327835
:1046B0000D0A00005B6A74383038E6B688E681AFD0
:1046C000E5A4B4E8A7A3E69E905D206D73675F68DC
:1046D0006561642D3E6D7367626F64795F617474A8
:1046E000722E75313676616C203D2030782530325F
:1046F000780D0A005B6A74383038E6B688E681AF18
:10470000E5A4B4E8A7A3E69E905D206D73675F689B
:104710006561642D3E70686F6E655F6E756D203DDE
:10472000202573202121210D0A0000005B6A7438C6
:104730003038E6B688E681AFE5A4B4E8A7A3E69EE4
:10474000905D206D73675F686561642D3E6D736772
:104750005F666C6F775F6E756D203D203078253019
:104760003278202121210D0A0000000070B5044696
:10477000FEF742FC00F0CAF917A0FDF7AFFCA01D40
:10478000FFF7EEFE4FF0FF35002801DA284670BD36
:1047900018A0FDF7A3FC2046FFF708FE01460029FC
:1047A00018DBA01D00F01EF9002801DA284670BDB4
:1047B000164801681648FCF765FBFEF7FFFB7E20F4
:1047C000FEF7FCFB00F02EF9002801DA284670BD48
:1047D000002070BD284670BD5B6A74383038E5A48F
:1047E000B4E6A087E5BF97E4BD8D5D204F4B202147
:1047F0000D0A00005B6A74383038E6B688E681AF8F
:10480000E5A4B45D204F4B20210D0A009400002048
:1048100010340020F8B506460D4614464FF49E723B
:10482000354936A0FDF75AFC4FF0FF3704B32A464E
:1048300031463D48FBF7D7FC3C4E35600095284695
:1048400000F040FB054628460099FBF7E5FC40F2E6
:104850004512294936A0009BFDF740FC6B462A46CD
:1048600031483168FCF7E6FF002803DA3846F8BD26
:104870003846F8BD009B336040F24B121E4934A00D
:10488000FDF72CFC0099681CC91EFCF7FBFA009987
:10489000294411F8021C884201D03846F8BD4FF473
:1048A000A87215493AA0FDF719FC04F1AA0228469E
:1048B0000099FFF793FE08B13846F8BD40F2551253
:1048C0000D493EA0FDF70AFCD4F8AE00C4F80A007A
:1048D000D4F8B200C4F80E00B4F8B600608294F8C0
:1048E000B80020752046FFF7CFFD044615B12846D5
:1048F000FEF792FD2046F8BDD874000825735B25AD
:10490000645D3A204A54383038E6B688E681AFE52F
:10491000A4B4E8A7A3E69E90202D2D3E31202121AE
:1049200021200D0A0000000010380020980000200F
:1049300025735B25645D3A206F7574427566666504
:104940007253697A65203D202564200D0A0000001D
:1049500025735B25645D3A20E98086E8BDACE4B947
:1049600089526576657273654573636170655F43EF
:104970002E20206F757442756666657253697A657C
:10498000203D20256420202121210D0A0000000067
:1049900025735B25645D3A20E5BC82E68896E6A037
:1049A000A1E9AA8C426363436865636B53756D2EFE
:1049B000202D2D3E33202121210D0A0025735B255A
:1049C000645D3A2020E8A7A3E69E90E6B688E681DB
:1049D000AFE5A4B42E202D2D3E34202121210D0A37
:1049E000000000001CB50D4A12680C2A02D24FF0DC
:1049F000FF301CBD40880090BDF8000061F3090045
:104A00000090FCF729FB019005489DF80410C17047
:104A10009DF80510017100201CBD000094000020CD
:104A20001034002038B5154A00211170144D286843
:104A3000024402F8011C4000009000F043FA0446D2
:104A40006B4622460D482968FCF717FB002802DA5E
:104A50004FF0FF3038BD7E2020700099214401F8CE
:104A6000010C21460548009AFBF7BDFB0098286021
:104A700014B12046FEF7D0FC002038BD10340020D1
:104A80009400002030B40C4611461A4655282BD00D
:104A900012DC182820D007DC012819D0132833D1C4
:104AA000204630BCFEF73EBE292819D030282BD135
:104AB000204630BCFEF794BD812819D082281BD037
:104AC00083281DD084281FD1204630BCFEF7ECBCC3
:104AD000204630BCFEF7F0BD204630BCFEF7C8BE15
:104AE000204630BCFEF7B2BD204630BCFEF752BEB9
:104AF000204630BCFEF784BE204630BCFEF738BDF1
:104B0000204630BCFEF7FCBC30BC704700217E2044
:104B1000FEF73CBA30B504460D462B46D00715D0FB
:104B200014F8010B3038C0B2FCF723FD03F8010B79
:104B30000CE0303800EB800040006178A41C084491
:104B40003038C0B2FCF715FD03F8010B20780028BF
:104B5000EFD11870284630BD2DE9F05F8246002461
:104B6000DFF87890DFF878801E4D4FF47A7B4FF4B1
:104B700081760027304602F069F85846FEF76EFA53
:104B800019491A48D9F80020FDF789FA6420FEF780
:104B900065FA2888010419D5C0F30E01298014484C
:104BA00002F090F898F8A40080B9B8F8A600B042D6
:104BB0000CD14FF0010A0FA0FDF790FA0EA0FDF7FF
:104BC0008DFA0CA0FDF78AFA2F8003E02F80641C79
:104BD000032CCFDB5046BDE8F09F0000940000207E
:104BE00090320020340000201034002000440040A7
:104BF000901D00200D0A0000E7BB88E7ABAFE989F4
:104C0000B4E69D83E68890E58A9FEFBC81EFBC8186
:104C1000EFBC81210D0A00002DE9F05F81460024E0
:104C2000DFF878801E4F1F4D4FF4807A4FF47A7B67
:104C30000026504602F00AF85846FEF70FFA1A49C5
:104C40001A48D8F80020FDF72AFA6420FEF706FA81
:104C5000288801040DD5C0F30E012980144802F004
:104C600031F897F8A40020B9B7F8AA00B0F5014FC1
:104C700006D02E80641C032CDBDB4846BDE8F09F89
:104C80004FF001090BA0FDF729FA0BA0FDF726FA5A
:104C900008A0FDF723FA2E80EFE700009400002023
:104CA00090320020340000201034002000440040E6
:104CB000901D00200D0A0000E6B3A8E5868CE6886A
:104CC00090E58A9FEFBC81EFBC81EFBC81210D0A8A
:104CD00000000000A0B00024002500260027A04608
:104CE00054485349CDE91E1054485349CDE91C108E
:104CF00053481B9053481A905348199053A090E87A
:104D00000E00C068CDE9162315911890402105A822
:104D1000FBF782FAFCF7B0FCFEF782F94FF4E139B9
:104D2000484602F0C5F94846FDF72AF8FCF76BFB48
:104D3000FFF7E0FA1CB9FEF7BDF901283ED00B21C0
:104D400046A002F057F9002D41D0002E47D0414631
:104D50003846FFF7B5F902F045F9DDE91A2119984F
:104D600015AECDE90206CDE90012DDE91C23DDE92F
:104D70001E0102F0EFF94FF4007001F067FF3A48AE
:104D80003A4902683A48FDF78AF93A4C6420FEF73E
:104D900065F920880004F9D52088C0F30E01218030
:104DA000354801F08FFF35A0FDF798F9218839A02B
:104DB000FDF794F90025258019AF20E03CA0FDF710
:104DC0008DF901244FF4FA60FEF748F9B2E728465E
:104DD000FFF722FF0546002DACD10024AAE730469C
:104DE000FFF7BAFE0646002EA4D100250024A1E755
:104DF000C0F30E012180204801F064FF2580CDE939
:104E000000761AAB1BAA1CA91EA800F05BFBDDE90B
:104E10001A211998CDE90206CDE90012DDE91C231B
:104E2000DDE91E0102F096F920880104E7D5DFE7ED
:104E30000E1137A792694140C974E8F4BC635C4025
:104E40000000D6420000704100000443323231318C
:104E500032373231323835350000000031313131EE
:104E600031313131313133009400002010340020D1
:104E70000044004034000020901D002075706461E3
:104E80007465206C6F636174696F6E20646F6E650A
:104E9000210D0A00436C69656E7420726563656953
:104EA00076652062797465733A2025640D0A0000E6
:104EB00073657276657220636F6E6E656374656488
:104EC0000D0A0000F0B50B30154D20F0070100244D
:104ED000144A0FE003688B420BD38B4205D95E1A4C
:104EE00043184768C3E9006700E04368136002C0E5
:104EF00004E0021D10680028ECD12046002802D1F1
:104F0000286808B10020F0BD064A07481060074A2B
:104F1000121A22F00702C0E9002401202860D7E716
:104F2000B4000020B0000020143C0020104C0020F1
:104F30002DE9F0410026383010F8382C4A62D0E9CB
:104F40001A23C1E90A23D0E91C23C1E90C23D0E9C3
:104F50001E233838C1E90E2300234FF0010C002234
:104F600000EB83070DE0BC6854B102EB820501EB56
:104F70008505D5F87083444502D1C5F874C3761C05
:104F8000521CD1F86C439442EDDC5B1C252BE6DB14
:104F9000C1F86863086840F080000860BDE8F081EF
:104FA00070B5D0E900329A4233DC2523B3EB820F8F
:104FB0002FDB012A01DA012242608268C1F86C23EA
:104FC0004268521E92008368141DA34201DA9D1AA2
:104FD00000E00425002216E043685B1E02EB830319
:104FE00002EB820403EB830300EB840401EB8303F5
:104FF00003F55C73E6681E6066699E60A669DE6004
:10500000E4691C61521CAA42E6DB086840F04000DB
:10501000086070BDC2680A6102694A6142698A61BA
:105020008269CA61C26B0A62D0E91223C1E90C230A
:10503000D0E91423C1E9142390F828204E2A16D071
:10504000D0E9082383F00043C1E9102390F8382009
:10505000452A0FD0D0E90C2383F00043C1E9122385
:10506000006CC867086840F4805008607047D0E959
:105070000823E9E7D0E90C23F0E790F83820412A2B
:1050800002D0562A09D00CE00B6A022203B90A6248
:105090004B6A012B05D14A6203E000220A62012219
:1050A0004A62027A4E2A1FD0D0E9002383F00043DF
:1050B000C1E91023027E452A19D0D0E9042383F0E8
:1050C0000043C1E91223826A0A61C26A4A61026B23
:1050D0008A61426BCA6190F8390081F878000868EB
:1050E00040F4007008607047D0E90023E0E7D0E9A1
:1050F0000423E6E770B505460C46287F412802D018
:10510000562809D00CE0216A022001B92062616AA8
:10511000012905D1606203E0002020620120606265
:105120001C222946201DFBF75EF895F828004E2822
:1051300028D0D5E9080181F00041C4E9100195F8B3
:105140003800452821D0D5E90C0181F00041C4E99F
:105150001201D5E91001C4E91601D5E910010C4A84
:105160000C4BFBF7A5F9C4E91801D5E91201C4E914
:105170001A0195F8590084F87800206840F400601E
:10518000206070BDD5E90801D7E7D5E90C01DEE75D
:105190006F1283C0CAA1FD3FD0E90023C1E91A23E1
:1051A000D0E90423C1E91C23D0E90823C1E916236F
:1051B000D0E90C23C1E9182390F8390081F8780070
:1051C000086840F480600860704710B50C460146DE
:1051D0001C22201DFBF707F8206840F48070206037
:1051E00010BDC2680A6102694A6142698A618269C6
:1051F000CA61C26B0A62D0E91223C1E90C23D0E96B
:105200001423C1E9142390F828204E2A14D0D0E9A1
:10521000082383F00043C1E9102390F83820452A81
:105220000DD0D0E90C2080F00040C1E912200868C0
:1052300040F0010008607047D0E90823EBE7D0E9AF
:105240000C20F2E72DE9F0410026383050F8342CDC
:105250004A62D0E91A23C1E90A23D0E91C23C1E933
:105260000C23D0E91E233838C1E90E2300234FF068
:10527000010C002200EB83070DE0BC6854B102EB87
:10528000820501EB8505D5F88480444502D1C5F837
:1052900088C0761C521CD1F880409442EDDC5B1C27
:1052A000252BE6DBCE67086840F002000860BDE809
:1052B000F08170B5D0E900329A4232DC2523B3EB9D
:1052C000820F2EDB012A01DA012242608268C1F8D6
:1052D00080204268521E92008368141DA34201DAA6
:1052E0009D1A00E00425002215E043685B1E02EBD6
:1052F000830302EB820400EB840403EB830301EBE2
:105300008303E66843F8846F66699E60A669DE6081
:10531000E4691C61521CAA42E7DB086840F0040003
:10532000086070BD70B505460C46287F412802D044
:10533000562809D00CE0216A022001B92062616A76
:10534000012905D1606203E0002020620120606233
:105350001C222946201DFAF746FF95F828004E2802
:1053600020D0D5E9080181F00041C4E9100195F889
:105370003800452819D0D5E90C0181F00041C4E975
:105380001201D5E910010A4A0A4BFBF791F8C4E96A
:105390001801D5E91201C4E91A01206840F008009B
:1053A000206070BDD5E90801DFE7D5E90C01E6E72B
:1053B0006F1283C0CAA1FD3F8068C1F854060E4A2F
:1053C000C1F85826002809D001280BD002280DD09A
:1053D00007280FD1114609A000F059BA06490CA0C0
:1053E00000F055BA04490EA000F051BA024911A0CC
:1053F00000F04DBA704700009031002047505458DB
:1054000054207573657220696E666F3A20257300AB
:105410004750545854206572726F723A20257300B9
:105420004750545854207761726E696E673A202550
:10543000730000004750545854206E6F74696365C0
:105440003A20257300000000D0E90023C1E91A23A7
:10545000D0E90423C1E91C23426B006BC1E91802A7
:10546000086840F010000860704710B5C2B00346ED
:105470000C4600200146FF2C0BDC2246194601A8F1
:10548000FAF7B1FE01A90020085541A901A801F0D1
:10549000C3FD42B010BD30B5C1B003460C46154641
:1054A0000020FF2C0CDC224619466846FAF79BFECA
:1054B00000200DF804002A4640A96846FAF7E7FEE6
:1054C00041B030BD2DE9FF4FADF6AC2D002401F009
:1054D000B7FA8249016001F0B3FA8149416001F0F5
:1054E000AFFA804981600DF5886001F0A0FB0CA83F
:1054F00001F073F87C4D7D4E7D4FA0464FF48069DE
:10550000287850B10DF588634A467A490CA800F016
:105510008DFA85F8008001240BE0307848B10DF554
:1055200088634A4639460CA800F080FA86F8008065
:105530000124002CE4D00123082205A90DF24440E7
:10554000FBF765FE05984FF4FA6A00F26C7090FB69
:10555000FAF10AFB1101DDE908230A980290CDE96E
:105560000023DDE9062364A0FCF7B8FD0DF590608B
:1055700003C800F0ABF904460D460DF5916003C871
:1055800000F0A4F906460F46DFF894B100225B460E
:1055900020462946FAF78CFFFBF790F88146002257
:1055A0005B4630463946FAF783FFFBF787F8CDF8BC
:1055B000A80A0DF5926003C8FBF780F8CDF8A40A9D
:1055C0000DF59460002203C8564BFAF771FFFBF704
:1055D00075F8CDF8A00A0DF5956003C8FBF76EF8D5
:1055E0008346B9F1000F6CD0DDF8AC0A30C0DDF8AD
:1055F000B00AC0C00DF5926003C8FBF7AFF8DDF844
:10560000B41A08600DF5946003C8FBF7A7F8DDF83D
:10561000B81A08600DF5956003C8FBF79FF8DDF830
:10562000E01A0860494640A0FCF758FD42A0DDF8AA
:10563000A81AFCF753FD44A0DDF8A41AFCF74EFDB0
:1056400045A0DDF8A01AFCF749FD594647A0FCF734
:1056500045FD0598DDE9082300F26C7090FBFAF136
:105660000AFB11010A980290CDE90023DDE9062327
:1056700042A0FCF733FD0598DDE9073400F26C70B9
:1056800090FBFAF10AFB1102DDE90910CDE90210E5
:10569000CDE9003443A14A48069BFCF72FFD484959
:1056A00048A0FCF71BFD0D21DDF8E40AFAF7B4FD74
:1056B0004349DDF8E40A0A6802604A684260896882
:1056C00081603F48C0F80080C0F80480C0F80880BE
:1056D0000DF6BC2D0020BDE8F08F000035700008ED
:1056E00081330008693400082900002028000020C8
:1056F000C8040020C80000200D0ACAB1BCE425304F
:1057000032642D253032642D25303264202025303E
:1057100032643A253032643A253032640D0A000092
:1057200080842E4100002440CEB3B6C8A3BA256CB5
:1057300064200D0A00000000BEADB6C83A20256CFA
:1057400064200D0A00000000BAA3B0CE3A20256400
:1057500020C3D7200D0A0000CBD9B6C8A3BA256450
:10576000206B6D2F68200D0A00000000BABDCFF23B
:10577000A3BA256420B6C8200D0A0000CAB1BCE453
:105780003A20253032642D253032642D25303264A4
:105790002020253032643A253032643A2530326494
:1057A000200D0A0025303264253032642530326401
:1057B000253032642530326425303264200D0A00F1
:1057C000BC00002062756654696D653A202573201F
:1057D0000D0A00000FB410B5ADF5816D01F030F980
:1057E0004468002C10D00DF2144340F2FF3101A8A0
:1057F000DDF81024FCF796FC01460020CDF80404E7
:10580000002901DD01A8A0470DF5816D10BC5DF8F0
:1058100014FB2DE9F04704468846174604EB0806BA
:10582000002000254FF0FF39C7F800900BE02378E7
:10583000242B02D108B1002407E02A2B0DD000B19F
:105840005D40641C401CB442F1D33968002902DA7F
:10585000002C00D00020BDE8F087611DB142F4D8D3
:10586000E1780D29F1D121790A29EED11022022106
:10587000601CFFF710FE01463860301BA8EB0000EB
:10588000401DA942E1D0C7F800900024DDE70FB425
:1058900010B5ADF5816D01F0D3F88468002C10D0FF
:1058A0000DF2144340F2FF3101A8DDF81024FCF79B
:1058B00039FC01460020CDF80404002901DD01A8CF
:1058C000A0470DF5816D10BC5DF814FB2DE9F0418A
:1058D00004460D46DFF8488000224346204629460C
:1058E000FAF758FEFAF7EAFEFAF7C3FE06460F4645
:1058F0000022434630463946FAF7DAFD22462B4667
:10590000FAF7D3FD0022074BFAF744FE32463B4636
:10591000FAF727FD04460D4620462946BDE8F081EA
:105920000000594000004E4070B50546052901DAD7
:10593000002070BD3C4C052228462168FAF79AFCED
:1059400000284FD0052228466168FAF793FC00280A
:105950004AD005222846A168FAF78CFCE8B3052254
:105960002846E168FAF786FCC0B30522284621697B
:10597000FAF780FC98B3052228466169FAF77AFCA9
:1059800070B305222846A169FAF774FC48B30522D2
:105990002846E169FAF76EFC80B305222846216AA1
:1059A000FAF768FC58B305222846616AFAF762FCE8
:1059B00068B305222846A16AFAF75CFC50B30522B9
:1059C0002846E16AFAF756FC38B305222846216BCF
:1059D000FAF750FC20B3002070BD07E008E009E0B2
:1059E0000AE00DE00120F7E70220F5E70420F3E7E5
:1059F0000820F1E71020EFE72020EDE702E003E0C8
:105A00004020E9E78020E7E74FF48070E4E74FF4B7
:105A10000070E1E74FF48060DEE74FF40060DBE701
:105A20004FF48050D8E7000048000020F8B5064643
:105A30001D46002400200090304600F0EFFD69E094
:105A4000641C402855D00EDC08282FD006DC012825
:105A50001DD0022820D0042859D122E010282AD0B5
:105A6000202854D14FE0B0F5806F33D008DC802877
:105A700044D0B0F5807F32D0B0F5007F47D133E01D
:105A8000B0F5006F21D0B0F5805F40D118E0294615
:105A90000098FFF7A6FB3AE029460098FFF7D2FBF3
:105AA00035E029460098FFF704FC30E029460098CD
:105AB000FFF738FC2BE029460098FFF7C5FC26E0ED
:105AC00029460098FFF7A6FA21E029460098FFF73B
:105AD00011FB1CE029460098FFF75EFB17E0294602
