:020000040800F2
:10000000C88B00204501000877160008711500080C
:1000100075160008AD0E0008192000080000000049
:10002000000000000000000000000000C5180008EB
:100030005710000800000000F91600085D010008D4
:100040005F0100085F0100085F0100085F01000810
:100050005F0100085F0100085F0100085F01000800
:100060005F0100085F0100085F0100085F010008F0
:100070005F010008AF0E00085F0100085F01000883
:100080005F0100085F0100085F0100085F010008D0
:100090005F0100085F0100085F0100085F010008C0
:1000A0005F0100085F0100085F0100085F010008B0
:1000B0005F0100085F010008E91900085F010008FE
:1000C0005F0100085F0100085F0100085F01000890
:1000D0005F010008511C0008B91C00085F010008FE
:1000E0005F0100085F0100085F0100085F01000870
:1000F0005F0100085F0100085F0100085F01000860
:100100005F0100085F0100085F0100085F0100084F
:100110005F0100085F0100085F0100085F0100083F
:100120005F0100085F0100085F0100085F0100082F
:10013000DFF80CD000F0BEFC0048004795450008F1
:10014000C88B00200648804706480047FEE7FEE7C8
:10015000FEE7FEE7FEE7FEE7FEE7FEE7FEE7FEE777
:10016000991900083101000800487047A86F00087D
:1001700010B50446FFF7F8FF0068005D00F00100CD
:1001800010BD40EA01039B0703D009E008C9121F14
:1001900008C0042AFAD203E011F8013B00F8013B41
:1001A000521EF9D27047D2B201E000F8012B491E6D
:1001B000FBD270470022F6E710B513460A46044604
:1001C0001946FFF7F0FF204610BD30B505462A4618
:1001D0000B4612F8010B13F8014B08B1A042F8D0FE
:1001E0001CB1002802D06D1CF1E7284630BD421C2E
:1001F00010F8011B0029FBD1801A7047CBB203E035
:100200000178994203D0401C521EF9D20020704759
:1002100030B504460020034600E05B1C934203D245
:10022000E05CCD5C401BF8D030BD2DE9F047914635
:100230000F4680460446002614F8015B2DB1FFF7F7
:1002400093FF0068405DC007F6D12B2D02D02D2D05
:1002500018D0641E4A463946204600F0E1FA27B11C
:100260003968A14201D1C7F8008071054FF002043E
:100270000BD54042002803DD01F046FF0460A007D3
:10028000BDE8F08746F48066E4E70028F8DA01F07C
:100290003BFF04606FF00040F2E780EA010210B516
:1002A00002F00043400022D04A001FD0010E01EBB3
:1002B0001261C0F35600C2F3560240F4000042F44B
:1002C0000002A0FB022000047F39140400D0401C6F
:1002D00050EA124001D44000491EC2B20C0604EBA1
:1002E000D010401C4008802A02D003E0002010BD3E
:1002F00020F00100002900DA0020184310BD2DE98C
:10030000FE4F804681EA0300C00F0C46009021F0AA
:10031000004123F00045B8EB0200A94105D2404658
:10032000214690461C460B46024623F000401043EF
:1003300047D0270DC7F30A00C3F30A510290401AB1
:10034000019040286BDAC3F3130040F4801B00983F
:10035000924620B10023D2EB030A63EB0B0B01980A
:100360005946C0F14002504600F029FA06460D46B3
:1003700050465946019A00F041FA10EB08006141DD
:10038000002487EA115284EAE7731A4340D0009AA6
:1003900062B3019A012A4FEA075215DC001B61EB98
:1003A00002014FF0004202EA0752CDE90042001C70
:1003B00041F5801132462B4600F016FB03B0BDE834
:1003C000F08F40462146F9E7001B61EB0201001C5B
:1003D00041F5801300185B412018A2F5001747EB88
:1003E000030140EAD570B6196D4111E06D084FEA7E
:1003F000360645EAC0754FEA0752001B61EB020161
:10040000001C41F5801149084FEA300000195141A4
:1004100032462B4603B0BDE8F04F00F0D6BA009844
:10042000012240000023D0EB020263EBE07300984E
:1004300021464FEAE074B8EB000061EB0401E9E704
:1004400083F000435BE781F0004158E72DE9FE4F60
:1004500081EA030404F0004421F0004100944FF0CD
:10046000000B23F0004350EA01045ED052EA03047B
:100470005BD0C3F30A54C1F30A552C44A4F2F334FD
:100480000194A0FB0254C1F3130141F48011C3F3A2
:10049000130343F4801301FB024400FB034E840A60
:1004A000970A44EA815447EA8357A4FB07680295F8
:1004B0008D0A05FB07854FEA932C04FB0C54270596
:1004C000029D4FEA065847EA1637B5EB08056EEB72
:1004D000070C870E920E47EA811742EA8312A7FBA8
:1004E0000201B6EB0B0164EB00042B0D43EA0C3365
:1004F0005E1844EB1C50DA465146E7FB0201C5F397
:1005000013044FEA0B3343EA14534FEA0432019CBD
:1005100043EA0603A4F10C040294009CCDE900B464
:1005200000F062FA03B0BDE8F08F00200146F9E761
:100530002DE9F04D81EA030404F0004B21F0004561
:1005400014464FF0000A23F0004150EA050220D083
:1005500054EA01021DD0C5F30A570246C5F313033E
:10056000C1F31300C1F30A5640F4801543F480131D
:10057000A7EB0608101BD64608F2FD3873EB050002
:1005800002D308F1010801E092185B41B8F1000FB5
:1005900003DA00200146BDE8F08D00204FF4801101
:1005A000064684460EE0171B73EB050705D3121BA6
:1005B00063EB050306434CEA010C49084FEA30009F
:1005C00092185B4150EA0107EDD152EA030012D0C4
:1005D00082EA040083EA0501084305D0101BAB4101
:1005E00006D20122002306E000224FF0004302E081
:1005F0006FF0010253101AEB06004CEB085110EBA0
:100600000A0041EB0B01BDE8F04D00F0DEB90EB57C
:10061000C10F80EAE0700844CA07002140F233436A
:100620008DE80E000A460B4600F0DEF903B000BD6F
:1006300020F00040C10DC0F3160040F400007F29F7
:1006400001DA00207047962903DCC1F19601C84009
:10065000704796398840704770B5C1F30A5201F06F
:1006600000450024C1F3130140F2FF3341F480112F
:100670009A4201DA002070BD40F233439A42A2F25E
:10068000334203DC524200F0A9F800E090402C43D2
:10069000F1D0404270BDC1F30A5210B5C1F313014D
:1006A00040F2FF3341F480119A4201DA002010BD7C
:1006B00040F233439A42A2F2334203DC524200F04A
:1006C0008DF810BD904010BD30B5041E71F10004CE
:1006D00004DB4FF00044404264EB0101141E73F14F
:1006E000000405DB1C464FF00043524263EB040359
:1006F000994208BF904230BD01F0004330B421F070
:10070000004150EA010206D00A0DA2F56072C1F361
:100710001301002A02DC30BC00207047440F44EA79
:10072000C104C100E01830BC00EBC25000F016B9A3
:1007300030B50B46014600202022012409E021FAB1
:1007400002F59D4205D303FA02F5491B04FA02F5AE
:100750002844151EA2F10102F1DC30BD2DE9F05F45
:100760000546002092469B46884606468146402420
:100770001BE0284641464746224600F02FF85346E4
:100780005A46C01A914110D311461846224600F02D
:1007900016F82D1A67EB01084F462246012000216A
:1007A00000F00DF817EB00094E41201EA4F10104E2
:1007B000DFDC484631462A464346BDE8F09F202A02
:1007C00004DB203A00FA02F1002070479140C2F1A8
:1007D000200320FA03F3194390407047202A04DBDA
:1007E000203A21FA02F00021704721FA02F3D040AA
:1007F000C2F120029140084319467047202A06DBC7
:10080000CB17203A41FA02F043EAE07306E041FADE
:1008100002F3D040C2F120029140084319467047CC
:100820002DE9F05F82460078002715468B460AF1D5
:100830000104B946302801D09DB113E014F8010B32
:100840000127782803D0582801D045B10AE00DB11E
:10085000102D07D10027102514F8010B02E0082500
:1008600000E00A250026B0460EE005FB080005FB67
:1008700006F1012701EB10461FFA80F8B6F5803F1C
:1008800000D3B94614F8010B294600F025F90028D9
:10089000EBDABBF1000F05D00FB1641E00E0544647
:1008A000CBF80040B9F1000F06D001F02DFC022179
:1008B0000160C81EBDE8F09F48EA0640FAE7000064
:1008C0000FB4002300B589B00CA900910B996FF00B
:1008D0000042CB601E4B06931E4B07930423CDE9C9
:1008E00001321D4A089202466B46002000F082F950
:1008F00009B05DF814FB70B586B006464FF0FF30C6
:100900000091CDE90101002015460C4604903246C5
:10091000694604A8FFF7D4FF02460498211825B1C0
:1009200008B1084600E020462860049800280DD051
:10093000002A02DD0098884208D0081B0094CDE907
:1009400001043246694604A8FFF7BAFF06B070BD3D
:100950002D0E00084B0E0008710100080029A8BFE9
:100960007047401C490008BF20F00100704710B4D8
:10097000B0FA80FC00FA0CF050EA010404BF10BC8D
:10098000704749B1CCF1200421FA04F411FA0CF1BA
:1009900018BF012121430843A3EB0C01CB1D4FEAF3
:1009A00000614FEA102042BF002010BC704700EBEE
:1009B000C35010440029A4BF10BC7047401C49001C
:1009C00008BF20F0010010BC704710B5141E73F171
:1009D000000408DA401C41F1000192185B411A43FF
:1009E00001D120F0010010BD2DE9F04D92469B464B
:1009F00011B1B1FA81F202E0B0FA80F220329046F1
:100A0000FFF7DDFE04460F4640EA0A0041EA0B010B
:100A100053465A46084313D0114653EA010019D0F1
:100A2000C8F140025046FFF7D9FE05460E46504633
:100A300059464246FFF7C3FE084305D0012004E0B3
:100A400020463946BDE8F08D0020054346EAE076B1
:100A50002C4337430A986305E40AA0EB0800002200
:100A6000FD0A44EA47540A3002D500200146E9E76E
:100A7000010510196941DDE9084500196941BDE822
:100A8000F04DA2E7C1F30A52C1F3130140F2FF3364
:100A900041F480119A4202DA00200146704740F288
:100AA00033439A42A2F2334202DC5242FFF796BE2F
:100AB000FFF785BE064C074D06E0E06840F00103F5
:100AC00094E8070098471034AC42F6D3FFF734FBA4
:100AD000EC7000080C7100083A2800D2303820F081
:100AE0002002412A01D3A2F13700884201D34FF0FE
:100AF000FF3070472DE9FF4F087881B09946FF28F5
:100B000005D0491C2D2804D00024002308E0002330
:100B10000BE00124F9E703EB830300EB4303491CDB
:100B20000878FF28F7D104B15B42002000901478C8
:100B300001462D2C01D02B2C04D1521C2D2C12D06F
:100B40000024009400251678FF2E0ED00A24A0FB66
:100B500004C801FB0481002700FB0711521C16EB9F
:100B60000C006941EFE70124EBE7994450EA0102E8
:100B70000ED00024AA4D2646DFF8A88200F076F9B0
:100B800082468B46B9F1000009DAC9F100071BE083
:100B900001980021C0E9001105B0BDE8F08F0746BB
:100BA00012E0F80707D022462B4630464146FFF7B1
:100BB0004DFC0646884622462B4610461946FFF74E
:100BC00045FC04460D467F10002FEAD1B9F1000F15
:100BD000324643465046594602DAFFF7A9FC01E087
:100BE000FFF734FC009A0AB181F00041019AC2E992
:100BF0000001D1E72DE9FF4F1F468DB0D7E901462F
:100C00004FF0FF382E2045464FF000090B90B96990
:100C10006D1C0E988847396A824688470028F6D1AD
:100C2000BAF1FF3F0AD024F4D064002E11DDBAF1EE
:100C30002B0F08D0BAF12D0F0BD102E0404611B0B6
:100C4000ABE744F48064B9696D1C0E98884782460E
:100C5000761E6946600501D52D2000E02B208DF819
:100C6000000001F1010B0DF1200809E0B9696D1CCC
:100C70000E98884782460F9844F40074761E0560EB
:100C8000002E02DDBAF1300FF0D00B998A453ED12B
:100C900044F0800406E00F99681CA9F1010944F4AE
:100CA00000740860B9696D1C761E0E9888478246EC
:100CB0003028F0D02BE00B998A4505D1200603D4CB
:100CC00044F08004761E18E0504601F0F3FA08B3B1
:100CD0000DF11301761E44F400748B4508D2AAF17D
:100CE00030000BF8010B200607D5A9F1010003E045
:100CF000200602D409F101008146A00502D50F9912
:100D0000681C0860B9696D1C0E9888478246002EE1
:100D1000D1DC53E0002E51DDBAF1650F02D0BAF1FB
:100D2000450F4BD1A00549D5B9696D1C24F4407419
:100D3000761E0E9888478246002E0CDD2B2804D0A4
:100D4000BAF12D0F07D144F48074B9696D1C0E9867
:100D500088478246761EE00501D52D2100E02B2133
:100D600008F8011BCDF82C8021E00DF12901761E39
:100D700044F4007488450CD2AAF1300010F0FF0052
:100D800088F8000002D10B99884509D908F10108BB
:100D900006E0E00501D5244801E042F20F708146EB
:100DA000B9696D1C0E98884782460F980560002E21
:100DB00004DD504601F07EFA0028D6D1F9690E987C
:100DC0008847FF208BF8000088F80000002006907C
:100DD00007904B466A4608A906A8FFF78BFEA005B8
:100DE00002D46FF001002AE714F0240F0AD0E007C4
:100DF00014D1DDE906123868031D3B600068C0E9C4
:100E000000120BE0DDE90601FFF776FC0146E00782
:100E100004D13868021D3A600068016028460EE778
:100E2000000024400000F03FF1D8FFFF426842B1CB
:100E3000016811F8013B23B1521EC0E900121846A7
:100E400070470121C160881E704742685AB1C3686B
:100E5000016843B983688B4205D0491E521CC0E922
:100E60000012002070474FF0FF3070470EB540F27F
:100E7000334202920022CDE900221346FFF7B4FD6F
:100E800003B000BD10B503460020002202E09C5CC8
:100E90006040521C8A42FAD310BD00F00F010009D5
:100EA00000EB800001EB4000C0B27047FEE700F0AD
:100EB000FDBA0000C10002D502490860704702492E
:100EC000486070470404024000000240002904D03A
:100ED000016841F001010160704701684FF6FE7240
:100EE000114001607047000001684FF6FE7211402A
:100EF00001600021016041608160C1603649364A6D
:100F00000839904204D1486840F00F0048607047AB
:100F1000314A1432904204D1486840F0F0004860F1
:100F200070472D4A2832904204D1486840F47060DE
:100F300048607047284A3C32904204D1486840F4E7
:100F4000704048607047244A5032904204D148684B
:100F500040F47020486070471F4A6432904204D1C8
:100F6000486840F47000486070471B4A78329042ED
:100F700004D1486840F0706048607047174A111FFC
:100F8000904204D1086840F00F0008607047134A8F
:100F90001432904204D1086840F0F00008607047B5
:100FA0000E4A2832904204D1086840F4706008600C
:100FB00070470A4A3C32904204D1086840F47040BD
:100FC00008607047054A50329042FAD1086840F4F0
:100FD00070200860704700000800024008040240CA
:100FE00002460020D10002D50449096801E0044905
:100FF0000968114200D0012070470000000402403F
:1010000000000240002A03D002680A4302607047D1
:1010100002688A430260704730B5026847F6F07391
:101020009A430C6A8B682343D1E904452C4323433C
:101030008C692343CC6923434C6A23438C6A234342
:1010400013430360CA6842600A6882604968C160ED
:1010500030BD416070477047010201EB102080B243
:101060007047010600F47F4201EB022100F47F0289
:1010700001EB122101EB106070472DE9F04781462A
:101080000F4616469846002E04D0D8F80010B1EB53
:10109000470F03D24FF0FF30BDE8F0873046FFF72F
:1010A00089F8002400257D2108E019F805007E2834
:1010B0000BD07D2810D02A19B0546D1CBD42F4D33A
:1010C0003819C8F800000020E6E7281931543044E8
:1010D00002224270641CF0E7281931543044012286
:1010E0004270641CE9E700000149C86070470000D5
:1010F0000020024070B505464FF43026304600F01F
:1011000059F8042811D1094C206940F002002061EF
:101110006561206940F040002061304600F04AF8E7
:10112000216941F6FD721140216170BD002002402D
:1011300004200849CA68D20701D001207047CA6854
:10114000520701D502207047C968C906FBD50320A4
:1011500070470000002002400248016941F0800110
:101160000161704700200240F0B506460D464FF47D
:101170000057384600F01EF804280CD1064C2069B0
:1011800040F0010020613580384600F013F82169F5
:10119000BA1E11402161F0BD0020024003480249FF
:1011A00041600349416070472301674500200240C8
:1011B000AB89EFCD00B50346FFF7BAFF02E0FFF7BA
:1011C000B7FF5B1E012801D1002BF8D1002B00D105
:1011D000052000BD70B506460D465408FFF7DEFF3A
:1011E0003520FFF781FF3046FFF784FF08E02878BD
:1011F0006978AD1C40EA01213046FFF7B5FFB61C07
:10120000641EA4B2F3D2BDE87040FFF7A5BF2DE97C
:10121000F0470F46002A70D00C2A6ED80668446842
:101220008568C168D0F81090D0F814A0BBB301EB6A
:101230000208B8F1180F19D3A8F11808012C16D01C
:10124000032C14D0052C12D0072C10D0082C0ED053
:101250000A2C0CD0042C11D0062C0FD0092C0DD048
:101260000B2C0BD0022C10D00C2C1CD066E01F2DA8
:1012700001D26D1C62E00125641C5FE01E2D01D2CD
:101280006D1C5BE00125641C58E01D2D08D01C2D51
:1012900003D1F0B200F081F910B16D1C4EE00AE00C
:1012A000012503244AE01F2D01D26D1C46E00125D3
:1012B0000124761C42E0914202D3A1EB02083DE0FA
:1012C000A1EB020808F11808022C17D0042C15D045
:1012D000062C13D0082C11D0092C0FD00B2C0DD0BC
:1012E000052C12D0072C10D00A2C0ED00C2C0CD0B0
:1012F000032C11D0012C1AD020E028E0012D01D9B7
:101300006D1E1BE01F25641E18E0012D01D96D1E06
:1013100014E01E25641E11E0012D03D1F0B200F08F
:101320003CF908B16D1E09E01C25022406E0012DE0
:1013300001D96D1E02E01F250C24761E3E607C60E4
:10134000BD60C7F80C80C7F81090C7F814A0BDE8BE
:10135000F0872DE9F0410022CC7804F00F03E40679
:1013600001D58C7823430C784FF00F0714F0FF0F52
:101370004FF0010C1CD005680CFA02F40E882640D0
:10138000A64211D1960007FA06F825EA080503FAE5
:1013900006F848EA0505CE78282E02D0482E02D05D
:1013A00002E0446100E00461521C082AE4D30560B5
:1013B0000A88FF2A1ED94568002202F108060CFAA5
:1013C00006F40E882640A64210D1960007FA06F8C9
:1013D00025EA080503FA06F848EA0505CE78282E1E
:1013E00000D14461CE78482E00D10461521C082AF5
:1013F000E3D34560BDE8F0810246002092680A42CE
:1014000000D00120704710B500F070F8BDE8104022
:10141000AFF3008010B58CB00121084600F06EF9E2
:101420001548019015480290002003904FF4006188
:101430000491059080210691079008902021099140
:10144000C9010A910B900E4C01A92046FFF7E4FD5B
:1014500000F018F8012206212046FFF7D3FD0121F4
:101460002046FFF733FD044801224021001F00F011
:10147000CFFC0CB010BD000004480040B4000020B8
:101480003000024008B54FF4C06000F02BF90D2089
:101490008DF8000001208DF8010000218DF8021068
:1014A0008DF80300684600F0EBF808BD70B54FF406
:1014B00080663046FFF794FD0B4D012428B16C7017
:1014C0003046BDE87040FFF7F5BC4FF4007630467B
:1014D000FFF786FD002805D02C703046BDE870402F
:1014E000FFF7E8BC70BD00002800002010B586B0F2
:1014F0000121082000F02CF90121880400F00CF9EA
:101500004FF48060ADF8140018208DF81700032008
:101510008DF81600144C05A92046FFF71AFFE114B8
:10152000ADF8141004218DF8171005A92046FFF717
:1015300010FF4FF4E13001900020ADF80800ADF845
:101540000A00ADF80C00ADF810000C20ADF80E004C
:10155000064C01A9204600F0F9FC0121204600F0CC
:101560004BFC06B010BD0000000C014000480040DC
:10157000FEE70A21B0FBF1F201FB1202B0FBF1F031
:1015800002EB0010C0B2704703E010F8013B01F815
:10159000013B521E92B2F8D2704700F5FA60810703
:1015A00001D0002070474FF4C871B0FBF1F201FB8D
:1015B000120131B16421B0FBF1F201FB12000028ED
:1015C000F0D00120704700002DE9F0410126264CA3
:1015D000002800D026702078DFF89080244D4FF44A
:1015E000004778B120214046FFF706FF88B1394611
:1015F0002846FFF701FF60B101212846FFF7FCFEF6
:10160000012806D020214046FFF7F6FE01281DD014
:1016100028E00A2001F0ECFC002020702021404648
:10162000FFF7EAFE58B139462846FFF7E5FE48B114
:1016300001212846FFF7E0FE012805D012E0012035
:10164000BDE8F0810220FBE70320F9E73946284690
:10165000FFF7D2FE012805D101212846FFF7CCFE75
:1016600000B926700020EBE7300000200010014098
:1016700000080140FEE770474FF4A06000F032B868
:1016800070B50F23C27801260178002A1ED0144AB3
:10169000126802F4E062C2F5E062120AC2F10404C8
:1016A000D3404578A54082781A402A43120101F1BF
:1016B000E02181F80024007800F01F018E404009ED
:1016C000800000F1E020C0F8006170BD01F01F0053
:1016D00086404809800000F1E020C0F8806170BDBC
:1016E0000CED00E002490843024908607047000021
:1016F0000000FA050CED00E070470000054A0029E3
:1017000003D051690143516170475169814351616F
:101710007047000000100240054A002903D0D1693B
:101720000143D1617047D1698143D16170470000A5
:1017300000100240054A002903D0116901431161DC
:101740007047116981431161704700000010024029
:10175000054A002903D0916901439161704791695D
:10176000814391617047000000100240054A002942
:1017700003D0D1680143D1607047D1688143D16003
:10178000704700000010024010B5264A516801F071
:101790000C01254B002927D0042927D0082927D060
:1017A0000360516801F0F0010909204B5C5C01689D
:1017B000E1404160546804F4E064240A1C5D21FAAD
:1017C00004F48460546804F46054E40A1B5DD94056
:1017D000C160526802F44042920B144B1B1F9A5C8A
:1017E000B1FBF2F1016110BD0360DAE70360D8E7F5
:1017F000516801F47011536803F48033022404EB40
:10180000914133B153689B0307D5094B594301609C
:10181000C7E7074B59430160C3E7034B59430160D6
:10182000BFE700000010024000127A0018000020FC
:1018300000093D002DE9F0470646884617469946BF
:1018400018A000F015FC0025002419E0315D7D2969
:1018500003D130194078022802D07D2906D009E052
:101860007E20611B7854641C6D1C08E030194078A0
:10187000012811D0601B39540FA000F0F9FB641C43
:101880004445E3D30EA000F0F3FBA8EB0500C9F834
:1018900000000020BDE8F0877D20611B7854641CA7
:1018A0006D1CECE75B526576657273654573636129
:1018B00070655F435D0A000025303278200000002B
:1018C0000A0D0000704700F001B800000CB50022BE
:1018D000019200922748016841F4803101604FF481
:1018E000A063016801F4003100910199491C019144
:1018F000009911B901999942F3D10168890302D580
:101900000121009100E000920099012930D11A498B
:101910000A6842F010020A600A6822F003020A60B4
:101920000A6842F002020A60416841604168416011
:10193000416841F480614160416821F47C1141605B
:10194000416841F4E8114160016841F08071016033
:1019500001688901FCD5416821F0030141604168BB
:1019600041F0020141604168C1F381010229FAD1CD
:101970000CBD000000100240002002404FF0E021AA
:10198000042804D0086920F0040008617047086941
:1019900040F004000861704710B50F48016841F03D
:1019A0000101016041680D4A1140416001680C4A23
:1019B00011400160016821F480210160416821F437
:1019C000FE0141604FF41F018160FFF77CFF054974
:1019D0004FF00060086010BD001002400000FFF8EA
:1019E000FFFFF6FE08ED00E010B5174C0121204680
:1019F00000F095F8002825D00121204600F080F85D
:101A0000124B134A1878A0B11178491CC9B2117051
:101A1000814217D1002010701870508840F40040A7
:101A20005080002000F042F8BDE81040632000F034
:101A300055B8508840F400405080BDE81040002068
:101A400000F034B810BD000000080040360000204F
:101A5000320000207FB504460D4601210420FFF727
:101A60005BFEADF80440ADF800500020ADF8060074
:101A7000ADF802000C4C6946204600F069F80122DE
:101A80001146204600F057F81E208DF80C0001206A
:101A90008DF80D0002218DF80E108DF80F0003A8AF
:101AA000FFF7EEFD7FBD00000008004010B50A4AB8
:101AB00000280AD014460021204600F046F82046AF
:101AC000BDE81040012100F01EB8BDE81040002123
:101AD000104600F018B800000008004010B5044699
:101AE0000021064800F031F804492C310888002212
:101AF0000A800A8822430A8010BD000000080040C6
:101B0000C94301827047002904D0018841F00101D6
:101B100001807047018821F0010101807047024671
:101B20000020138A0B4092890A40002B02D0002A21
:101B300000D001207047002A03D082890A438281A5
:101B4000704782898A438281704781847047000090
:101B500030B502881B4C1C4DA0420DD0A8420BD0C2
:101B6000B0F1804F08D0194B984205D0184B9842DD
:101B700002D0184B984203D122F070034A881A43CE
:101B8000154B984206D0154B984203D022F440736F
:101B9000CA881A4302808A8882850A880285A04200
:101BA0000AD0A84208D00E4A904205D00D4A904271
:101BB00002D00D4A904201D1097A01860121818229
:101BC00030BD0000002C0140003401400004004002
:101BD00000080040000C00400010004000140040CD
:101BE00000400140004401400048014070B58CB005
:101BF00006460C46154601210846FFF77FFD304694
:101C0000FFF772F9019402951020039000210491CE
:101C100005918020069007910891099140010A9052
:101C20000B9101A93046FFF7F7F90CB070BD70B504
:101C300004460D4600212046FFF748F92946204674
:101C4000FFF707FA2046BDE870400121FFF73EB9D3
:101C500070B5164C40F22551204600F03CF90028A2
:101C60000ED0204600F0D0F9C1B2114A108803040A
:101C700006D444044FF0000307D50A2901D013808D
:101C800070BD40F40040108070BD0D290AD0094D90
:101C9000C0F30D042955401C80B21080C728F3D929
:101CA000138070BD40F48040108070BD003801404A
:101CB0002A000020B408002070B5124C40F22551D3
:101CC000204600F008F9002816D0204600F09CF9C4
:101CD000C5B20D4C6088B0F5A05F0ED200210B4854
:101CE000FFF733FF608810B90120FFF7DFFE60883F
:101CF000411C618006490D5470BD40F40040608075
:101D000070BD000000440040320000200008004088
:101D1000801D00202DE9F04186B0044601210420F9
:101D2000FFF716FD01214804FFF7F6FC2D4F38465A
:101D300000F078F80426ADF8106003258DF81250F5
:101D400018208DF81300DFF8A08004A94046FFF7A3
:101D500000FB0820ADF810008DF8136004A9404680
:101D6000FFF7F7FA00940024ADF80440ADF8064000
:101D7000ADF80840ADF80C400C20ADF80A006946FB
:101D8000384600F0E3F801228021384600F040F8A0
:101D9000164A391D1648FFF729FF0121384600F081
:101DA0002BF8012240F22551384600F0B4F82620E5
:101DB0008DF8140002208DF815008DF816500120C2
:101DC0008DF8170005A8FFF75BFC41F61F41632063
:101DD000FFF740FE074844800020FFF767FE06B08B
:101DE000BDE8F08100440040000801408009002067
:101DF0008000024032000020002904D0818941F493
:101E0000005181817047818921F40051818170479F
:101E1000002A03D0828A0A4382827047828A8A43D8
:101E20008282704710B5234988420AD101218C0370
:101E30002046FFF79BFC2046BDE810400021FFF73D
:101E400095BC1D4988420AD101214C042046FFF768
:101E500071FC2046BDE810400021FFF76BBC17491C
:101E600088420AD101218C042046FFF763FC2046FA
:101E7000BDE810400021FFF75DBC114988420AD13E
:101E80000121CC042046FFF755FC2046BDE8104058
:101E90000021FFF74FBC0B4988420AD101210C05F4
:101EA0002046FFF747FC2046BDE810400021FFF721
:101EB00041BC10BD003801400044004000480040D3
:101EC000004C0040005000400246002012880A42A8
:101ED00000D00120704770B5002440F66A12C1F3AB
:101EE000421301F01F05012606FA05F2012B0CD062
:101EF000022B0DD0838A1340090A8E40008830409F
:101F00000BB100B10124204670BD83891340F3E773
:101F1000038A1340F0E710B540F66A13C1F3421389
:101F200001F01F040121A140012B07D0022B07D093
:101F300014303AB102680A43026010BD0C30F8E771
:101F40001030F6E702688A43026010BD30B585B0F4
:101F500004460D46208A4CF6FF710840E98801438B
:101F60002182A0894EF6F3110840A9882A891143DD
:101F70006A8902431143A181A08A4FF6FF410840BC
:101F8000A9890143A1826846FFF7FEFB1D488442F0
:101F900001D1039800E00298A189090408D500EB5B
:101FA000C00101EB001029684900B0FBF1F007E027
:101FB00000EBC00101EB001029688900B0FBF1F0D3
:101FC0006422B0FBF2F109010B096FF018056B43B5
:101FD00000EB8300A3891D044FF0320307D503EB08
:101FE000C000B0FBF2F000F00700084306E003EB8E
:101FF0000010B0FBF2F000F00F000843208105B0A4
:1020000030BD0000003801408088C0F308007047F0
:10201000C1F3080181807047FEE710B504462046F1
:10202000FFF7F6FF80212046FFF74EFF0028F9D08A
:1020300010BD2DE9F04107460D46164600243846EE
:10204000295DFFF7EAFF641CB442F8D3BDE8F081D4
:102050000FB4054B10B503A9044A029800F08AFB9F
:1020600010BC5DF814FB0000753300082C00002044
:102070000FB4054B10B503A9044A029800F072F999
:1020800010BC5DF814FB0000753300082C00002024
:102090000FB4084B10B504A902AA039800F062F926
:1020A000044602A9002000F030FF204610BC5DF875
:1020B00014FB00000B2F00087CB5044600201D46D1
:1020C000164600290BD0491ECDE90041044B6A4653
:1020D0002946304600F04EFB009A002111707CBD6D
:1020E000F52E000837B514460846064B6A462146C9
:1020F00000F040FB04466946002000F00BFF20463C
:102100003EBD0000152F000800487047A4000020C5
:1021100002E008C8121F08C1002AFAD170477047B0
:10212000002001E001C1121F002AFBD1704700000E
:102130002DE9FF5F82B00021DDE90430020DDDF8FA
:1021400040B0034318D044F61050A2F2FF3242438D
:102150001514119801281FD0A5EB0B00401C5FEA55
:10216000000A4FF000064E4FDFF83891B046504657
:1021700015D5CAF1000413E0119801244AA30128DF
:1021800001D16FEA0B010298119AC0E90031C0E950
:10219000024206B0BDE8F09FCBF10000DFE7044645
:1021A0000021404A491842EB0450CDE9001012E0EA
:1021B000E00707D032463B4640464946FEF746F91F
:1021C0008046894632463B4610461946FEF73EF9A0
:1021D00006460F466410002CEAD1DDE90401DDE972
:1021E0000023BAF1000F06DAFEF730F942464B46FB
:1021F000FEF72CF905E0FEF79BF942464B46FEF749
:1022000097F904460E460022284BFEF75DFA03D8E4
:102210004FF0FF30014607E00022254B20463146B3
:10222000FEF76DF8FEF72EFC102409E0002C0ADB07
:102230000A220023FEF792FA039B30321A55641EDD
:1022400050EA0102F2D1641C039AC4F11103144450
:10225000119A012A03D0012208430DD10AE0084354
:1022600004D000204FF0110B119072E7A3EB0B0587
:102270006D1E0DE05B4504DD4FF0000205F1010528
:1022800004E003DA4FF00002A5F10105002AECD0CA
:1022900002981199C0E90231C0E9004579E70000D0
:1022A000000014400000F03F300000000000F04348
:1022B0000000E03F30380A2801D20120704700209A
:1022C00070470000FEB5002402F114052E1F331FD5
:1022D00006290BD0082914D0092912D00A2910D0B8
:1022E00010A002F07DFFCCB10020FEBDCDE900655D
:1022F00015A204F0AFF8032801D00024F3E701246D
:10230000F1E71832CDE90065029212A204F0A2F8BA
:10231000042801D00024E6E70124E4E74FF0FF3071
:10232000FEBD00005061727365206F662074696D98
:1023300065206572726F722028666F726D617420FD
:102340006572726F7229210025326425326425324C
:10235000640000002532642532642532642E256431
:10236000000000002DE9FF4F8DB00F460546002606
:1023700006E025280BD0DDE90F1290476D1C761C76
:1023800028780028F5D111B03046BDE8F08F002440
:10239000A246A1460122EC4900E0044315F8013FA2
:1023A000203B02FA03F00842F7D128782A2810D0FF
:1023B0006FF02F022878A0F13001092914D80AEB18
:1023C0008A0102EB410144F0020400EB010A6D1C9A
:1023D000F0E701CF5FEA000A03D544F40054CAF1E4
:1023E000000A44F002046D1C28782E2817D115F835
:1023F000010F44F004042A280ED06FF02F02287831
:10240000A0F1300109290AD809EB890102EB410149
:1024100000EB01096D1CF2E757F8049B6D1C28784E
:102420006C280FD006DC4C2817D068280DD06A28FD
:1024300014D104E0742810D07A280FD10DE044F4B0
:1024400000140AE044F4801401E044F44014697874
:10245000814202D104F580146D1C6D1C2A786E2A0D
:102460001FD00CDC632A31D004DC002A8BD0582A20
:1024700011D1A3E0642A68D0692A0CD165E0732ADF
:102480002ED004DC6F2A73D0702A04D19BE0752A09
:102490006FD0782A6ED01046DDE90F129047761C77
:1024A00050E1C4F30250022806D0032809D00428C2
:1024B00001CF09D0066045E101CFF117C0E9006105
:1024C00040E101CF06803DE106703BE117F8040BC7
:1024D0008DF8000000208DF80100EB46012003E09C
:1024E00057F804BB4FF0FF3061074FF0000102D4F2
:1024F0000DE008F10101884649450FDA8045F8DB17
:102500001BF808100029F4D108E008F10101884601
:102510008142FADB1BF808100029F6D1DDE90F2310
:10252000AAEB08008146214600F0B6FC304400EBDF
:10253000080604E0DDE90F121BF8010B9047B8F123
:102540000108F7D221464846F7E00A21C4F30253B6
:102550004FF0000B0891022B04D001CFC117032BC1
:1025600009D00AE0FF1D27F00707F7E8020108E09D
:1025700032E01FE020E000B2C117042B01D140B2CD
:10258000C117031E71F1000307DA4FF0000CD0EB06
:102590000C006CEB01012D2302E0230504D52B2355
:1025A0008DF82430012303E0E30701D02023F7E76F
:1025B000984658E00A2110E010210EE010204FF05C
:1025C000000B08900CE010214FF0000B44F00404C5
:1025D0004FF00809089103E008214FF0000B089123
:1025E000C4F30253022B04D001CF0021032B06D0E9
:1025F00006E0FF1D27F00707F7E8020103E080B2BD
:10260000042B00D1C0B24FF0000823072BD5702A4D
:1026100007D0DDF820C08CF0100C5CEA0B0C05D064
:102620000EE040238DF82430012308E050EA010336
:1026300006D030238DF824308DF8252002239846CB
:10264000DDF820C08CF0080C5CEA0B0C0BD150EAD2
:10265000010301D1630706D530238DF824304FF0F4
:102660000108A9F10109582A04D038A20B9208AA3E
:102670000A920BE03AA2F9E75B46089AFEF76EF879
:102680000B9B9B5C0A9A521E0A92137050EA01023D
:10269000F2D10A98ADEB000000F1200B600702D5E3
:1026A00024F4803401E04FF00109D94502DDA9EBA3
:1026B0000B0000E0002000EB0B0141440890AAEB66
:1026C000010AE00306D4DDE90F232146504600F05D
:1026D000E3FB06444FF0000908E009A911F80900DE
:1026E000DDE90F12904709F10109761CC145F4DBC1
:1026F000E0030CD5DDE90F232146504600F0CCFB6A
:10270000064404E0DDE90F1230209047761C08995A
:10271000481E08900029F5DC08E00A980A9900781C
:10272000491C0A91DDE90F129047761CBBF10001AC
:10273000ABF1010BF1DC21465046DDE90F2300F03F
:1027400087FB06446D1C1BE609280100303132333B
:1027500034353637383961626364656600000000DD
:1027600030313233343536373839414243444546C7
:10277000000000002DE9FF4F95B09B4689460646B4
:1027800000250FE2252877D100242746F84A0121A9
:10279000059400E0044316F8013F203B01FA03F0E2
:1027A0001042F7D130782A2811D06FF02F033078FB
:1027B000A0F13002092A16D8059A44F0020402EB6F
:1027C000820203EB42021044761C0590EFE759F8B1
:1027D000042B0592002A03DA504244F40054059079
:1027E00044F00204761C30782E2816D116F8010F1A
:1027F00044F004042A280DD06FF02F023078A0F1A5
:102800003003092B09D807EB870302EB4303C718F2
:10281000761CF3E759F8047B761C30786C280FD0CF
:1028200006DC4C2817D068280DD06A2814D104E0A3
:10283000742810D07A280FD10DE044F400140AE077
:1028400044F4801401E044F440147278824202D1CE
:1028500004F58014761C761C307866280BD013DCC7
:10286000582877D009DC002875D04528F6D04628AE
:10287000F4D047281AD19DE118E0632835D06428A8
:1028800079D0652812D195E1702873D008DC6728CB
:10289000F1D069286FD06E280DD06F2806D1B5E031
:1028A00073282CD0752875D0782874D05A4617997B
:1028B00090476D1C75E1C4F30250022809D003282B
:1028C0000DD0D9F8001004280DD00D6009F10409CD
:1028D00067E1D9F80010EA17C1E90052F6E7D9F824
:1028E00000100D80F2E70D70F0E719F8041B8DF869
:1028F000001000208DF80100EA46012003E059F89D
:1029000004AB4FF0FF3061074FF0000102D40DE03F
:1029100008F101018846B9420FDA8045F8DB1AF860
:1029200008100029F4D108E008F10101884681422D
:10293000FADB1AF808100029F6D105985B46A0EBDF
:10294000080721463846179A00F0BDFA284400EBE4
:10295000080507E04DE029E10DE01AF8010B5A46A1
:1029600017999047B8F10108F7D25B4621463846DF
:10297000179A13E142E00A220092C4F302524FF088
:10298000000A022A08D059F804CB032A4FEAEC7156
:102990000AD00DE029E02AE009F1070121F0070241
:1029A000F2E802C1914609E00FFA8CFC4FEAEC71A3
:1029B000042A03D14FFA8CFC4FEAEC71002907DAA4
:1029C0000A460021DCF1000C61EB02012D2202E03D
:1029D000220504D52B228DF80420012203E0E20712
:1029E00001D02022F7E7904659E00A2102E01022A8
:1029F0000DE010214FF0000A00910BE010224FF083
:102A0000000A44F004040827009203E008224FF073
:102A1000000A0092C4F30252022A05D059F804CBEE
:102A20000021032A08D009E009F1070121F007027B
:102A3000F2E802C1914605E01FFA8CFC042A01D19C
:102A40000CF0FF0C4FF00008220728D5702806D0A4
:102A5000009B83F0100353EA0A0305D00EE04022E6
:102A60008DF80420012208E05CEA010206D0302241
:102A70008DF804208DF8050002229046009B83F01B
:102A8000080353EA0A030AD15CEA010201D1620792
:102A900005D530228DF804204FF001087F1E5828FC
:102AA00004D034A003900EA802900DE036A0F9E700
:102AB00053466046009AFDF751FE84460398825CB7
:102AC0000298401E029002705CEA0100F0D1029868
:102AD00006A9081A00F1200A600702D524F4803400
:102AE00000E00127574502DDA7EB0A0000E00020C7
:102AF00000EB0A01009005984144401A0590E0035C
:102B000006D45B462146179A059800F0DCF9054487
:102B1000002706E001A85A46C05D179990476D1C32
:102B20007F1C4745F6DBE0030CD55B462146179A30
:102B3000059800F0C8F9054404E030205A4617997A
:102B400090476D1C0099481E00900029F5DC08E0B4
:102B5000029802995A460078491C029117999047A9
:102B60006D1CBAF10001AAF1010AF1DC65E1000077
:102B70000928010030313233343536373839616253
:102B80006364656600000000303132333435363717
:102B900038394142434445460000000000F06AF9DC
:102BA0000544761C307800287FF4ECAD19B0284637
:102BB000BDE8F08F620700D4062709F1070222F072
:102BC000070CFCE80223E14603F000485FEA080C2A
:102BD00002D00FF2702C0DE05FEA045C02D50FF218
:102BE000682C07E05FEAC47C02D00FF2602C01E0A1
:102BF000AFF2700C4FF0FF3823F00043CDF850C017
:102C000065280CD006DC452809D046281DD0472869
:102C10003DD13DE0662818D067287ED138E00021FC
:102C2000112F01DB112000E0781CCDE9000106A97D
:102C30000EA8FFF77DFADDE90F010E9A039100213E
:102C4000009207F1010A04914DE04FF00040009717
:102C5000CDE9011006A90EA8FFF76AFADDE90F0217
:102C600003920E9B11990022DDF80CA000930492B0
:102C700011B9791C00EB010AB7EB0A0004D4C0F1CA
:102C8000FF3007F1010A0490AAEB0700019044E02D
:102C9000012F00DA01270021112F01DD112000E0B2
:102CA0003846CDE9000106A90EA8FFF741FADDE993
:102CB0000F010E9A0391002104910092BA46210758
:102CC0000CD40399514500DA8A46BAF1010F05DDAB
:102CD000009AAAF10101515C302908D0B84202DA09
:102CE00010F1040F06DA0121CDE9011015E0AAF177
:102CF0000101E9E7002805DC049901440491AAEBED
:102D0000000102E0411C514500DD8A460499401A49
:102D1000401C01904FF000400290200704D401981D
:102D2000504501DBCDF8048000208DF84F0002985B
:102D30000DF14F07B0F1004F25D02B200E900298D7
:102D40004FF0020800280CDA404202902D200E902D
:102D500007E00A210298FDF7EBFC3031029007F8FA
:102D6000011DB8F10001A8F10108F2DC0298002869
:102D7000EFD1791E0E980870307800F0200040F0F6
:102D8000450007F8020D12A8C01B00F107081498AF
:102D9000007800B1012000EB0A01019801EBE0711D
:102DA00005984144401A401E0590E00306D45B4656
:102DB0002146179A059800F086F805441498007883
:102DC00018B15A46179990476D1CE00324D55B460D
:102DD0002146179A059800F076F805441CE00498FF
:102DE000002807DBDDE90301884203DD0098405C31
:102DF000179901E0179930205A469047049805F139
:102E00000105401C04900198401E019004D12E2021
:102E10005A46179990476D1CBAF10001AAF1010AB0
:102E2000DDDC05E017F8010B5A46179990476D1C39
:102E3000B8F10001A8F10108F4DC5B462146179ABD
:102E40000598ABE62D0000002B00000020000000DC
:102E50002DE9F041044600251E461746880404D497
:102E600005E039462020B0476D1C641EF9D5284680
:102E7000BDE8F0812DE9F041044600251E461746C5
:102E8000880404D405E039462020B0476D1C641E38
:102E9000F9D52846BDE8F0812DE9F041044600252A
:102EA0001E469046C80301D5302700E0202788043D
:102EB00004D505E041463846B0476D1C641EF9D57F
:102EC0002846BDE8F0812DE9F041044600251E4664
:102ED0009046C80301D5302700E02027880404D598
:102EE00005E041463846B0476D1C641EF9D52846BA
:102EF000BDE8F0814A68002A06D00A68531C0B60BE
:102F000010704868401E486070470A68531C0B6088
:102F1000107070470A68531C0B60107070470000F7
:102F200010B5094B094C1A68914202D94FF00000C4
:102F300010BD04D1605402F101021A6000E0605437
:102F40004FF0010010BD000094000020C8330020A5
:102F5000044A034B11685854491C11607047000023
:102F6000C83300209400002070B505460E46002DA1
:102F700001D0002405E0002070BD285DFFF7E8FFC8
:102F8000641CB442F9D3012070BD000010B54FF4A9
:102F900080610348FDF70EF902490020086010BD6A
:102FA000C8330020940000200221FFF7DDBF042178
:102FB000FFF7DABF10B56FF00400FEF7DFFC094839
:102FC00009490068B0FBF1F00849C0B2087000EB95
:102FD0004002C2EBC0104FF6FF7202EAC000488008
:102FE00010BD00000000002000127A007C000020CC
:102FF0000B49498848434FF0E021486100238B6129
:10300000086940F0010008610869C20701D0C003E7
:10301000FAD5086920F0010008618B617047000053
:103020007C00002001460020054A1288130406D5C2
:10303000044BC2F30E0298541846FDF7C6B8704709
:1030400034000020801D00202DE9F041ADF6080D70
:1030500000240027444D00262E804FF47A70009003
:1030600042A342A243A144A000F0DEF82E804FF418
:10307000FA683EA33DA23FA140A0CDF8008000F039
:10308000D3F82E8039A339A23AA13EA0CDF8008012
:1030900000F0CAF82E8005E02E806420FFF7A8FF1C
:1030A000641CE4B231A331A239A13DA0CDF8008067
:1030B00000F0BAF8012801D00A2CEDD32E800A2C9A
:1030C0004AD02AA32BA239A13BA0CDF8008000F062
:1030D000ABF82E80C820FFF78BFF24A323A225A1E5
:1030E00038A0CDF8008000F09FF82E80C820FFF7B0
:1030F0007FFF1EA31DA21FA135A0CDF8008000F008
:1031000093F82E80C820FFF773FF4FF4006102A8E8
:10311000FDF750F841F6BB5331A235A102A8FEF7E6
:10312000B7FF12A313A23BA102A8CDF8008000F0C4
:103130007BF804462E80C820FFF75AFF2E80012C12
:103140000CD0022C0AD0032C08D0012F06D000206E
:103150000DF6080DBDE8F0810020F9E721462FA00B
:10316000FEF786FF0120F3E7340000204E554C4C5B
:10317000000000004F4B0000415400004154453016
:103180000000000041542B4350494E3F0000000016
:103190000D0A2B435245473A20302C3100000000E5
:1031A00041542B435245473F0D0A00002B434741F2
:1031B00054543A203100000041542B4347415454A9
:1031C0003F0D0A0041542B51494143543F0D0A0021
:1031D00041542B5149434C4F53453D300D0A00009B
:1031E0003132312E352E3134302E3132360000005E
:1031F00041542B51494F50454E3D312C302C2254D7
:103200004350222C222573222C25642C302C320D85
:103210000A000000434F4E4E454354006461746100
:103220003D25640D0A0000002DE9F05F0A9C074669
:10323000894692469B4600252E4EA846A6F8008059
:10324000FF2F07D82C48D0F884100029FBD12B4839
:10325000078007E039462AA003F02AFC394628A057
:10326000FEF706FF284FA4F580604C3805D10B20EF
:10327000387042F20F70FEF731FCB9F1000F00D048
:103280007CBBBBF1000F00D05CBBBAF1000F2FD0AC
:103290003CBB2DE0787828B10020FEF795F9054673
:1032A000032D10D00A20FFF7A3FE308800041BD5A1
:1032B00016A11748FEF7CCFE4846FFF7B3FE20B133
:1032C0000120BDE8F09F0220FBE75046FFF7AAFE71
:1032D00008B10220F5E75846FFF7A4FE10B103201D
:1032E000EFE701E0A6F80080641E2404240CD1D18D
:1032F0002846E6E734000020000002400444004075
:1033000025730D0A00000000360000200D0A0000A1
:10331000801D002070B505460E4609A0FEF7A8FEE8
:10332000002405E0295D09A0FEF7A2FE641CA4B2FA
:10333000B442F7DBBDE8704005A0FEF799BE00007F
:103340000D0A4572726F723A20000000256300007A
:103350000A00000010B5024600200021044B33F89B
:103360001140944200D10120491C0929F7DB10BD0E
:103370008000002004490A885206FCD5024AC1B2E6
:10338000121D1180704700000038014010B5002860
:1033900021D0114B0022001F196803E0814203D89D
:1033A0000A4649680029F9D152B11368841A9C422F
:1033B00004D1006818441060104602E0506000E03C
:1033C000186039B102680B1A934203D10B681A4492
:1033D00002604968416010BD9C00002070B5054640
:1033E0000E4609A0FEF744FE002405E0295D09A071
:1033F000FEF73EFE641CA4B2B442F7DBBDE87040A9
:1034000005A0FEF735BE00000D0A496E666F3A2032
:1034100000000000256300000A00000010B548F21B
:103420000102034903A0FEF723FE002010BD0000A7
:10343000286E00085B25735D206D73675F696420EB
:103440003D203078253034780D0A000010B548F260
:103450000122034903A0FEF70BFE002010BD00006F
:10346000F56E00085B25735D20E4BD8DE7BDAEE41D
:10347000BFA1E681AFE69FA5E8AFA2206D73675FAD
:103480006964203D203078253034780D0A00000032
:1034900010B540F20122034903A0FEF7E9FD002028
:1034A00010BD0000E16D00085B25735D206D736742
:1034B0005F6964203D203078253034780A000000B0
:1034C00010B548F20612034903A0FEF7D1FD002013
:1034D00010BD00009F6E00085B25735D20E69FA570
:1034E000E8AFA2E68C87E5AE9AE7BB88E7ABAFE52D
:1034F0008F82E695B0206D73675F6964203D203050
:1035000078253034780D0A0010B548F204120349CA
:1035100003A0FEF7ADFD002010BD0000816E000885
:103520005B25735D20E69FA5E8AFA2E7BB88E7AB0C
:10353000AFE58F82E695B0206D73675F6964203DCB
:10354000203078253034780D0A00000010B54FF493
:103550008272034903A0FEF78BFD002010BD00001E
:10356000806D00085B25735D206D73675F69642063
:103570003D203078253034780A0000001FB504461D
:103580000020029003904FF40072364936A0FEF7F7
:103590006FFD54F8540FFDF764FD019001A8FFF78B
:1035A00006FD6068FDF75DFD019001A8FFF7FFFCD7
:1035B000A068FDF756FD019001A8FFF7F8FCE06850
:1035C000FDF74FFD019001A8FFF7F1FC208AFDF700
:1035D00043FD00906846FFF7E7FC608AFDF73CFD7D
:1035E00000906846FFF7E0FCA08A543CFDF734FDEC
:1035F00000906846FFF7D8FC04F16A000446FCF727
:10360000F6FD024602A9204600F0A2FF062102A80C
:10361000FFF7AAFC3020FFF79BFC0120FFF798FC86
:103620005320FFF795FC3120FFF792FC0120FFF7B4
:103630008FFC0B20FFF78CFCE020FFF789FC0120BA
:10364000FFF786FC0320FFF783FCEE20FFF780FCEA
:103650000120FFF77DFC0220FFF77AFC282004B050
:1036600010BD0000CA6D00085B25735D204C6F63C0
:103670006174696F6E5265706F7274206D73675FED
:103680006964203D203078253034780D0A00000030
:1036900070B5044648F20102164917A0FEF7E8FC8F
:1036A000002C23D00D202189890400D511201D492B
:1036B0000D180A5C687808308240A43492B2A28067
:1036C0000C4919A0FEF7D4FCE978A87808318840A5
:1036D00082B26280074914A0FEF7CAFC2A792270E0
:1036E000044911A0FEF7C4FC002070BD4FF0FF306C
:1036F00070BD0000086E00085B25735D20E5B9B35E
:10370000E58FB0E9809AE794A8E5BA94E7AD9420F4
:103710006D73675F6964203D203078253034780D03
:103720000A000000C83700205B25735D20E5B9B3AF
:10373000E58FB0E9809AE794A8E5BA94E7AD9420C4
:10374000E5BA94E7AD94E6B581E6B0B4E58FB7206D
:103750003D203078253034780D0A000010B504463D
:1037600048F20312084909A0FEF782FC4FF0FF322D
:1037700034B1B4F8AC00C0F3090018B1002010BD9A
:10378000104610BD104610BD636E00085B25735DCA
:1037900020E8AEBEE7BDAEE7BB88E7ABAFE58F8202
:1037A000E695B0206D73675F6964203D2030782511
:1037B0003034780D0A00000070B5044654F8F40F58
:1037C000FCF715FD05464FF48172054905A0FEF78B
:1037D0004FFC29462068FFF7C7FB284670BD000054
:1037E000616D00085B25735D206D73675F69642000
:1037F0003D203078253034780A00000010B548F2BA
:103800000512034903A0FEF733FC002010BD0000A1
:10381000C56E00085B25735D20E7BB88E7ABAFE6AC
:103820008EA7E588B6206D73675F6964203D203000
:1038300078253034780D0A0010B50222024903A021
:10384000FEF716FC002010BD176D00085B25735DA8
:1038500020E7BB88E7ABAFE5BF83E8B7B3203CE622
:10386000B688E681AFE4BD93E4B8BAE7A9BA3E20D2
:10387000206D73675F6964203D203078253034788F
:103880000A00000010B50322024903A0FEF7F0FB76
:10389000002010BD4A6D00085B25735D20E7BB88E2
:1038A000E7ABAFE6B3A8E99480203CE6B688E681B2
:1038B000AFE4BD93E4B8BAE7A9BA3E206D73675F81
:1038C0006964203D203078253034780A00000000FB
:1038D00030B5A5B00446342117A8FCF76BFC4FF4B3
:1038E0008072274927A0FEF7C3FB322217A92E4872
:1038F000FDF74AFE34210AA8FCF75CFC342217A924
:103900000AA8FCF73EFC26220DA96846FCF739FC04
:103910000AA920460EC900F06DF92525E08BFDF7B8
:103920009BFB249024A8FFF73FFB208CFDF794FB22
:10393000249024A8FFF738FB052104F12200FFF7AB
:1039400013FB142104F12700FFF70EFB072104F1FC
:103950003B00FFF709FB94F84200FFF7F9FA94F8EF
:10396000420050B104F143000446FCF740FC054618
:1039700029462046FFF7F8FA253525B0284630BD00
:10398000316D00085B25735D20E7BB88E7ABAFE6D0
:10399000B3A8E5868C206D73675F6964203D203095
:1039A00078253034780D0A000080000870B5044690
:1039B00048F201021D491EA0FEF75AFB002C1CD044
:1039C0000D20B4F8AC10890400D5112024490D183D
:1039D000085C6A78A43402EB002082B2A28013490A
:1039E00020A0FEF745FBAA782270104929A0FEF717
:1039F0003FFB14F8A40918B115E04FF0FF3070BD7B
:103A000034F8AC0FC0F30900C01E86B2701C00F081
:103A100065FFA064E91C3246FCF7B3FB034929A00B
:103A2000A26CFEF725FB002070BD0000426E00086E
:103A30005B25735D205465726D696E616C526567BC
:103A40006973746572526573706F6E7365206D7300
:103A5000675F6964203D203078253034780D0A0096
:103A6000C83700205B25735D205465726D696E61F7
:103A70006C5265676973746572526573706F6E73AB
:103A800065466C6F772320203D20307825303478D0
:103A90000D0A00005B25735D205465726D696E61CF
:103AA0006C5265676973746572526573706F6E737B
:103AB00065526573756C7420203D20307825303256
:103AC000780D0A005B25735D205465726D696E6127
:103AD0006C5265676973746572526573706F6E734B
:103AE0006541757468656E7469636174696F6E436E
:103AF0006F6465203D2025730D0A000010B548F263
:103B00000812034903A0FEF7B3FA002010BD00001D
:103B1000DD6E00085B25735D20E4B88BE58F91E7CF
:103B2000BB88E7ABAFE58D87E7BAA7E58C85206D4D
:103B300073675F6964203D203078253034780D0A42
:103B40000000000010B54FF48472034903A0FEF793
:103B50008FFA002010BD0000A66D00085B25735D84
:103B6000206D73675F6964203D203078253034789C
:103B70000A00000070B505460C4608A0FEF778FA6A
:103B80000D4E756529460DA0FEF772FAB465214603
:103B9000BDE8704010A0FEF76BBA00000A0D5B494B
:103BA0006E69744C6F636174696F6E496E666F5DA8
:103BB000204F4B20210D0A0080320020706172617D
:103BC0002D3E616C61726D2E76616C7565203D20B5
:103BD00025640D0A00000000706172612D3E73744F
:103BE000617475732E76616C7565203D2025640DBA
:103BF0000A0000000FB4B0B5044641A0FEF738FA41
:103C0000BDF81410E18345A0FEF732FABDF8161096
:103C100021844CA0FEF72CFA052504F12200294648
:103C20000746FCF7C7FA2A4606A93846FCF7A9FA60
:103C30004EA0FEF71DFA002506E0601990F822104C
:103C400054A0FEF715FA6D1CB542F6DB3CA0FEF75A
:103C50000FFA14220DF11D0104F12700FCF791FA6F
:103C60004EA0FEF705FA002506E0601990F827102F
:103C700048A0FEF7FDF96D1CB542F6DB30A0FEF75B
:103C8000F7F9072504F13B0029460746FCF792FAAD
:103C90002A460DF131013846FCF773FA49A0FEF7C8
:103CA000E7F9002506E0601990F83B1039A0FEF70F
:103CB000DFF96D1CB542F6DB21A0FEF7D9F99DF8BE
:103CC000381084F8421048A0FEF7D2F994F8420068
:103CD00078B1DDF8390044F8430FDDF83D0060604D
:103CE000DDF84100A060433C04F143014AA0FEF727
:103CF000BFF954A0FEF7BCF9B0BC5DF814FB00009E
:103D00000A0D5B696E6974526567697374657249FF
:103D10006E666F5D204F4B20210A0000706172615A
:103D20002D3E72656769737465725F696E666F2E8A
:103D300070726F76696E63655F6964203D202564EB
:103D40000D0A0000706172612D3E726567697374BF
:103D500065725F696E666F2E636974795F6964204E
:103D60003D20253034640D0A00000000706172614E
:103D70002D3E72656769737465725F696E666F2E3A
:103D80006D616E7566616374757265725F696420DA
:103D90003A2000003078253032782000706172615E
:103DA0002D3E72656769737465725F696E666F2E0A
:103DB0007465726D696E616C5F6D6F64656C203ADD
:103DC00020000000706172612D3E72656769737436
:103DD00065725F696E666F2E7465726D696E616C77
:103DE0005F6964203A200000706172612D3E726547
:103DF0006769737465725F696E666F2E6361725F67
:103E0000706C6174655F636F6C6F72203D203078F9
:103E1000253032780D0A0000706172612D3E7265A6
:103E20006769737465725F696E666F2E6361725F36
:103E3000706C6174655F6E756D203D2025730D0A91
:103E4000000000000D0A2000F0B504460F463B4676
:103E50000A2615E02078FDF720F80546B5FBF6F0B8
:103E600030301870581C3978302900D13846B5FBED
:103E7000F6F106FB1151303100F8011B0346641CBA
:103E8000521E501CE6D13846F0BD000070B5054604
:103E9000E9880C464FF0FF3626A0FEF7E9F8B4F5A6
:103EA000817F2CD009DC012C15D0022C18D0032CDA
:103EB00020D0B4F5807F3AD117E0B4F5827F23D0CB
:103EC000B4F5847F25D0B4F5007F27D0A4F5007425
:103ED000013C2CD127E02846FFF738FB064626E0B8
:103EE0002846FFF7A9FC064621E02846FFF7F0FC2C
:103EF00006461CE02846FFF7C5FC064617E02846A4
:103F0000FFF75AFC064612E02846FFF71FFB06465D
:103F10000DE02846FFF716FE064608E02846FFF7A4
:103F20002DFB064603E02846FFF7B2FA0646304668
:103F300070BD00005B6A743830384672616D65424E
:103F40006F64795061636B6167655D206375727240
:103F5000656E74206D73675F69643A203078253030
:103F600034780D0A0000000070B50646B6F8AA4085
:103F70004FF0FF35214626A0FEF77AF848F20410EC
:103F8000221A844229D00BDC6FF40040211810D093
:103F9000022913D0FF2916D0B1F5817F35D117E062
:103FA000012A24D0022A1DD0042A25D0FD2A2CD192
:103FB00027E03046FFF76CFB054626E03046FFF76A
:103FC0002DFA054621E03046FFF7F0FC05461CE0DF
:103FD0003046FFF7C3FB054617E03046FFF794FA7B
:103FE000054612E03046FFF76BFA05460DE0304615
:103FF000FFF704FC054608E03046FFF77FFD054665
:1040000003E03046FFF722FA0546284670BD00005F
:104010005B6A743830384672616D65426F647950FE
:10402000617273655D2063757272656E74206D7365
:10403000675F69643A203078253034780D0A0000D3
:104040003EB504460020009001902088FDF704F85A
:10405000029002A8FEF7A8FF6088FCF7FDFF02901F
:1040600002A8FEF7A1FF201DFCF7C1F80246694631
:10407000201D00F06DFA06216846FEF775FF608A84
:10408000FCF7EAFF0290022102A8FEF76DFF6088AC
:10409000800411D5A08A01280ED9FCF7DDFF02901B
:1040A000022102A8FEF760FFE08AFCF7D5FF02902C
:1040B000022102A8FEF758FF00203EBD2DE9F04185
:1040C00005460F4614464FF0FF38002C01D00F2F45
:1040D00002D24046BDE8F081A878697800EB012063
:1040E00081B221801EA0FDF7C3FF2879E97800EB9B
:1040F000012081B2618027A0FDF7BAFF002666602B
:10410000A660E6600622211D681DFFF79DFE0028BF
:1041100018D0211D2FA0FDF7ABFF287BE97A00EB1B
:10412000012081B2618239A0FDF7A2FF608881047D
:1041300004D5C0F30900381A132805D0A682E682F8
:104140000020C7E74046C5E7A87B697B00EB01205C
:10415000A082287CE97B00EB0120E082F0E70000F0
:104160005B6A743830384672616D654865616450C9
:10417000617273655D206D73675F686561642D3E74
:104180006D73675F6964203D203078253032780D8B
:104190000A0000005B6A743830384672616D654809
:1041A00065616450617273655D206D73675F6865FA
:1041B00061642D3E6D7367626F64795F61747472C0
:1041C0002E75313676616C203D203078253032787E
:1041D0000D0A00005B6A743830384672616D6548BC
:1041E00065616450617273655D206D73675F6865BA
:1041F00061642D3E70686F6E655F6E756D203D2049
:104200002573202121210D0A000000005B6A74380B
:1042100030384672616D65486561645061727365DE
:104220005D206D73675F686561642D3E6D73675FC8
:10423000666C6F775F6E756D203D2030782530326B
:1042400078202121210D0A0070B50446FEF79EFE5C
:1042500000F07AF917A0FDF70BFFA01DFFF7F0FEA5
:104260004FF0FF35002801DA284670BD19A0FDF790
:10427000FFFE2046FFF70AFE0146002918DBA01DBD
:1042800000F012F9002801DA284670BD19480168CB
:104290001948FCF7F7FDFEF75BFE7E20FEF758FE9F
:1042A00000F022F9002801DA284670BD002070BD18
:1042B000284670BD5B6A7438303853657446726145
:1042C0006D65466C61674865616465725D204F4B42
:1042D00020210A005B6A743830384672616D654887
:1042E0006561645061636B6167655D204F4B2021A0
:1042F0000D0A000094000020C8330020F8B50646DF
:104300000D4614464FF49B72354936A0FDF7B0FEBA
:104310004FF0FF3704B32A4631463B48FBF731FFE5
:104320003A4E35600095284600F0D8FA05462846F2
:104330000099FBF73FFF40F23F12294934A0009B50
:10434000FDF796FE6B462A462F483168FDF772FA54
:10435000002803DA3846F8BD3846F8BD009B3360C4
:1043600040F245121E4932A0FDF782FE0099681CFA
:10437000C91EFCF787FD0099294411F8021C8842E8
:1043800001D03846F8BD4FF4A572154935A0FDF7A8
:104390006FFE04F1AA0228460099FFF78FFE08B1CC
:1043A0003846F8BD40F24F120D4936A0FDF760FEC9
:1043B000D4F8AE00C4F80A00D4F8B200C4F80E0075
:1043C000B4F8B600608294F8B80020752046FFF774
:1043D000CBFD044615B12846FEF7D8FF2046F8BDB0
:1043E000146F000825735B25645D3A204A54383009
:1043F000384672616D655061727365202D2D3E31B6
:10440000202121210D0A0000C8370020980000203B
:1044100025735B25645D3A206F7574427566666529
:104420007253697A65203D202564200D0A00000042
:1044300025735B25645D3A20526576657273654528
:1044400073636170655F432E20206F7574427566DB
:1044500066657253697A65203D20256420202121FC
:10446000210D0A0025735B25645D3A204263634396
:104470006865636B53756D2E202D2D3E33202121F1
:10448000210D0A0025735B25645D3A204672616D3B
:10449000654865616450617273652E202D2D3E3430
:1044A000202121210D0A00001CB50D4A12680C2A9A
:1044B00002D24FF0FF301CBD40880090BDF80000D4
:1044C00061F309000090FCF7C7FD019005489DF8D5
:1044D0000410C1709DF80510017100201CBD000082
:1044E00094000020C833002038B5154A002111700F
:1044F000144D2868024402F8011C4000009000F0AE
:10450000EDF904466B4622460D482968FCF7B5FDD7
:10451000002802DA4FF0FF3038BD7E20207000996D
:10452000214401F8010C21460548009AFBF729FEB9
:104530000098286014B12046FEF728FF002038BDFF
:10454000C83300209400002000217E20FEF7E8BC44
:1045500030B504460D462B46D00715D014F8010B94
:104560003038C0B2FDF705F803F8010B0CE0303825
:1045700000EB800040006178A41C08443038C0B2D1
:10458000FCF7F7FF03F8010B20780028EFD1187033
:10459000284630BDAAB00027B84690488E49CDE9DC
:1045A000281090488E49CDE926108F4825908F48D5
:1045B00024908F4823908FA090E80E00C068CDE92A
:1045C00020231F912290342112A8FBF7F3FD29200C
:1045D000ADF814006620ADF816008AA000680690B9
:1045E00041208DF81C0089A00168CDF81D1041689C
:1045F000CDF821100089ADF8250087A000250168BD
:10460000CDF831108088ADF835008DF83750022094
:104610008DF8380082A00168CDF839108188ADF896
:104620003D1080798DF83F00342112A8FBF7C2FDC0
:10463000342205A912A8FBF7A4FD322212A97A4858
:10464000FCF7C8FDFDF718F8FEF7B4FC4FF4E134B1
:10465000204602F04BFA2046FDF75CFBFCF7D3FE48
:104660004FF4FA64FEF7F0FC012803D02046FEF771
:10467000BFFCF7E76DA0FDF7FBFC0B2170A002F07B
:10468000D7F94FF4807001F0E7FF4FF47A70FEF72E
:10469000AFFC6E4EDFF8BC916D4948463268FDF7BD
:1046A000C8FC6D4C6420FEF7A3FC20880004F9D5FB
:1046B0002088C0F30E012180684802F023F868A02A
:1046C000FDF7D6FC21886BA0FDF7D2FC25804FF4C6
:1046D000817001F0C1FF5E4948463268FDF7A9FCD0
:1046E0006420FEF785FC20880004F9D52088C0F3FB
:1046F0000E012180594802F005F865A0FDF7B8FCCD
:1047000021885CA0FDF7B4FC258041463846FFF7C0
:1047100031FA02F085F9DDE9242123981FAFCDE9B4
:104720000207CDE90012DDE92623DDE9280102F0C8
:104730002FFA4FF4007A504601F08EFF4449484664
:104740003268FDF776FC6420FEF752FC20880004F6
:10475000F9D52088C0F30E012180404801F0D2FF36
:1047600051A0FDF785FC218842A0FDF781FC258042
:104770000DF18C080DE06420FEF73AFC208800045F
:10478000F9D52088C0F30E012180344801F0BAFF2A
:104790002580CDE9008724AB25AA26A928A800F00A
:1047A0009DFBDDE924212398CDE90207CDE9001224
:1047B000DDE92623DDE9280102F0EAF9504601F09F
:1047C0004BFF3FA03168FDF753FC21494846326852
:1047D000FDF72FFCCFE700000E1137A7926941408B
:1047E000C974E8F4BC635C400000D642000070412C
:1047F000000004433232313132373231323835350C
:104800000000000058494E44410000005A584941F8
:10481000542D435A303500003232313230330000EB
:104820004139353237000000008000087365727628
:10483000657220636F6E6E65637465640D0A0000B7
:104840003230323231323033313131009400002095
:10485000C83300200044004034000020801D0020A8
:10486000526567697374657220646F6E65210D0A05
:1048700000000000436C69656E74207265636569B1
:1048800076652062797465733A2025640D0A00000C
:1048900041757468656E7469636174696F6E2064D4
:1048A0006F6E65210D0A0000757064617461206C83
:1048B0006F636174696F6E20646F6E65210D0A000D
:1048C0005265616C42756666657253656E645369C4
:1048D0007A65203D202564200D0A0000F0B50B30DC
:1048E000154D20F007010024144A0FE003688B42A5
:1048F0000BD38B4205D95E1A43184768C3E900679A
:1049000000E04368136002C004E0021D1068002844
:10491000ECD12046002802D1286808B10020F0BD63
:10492000064A07481060074A121A22F00702C0E937
:10493000002401202860D7E7A00000209C00002070
:10494000CC3B0020C84B00202DE9F0410026383038
:1049500010F8382C4A62D0E91A23C1E90A23D0E9B9
:104960001C23C1E90C23D0E91E233838C1E90E23EA
:1049700000234FF0010C002200EB83070DE0BC6820
:1049800054B102EB820501EB8505D5F870834445EF
:1049900002D1C5F874C3761C521CD1F86C43944202
:1049A000EDDC5B1C252BE6DBC1F86863086840F092
:1049B00080000860BDE8F08170B5D0E900329A420D
:1049C00033DC2523B3EB820F2FDB012A01DA01222E
:1049D00042608268C1F86C234268521E920083686C
:1049E000141DA34201DA9D1A00E00425002216E0FE
:1049F00043685B1E02EB830302EB820403EB830339
:104A000000EB840401EB830303F55C73E6681E602E
:104A100066699E60A669DE60E4691C61521CAA4258
:104A2000E6DB086840F04000086070BDC2680A61BB
:104A300002694A6142698A618269CA61C26B0A621B
:104A4000D0E91223C1E90C23D0E91423C1E91423CE
:104A500090F828204E2A16D0D0E9082383F000438E
:104A6000C1E9102390F83820452A0FD0D0E90C2353
:104A700083F00043C1E91223006CC867086840F462
:104A8000805008607047D0E90823E9E7D0E90C239B
:104A9000F0E790F83820412A02D0562A09D00CE0DD
:104AA0000B6A022203B90A624B6A012B05D14A62E2
:104AB00003E000220A6201224A62027A4E2A1FD0D3
:104AC000D0E9002383F00043C1E91023027E452A88
:104AD00019D0D0E9042383F00043C1E91223826A8C
:104AE0000A61C26A4A61026B8A61426BCA6190F8CC
:104AF000390081F87800086840F400700860704759
:104B0000D0E90023E0E7D0E90423E6E770B50546E5
:104B10000C46287F412802D0562809D00CE0216A93
:104B2000022001B92062616A012905D1606203E0B7
:104B300000202062012060621C222946201DFBF714
:104B400020FB95F828004E2828D0D5E9080181F0EF
:104B50000041C4E9100195F83800452821D0D5E975
:104B60000C0181F00041C4E91201D5E91001C4E94A
:104B70001601D5E910010C4A0C4BFBF767FCC4E9A0
:104B80001801D5E91201C4E91A0195F8590084F811
:104B90007800206840F40060206070BDD5E908010D
:104BA000D7E7D5E90C01DEE76F1283C0CAA1FD3F4C
:104BB000D0E90023C1E91A23D0E90423C1E91C2369
:104BC000D0E90823C1E91623D0E90C23C1E9182351
:104BD00090F8390081F87800086840F48060086037
:104BE000704710B50C4601461C22201DFBF7C9FA80
:104BF000206840F48070206010BDC2680A610269BC
:104C00004A6142698A618269CA61C26B0A62D0E9FB
:104C10001223C1E90C23D0E91423C1E9142390F82D
:104C200028204E2A14D0D0E9082383F00043C1E99C
:104C3000102390F83820452A0DD0D0E90C2080F0C0
:104C40000040C1E91220086840F001000860704788
:104C5000D0E90823EBE7D0E90C20F2E72DE9F04199
:104C60000026383050F8342C4A62D0E91A23C1E9C2
:104C70000A23D0E91C23C1E90C23D0E91E233838CC
:104C8000C1E90E2300234FF0010C002200EB830743
:104C90000DE0BC6854B102EB820501EB8505D5F847
:104CA0008480444502D1C5F888C0761C521CD1F8D6
:104CB00080409442EDDC5B1C252BE6DBCE67086868
:104CC00040F002000860BDE8F08170B5D0E9003224
:104CD0009A4232DC2523B3EB820F2EDB012A01DA64
:104CE000012242608268C1F880204268521E920010
:104CF0008368141DA34201DA9D1A00E004250022F6
:104D000015E043685B1E02EB830302EB820400EBB9
:104D1000840403EB830301EB8303E66843F8846FA9
:104D200066699E60A669DE60E4691C61521CAA4245
:104D3000E7DB086840F00400086070BD70B5054608
:104D40000C46287F412802D0562809D00CE0216A61
:104D5000022001B92062616A012905D1606203E085
:104D600000202062012060621C222946201DFBF7E2
:104D700008FA95F828004E2820D0D5E9080181F0DE
:104D80000041C4E9100195F83800452819D0D5E94B
:104D90000C0181F00041C4E91201D5E910010A4A71
:104DA0000A4BFBF753FBC4E91801D5E91201C4E92A
:104DB0001A01206840F00800206070BDD5E90801A4
:104DC000DFE7D5E90C01E6E76F1283C0CAA1FD3F1A
:104DD0008068C1F854060E4AC1F85826002809D048
:104DE00001280BD002280DD007280FD1114609A0A9
:104DF00000F053BA06490CA000F04FBA04490EA0C7
:104E000000F04BBA024911A000F047BA7047000009
:104E100080310020475054585420757365722069C2
:104E20006E666F3A202573004750545854206572BF
:104E3000726F723A2025730047505458542077619E
:104E4000726E696E673A202573000000475054580F
:104E500054206E6F746963653A202573000000006A
:104E6000D0E90023C1E91A23D0E90423C1E91C23B6
:104E7000426B006BC1E91802086840F0100008603E
:104E8000704710B5C2B003460C4600200146FF2C07
:104E90000BDC2246194601A8FBF773F901A9002093
:104EA000085541A901A801F0D5FD42B010BD30B5AB
:104EB000C1B003460C4615460020FF2C0CDC2246F0
:104EC00019466846FBF75DF900200DF804002A46F4
:104ED00040A96846FBF7A9F941B030BD2DE9FF4F65
:104EE000ADF6AC2D002401F0B1FA8249016001F069
:104EF000ADFA8149416001F0A9FA804981600DF560
:104F0000886001F09AFB0CA801F06DF87C4D7D4E95
:104F10007D4FA0464FF48069287850B10DF5886325
:104F20004A467A490CA800F087FA85F800800124E7
:104F30000BE0307848B10DF588634A4639460CA835
:104F400000F07AFA86F800800124002CE4D00123D6
:104F5000082205A90DF24440FCF759F905984FF4D1
:104F6000FA6A00F26C7090FBFAF10AFB1101DDE9BC
:104F700008230A980290CDE90023DDE9062364A006
:104F8000FDF776F80DF5906003C800F0A5F904462A
:104F90000D460DF5916003C800F09EF906460F46D8
:104FA000DFF894B100225B4620462946FBF74EFA13
:104FB000FBF752FB814600225B4630463946FBF741
:104FC00045FAFBF749FBCDF8A80A0DF5926003C836
:104FD000FBF742FBCDF8A40A0DF59460002203C84C
:104FE000564BFBF733FAFBF737FBCDF8A00A0DF56C
:104FF000956003C8FBF730FB8346B9F1000F6CD016
:10500000DDF8AC0A30C0DDF8B00AC0C00DF5926022
:1050100003C8FBF771FBDDF8B41A08600DF5946066
:1050200003C8FBF769FBDDF8B81A08600DF5956059
:1050300003C8FBF761FBDDF8E01A0860494640A0B1
:10504000FDF716F841A0DDF8A81AFDF711F842A007
:10505000DDF8A41AFDF70CF843A0DDF8A01AFDF75F
:1050600007F8594644A0FDF703F80598DDE9082341
:1050700000F26C7090FBFAF10AFB11010A980290A1
:10508000CDE90023DDE906233FA0FCF7F1FF0598F9
:10509000DDE9073400F26C7090FBFAF10AFB1102B3
:1050A000DDE90910CDE90210CDE9003440A14748FF
:1050B000069BFCF7EDFF454945A0FCF7D9FF0D2104
:1050C000DDF8E40AFBF776F84049DDF8E40A0A68FF
:1050D00002604A684260896881603C48C0F800808C
:1050E000C0F80480C0F808800DF6BC2D0020BDE893
:1050F000F08F0000716A000815330008DD330008E6
:105100002900002028000020B4040020B400002062
:105110000D0ACAB1BCE4253032642D253032642D2D
:10512000253032642020253032643A253032643A0A
:10513000253032640D0A000080842E410000244096
:10514000CEB3B6C8A3BA256C640A0000BEADB6C81B
:105150003A20256C640A0000BAA3B0CE3A20256438
:1051600020C3D7200A000000CBD9B6C8A3BA256453
:10517000206B6D2F68200A00BABDCFF2A3BA256458
:1051800020B6C80A00000000CAB1BCE43A202530AD
:1051900032642D253032642D2530326420202530B4
:1051A00032643A253032643A253032640A00000015
:1051B0002530326425303264253032642530326443
:1051C000253032642530326400000000A800002041
:1051D00062756654696D653A2025730A0000000007
:1051E0000FB410B5ADF5816D01F030F94468002CB5
:1051F00010D00DF2144340F2FF3101A8DDF8102465
:10520000FCF75AFF01460020CDF80404002901DD17
:1052100001A8A0470DF5816D10BC5DF814FB2DE9C8
:10522000F04704468846174604EB08060020002590
:105230004FF0FF39C7F800900BE02378242B02D100
:1052400008B1002407E02A2B0DD000B15D40641C9A
:10525000401CB442F1D33968002902DA002C00D096
:105260000020BDE8F087611DB142F4D8E1780D2936
:10527000F1D121790A29EED110220221601CFFF719
:1052800016FE01463860301BA8EB0000401DA94205
:10529000E1D0C7F800900024DDE70FB410B5ADF5FC
:1052A000816D01F0D3F88468002C10D00DF2144306
:1052B00040F2FF3101A8DDF81024FCF7FDFE0146A5
:1052C0000020CDF80404002901DD01A8A0470DF558
:1052D000816D10BC5DF814FB2DE9F04104460D46CC
:1052E000DFF848800022434620462946FBF720F994
:1052F000FBF7B2F9FBF78BF906460F46002243464F
:1053000030463946FBF7A2F822462B46FBF79BF8BE
:105310000022074BFBF70CF932463B46FAF7EFFF4A
:1053200004460D4620462946BDE8F081000059405C
:1053300000004E4070B50546052901DA002070BD19
:105340003C4C052228462168FAF762FF00284FD01E
:10535000052228466168FAF75BFF00284AD005223B
:105360002846A168FAF754FFE8B305222846E16809
:10537000FAF74EFFC0B3052228462169FAF748FF25
:1053800098B3052228466169FAF742FF70B30522F7
:105390002846A169FAF73CFF48B305222846E1698F
:1053A000FAF736FF80B305222846216AFAF730FF64
:1053B00058B305222846616AFAF72AFF68B3052226
:1053C0002846A16AFAF724FF50B305222846E16A6D
:1053D000FAF71EFF38B305222846216BFAF718FFAB
:1053E00020B3002070BD07E008E009E00AE00DE00E
:1053F0000120F7E70220F5E70420F3E70820F1E7B2
:105400001020EFE72020EDE702E003E04020E9E78D
:105410008020E7E74FF48070E4E74FF40070E1E7A5
:105420004FF48060DEE74FF40060DBE74FF480501C
:10543000D8E7000048000020F8B506461D460024C5
:1054400000200090304600F0EFFD69E0641C402829
:1054500055D00EDC08282FD006DC01281DD00228EC
:1054600020D0042859D122E010282AD0202854D155
:105470004FE0B0F5806F33D008DC802844D0B0F521
:10548000807F32D0B0F5007F47D133E0B0F5006FB8
:1054900021D0B0F5805F40D118E029460098FFF791
:1054A000ACFB3AE029460098FFF7D8FB35E02946E7
:1054B0000098FFF70AFC30E029460098FFF73EFC11
:1054C0002BE029460098FFF7CBFC26E02946009800
:1054D000FFF7ACFA21E029460098FFF717FB1CE024
:1054E00029460098FFF764FB17E029460098FFF76C
:1054F00078FB12E029460098FFF7CBFA0DE0294629
:105500000098FFF759FA08E029460098FFF71CFABF
:1055100003E029460098FFF75BFC0098FDF736FF93
:105520006946304600F06EFD00288FD12046F8BD58
:1055300070B590B005460E461446B8212046FAF7DD
:1055400039FE3146284601F06AF804F1B00004F152
:10555000A801CDE90E108038011F04F1A00204F16A
:105560003403CDE90C320A1FCDE90A101038011FAF
:10557000131FCDE908320A1FCDE906101038131F9A
:10558000011FCDE904320A1F231DCDE90032CDE908
:105590000210234607A23146284600F05BFF11287F
:1055A00005D013A0FFF71CFE002010B070BD012035
:1055B000FBE700002442444753412C25432C25643B
:1055C0002C25642C25642C25642C25642C25642C26
:1055D00025642C25642C25642C25642C25642C251D
:1055E000642C25642C25662C25662C25662A000053
:1055F0004244475341207061727365206572726F37
:105600007221000070B592B005460E4614465C212A
:105610002046FAF7CFFD3146284601F000F804F1A4
:105620005800011F0A1FCDE91010143804F1480377
:10563000011FCDE90E320A1FCDE90C101438143BBE
:10564000011FCDE90A320A1FCDE908101438143BB6
:10565000011FCDE906320A1FCDE90410143B1438AE
:10566000211DCDE90232CDE9001023460E4A314614
:10567000284600F0EFFE6168491E8900A2680B1DF4
:105680009A4201DA511A00E00421032202EB81015F
:10569000884201DB132805DD04A0FFF7A1FD0020EF
:1056A00012B070BD0120FBE7AC6F000842444753C5
:1056B00056207061727365206572726F72210000EE
:1056C00070B5CEB005460E46144680212046FAF746
:1056D00071FD3146284600F0A2FF04F1680204F192
:1056E0006003CDE9093204F1780004F17001CDE9DD
:1056F0000B10203A203BCDE9053220382039CDE986
:105700000710183A183BCDE901321C38011FCDE9CA
:1057100003101C3800900EAB0EA23146284600F054
:1057200099FE0E2805D018A0FFF75AFD00204EB0B4
:1057300070BD0EA8FAF75BFD014622460EA8FCF7E5
:10574000C1FD20B115A0FFF74BFD0020EFE70120C0
:10575000EDE7000024474E4747412C25732C256672
:105760002C25432C25662C25432C25642C25642CC4
:1057700025662C25662C25432C25662C25432C25B7
:10578000662C25642A000000474E4747412070617F
:10579000727365206572726F72210000474E474731
:1057A000412074696D652070617273652065727245
:1057B0006F72210070B5C6B005460E4614464021F2
:1057C0002046FAF7F7FC3146284600F028FF04F19E
:1057D0003900411ECDE9041029383039CDE90010D7
:1057E00006AB04F11802CDE9022323460EA231468E
:1057F000284600F02FFE072805D013A0FFF7F0FC85
:10580000002046B070BD06A8FAF7F1FC014604F18D
:105810001C0206A8FCF756FD20B110A0FFF7E0FC23
:105820000020EEE70120ECE724474E474C4C2C25A6
:10583000662C25432C25662C25432C25732C2543CB
:105840002C25432A00000000474E474C4C20706135
:10585000727365206572726F72210000474E474C6B
:105860004C2074696D652070617273652065727279
:105870006F72210070B5CEB005460E461446602109
:105880002046FAF797FC3146284600F0C8FE04F19E
:105890005002CDE9094204F15900411ECDE90B1037
:1058A000083A04F14003CDE90532201D011DCDE980
:1058B0000710203A203BCDE9013234302831CDE9C0
:1058C00003101C3800900EAB10A23146284600F0A1
:1058D000C1FD0D2807D00E2805D019A0FFF780FCC8
:1058E00000204EB070BD0EA8FAF781FC014622469A
:1058F0000EA8FCF7E7FC20B116A0FFF771FC002012
:10590000EFE72068643020600120EAE724474E5228
:105910004D432C25732C25432C25662C25432C2503
:10592000662C25432C25662C25662C2532642532D1
:10593000642532642C25662C25432C25432A00003F
:10594000474E524D43207061727365206572726FCD
:1059500072210000474E524D432074696D652070DE
:1059600061727365206572726F72210070B588B0C4
:1059700005460E46144640212046FAF71BFC3146E8
:10598000284600F04CFE04F13900411ECDE9061016
:1059900004F1300204F12803CDE90432193820392A
:1059A000203A203BCDE90032CDE90210234611A276
:1059B0003146284600F04EFD092805D016A0FFF715
:1059C0000FFC002008B070BD207A54280AD1207E38
:1059D0004D2807D194F828004E2803D194F83800B8
:1059E0004B2804D011A0FFF7FBFB0020EAE70120C1
:1059F000E8E7000024474E5654472C25662C2543E3
:105A00002C25662C25432C25662C25432C25662C1D
:105A100025432C25432A0000474E565447207061E9
:105A2000727365206572726F72210000474E565482
:105A300047207061727365206572726F72202866EC
:105A40006F726D6174206572726F7229210000009F
:105A500070B5C8B005460E4614461C212046FAF71C
:105A6000A9FB3146284600F0DAFD46A947AB201DC8
:105A7000CDE90231019045AA001D0492009005ABCA
:105A800010A23146284600F0E5FC4799A1F26C715E
:105A90002160062805D013A0FFF7A2FB002048B024
:105AA00070BD05A8FAF7A3FB0146224605A8FCF73E
:105AB00009FC20B110A0FFF793FB0020EFE70120C5
:105AC000EDE7000024474E5A44412C25732C253223
:105AD000642C2532642C2534642C2532642C253228
