:020000040801F1
:10400000609F002049410108B35801087554010818
:10401000B15801087F4C0108E56B01080000000061
:10402000000000000000000000000000C560010862
:10403000274E0108000000004159010861410108B4
:10404000634101086341010863410108A15C010863
:1040500063410108634101086341010863410108AC
:10406000634101086341010863410108634101089C
:1040700063410108814C0108634101086341010863
:10408000634101086341010863410108634101087C
:10409000634101086341010863410108634101086C
:1040A000634101086341010863410108634101085C
:1040B000634101086D6301089D63010863410108C4
:1040C000634101086341010863410108634101083C
:1040D00063410108F56601085D6701086341010855
:1040E000634101086341010863410108634101081C
:1040F000634101086341010863410108634101080C
:104100006341010863410108B56401086341010886
:1041100063410108634101086341010863410108EB
:1041200063410108634101086341010863410108DB
:10413000DFF810D000F008FC0048004769A401082F
:10414000AFF30080609F0020064880470648004784
:10415000FEE7FEE7FEE7FEE7FEE7FEE7FEE7FEE737
:10416000FEE7FEE719630108314101082DE9F05F20
:104170000546002092469B468846064681464024D6
:104180001BE0284641464746224600F0C0FA534607
:104190005A46C01A914110D311461846224600F0E3
:1041A000A7FA2D1A67EB01084F462246012000218D
:1041B00000F09EFA17EB00094E41201EA4F1010405
:1041C000DFDC484631462A464346BDE8F09F000002
:1041D000004870477CCB010840EA01039B0703D0ED
:1041E00009E008C9121F08C0042AFAD203E011F836
:1041F000013B00F8013B521EF9D27047D2B201E0F8
:1042000000F8012B491EFBD270470022F6E710B5DB
:1042100013460A4604461946FFF7F0FF204610BD34
:1042200030B505462A460B4612F8010B13F8014B30
:1042300008B1A042F8D01CB1002802D06D1CF1E7F3
:10424000284630BD421C10F8011B0029FBD1801A02
:1042500070472DE9F04791460F46804604460026F8
:1042600014F8015B2DB1FFF7B3FF0068405DC00794
:10427000F6D12B2D02D02D2D18D0641E4A4639467A
:10428000204600F066FA27B13968A14201D1C7F88B
:10429000008071054FF002040BD54042002803DD79
:1042A00002F0A6FD0460A007BDE8F08746F4806632
:1042B000E4E70028F8DA02F09BFD04606FF00040AC
:1042C000F2E770B5064602F093FD046805460A223F
:1042D00000213046FFF7BDFF2C6070BD2DE9FE4F79
:1042E000804681EA0300C00F0C46009021F0004197
:1042F00023F00045B8EB0200A94105D24046214613
:1043000090461C460B46024623F00040104347D01F
:10431000270DC7F30A00C3F30A510290401A019017
:1043200040286BDAC3F3130040F4801B00989246D8
:1043300020B10023D2EB030A63EB0B0B0198594623
:10434000C0F14002504600F0D3F906460D465046F3
:104350005946019A00F0EBF910EB08006141002486
:1043600087EA115284EAE7731A4340D0009A62B395
:10437000019A012A4FEA075215DC001B61EB02018A
:104380004FF0004202EA0752CDE90042001C41F51D
:10439000801132462B4600F071FA03B0BDE8F08F71
:1043A00040462146F9E7001B61EB0201001C41F584
:1043B000801300185B412018A2F5001747EB03019A
:1043C00040EAD570B6196D4111E06D084FEA360626
:1043D00045EAC0754FEA0752001B61EB0201001C61
:1043E00041F5801149084FEA300000195141324629
:1043F0002B4603B0BDE8F04F00F031BA009801221F
:1044000040000023D0EB020263EBE07300982146EA
:104410004FEAE074B8EB000061EB0401E9E783F0D8
:1044200000435BE781F0004158E72DE9FE4F81EA48
:10443000030404F0004421F0004100944FF0000B0D
:1044400023F0004350EA01045ED052EA03045BD03B
:10445000C3F30A54C1F30A552C44A4F2F334019473
:10446000A0FB0254C1F3130141F48011C3F3130301
:1044700043F4801301FB024400FB034E840A970AB5
:1044800044EA815447EA8357A4FB076802958D0AE2
:1044900005FB07854FEA932C04FB0C542705029D6E
:1044A0004FEA065847EA1637B5EB08056EEB070CDE
:1044B000870E920E47EA811742EA8312A7FB020198
:1044C000B6EB0B0164EB00042B0D43EA0C335E18D2
:1044D00044EB1C50DA465146E7FB0201C5F31304D6
:1044E0004FEA0B3343EA14534FEA0432019C43EA88
:1044F0000603A4F10C040294009CCDE900B400F082
:10450000BDF903B0BDE8F08F00200146F9E72DE9C1
:10451000F04D81EA030404F0004B21F000451446FD
:104520004FF0000A23F0004150EA050220D054EA7F
:1045300001021DD0C5F30A570246C5F31303C1F3A8
:104540001300C1F30A5640F4801543F48013A7EB1F
:104550000608101BD64608F2FD3873EB050002D39F
:1045600008F1010801E092185B41B8F1000F03DA8D
:1045700000200146BDE8F08D00204FF48011064672
:1045800084460EE0171B73EB050705D3121B63EB84
:10459000050306434CEA010C49084FEA3000921823
:1045A0005B4150EA0107EDD152EA030012D082EAE2
:1045B000040083EA0501084305D0101BAB4106D275
:1045C0000122002306E000224FF0004302E06FF0DA
:1045D000010253101AEB06004CEB085110EB0A00D5
:1045E00041EB0B01BDE8F04D00F039B970B521F099
:1045F000004303430CD0C1F30A550024D5EB040556
:1046000064EB0403D617AD1AB34102DB0020014668
:1046100070BD201841EB025170BD0EB540F2334120
:1046200002910021CDE900110A460B4600F026F95F
:1046300003B000BD20F00040C10DC0F3160040F4EF
:1046400000007F2901DA00207047962903DCC1F1C0
:104650009601C840704796398840704730B5041EAF
:1046600071F1000404DB4FF00044404264EB0101AF
:10467000141E73F1000405DB1C464FF00043524248
:1046800063EB0403994208BF904230BD01F0004340
:1046900030B421F0004150EA010206D00A0DA2F523
:1046A0006072C1F31301002A02DC30BC00207047A5
:1046B000440F44EAC104C100E01830BC00EBC25012
:1046C00000F096B830B50B460146002020220124A8
:1046D00009E021FA02F59D4205D303FA02F5491BD0
:1046E00004FA02F52844151EA2F10102F1DC30BDE6
:1046F000202A04DB203A00FA02F1002070479140A2
:10470000C2F1200320FA03F3194390407047202A96
:1047100004DB203A21FA02F00021704721FA02F36B
:10472000D040C2F120029140084319467047202A28
:1047300006DBCB17203A41FA02F043EAE07306E0C9
:1047400041FA02F3D040C2F12002914008431946D9
:1047500070472DE9F05F82460078002715468B46AA
:104760000AF10104B946302801D09DB113E014F8D4
:10477000010B0127782803D0582801D045B10AE061
:104780000DB1102D07D10027102514F8010B02E000
:10479000082500E00A250026B0460EE005FB0800CB
:1047A00005FB06F1012701EB10461FFA80F8B6F56C
:1047B000803F00D3B94614F8010B294600F0D6F823
:1047C0000028EBDABBF1000F05D00FB1641E00E04A
:1047D0005446CBF80040B9F1000F06D002F008FBB8
:1047E00002210160C81EBDE8F09F48EA0640FAE7D2
:1047F0000029A8BF7047401C490008BF20F00100F5
:10480000704710B4B0FA80FC00FA0CF050EA0104D2
:1048100004BF10BC704749B1CCF1200421FA04F464
:1048200011FA0CF118BF012121430843A3EB0C013D
:10483000CB1D4FEA00614FEA102042BF002010BCA0
:10484000704700EBC35010440029A4BF10BC704750
:10485000401C490008BF20F0010010BC704710B593
:10486000141E73F1000408DA401C41F10001921893
:104870005B411A4301D120F0010010BD2DE9F04D3C
:1048800092469B4611B1B1FA81F202E0B0FA80F291
:1048900020329046FFF72CFF04460F4640EA0A00FC
:1048A00041EA0B0153465A46084313D0114653EAD6
:1048B000010019D0C8F140025046FFF728FF054615
:1048C0000E46504659464246FFF712FF084305D0B0
:1048D000012004E020463946BDE8F08D0020054364
:1048E00046EAE0762C4337430A986305E40AA0EBD6
:1048F00008000022FD0A44EA47540A3002D500208D
:104900000146E9E7010510196941DDE9084500198B
:104910006941BDE8F04DA2E7C1F30A52C1F31301AA
:1049200040F2FF3341F480119A4202DA002001463E
:10493000704740F233439A42A2F2334202DC5242C1
:10494000FFF7E5BEFFF7D4BE064C074D06E0E06872
:1049500040F0010394E8070098471034AC42F6D3C6
:10496000FFF7EAFB20CD010840CD01083A2800D22C
:10497000303820F02002412A01D3A2F137008842CA
:1049800001D34FF0FF30704770B58C1810F8015B01
:1049900015F0070301D110F8013B2A1106D110F8D8
:1049A000012B03E010F8016B01F8016B5B1EF9D1DC
:1049B0002B0705D40023521E0DD401F8013BFAE762
:1049C00010F8013BCB1A921C03E013F8015B01F8CD
:1049D000015B521EF9D5A142D8D3002070BD002939
:1049E00004D0816841F0010181607047816821F045
:1049F000010181607047000010B5154988420AD155
:104A000044150121204600F0DFFF2046BDE810409C
:104A1000002100F0D9BF0F4988420AD104150121B5
:104A2000204600F0D1FF2046BDE81040002100F0F4
:104A3000CBBF094988420AD10121CC03204600F0AE
:104A4000C3FF2046BDE81040002100F0BDBF10BDEF
:104A50000024014000280140003C014001460020A4
:104A60008968490700D501207047C06C80B2704743
:104A70000246002012680A4200D001207047014619
:104A800000208968090700D50120704710B54268E9
:104A90000E4B1A400C790B6842EA04221343436020
:104AA00082680B4B1A40D1E9024323434C7942EA16
:104AB000440213438360C26A22F47002097C491ED7
:104AC000C9B242EA0151C16210BD0000FFFEF0FF11
:104AD000FDF7F1FF70B5072609290AD9C568A1F1CC
:104AE0000A0404EB4404A640B543A3401D43C5603B
:104AF00007E0056901EB4104A640B543A3401D430F
:104B000005611F23072A09D2446B521E02EB820261
:104B100093409C4391400C43446370BD0D2A09D2DD
:104B2000046BD21F02EB820293409C4391400C43E2
:104B3000046370BDC46A0D3A02EB820293409C4349
:104B400091400C43C46270BD816841F008018160EE
:104B50007047002904D0816841F4A001816070474A
:104B6000816821F4A00181607047816841F00401EF
:104B70008160704730B587B0012148F2800000F0B5
:104B800015FF4FF4004000F0DDFE4FF48070ADF8EB
:104B9000040000248DF8074001A9164800F028FB06
:104BA000154D2846FFF728FF02948DF80C408DF82C
:104BB0000D404FF460210491059401218DF81810E7
:104BC00002A92846FFF762FF01212846FFF707FFE9
:104BD0002846FFF7B9FF2846FFF751FF0028FAD112
:104BE0002846FFF7C2FF2846FFF738FF0028FAD112
:104BF00007B030BD001C0140003C014010B5012051
:104C000000F0F0FEBDE81040002000F0EBBE000018
:104C100008B50349084400900098008808BD0000CA
:104C2000006C004008B5034A1044009000980160F1
:104C300008BD0000006C004010B50024002202E016
:104C4000835C5C40521C8A42FAD302A002F09AF8BC
:104C5000204610BD5B426363436865636B53756DAB
:104C60005D204F4B20210D0A0000000000F00F01D5
:104C7000000900EB800001EB4000C0B27047FEE786
:104C800000F068BBC10002D50249086070470249C4
:104C9000486070470404024000000240002904D02C
:104CA000016841F001010160704701684FF6FE7232
:104CB000114001607047000001684FF6FE7211401C
:104CC00001600021016041608160C1603649364A5F
:104CD0000839904204D1486840F00F00486070479E
:104CE000314A1432904204D1486840F0F0004860E4
:104CF00070472D4A2832904204D1486840F47060D1
:104D000048607047284A3C32904204D1486840F4D9
:104D1000704048607047244A5032904204D148683D
:104D200040F47020486070471F4A6432904204D1BA
:104D3000486840F47000486070471B4A78329042DF
:104D400004D1486840F0706048607047174A111FEE
:104D5000904204D1086840F00F0008607047134A81
:104D60001432904204D1086840F0F00008607047A7
:104D70000E4A2832904204D1086840F470600860FE
:104D800070470A4A3C32904204D1086840F47040AF
:104D900008607047054A50329042FAD1086840F4E2
:104DA00070200860704700000800024008040240BC
:104DB00002460020D10002D50449096801E00449F7
:104DC0000968114200D00120704700000004024031
:104DD00000000240002A03D002680A4302607047C4
:104DE00002688A430260704730B5026847F6F07384
:104DF0009A430C6A8B682343D1E904452C4323432F
:104E00008C692343CC6923434C6A23438C6A234334
:104E100013430360CA6842600A6882604968C160DF
:104E200030BD416070477047002240F27E4306E08B
:104E30000021491C89B29942FBD3521C92B2824292
:104E4000F6D37047002101E0491C89B28142FBD3AF
:104E50007047010201EB102080B27047010600F498
:104E60007F4201EB022100F47F0201EB122101EBF2
:104E7000106070472DE9F04781460F461646984668
:104E8000002E04D0D8F80010B1EB470F07D2164916
:104E900016A001F077FF4FF0FF30BDE8F0873046F5
:104EA000FFF7B3F9002400257D2108E019F805007B
:104EB0007E280BD07D2810D02A19B0546D1CBD421D
:104EC000F4D33819C8F800000020E6E72819315457
:104ED000304402224270641CF0E7281931543044F7
:104EE00001224270641CE9E7F1CA01085B25735D89
:104EF000204641494C4544200D0A00000149C86044
:104F0000704700000020024070B505464FF430267F
:104F1000304600F059F8042811D1094C206940F0BE
:104F2000020020616561206940F040002061304648
:104F300000F04AF8216941F6FD721140216170BD0F
:104F40000020024004200849CA68D20701D001208D
:104F50007047CA68520701D502207047C968C90660
:104F6000FBD5032070470000002002400248016981
:104F700041F080010161704700200240F0B5064613
:104F80000D464FF40057384600F01EF804280CD1A7
:104F9000064C206940F0010020613580384600F061
:104FA00013F82169BA1E11402161F0BD00200240B2
:104FB0000348024941600349416070472301674546
:104FC00000200240AB89EFCD00B50346FFF7BAFFE2
:104FD00002E0FFF7B7FF5B1E012801D1002BF8D1DB
:104FE000002B00D1052000BD70B506460D465408C3
:104FF000FFF7DEFF3520FFF781FF3046FFF784FF24
:1050000008E028786978AD1C40EA01213046FFF7B6
:10501000B5FFB61C641EA4B2F3D2BDE87040FFF722
:10502000A5BF000070B52B4C022544F80C5C322162
:10503000A4F10800FFF7E9F827A1A4F1080091E81E
:105040004C00C96880E84C00C16041F6BB51E16288
:10505000052121630A2161633C21A1632921A187E4
:105060006621E18784F84C50012121650021016609
:10507000416681661CA21268026680F864104A1EAE
:105080006265C166016741678164C164016500F1C1
:10509000700529616961142215A16C30FFF79CF835
:1050A00019A003C8C5E90401092219A104F14000AF
:1050B000FFF792F89822A4F10C011848FFF794FF2B
:1050C00017A001F05FFE1DA0216D01F05BFE002026
:1050D00070BD0000542100203132342E3232322E85
:1050E0003138332E3136380076312E300000000052
:1050F00030303030303030303130303231313630A5
:10510000323039320000000031363032303932006E
:10511000D4A541303230393200000000004003088D
:10512000464C4153485F5772697465205355434359
:105130004553532121212121210D0A00696E6974F3
:10514000466163746F7279506172616D65746572E6
:1051500073203D3D202564200D0A00002DE9F0411B
:1051600004460121B42000F021FC032525801026EF
:10517000E670A570DFF868802146404600F038F8F8
:10518000202020804827E7702146404600F030F874
:1051900022202080E670A5702146124800F028F8F1
:1051A00080202080E670A5700F4E2146304600F02A
:1051B0001FF8B01520800020E070A5702146304611
:1051C00000F016F80121202000F0F0FB01202080E3
:1051D000E7702146BDE8F041044800F009B800003E
:1051E0000008014000100140001C01400014014073
:1051F0002DE9F0410022CC7804F00F03E40601D53C
:105200008C7823430C784FF00F0714F0FF0F4FF00A
:10521000010C1CD005680CFA02F40E882640A64248
:1052200011D1960007FA06F825EA080503FA06F8F0
:1052300048EA0505CE78282E02D0482E02D002E09A
:10524000446100E00461521C082AE4D305600A8826
:10525000FF2A1ED94568002202F108060CFA06F45E
:105260000E882640A64210D1960007FA06F825EAD5
:10527000080503FA06F848EA0505CE78282E00D17D
:105280004461CE78482E00D10461521C082AE3D331
:105290004560BDE8F0810246002092680A4200D0D5
:1052A00001207047416170470161704710B500F0FF
:1052B00071F8BDE8104000F001B8000010B58CB0E6
:1052C0000121084600F048FB15480190154802905E
:1052D000002003904FF40061049105908021069115
:1052E0000790089020210991C9010A910B900E4C5A
:1052F00001A92046FFF778FD00F018F801220621E9
:105300002046FFF767FD01212046FFF7C7FC044850
:1053100001224021001F01F0CDFA0CB010BD0000A9
:1053200004480040E40100203000024008B54FF47A
:10533000C06000F0F5FA0D208DF8000001208DF816
:10534000010000218DF802108DF80300684600F07E
:10535000B5FA08BD70B54FF480663046FFF728FDFA
:105360000B4D012428B16C703046BDE87040FFF74A
:1053700089BC4FF400763046FFF71AFD002805D0AF
:105380002C703046BDE87040FFF77CBC70BD00005B
:105390002C00002010B586B00121082000F006FB8B
:1053A0000121880400F0E6FA4FF48060ADF81400A3
:1053B00018208DF8170003208DF81600144C05A94D
:1053C0002046FFF715FFE114ADF8141004218DF805
:1053D000171005A92046FFF70BFF4FF4E1300190AD
:1053E0000020ADF80800ADF80A00ADF80C00ADF8EB
:1053F00010000C20ADF80E00064C01A9204601F06B
:10540000F7FA0121204601F049FA06B010BD00006C
:10541000000C01400048004010B50B4C014607232A
:1054200001222046FFF756FB01212046FFF791FBA2
:1054300002212046FFF71CFB0028F9D02046BDE8DA
:105440001040FFF712BB0000003C01402DE9F04185
:1054500007460E460025002405E03846FFF7DCFF2E
:105460000544641CE4B2B442F7D3B5FBF6F080B255
:10547000BDE8F081FEE70A21B0FBF1F201FB120268
:10548000B0FBF1F002EB0010C0B2704710B5322152
:105490001048FEF7BAFE10A10E4891E81C00103823
:1054A000C968C0E905340261C161A0F5207041F608
:1054B000BB51C0F8C4120521C0F8C81200F5237111
:1054C00098220948FFF790FD08A001F05BFC00203E
:1054D00010BD00004C2100203132342E3232322EE9
:1054E0003138332E31363800004003084950464CDD
:1054F0004153485F57726974652053554343455380
:10550000532121212121210D0A000000AFF3008049
:1055100002494AF6AA2008607047000000300040A7
:1055200003E010F8013B01F8013B521E92B2F8D2A1
:105530007047810701D0002070476421B0FBF1F271
:1055400001FB120109B1012070474FF4C871B0FB93
:10555000F1F201FB120008B10020704701207047F2
:1055600008B50121402000F021FA3C20ADF80000F0
:1055700048208DF8030069460148FFF739FE08BD51
:105580000018014070B50125324C002800D025706C
:105590002078314E98B104213046FFF77CFEA8B147
:1055A00008213046FFF777FE80B110213046FFF723
:1055B00072FE58B120213046FFF76DFE30B1042154
:1055C0003046FFF768FE01282FD041E0642002F04A
:1055D00005FB0020207004213046FFF75CFE28B157
:1055E00008213046FFF757FE10B106E0012070BDDC
:1055F00010213046FFF74FFE78B110213046FFF7FB
:105600004AFE60B108213046FFF745FE48B120212F
:105610003046FFF740FE30B11AE0052070BD032090
:1056200070BD022070BD042070BD08213046FFF718
:1056300032FE01280CD110213046FFF72CFE012844
:1056400006D120213046FFF726FE012800D1257023
:10565000002070BD34000020001801402DE9F04703
:1056600081460E4617469846B025284600F052FD62
:105670000021102000F064FD0024484600F086FD63
:10568000304600F083FD384600F080FD404600F0D3
:105690007DFD641CE4B2212CEFD36D1CEDB2B82D5E
:1056A000E3D3BDE8F0870000F8B50121102000F039
:1056B0007DF90A20ADF8000010258DF80350032471
:1056C0008DF80240304E69463046FFF791FD0A21C1
:1056D0003046FFF7E9FD0121802000F067F90E2038
:1056E000ADF800008DF803508DF80240274C694654
:1056F0002046FFF77DFD0E212046FFF7D5FD00F087
:1057000047F81420FFF790FBA02000F003FD1420C1
:10571000FFF78AFBC82000F0FDFC1420FFF784FB94
:10572000A32000F0F7FC272000F0F4FC17218120D3
:1057300000F006FD1420FFF777FB2C2000F0EAFCB8
:105740001420FFF771FB2E2000F0E4FC1420FFF77B
:105750006BFB2F2000F0DEFC1420FFF765FB6020C0
:1057600000F0D8FC0021102000F0EAFCB02000F08E
:10577000D1FCAF2000F0CEFC00231A461946184693
:10578000FFF76CFFF8BD000000100140001C014055
:1057900010B50E4C08212046FFF784FD0421204659
:1057A000FFF782FD0A20FFF73FFB04212046FFF7A9
:1057B00079FD6420FFF738FB04212046FFF774FDD4
:1057C000BDE810403220FFF72FBB0000001C014055
:1057D00070B50120FFF7D6FE234C2070002500B1E4
:1057E0006580608842F21071204E884205D3002106
:1057F000304600F07EFE6580A58005F0D5FA207861
:1058000005282FD10121304600F073FEA18818A091
:1058100001F0B8FAA18840F6B830814222D31AA02C
:1058200001F0B0FA1C4991F8A403C00713D001F2AB
:10583000A531087840F001000870C87C40F00100F4
:10584000C874172215491648FFF7CEFB15A001F0C2
:1058500099FA05F021FBA5803046BDE87040002193
:1058600000F047BE70BD000048000020000C004062
:1058700075705F646F776E5F7072657373656420B7
:105880003D2025640D0A0000534F53212121212181
:1058900021212121200D0A00BC1E002060220020B1
:1058A00000500308736F7357616B655570000000FB
:1058B000FEE770474FF4A06000F032B870B50F23D8
:1058C000C27801260178002A1ED0144A126802F418
:1058D000E062C2F5E062120AC2F10404D3404578E6
:1058E000A54082781A402A43120101F1E02181F893
:1058F0000024007800F01F018E404009800000F174
:10590000E020C0F8006170BD01F01F00864048092A
:10591000800000F1E020C0F8806170BD0CED00E077
:105920000249084302490860704700000000FA0578
:105930000CED00E0014908627047000000000E42D3
:1059400070470000034A516821F44041014351600F
:105950007047000000100240054A002903D0516939
:1059600001435161704751698143516170470000A3
:1059700000100240054A002903D0D1690143D161DA
:105980007047D1698143D161704700000010024027
:10599000054A002903D0116901431161704711695B
:1059A000814311617047000000100240054A002940
:1059B00003D091690143916170479169814391617D
:1059C0007047000000100240054A002903D0D1684A
:1059D0000143D1607047D1688143D16070470000B6
:1059E0000010024001490860704700004004424234
:1059F00010B5264A516801F00C01254B002927D02B
:105A0000042927D0082927D00360516801F0F0014C
:105A10000909204B5C5C0168E1404160546804F472
:105A2000E064240A1C5D21FA04F48460546804F4E0
:105A30006054E40A1B5DD940C160526802F44042E0
:105A4000920B144B1B1F9A5CB1FBF2F1016110BD6C
:105A50000360DAE70360D8E7516801F47011536816
:105A600003F48033022404EB914133B153689B0368
:105A700007D5094B59430160C7E7074B59430160FC
:105A8000C3E7034B59430160BFE700000010024029
:105A900000127A001800002000093D000346002093
:105AA0005909094A01290AD002290AD0516A03F08A
:105AB0001F02012393400B4200D001207047116860
:105AC000F5E7116AF3E700000010024008490022E0
:105AD0000A7001F82029012805D0042802D10520E8
:105AE00081F820007047012081F8200070470000F5
:105AF0002010024001490860704700003C04424207
:105B000002490A6A02430A6270470000001002401C
:105B100002490A8882430A80704700000428004036
:105B20000248018841F010010180704704280040BC
:105B30000248018821F010010180704704280040CC
:105B40002DE9F04700F06AF80646304FB6FBF7F350
:105B50002F48304D0188994231D0038040F2B27411
:105B60004FF4B7784FF4B6790FE02046FFF7E1FC29
:105B700038B1434502D3A3F5B77304E0641CA4B263
:105B800005E0A3F26D13641CA4B24B45EDD8AC80C4
:105B90000024DFF884800CE0A888FFF7CAFC08B175
:105BA000012C2FD018F80400984204D81B1A641C4A
:105BB000A4B21C2BF0D2641CAC715B1CEB71B6FB65
:105BC000F7F007FB10604FF46161B0FBF1F22A704F
:105BD000B0FBF1F201FB12033C22B3FBF2F36B705A
:105BE000B0FBF1F301FB1300B0FBF2F102FB11007B
:105BF000A870EA79A979A88800F02AF8287200200C
:105C0000BDE8F0871D2BD6D31D3BD0E780510100A6
:105C100040000020B01E002088C80108034800880A
:105C20000249091F098840EA014070471C280040CA
:105C300006490988C2B21140044A121F1288024262
:105C400002D009B1012070470020704704280040AD
:105C500030B56423B0FBF3F4E4B2B0FBF3F503FB1F
:105C60001500132C01D96430C0B200EB9003072457
:105C7000B3FBF4F504FB1533084D1A440D4415F835
:105C8000015C2A4492B2800703D1032901D2521E3B
:105C900092B2B2FBF4F004FB102030BD7CC80108C6
:105CA0000EB50120FFF7C4FF08B1FFF749FF02203E
:105CB000FFF7BEFF88B10220FFF72AFFFFF740FF82
:105CC0000948817842780378CDE900320291C3799E
:105CD0008279818805A001F055F80520FFF718FFAB
:105CE000BDE80E4000F01CB9B01E0020416C61728E
:105CF0006D2054696D653A25642D25642D25642039
:105D000025643A25643A25640A000000054A002902
:105D100003D011880143118070471188814311809D
:105D200070470000002800402DE9FC5F8046DDE957
:105D30000C67894692469B46002401214FF0C050D3
:105D4000FFF718FE0120FFF7F5FD0420FEF760FFC6
:105D500045F25005A8423DD0FEF750FF0120FFF765
:105D6000B5FE04E0641CE4B20A2001F037FF4120D4
:105D7000FFF794FE08B9FA2CF4D3FA2C02D30120D1
:105D8000BDE8FC9F4FF48070FFF7BAFE0120FFF7DB
:105D9000B1FE00F0C5F800F0CBF801210846FFF78E
:105DA000B5FF00F0BDF8FFF7BBFE47F6FF7000F04F
:105DB000A7F800F0B5F85B46524649464046CDE9A3
:105DC000006700F025F8FFF7B3FE29460420FEF730
:105DD00029FF07E000F0ACF801210846FFF796FF25
:105DE00000F09EF800F004F8FFF7AAFE0020C7E7D5
:105DF00008B503208DF8000000208DF801008DF813
:105E0000020001208DF803006846FFF757FD08BD2A
:105E10002DE9F05F0646DDF828A08946904600246B
:105E2000A6F2B270822802D30120BDE8F09F40F2B2
:105E3000B275274FDFF89CB008E02846FFF779FBE2
:105E400008B13C4400E05C446D1CADB2B542F4D3F3
:105E5000A9F1010909F0FF070025DFF87C90DFF8C0
:105E60007CB00FE019F8050040F2A321484304EB91
:105E7000C0143046FFF75DFB10B1012D00D15C442A
:105E80006D1CADB2BD42EDD3A8F1010840F2A320D4
:105E900008FB00F804EBC810C3EB4311C1EB03216E
:105EA00000EB0110CAEB0A1100EB81000B994418BA
:105EB00001214FF0C050FFF75DFD0120FFF73AFDD3
:105EC000204600F00DF800F02BF80020ADE70000B0
:105ED0000085E2018033E10188C80108805101009A
:105EE00000B50246FFF71CFE0449100C0880081D8F
:105EF00002805DF804EBFFF71BBE0000182800408D
:105F000000B50246FFF70CFE0449C2F303400880C7
:105F1000081D02805DF804EBFFF70ABE0828004068
:105F2000024801888906FCD570470000042800401B
:105F30000448018821F00801018001880907FCD587
:105F4000704700000428004010B524221049114871
:105F5000FFF7E6FA0E4C10A00834216800F012FF9B
:105F600013A0616800F00EFF218917A000F00AFF5E
:105F700061891BA000F006FFA1891EA000F002FFAE
:105F800004F10E01BDE8104020A000F0FBBE0000AF
:105F90002020002000480308706172612D3E6C6172
:105FA000746974756465203D2025640D0A00000045
:105FB000706172612D3E6C6F6E67697475646520E7
:105FC0003D2025640D0A0000706172612D3E616CF8
:105FD000746974756465203D2025640D0A00000015
:105FE000706172612D3E7370656564203D2025648B
:105FF0000D0A0000706172612D3E62656172696E0A
:1060000067203D2025640D0A000000007061726168
:106010002D3E74696D65203D2025730D0A0000003A
:10602000172202490248FFF77BBA000060220020D5
:10603000005003082DE9F047064688461746994662
:1060400018A000F09FFE0025002419E0315D7D2995
:1060500003D130194078022802D07D2906D009E00A
:106060007E20611B7854641C6D1C08E03019407858
:10607000012811D0601B39540FA000F083FE641C6E
:106080004445E3D30EA000F07DFEA8EB0500C9F85F
:1060900000000020BDE8F0877D20611B7854641C5F
:1060A0006D1CECE75B5265766572736545736361E1
:1060B00070655F435D3A00002530327820000000B3
:1060C0000D0A00007047000070B505460024104E10
:1060D000280604D502213046FFF7E6F803E0022146
:1060E0003046FFF7DFF808213046FFF7DDF80220E1
:1060F000FEF7A8FE08213046FFF7D4F80220FEF78D
:10610000A1FE6806050E641CE4B2082CE0D370BD45
:106110000010014070B50546084C02212046FFF7EB
:10612000C1F808212046FFF7BDF82846FFF7CCFF4D
:106130002046BDE870400821FFF7B6B8001C0140BA
:1061400070B506460D46104C02212046FFF7AAF80E
:1061500008212046FFF7A6F83046FFF7B5FF0821D3
:106160002046FFF7A1F802212046FFF79BF80821FF
:106170002046FFF797F82846FFF7A6FF2046BDE820
:1061800070400821FFF790B8001C014070B505462B
:10619000084C02212046FFF787F808212046FFF728
:1061A00081F82846FFF790FF2046BDE8704008219F
:1061B000FFF77AB8001C0140AFF300800CB5002255
:1061C000019200922748016841F4803101604FF448
:1061D000A063016801F4003100910199491C01910B
:1061E000009911B901999942F3D10168890302D547
:1061F0000121009100E000920099012930D11A4953
:106200000A6842F010020A600A6822F003020A607B
:106210000A6842F002020A604168416041684160D8
:10622000416841F480614160416821F47C11416022
:10623000416841F4E8114160016841F080710160FA
:1062400001688901FCD5416821F003014160416882
:1062500041F0020141604168C1F381010229FAD194
:106260000CBD000000100240002002402DE9F84360
:1062700006460D4614461F46DDF820801AE00090C1
:10628000434622462946304601F0C2FCB8F1100FC1
:1062900017D0B8F1180F22D0A41DE4B20F2C03D9E7
:1062A0000F3CE4B26D1CEDB2182D02D91025761CFE
:1062B000F6B27F1C3878A0F120015E29DFD9BDE855
:1062C000F8830834E4B20F2C03D90F3CE4B26D1C00
:1062D000EDB2182DEDD91025761CF6B2E9E70C3495
:1062E000E4B20F2C03D90F3CE4B26D1CEDB2182DB3
:1062F000DFD91025761CF6B2DBE74FF0E021042849
:1063000004D0086920F0040008617047086940F073
:10631000040008617047000010B50F48016841F0A3
:106320000101016041680D4A1140416001680C4A59
:1063300011400160016821F480210160416821F46D
:10634000FE0141604FF41F018160FFF735FF0649F0
:106350000448086010BD0000001002400000FFF873
:10636000FFFFF6FE0040010808ED00E010B5094C03
:106370000121204600F0C9F8012809D1064801682A
:10638000491C01602046BDE81040012100F0AEB874
:1063900010BD0000000400402800002010B5174C7C
:1063A0000121204600F0B1F8002825D00121204627
:1063B00000F09CF8124B134A1878A0B11178491CD0
:1063C000C9B21170814217D1002010701870508826
:1063D00040F400405080002000F042F8BDE810403A
:1063E000632000F055B8508840F400405080BDE86C
:1063F0001040002000F034B810BD0000000800403C
:106400003E000020360000207FB504460D460121E5
:106410000420FFF7AFFAADF80440ADF800500020BB
:10642000ADF80600ADF802000C4C6946204600F0BD
:1064300085F801221146204600F073F81E208DF8E1
:106440000C0001208DF80D0002218DF80E108DF842
:106450000F0003A8FFF732FA7FBD000000080040DC
:1064600010B50A4A00280AD014460021204600F040
:1064700062F82046BDE81040012100F03AB8BDE8BE
:1064800010400021104600F034B800000008004021
:1064900010B504460021064800F04DF804492C319F
:1064A000088800220A800A8822430A8010BD000062
:1064B0000008004010B50B4C0121204600F025F8E3
:1064C00000280DD00121204600F010F80648418830
:1064D000491C41800178052902D18188491C8180AD
:1064E00010BD0000000C004048000020C94301829C
:1064F0007047002904D0018841F0010101807047F4
:10650000018821F001010180704702460020138AB2
:106510000B4092890A40002B02D0002A00D00120B3
:106520007047002A03D082890A438281704782899A
:106530008A438281704781847047000030B50288A9
:106540001B4C1C4DA0420DD0A8420BD0B0F1804F87
:1065500008D0194B984205D0184B984202D0184BDE
:10656000984203D122F070034A881A43154B98428F
:1065700006D0154B984203D022F44073CA881A43C0
:1065800002808A8882850A880285A0420AD0A842B1
:1065900008D00E4A904205D00D4A904202D00D4AD2
:1065A000904201D1097A01860121818230BD00002B
:1065B000002C01400034014000040040000800406D
:1065C000000C00400010004000140040004001405A
:1065D00000440140004801407FB505460E460121B8
:1065E0000220FFF7C7F90024ADF80A40ADF80640D5
:1065F000ADF80850ADF804600E4D01A92846FFF72C
:106600009DFF012211462846FFF78BFF1D218DF8C3
:10661000001001218DF803108DF8014003218DF841
:1066200002106846FFF74AF901212846FFF761FF8B
:106630007FBD0000000400407FB505460E460121E5
:106640000820FFF797F90024ADF80A40ADF806409E
:10665000ADF80850ADF804600C4D01A92846FFF7CD
:106660006DFF012211462846FFF75BFF32208DF8AF
:10667000000001208DF803008DF8014003208DF803
:1066800002006846FFF71AF97FBD0000000C0040C9
:1066900070B58CB006460C46154601210846FFF73A
:1066A0005BF93046FEF708FB019402951020039039
:1066B000002104910591802006900791089109918D
:1066C00040010A900B9101A93046FEF78DFB0CB0FA
:1066D00070BD70B504460D4600212046FEF7DEFA77
:1066E00029462046FEF79DFB2046BDE8704001216B
:1066F000FEF7D4BA70B5164C40F22551204600F092
:106700003CF900280ED0204600F0D0F9C1B2114A61
:106710001088030406D444044FF0000307D50A2967
:1067200001D0138070BD40F40040108070BD0D2971
:106730000AD0094DC0F30D042955401C80B21080C9
:10674000C728F3D9138070BD40F48040108070BD1D
:10675000003801402E000020E409002070B5124CE2
:1067600040F22551204600F008F9002816D02046B6
:1067700000F09CF9C5B20D4C6088B0F5806F0ED268
:1067800000210B48FFF7D7FE608810B90120FFF702
:1067900067FE6088411C618006490D5470BD40F45D
:1067A0000040608070BD00000044004036000020C2
:1067B00000080040B00E00202DE9F04186B00446EC
:1067C00001210420FFF7F2F801214804FFF7D2F875
:1067D0002D4F384600F078F80426ADF810600325F8
:1067E0008DF8125018208DF81300DFF8A08004A94E
:1067F0004046FEF7FDFC0820ADF810008DF8136050
:1068000004A94046FEF7F4FC00940024ADF80440CF
:10681000ADF80640ADF80840ADF80C400C20ADF8DE
:106820000A006946384600F0E3F801228021384624
:1068300000F040F8164A391D1648FFF729FF0121DC
:10684000384600F02BF8012240F22551384600F07E
:10685000B4F826208DF8140002208DF815008DF86C
:10686000165001208DF8170005A8FFF727F841F60C
:106870001F416320FFF7C8FD074844800020FFF751
:10688000EFFD06B0BDE8F081004400400008014083
:10689000B00A00208000024036000020002904D009
:1068A000818941F4005181817047818921F400512F
:1068B00081817047002A03D0828A0A43828270470E
:1068C000828A8A438282704710B5234988420AD15E
:1068D00001218C032046FFF777F82046BDE81040E1
:1068E0000021FFF771B81D4988420AD101214C04EB
:1068F0002046FFF74DF82046BDE810400021FFF785
:1069000047B8174988420AD101218C042046FFF775
:106910003FF82046BDE810400021FFF739B8114983
:1069200088420AD10121CC042046FFF731F82046E5
:10693000BDE810400021FFF72BB80B4988420AD16F
:1069400001210C052046FFF723F82046BDE8104042
:106950000021FFF71DB810BD003801400044004081
:1069600000480040004C004000500040024600201B
:1069700012880A4200D00120704770B5002440F60A
:106980006A12C1F3421301F01F05012606FA05F24F
:10699000012B0CD0022B0DD0838A1340090A8E40A4
:1069A000008830400BB100B10124204670BD8389BE
:1069B0001340F3E7038A1340F0E710B540F66A137B
:1069C000C1F3421301F01F040121A140012B07D0A4
:1069D000022B07D014303AB102680A43026010BD9E
:1069E0000C30F8E71030F6E702688A43026010BD09
:1069F00030B585B004460D46208A4CF6FF7108403C
:106A0000E98801432182A0894EF6F3110840A98844
:106A10002A8911436A8902431143A181A08A4FF652
:106A2000FF410840A9890143A1826846FEF7E0FFC3
:106A30001D48844201D1039800E00298A18909040D
:106A400008D500EBC00101EB001029684900B0FB3C
:106A5000F1F007E000EBC00101EB001029688900AC
:106A6000B0FBF1F06422B0FBF2F109010B096FF009
:106A700018056B4300EB8300A3891D044FF032031C
:106A800007D503EBC000B0FBF2F000F007000843AD
:106A900006E003EB0010B0FBF2F000F00F0008433B
:106AA000208105B030BD0000003801408088C0F36F
:106AB00008007047C1F30801818070472DE9F0415B
:106AC00021A12348FDF7ACFB38B122A1254800F0F5
:106AD00069F9244924A004F081FA25A11C48FDF796
:106AE0009FFB70B34FF4806631462348FDF78DFB62
:106AF0001749B21E891C2048FDF76EFB1CA11448E3
:106B000004F09AF91DA11C4804F096F904461C48AB
:106B100000214160184DB5F807108180001DFDF778
:106B2000D0FB0746314605F58060FDF76EFB29195D
:106B3000891C3A4605F58060FDF74EFB3846BDE8F6
:106B4000F081FFE70020FAE72B51495552433A0004
:106B5000B00E002041542B514952443D302C313568
:106B600030300000B012002025730D0A0000000034
:106B70002B514952443A0000B01600200D0A000083
:106B80003600002070B504460D46164632460EA16A
:106B9000114800F007F9104910A004F01FFA0A206C
:106BA00001F01CF832462946204600F028F80A2059
:106BB00001F014F81A21204600F015F8BDE87040E5
:106BC0000A2001F00BB8000041542B514953454EA7
:106BD000443D302C25640000B012002025730D0ABE
:106BE00000000000FEE710B504462046FFF762FFF4
:106BF00080212046FFF7BAFE0028F9D010BD2DE90C
:106C0000F04107460D46164600243846295DFFF739
:106C1000EAFF641CB442F8D3BDE8F0811948027859
:106C2000194991F8A8339A4206D1407891F8A913EE
:106C3000884225D101207047027891F8AC339A42FE
:106C400006D1407891F8AD13884219D101207047E0
:106C5000027891F8B0339A4206D1407891F8B11396
:106C600088420DD101207047027891F8B4339A42DE
:106C700006D1407891F8B513884201D101207047C0
:106C800000207047B01E0020BC1E002010B504F08C
:106C90008BF81F4908611F4991F8A613CA0701D054
:106CA000012819D08A0701D5022819D04A0701D531
:106CB000032819D00A0701D5042819D0CA0601D51E
:106CC000052819D08A0601D5062819D0490601D50C
:106CD000072819D0002010BDBDE81040FFF79EBF67
:106CE000BDE81040FFF79ABFBDE81040FFF796BF20
:106CF000BDE81040FFF792BFBDE81040FFF78EBF20
:106D0000BDE81040FFF78ABFBDE81040FFF786BF1F
:106D100048000020BC1E002010B5012901D0022926
:106D200001D10C31401E4B1C03EB4303052493FBA4
:106D3000F4F302EB41011944C217014400EB9272D3
:106D400001EBA201642290FBF2F2891A4FF4C8729F
:106D500090FBF2F00844401C072190FBF1F201FB8C
:106D6000120010BD0FB4054B10B503A9044A0298D8
:106D700000F016FB10BC5DF814FB0000F98101085F
:106D8000300000200FB4054B10B503A9044A029847
:106D900000F004F910BC5DF814FB0000F981010853
:106DA000300000200FB4084B10B504A902AA0398C4
:106DB00000F0F4F8044602A9002000F09DFE2046F1
:106DC00010BC5DF814FB0000F97A010837B51446D1
:106DD0000846064B6A46214600F0E2FA0446694638
:106DE000002000F08EFE20463EBD0000037B01081F
:106DF00000487047E001002002E008C8121F08C1E7
:106E0000002AFAD170477047002001E001C1121F2B
:106E1000002AFBD1704700002DE9FF5F82B00021FE
:106E2000DDE90430020DDDF840B0034318D044F62C
:106E30001050A2F2FF3242431514119801281FD0BE
:106E4000A5EB0B00401C5FEA000A4FF000064E4F16
:106E5000DFF83891B046504615D5CAF1000413E06A
:106E6000119801244AA3012801D16FEA0B0102986D
:106E7000119AC0E90031C0E9024206B0BDE8F09FB6
:106E8000CBF10000DFE704460021404A491842EBFD
:106E90000450CDE9001012E0E00707D032463B462F
:106EA00040464946FDF7C1FA8046894632463B4690
:106EB00010461946FDF7B9FA06460F466410002C35
:106EC000EAD1DDE90401DDE90023BAF1000F06DAB9
:106ED000FDF7ABFA42464B46FDF7A7FA05E0FDF792
:106EE00016FB42464B46FDF712FB04460E460022B7
:106EF000284BFDF7B3FB03D84FF0FF30014607E006
:106F00000022254B20463146FDF7E8F9FDF704FD48
:106F1000102409E0002C0ADB0A220023FDF726F9E1
:106F2000039B30321A55641E50EA0102F2D1641CF0
:106F3000039AC4F111031444119A012A03D00122C7
:106F400008430DD10AE0084304D000204FF0110B94
:106F5000119072E7A3EB0B056D1E0DE05B4504DDA0
:106F60004FF0000205F1010504E003DA4FF00002E2
:106F7000A5F10105002AECD002981199C0E902316F
:106F8000C0E9004579E70000000014400000F03F30
:106F9000300000000000F0430000E03F2DE9FF4F0B
:106FA0008DB00F460546002606E025280BD0DDE90A
:106FB0000F1290476D1C761C28780028F5D111B06F
:106FC0003046BDE8F08F0024A246A1460122E949DF
:106FD00000E0044315F8013F203B02FA03F00842A9
:106FE000F7D128782A2810D06FF02F022878A0F146
:106FF0003001092914D80AEB8A0102EB410144F05F
:10700000020400EB010A6D1CF0E701CF5FEA000A01
:1070100003D544F40054CAF1000A44F002046D1C84
:1070200028782E2817D115F8010F44F004042A28D7
:107030000ED06FF02F022878A0F1300109290AD86C
:1070400009EB890102EB410100EB01096D1CF2E73C
:1070500057F8049B6D1C28786C280FD006DC4C2850
:1070600017D068280DD06A2814D104E0742810D0F5
:107070007A280FD10DE044F400140AE044F480149F
:1070800001E044F440146978814202D104F580148F
:107090006D1C6D1C28786E281ED00CDC632830D047
:1070A00004DC00288BD0582811D19FE0642867D0D9
:1070B00069280CD164E073282DD004DC6F2872D0CD
:1070C000702804D194E075286ED078286DD0DDE961
:1070D0000F129047761C4BE1C4F30250022806D0F1
:1070E000032809D0042801CF09D0066040E101CF70
:1070F000F117C0E900613BE101CF068038E106707D
:1071000036E117F8040B8DF8000000208DF801001F
:10711000EB46012003E057F804BB4FF0FF30610756
:107120004FF0000102D40DE008F101018846494505
:107130000FDA8045F8DB1BF808100029F4D108E0CD
:1071400008F1010188468142FADB1BF8081000298A
:10715000F6D1DDE90F23AAEB08008146214600F0B5
:107160009DFC304400EB080604E0DDE90F121BF83B
:10717000010B9047B8F10108F7D221464846F2E0EA
:107180000A21C4F302524FF0000B0891022A04D0E6
:1071900001CFC117032A09D00AE0FF1D27F0070716
:1071A000F7E8020108E02CE01EE01FE000B2C11782
:1071B000042A01D140B2C117021E71F1000206DAA1
:1071C0000023D0EB030063EB01012D2202E0220536
:1071D00004D52B228DF82420012203E0E20701D000
:1071E0002022F7E7904653E00A210BE0102109E046
:1071F00010214FF0000B44F004044FF008090891EF
:1072000003E008214FF0000B0891C4F30252022A58
:1072100004D001CF0021032A06D006E0FF1D27F08D
:107220000707F7E8020103E080B2042A00D1C0B2E8
:107230004FF0000822072BD52A78702A07D0DDF8F6
:1072400020C08CF0100C5CEA0B0C05D00EE0402244
:107250008DF82420012208E050EA010306D03023F3
:107260008DF824308DF8252002229046089B83F06B
:10727000080353EA0B030BD150EA010201D1620764
:1072800006D530228DF824204FF00108A9F101091C
:107290002A78582A04D038A20B9208AA0A920BE046
:1072A0003AA2F9E75B46089AFCF760FF0B9B9B5CF0
:1072B0000A9A521E0A92137050EA0102F2D10A98F9
:1072C000ADEB000000F1200B600702D524F4803400
:1072D00001E04FF00109D94502DDA9EB0B0000E008
:1072E000002000EB0B0141440890AAEB010AE003E7
:1072F00006D4DDE90F232146504600F0CFFB0644BB
:107300004FF0000908E009A911F80900DDE90F12A2
:10731000904709F10109761CC145F4DBE0030CD567
:10732000DDE90F232146504600F0B8FB064404E097
:10733000DDE90F1230209047761C0899481E08900E
:107340000029F5DC08E00A980A990078491C0A919E
:10735000DDE90F129047761CBBF10001ABF1010B88
:10736000F1DC21465046DDE90F2300F073FB0644B3
:107370006D1C21E6092801003031323334353637AF
:107380003839616263646566000000003031323371
:107390003435363738394142434445460000000011
:1073A0002DE9FF4F95B09A46884606460025EEE146
:1073B000252877D100242746F94A0121039400E0CB
:1073C000044316F8013F203B01FA03F01042F7D1C5
:1073D00030782A2811D06FF02F033078A0F13002D6
:1073E000092A16D8039A44F0020402EB820203EB46
:1073F00042021044761C0390EFE758F8042B0392E6
:10740000002A03DA504244F40054039044F002048A
:10741000761C30782E2816D116F8010F44F004049B
:107420002A280DD06FF02F023078A0F13003092BFD
:1074300009D807EB870302EB4303C718761CF3E771
:1074400058F8047B761C30786C280FD006DC4C286A
:1074500017D068280DD06A2814D104E0742810D001
:107460007A280FD10DE044F400140AE044F48014AB
:1074700001E044F440147278824202D104F5801491
:10748000761C761C307866280BD013DC582877D011
:1074900009DC002875D04528F6D04628F4D04728C6
:1074A0001AD193E118E0632835D0642879D0652893
:1074B00012D18BE1702873D008DC6728F1D06928DD
:1074C0006FD06E280DD06F2806D1ACE073282CD079
:1074D000752874D0782853D05246179990476D1C60
:1074E00054E1C4F30250022809D003280DD0D8F883
:1074F000001004280DD00D6008F1040846E1D8F80A
:107500000010EA17C1E90052F6E7D8F800100D8024
:10751000F2E70D70F0E718F8041B8DF8001000205A
:107520008DF80100EB46012003E058F804BB4FF052
:10753000FF3061074FF0000102D40DE009F10101B5
:107540008946B9420FDA8145F8DB1BF8091000299A
:10755000F4D108E009F1010189468142FADB1BF808
:1075600009100029F6D103985346A0EB09072146DC
:107570003846179A00F0A9FA284400EB090507E0FD
:1075800044E008E10DE01BF8010B524617999047C3
:10759000B9F10109F7D2534621463846179AF2E06D
:1075A00039E00A21C4F302524FF0000B0091022A85
:1075B00006D058F8040BC117032A09D00AE023E0CB
:1075C00008F1070020F00702F2E80201904605E00A
:1075D00000B2C117042A01D140B2C117002906DA4E
:1075E0000A460021404261EB02012D2202E0220501
:1075F00004D52B228DF80420012203E0E20701D0FC
:107600002022F7E7914657E00A2100E010214FF0D1
:10761000000B00910BE010214FF0000B44F004042C
:107620000827009103E008204FF0000B0090C4F3FE
:107630000252022A05D058F8040B0021032A08D070
:1076400008E008F1070020F00702F2E80201904686
:1076500003E080B2042A00D1C0B24FF00009220733
:107660002AD53278702A07D0DDF800C08CF0100CD3
:107670005CEA0B0C05D00EE040228DF804200122BC
:1076800008E050EA010306D030238DF804308DF86D
:10769000052002229146009B83F0080353EA0B0366
:1076A0000AD150EA010201D1620705D530228DF8D6
:1076B00004204FF001097F1E3278582A04D039A2E5
:1076C0000C920CAA02920BE03BA2F9E75B46009AEF
:1076D000FCF74CFD0C9B9B5C029A521E02921370AD
:1076E00050EA0102F2D1029804A9081A00F1200B15
:1076F000600702D524F4803400E001275F4502DDF5
:10770000A7EB0B0000E0002000EB0B0100900398BA
:107710004944401A0390E00306D453462146179A81
:10772000039800F0D2F90544002706E001A852466C
:10773000C05D179990476D1C7F1C4F45F6DBE00339
:107740000CD553462146179A039800F0BEF905441C
:1077500004E030205246179990476D1C0099481E4E
:1077600000900029F5DC08E0029802995246007862
:10777000491C0291179990476D1CBBF10001ABF1B8
:10778000010BF1DC5BE100F077F90544761C307801
:1077900000287FF40DAE19B02846BDE8F08F000038
:1077A00009280100303132333435363738396162D7
:1077B000636465660000000030313233343536379B
:1077C000383941424344454600000000600700D478
:1077D000062708F1070020F00700F0E802238046A2
:1077E00003F0004C5FEA0C0001D097A009E02005EF
:1077F00001D596A005E0E00701D095A001E0AFF229
:107800004C001390307823F0004365280CD006DC40
:10781000452809D046281DD047287FD13BE066285F
:1078200018D067287AD136E00021112F01DB112012
:1078300000E0781CCDE9000104A90CA8FFF7ECFAE0
:10784000DDE90D010C9A4FF0000B07F101091092D0
:1078500000914EE04FF000400097CDE9011004A9DF
:107860000CA8FFF7D9FADDE90D020C9B0F994FF038
:10787000000B91461093009211B9791C00EB01099D
:10788000B7EB090003D4C0F1FF3B07F10109A9EBF5
:107890000700019042E0012F00DA01270021112F9B
:1078A00001DD112000E03846CDE9000104A90CA853
:1078B000FFF7B2FADDE90D010C9A00914FF0000BD1
:1078C000B946109221070FD4009A4A4503DA91462F
:1078D00001E0A9F10109B9F1010F05DD109AA9F143
:1078E0000101515C3029F4D0B84202DA10F1040FE2
:1078F00003DA0121CDE9011010E0002803DC834404
:10790000A9EB000102E0411C494500DD8946A0EBDE
:107910000B00401C01904FF000400290200705D45E
:107920000198484502DB4FF0FF30019000208DF8B0
:107930004B0002980DF14B07B0F1004F25D002200B
:107940000C902B200D90029800280CDA40420290F7
:107950002D200D9007E00A210298FCF7B3FE30318C
:10796000029007F8011D0C99481E0C900029F2DCCA
:1079700002980028EFD1791E0D980870307800F039
:10798000200040F0450007F8020D11A8C01BC01DE3
:1079900002901398007800B1012000EB09010198D2
:1079A00001EBE071029801440398401A401E0390D5
:1079B000E00306D453462146179A039800F085F851
:1079C00005441398007818B15246179990476D1CDA
:1079D000E00323D553462146179A039800F075F823
:1079E00005441BE0BBF1000F07DB0098584504DDA0
:1079F0001098179910F80B0001E0179930205246A3
:107A0000904701980BF1010B401E05F10105019013
:107A100004D12E205246179990476D1CB9F10001F0
:107A2000A9F10109DEDC05E017F8010B52461799B0
:107A300090476D1C0299481E02900029F4DC5346C1
:107A40002146179A03989EE62D0000002B000000A7
:107A5000200000002DE9F041044600251E4617468F
:107A6000880404D405E039462020B0476D1C641E0C
:107A7000F9D52846BDE8F0812DE9F04104460025FE
:107A80001E461746880404D405E039462020B04736
:107A90006D1C641EF9D52846BDE8F0812DE9F04142
:107AA000044600251E469046C80301D5302700E055
:107AB0002027880404D505E041463846B0476D1CB0
:107AC000641EF9D52846BDE8F0812DE9F041044651
:107AD00000251E469046C80301D5302700E0202728
:107AE000880404D505E041463846B0476D1C641E45
:107AF000F9D52846BDE8F0810A68531C0B60107068
:107B000070470A68531C0B601070704710B5094B22
:107B1000094C1A68914202D94FF0000010BD04D1FF
:107B2000605402F101021A6000E060544FF001005D
:107B300010BD00007800002078220020044A034B8A
:107B400011685854491C11607047000078220020C9
:107B50007800002070B505460E46002D01D00024A7
:107B600005E0002070BD285DFFF7E8FF641CB4420B
:107B7000F9D3012070BD000010B54FF480610348B7
:107B8000FCF743FB02490020086010BD782200206A
:107B9000780000200221FFF7DDBF0421FFF7DABFE4
:107BA00010B56FF00400FEF7A8FB0948094900680A
:107BB000B0FBF1F00849C0B2087000EB4002C2EB24
:107BC000C0104FF6FF7202EAC000488010BD0000EE
:107BD0000000002000127A00420000200B49498872
:107BE00048434FF0E021486100238B61086940F071
:107BF000010008610869C20701D0C003FAD508690D
:107C000020F0010008618B617047000042000020F5
:107C10002DE9F047814608980F4690462038C5B2B6
:107C200009F10106182B2AD0102B61D00C2B24D17E
:107C30004846FEF76FFA41463846FEF781FA0024BF
:107C40003D4905EB450001EB80052046641CE4B28C
:107C5000285CFEF79BFA062CF7D3F0B2FEF75AFA2F
:107C600041463846FEF76CFA06242046641CE4B20E
:107C7000285CFEF78BFA0C2CF7D3BDE8F08748465A
:107C8000FEF748FA41463846FEF75AFA00242B49D7
:107C900005EBC50001EB80052046641CE4B2285CBE
:107CA000FEF774FA0C2CF7D3F0B2FEF733FA414624
:107CB0003846FEF745FA0C242046641CE4B2285CE2
:107CC000FEF764FA182CF7D309F1020909F0FF0056
:107CD000FEF720FA41463846FEF732FA18242046CD
:107CE000641CE4B2285CFEF751FA242CF7D3C4E7F5
:107CF0004846FEF70FFA41463846FEF721FA0024BF
:107D00000F4800EB05152046641CE4B2285CFEF722
:107D10003DFA082CF7D3F0B2FEF7FCF9414638469D
:107D2000FEF70EFA08242046641CE4B2285CFEF735
:107D30002DFA102CF7D3A0E7BCB0010820BB010836
:107D400030B501082DE9F04106460F4690461D4624
:107D50003046FEF7DFF941463846FEF7F1F90024D8
:107D6000285DFEF713FA641CE4B2102CF8D3761CDD
:107D7000F0B2FEF7CFF941463846FEF7E1F90024AC
:107D80002819007CFEF702FA641CE4B2102CF7D329
:107D9000BDE8F0812DE9F05F0746884691469A4696
:107DA0003846FEF7B7F949464046FEF7C9F90025BF
:107DB000214E002405EB450006EBC00B1BF8040028
:107DC000FEF7E4F9641CE4B20C2CF7D36D1CEDB2A1
:107DD000022DEED300240AF1010A0AEB4A0006EB59
:107DE000C005285DFEF7D2F9641CE4B20C2CF8D370
:107DF0007F1CF8B2FEF78EF949464046FEF7A0F91F
:107E000000270C2407EB470006EBC00818F8040015
:107E1000FEF7BCF9641CE4B2182CF7D37F1CFFB248
:107E2000022FEED30C24285DFEF7B0F9641CE4B2F7
:107E3000182CF8D3BDE8F09FB800002001460020C0
:107E4000054A1288130406D5044BC2F30E02985457
:107E50001846FCF7E5B9704738000020B00E002046
:107E60002DE9F047ADF6080D81468A460024A0466C
:107E7000574E002535804FF47A70009055A355A2D7
:107E800056A157A000F026F935804FF4FA6751A3A8
:107E900050A252A153A0009700F01CF935804DA3C9
:107EA0004CA24EA151A0009700F014F9358005E0D6
:107EB00035806420FFF792FE641CE4B245A345A21E
:107EC0004DA151A0009700F005F9012801D00A2C1E
:107ED000EED335800A2C73D03EA340A24DA150A012
:107EE000009700F0F7F83580C820FFF777FE39A338
:107EF00038A23AA14DA0009700F0ECF83580C820D8
:107F0000FFF76CFE33A333A234A14BA0009700F01F
:107F1000E1F83580C820FFF761FE2EA32DA22FA126
:107F200049A0009700F0D6F83580C820FFF756FE2C
:107F300028A328A229A147A0009700F0CBF83580FC
:107F4000C820FFF74BFE23A322A224A145A000973F
:107F500000F0C0F83580C820FFF740FE1DA31DA229
:107F60001EA146A0009700F0B5F83580C820FFF7A5
:107F700035FE4FF4006102A8FCF747F953464A4624
:107F800046A102A8FEF70EFF12A314A24CA102A85C
:107F9000009700F09FF804463580C820FFF71EFECA
:107FA0003580012C0ED0022C0CD0032C0AD0B8F155
:107FB000010F07D000200DF6080DBDE8F087FFE7A0
:107FC0000020F8E7214640A0FEF7DCFE0120F2E7A2
:107FD000380000204E554C4C000000004F4B000074
:107FE00041540000415445300000000041542B43EF
:107FF00050494E3F000000000D0A2B435245473ABE
:1080000020302C310000000041542B435245473FA3
:108010000D0A00002B43474154543A203100000020
:1080200041542B43474154543F0D0A0041542B51B6
:10803000494143543F0D0A0041542B5149434C4F91
:1080400053453D300D0A000041542B434D47463DFA
:10805000310D0A0041542B435343533D2247534DA6
:10806000220D0A0041542B434E4D493D312C322CF8
:10807000302C312C30200D0A0000000041542B51CF
:108080005552434346473D22757263706F727422A6
:108090002C22756172743122200D0A0041542B513B
:1080A000494F50454E3D312C302C22544350222C08
:1080B000222573222C25642C302C300D0A00000060
:1080C000434F4E4E45435400646174613D25640D39
:1080D0000A0000002DE9F05F0A9C0646884691469A
:1080E0009A464FF0000B2C4D00272F80FDF70EFA1B
:1080F000FF2E07D82948D0F884100029FBD1284842
:10810000068007E0314627A002F068FF314625A02F
:10811000FEF738FE254EA4F580604C3805D10B20C3
:10812000307042F20F70FEF7B3F9B8F1000F00D0D3
:1081300064BBBAF1000F00D044BBB9F1000F29D0E5
:1081400024BB27E0707818B10020FDF71BFA8346A6
:108150000A20FFF743FD2888000417D514A115480D
:10816000FEF700FE4046FFF769FE10B10120BDE8B2
:10817000F09F4846FFF762FE08B10220F7E750463D
:10818000FFF75CFE08B10320F1E72F80641E240492
:10819000240CD7D15846EAE73800002000000240FE
:1081A0000444004025730D0A000000003E0000203A
:1081B0000D0A0000B00E002010B50246002000217C
:1081C000044B33F81140944200D10120491C092985
:1081D000F7DB10BD6600002010B50246002000212C
:1081E000044B33F81140944200D10120491C0A2964
:1081F000F7DB10BD8000002004490A885206FCD538
:10820000024AC1B2121D11807047000000380140BF
:1082100010B5002821D0114B0022001F196803E07F
:10822000814203D80A4649680029F9D152B113683E
:10823000841A9C4204D1006818441060104602E081
:10824000506000E0186039B102680B1A934203D104
:108250000B681A4402604968416010BDD8010020D3
:108260002DE9F04107460D461446002F1DD0002D84
:108270001BD0681C02F06EFB06462A463946304683
:10828000FBF7AAFF307884F8E402982204F5237102
:108290000748FCF7A9FE94F8E41206A0FEF772FD69
:1082A0003046BDE8F041FFF7B3BFBDE8F081000004
:1082B0000040030868616E646C655F436172506CD6
:1082C000617465436F6C6F72203D3D3D3D20307899
:1082D00025303278200D0A002DE9F04106460D4682
:1082E0001446002E27D0002D25D0681C02F032FB4A
:1082F00007462A4631463846FBF76EFF0020C4F891
:10830000D802C4F8DC02C4F8E0022A4604F536704C
:1083100039460546FBF760FF982204F523710748AC
:10832000FCF762FE294606A0FEF72CFD3846BDE8A4
:10833000F041FFF76DBFBDE8F08100000040030889
:1083400068616E646C655F436172506C6174654E08
:10835000756D203D3D3D3D202573200D0A00000038
:10836000F8B506460D461446002E23D0002D21D028
:10837000284602F0EFFA07462A4631463846FBF710
:108380002BFF2A4639466846FBF726FFBDF800005A
:10839000FCF75FFDA4F8D602982204F52371064885
:1083A000FCF722FEB4F8D61204A0FEF7EBFC384628
:1083B000FFF72EFFF8BD00000040030868616E64FF
:1083C0006C655F436974794944203D3D3D3D2025FE
:1083D00064200D0A00000000F8B506460D4614465C
:1083E000002E22D0002D20D0284602F0B3FA0746F6
:1083F0002A4631463846FBF7EFFE2A46394668469C
:10840000FBF7EAFE0098FCF729FDC4F8CC0298229D
:1084100004F523710548FCF7E7FD05A0D4F8C81260
:10842000FEF7B0FC3846FFF7F3FEF8BD0040030846
:1084300068616E646C655F44656661756C745469EF
:108440006D655265706F727454696D65496E7465BF
:108450007276616C203D3D3D3D202564200D0A0073
:10846000F8B506460D461446002E28D0002D26D01D
:10847000284602F06FFA07462A4631463846FBF78F
:10848000ABFE2A4639466846FBF7A6FE0098FCF785
:10849000E5FC1E2800D31E20022800D80220C4F8C4
:1084A000C802982204F523710548FCF79DFD05A03C
:1084B000D4F8C812FEF766FC3846FFF7A9FEF8BDEF
:1084C0000040030868616E646C655F4465666175B1
:1084D0006C7454696D655265706F727454696D6522
:1084E000496E74657276616C203D3D3D3D2025648A
:1084F000200D0A00F8B506460F461446002E21D07E
:10850000002F1FD0384602F025FA05463A4631467C
:108510002846FBF761FE3A4629466846FBF75CFEB3
:108520000098FCF79BFCC4F88C02014606A0FEF7FD
:1085300029FC982204F523710C48FCF755FD2846C8
:10854000FFF766FEF8BD000068616E646C655F4809
:108550006561727442656174496E74657276616CAE
:10856000203D3D3D3D202564200D0A0000400308CC
:108570002DE9F04106460C461546002E24D0002C6D
:1085800022D0601C02F0E6F9074622463146384602
:10859000FBF722FE05F5247032210646FBF735FE77
:1085A000224639463046FBF717FE982205F523711F
:1085B0000648FCF719FD314605A0FEF7E3FB3846F7
:1085C000BDE8F041FFF724BEBDE8F081004003089C
:1085D00068616E646C655F4D61696E536572766546
:1085E0007241646472657373203D3D3D3D20257387
:1085F000200D0A00F8B506460D461446002E22D07E
:10860000002D20D0284602F0A5F907462A4631461B
:108610003846FBF7E1FD2A4639466846FBF7DCFDA4
:108620000098FCF71BFCC4F8D002982204F52371D3
:108630000548FCF7D9FC05A0D4F8D012FEF7A2FB40
:108640003846FFF7E5FDF8BD0040030868616E6439
:108650006C655F4D61785370656564203D3D3D3DBF
:10866000202564200D0A0000F8B506460D46144684
:10867000002E23D0002D21D0284602F06BF90746AA
:108680002A4631463846FBF7A7FD2A463946684652
:10869000FBF7A2FDBDF80000FCF7DBFBA4F8D40259
:1086A000982204F523710648FCF79EFCB4F8D41216
:1086B00004A0FEF767FB3846FFF7AAFDF8BD0000EF
:1086C0000040030868616E646C655F50726F766984
:1086D0006E63654944203D3D3D3D202564200D0AE3
:1086E00000000000F8B506460D461446002E22D0C4
:1086F000002D20D0284602F02DF907462A463146A3
:108700003846FBF769FD2A4639466846FBF764FDA3
:108710000098FCF7A3FBC4F8C402982204F5237167
:108720000548FCF761FC05A0D4F8C412FEF72AFB4B
:108730003846FFF76DFDF8BD0040030868616E64C0
:108740006C655F536572766572506F7274203D3D43
:108750003D3D202564200D0A0000000000207047E8
:1087600010B548F20122034903A0FEF70BFB0020DD
:1087700010BD00009FCA01085B25735D206D736703
:108780005F6964203D203078253034780D0A000080
:1087900010B540F20122034903A0FEF7F3FA0020CE
:1087A00010BD000080C901085B25735D206D7367F3
:1087B0005F6964203D203078253034780A0000005D
:1087C00010B548F20612034903A0FEF7DBFA0020B9
:1087D00010BD000049CA01085B25735D206D7367F9
:1087E0005F6964203D203078253034780D0A000020
:1087F00010B548F20412034903A0FEF7C3FA0020A3
:1088000010BD00002BCA01085B25735D206D7367E6
:108810005F6964203D203078253034780D0A0000EF
:1088200010B54FF48272034903A0FEF7ABFA0020A3
:1088300010BD000036C901085B25735D206D7367AC
:108840005F6964203D203078253034780A000000CC
:1088500030B589B0044600200790089004F5B27442
:108860002068FCF7FBFA069006A8FFF796F9606807
:10887000FCF7F4FA069006A8FFF78FF9A068FCF75A
:10888000EDFA069006A8FFF788F9E068FCF7E6FA2B
:10889000069006A8FFF781F9208AFCF7DAFA05901E
:1088A00005A8FFF777F90A206082FCF7D2FA059055
:1088B00005A8FFF76FF9A08AA4F5B274FCF7C9FA0E
:1088C000059005A8FFF766F9244881784278037877
:1088D000C579CDE90053CDE902218379828804F579
:1088E000BD70A2F5FA621EA10446FEF75BFA2146AE
:1088F00022A0FEF747FA2046FBF7A4FC024607A990
:10890000204601F01DFC062107A8FFF723F93020BF
:10891000FFF714F90120FFF711F95320FFF70EF9C3
:108920003120FFF70BF90120FFF708F90B20FFF7C3
:1089300005F9E020FFF702F90120FFF7FFF8032017
:10894000FFF7FCF8EE20FFF7F9F80120FFF7F6F843
:108950000220FFF7F3F8282009B030BDB01E002038
:10896000253032642530326425303264253032645B
:10897000253032642530326400000000706172617D
:108980002D3E6C6F636174696F6E5F696E666F2EEA
:1089900074696D653A202573200D0A0010B50446F0
:1089A00048F20102174918A0FEF7ECF9002C25D077
:1089B00012202189890400D51620194A04F5F27481
:1089C0001118105C4B7803EB002082B2A280C878AB
:1089D0008B7800EB0320608008792070094911A092
:1089E000FEF7D0F96288074917A0FEF7CBF9227885
:1089F00004491DA0FEF7C6F9002010BD4FF0FF305E
:108A000010BD0000CCC901085B25735D206D736744
:108A10005F6964203D203078253034780D0A0000ED
:108A2000782600205B25735D20726573706F6E651C
:108A30005F666C6F775F6E756D203D2030782530F6
:108A400034780D0A000000005B25735D20726573A9
:108A5000706F6E655F6D73675F6964203D2030786D
:108A6000253034780D0A00005B25735D2072657334
:108A7000706F6E655F726573756C74203D20307821
:108A8000253034780D0A00002DE9F84F814601F0B9
:108A900011FC48F20312214921A0FEF773F94FF0AF
:108AA000FF32B9F1000F11D01220B9F8EC118B048C
:108AB00000D51620C1F3090159B1DFF87C8018F800
:108AC0000070401C84B237B1002522E01046BDE89A
:108AD000F88F1046FBE71046F9E708EB0400006842
:108AE0000090FCF7BBF98246241DA4B25046FFF764
:108AF00073FB18F80460641CA4B2012806D1F2B21A
:108B000008EB04014B46504601F0D2FAA01984B29A
:108B10006D1CBD42E1DB0020D9E700000DCA010851
:108B20005B25735D206D73675F6964203D2030783D
:108B3000253034780D0A00007826002070B50446F0
:108B400004F262200646FBF77DFB05464FF4817276
:108B50000B490CA0FEF716F9E8B2FEF7EFFF294625
:108B60003046FEF7F7FF0F2104F1A600FEF7F2FFF3
:108B7000142104F1B500FEF7EDFF284670BD00009A
:108B800017C901085B25735D206D73675F696420F9
:108B90003D20307825303478200D0A0010B548F299
:108BA0000512034903A0FEF7EDF8002010BD0000F8
:108BB0006FCA01085B25735D206D73675F69642070
:108BC0003D203078253034780D0A000038B5044651
:108BD00005250122134914A0FEF7D4F8B4F80402C5
:108BE000FCF737F900906846FEF7D4FFB4F804129A
:108BF00014A0FEF7C7F8B4F8EA01FCF72AF90090D0
:108C00006846FEF7C7FFB4F8EA1114A0FEF7BAF8F9
:108C10002078FEF793FF94F8E41116A0FEF7B2F85F
:108C2000284638BDADC801085B25735D20206D73F3
:108C3000675F6964203D20307825303478200D0A44
:108C40000000000020666C6F775F6E756D203D3D03
:108C500020307825303478200D0A0000206D7367AD
:108C60005F6964203D3D20307825303478200D0A3E
:108C70000000000020726573706F6E655F7265732F
:108C8000756C74203D3D20307825303278200D0AF7
:108C90000000000010B50222024903A0FEF772F89E
:108CA000002010BDCDC801085B25735D203C6E6FB0
:108CB000206D65737361676520626F64793E202063
:108CC0006D73675F6964203D2030782530347820EB
:108CD0000D0A200010B50322024903A0FEF752F846
:108CE000002010BD00C901085B25735D203C6E6F3C
:108CF000206D65737361676520626F64793E206DD6
:108D000073675F6964203D203078253034780D0A20
:108D10000000000038B504464FF480721C491DA0C5
:108D2000FEF730F8204600F0E7FA4C25E08CFCF71F
:108D300090F800906846FEF72DFF208DFCF789F82B
:108D400000906846FEF726FF0B2104F12A00FEF78B
:108D500001FF1E2104F13500FEF7FCFE1E2104F187
:108D60005300FEF7F7FE94F87100FEF7E7FE94F863
:108D7000710050B104F172000446FBF763FA054636
:108D800029462046FEF7E6FE4C35284638BD000051
:108D9000E7C801085B25735D206D73675F69642018
:108DA0003D20307825303478200D0A002DE9F0413F
:108DB000044600274FF40142234924A0FDF7E2FFB7
:108DC000ECB11220B4F8EC11890400D51620254925
:108DD0000D18085C6A7802EB002082B2A4F8E82142
:108DE000194921A0FDF7CEFFAA7884F8E42116499D
:108DF00026A0FDF7C7FF94F8E40120B11EE04FF074
:108E0000FF30BDE8F081B4F8EC01C0F30900C01EEA
:108E100086B2701C01F09EFD0746E91C32463846BA
:108E2000FBF7DAF904F26220324639460446FBF7D2
:108E3000D3F9224604491DA0FDF7A4FF3846FFF7E9
:108E4000E7F90020DDE70000ECC901085B25735D50
:108E5000206D73675F6964203D2030782530347859
:108E60000D0A0000782600205B25735D2072657373
:108E7000706F6E655F666C6F775F6E756D20203DFD
:108E8000203078253034780D0A0000005B25735DB2
:108E900020726573706F6E655F726573756C742098
:108EA000203D203078253032780D0A005B25735D37
:108EB0002061757468656E7469636174696F6E5F53
:108EC000636F6465203D2025730D0A00F8B50446E4
:108ED00048F20812414942A0FDF754FF002C69D026
:108EE0001225B4F8EC01800400D5162501F0E2F952
:108EF000414E715D84F890116D1CADB23FA0FDF73D
:108F000041FF0020C4F89201A4F896012218715D77
:108F100082F892116D1CADB2401C0528F6DB04F5F9
:108F2000C97141A0FDF72EFF04F5CC74715D21706D
:108F30006D1CADB247A0FDF725FF2078401C01F065
:108F400009FD60602178FBF760F92278711960688B
:108F5000FBF742F92078284485B26168A4F5CC7407
:108F600047A0FDF70FFF00206946725D0A546D1C93
:108F7000ADB2401C0428F8DB0098FBF76FFF04F546
:108F8000D0742060014648A0FDF7FCFE2068401C1C
:108F900001F0E0FC60602168FBF737F9D4E90020BC
:108FA0007119A4F5D074FBF717F94CA0FDF7EAFE90
:108FB000002509E04FF0FF30F8BDD4F8A401415D71
:108FC0004FA0FDF7DFFE6D1CD4F8A001A842F4D835
:108FD00008A0FDF7D7FE0020F8BD000087CA0108F1
:108FE0005B25735D206D73675F6964203D20307879
:108FF000253034780D0A00007826002070617261F7
:109000002D3E757067726164655F696E666F2E755F
:109010007067726164655F747970653A20253032DB
:1090200078200D0A00000000706172612D3E75709D
:1090300067726164655F696E666F2E6D616E7566DD
:10904000616374757265725F69643A202573200DDF
:109050000A000000706172612D3E75706772616474
:10906000655F696E666F2E76657273696F6E5F6994
:10907000645F6C656E3A2025303278200D0A00005E
:10908000706172612D3E757067726164655F696EB3
:10909000666F2E76657273696F6E5F69643A20251C
:1090A00073200D0A00000000706172612D3E757022
:1090B00067726164655F696E666F2E757067726155
:1090C00064655F646174615F746F74616C5F6C652B
:1090D0006E3A202564200D0A000000007061726164
:1090E0002D3E757067726164655F696E666F2E757F
:1090F0007067726164655F646174613A00000000CA
:10910000253032782000000010B54FF484720649F3
:1091100006A0FDF737FE0020FEF710FD0020FEF749
:109120000DFD042010BD00005CC901085B25735DC6
:10913000206D73675F6964203D2030782530347876
:109140000D0A000070B5044648F20812414942A0D9
:10915000FDF718FE002C7AD01225B4F8EC0180043B
:1091600000D5162501F0A6F86D1CE8B2404D04F2BA
:10917000A534295C2170401CC0B2295C6170401C80
:10918000C0B2295CA170401CC6B2A85DFBF76EFDA1
:10919000E070761CF6B2A85DFBF768FD2071761CC6
:1091A000F6B2A85DFBF762FD6071761CF6B2A85DB1
:1091B000FBF75CFDA071761CF6B2A85DFBF756FDCF
:1091C000E071761CF6B2A85DFBF750FD2072761CAC
:1091D000F6B2A85DFBF74AFD6072761CF6B2A85D98
:1091E000FBF744FDA072761CF6B2A85DFBF73EFDCE
:1091F000E072761CF6B2A85DFBF738FD2073761C92
:10920000F6B2A85DFBF732FD6073761CF6B2A85D7E
:10921000FBF72CFDA073761CF6B2A85DFBF726FDCC
:10922000E073761CF6B2A85DFBF720FD2074761C77
:10923000F6B2A85DFBF71AFD6074761CF6B2A85D65
:10924000FBF714FDA074761CF0B270BDFFE74FF081
:10925000FF30FAE7BECA01085B25735D206D7367B6
:109260005F6964203D203078253034780D0A000095
:109270007826002070B505460C4609A0FDF782FD52
:109280000E4EC6F8645129460DA0FDF77BFDC6F8C9
:1092900068412146BDE8704010A0FDF773BD000095
:1092A0000A0D5B496E69744C6F636174696F6E4936
:1092B0006E666F5D204F4B20210D0A00BC1E002002
:1092C000706172612D3E616C61726D2E76616C759C
:1092D00065203D2025640D0A000000007061726168
:1092E0002D3E7374617475732E76616C7565203DC7
:1092F0002025640D0A00000070B504462AA0FDF781
:1093000041FDB4F8D412E1842FA0FDF73BFDB4F881
:10931000D612218536A0FDF735FD0B2D00DD0B257E
:1093200004F12A0029460646FAF76FFF2A463AA1B9
:109330003046FAF751FF31463AA0FDF723FD0B25E1
:1093400004F1350029460646FAF75FFF2A4640A198
:109350003046FAF741FF314640A0FDF713FD94F87F
:10936000E41284F8711048A0FDF70CFD94F8710028
:1093700078B17234D4F866022060D4F86A02606072
:10938000D4F86E02A060723C04F172014AA0FDF7AD
:10939000F9FC16A0FDF7F6FC52A0FDF7F3FCBDE8C2
:1093A000704012A0FDF7EEBC0D0A5B20696E697477
:1093B0005265676973746572496E666F205D204FF0
:1093C0004B20210D0A000000706172612D3E726514
:1093D0006769737465725F696E666F2E70726F76FF
:1093E000696E63655F6964203D2025640D0A000095
:1093F000706172612D3E72656769737465725F6931
:109400006E666F2E636974795F6964203D20253034
:1094100034640D0A000000003431303130325849D4
:109420004E444100706172612D3E726567697374CC
:1094300065725F696E666F2E6D616E7566616374CD
:10944000757265725F6964203D2025730D0A000006
:1094500058494E44412D435A3033000070617261C7
:109460002D3E72656769737465725F696E666F2EF3
:109470007465726D696E616C5F6D6F64656C203DC3
:109480002025730D0A000000706172612D3E726527
:109490006769737465725F696E666F2E6361725F70
:1094A000706C6174655F636F6C6F72203D20307803
:1094B000253032780D0A0000706172612D3E7265B0
:1094C0006769737465725F696E666F2E6361725F40
:1094D000706C6174655F6E756D203D2025730D0A9B
:1094E00000000000E6B3A8E5868CE4BFA1E681AFEA
:1094F000E69BB4E696B0E5AE8CE688900D0A0000D7
:109500002DE9F04105463349334E98220F46304647
:10951000FCF706F8314CC4F8E852294630A0FDF7B4
:1095200031FCD4F8E80230B9FBF77CFD98223946CB
:109530003046FBF7F5FF32A0FDF724FC39A0FDF71C
:1095400021FC244940A06431FDF71CFC35A0FDF747
:1095500019FC2BA0FDF716FC04F5267442A054F864
:109560000C1CFDF70FFC1B4946A0091DFDF70AFC6A
:109570004CA0E16AFDF706FC4FA0216BFDF702FC51
:1095800057A0616BFDF7FEFB5FA0A16BFDF7FAFB37
:10959000A18F62A0FDF7F6FBE18F65A0FDF7F2FB5E
:1095A0000C4967A04C31FDF7EDFB94F84C106AA014
:1095B000FDF7E8FB6FA0616DFDF7E4FB0FA0FDF781
:1095C000E1FB74A0FDF7DEFBBDE8F0410BA0FDF769
:1095D000D9BB00004821002000400308BC1E002029
:1095E000696E6974466163746F7279506172616DFE
:1095F0006574657273203D3D202564200D0A0000CE
:109600002D2D3E2D2D2D2D2D2D2D2D2D2D2D2D2D79
:109610002D2D2D2D2D2D2D2D2D2D2D2D2D2D0D0ABD
:10962000000000002D2D3E20202020202020202082
:10963000202020202020202020202020202020202A
:1096400020200D0A000000002D2D3E20202020208B
:10965000202056657273696F6E203D20257320208F
:1096600020202009090D0A00486561727442656175
:1096700074496E74657276616C203D3D20256420CE
:109680000D0A00004D61696E536572766572416422
:109690006472657373203D3D2022257322200D0ADC
:1096A00000000000536572766572506F7274203D41
:1096B0003D202564200D0A0044656661756C745474
:1096C000696D655265706F727454696D65496E7429
:1096D000657276616C203D3D202564200D0A0000F6
:1096E000436F726E6572506F696E74526574726109
:1096F0006E736D697373696F6E416E676C65203D43
:109700003D202564200D0A004D6178537065656425
:10971000203D3D202564200D0A00000050726F7628
:10972000696E63654944203D3D202564200D0A0093
:10973000436974794944203D3D202564200D0A0089
:10974000436172506C6174654E756D203D3D2025FE
:1097500073200D0A00000000436172506C61746553
:10976000436F6C6F72203D3D2025303278200D0A0A
:1097700000000000626F6F745F6C6F616465725F00
:10978000666C616720203D20203078256C78200DA4
:109790000A000000696E697453797374656D5061D5
:1097A00072616D657465727320535543434553531D
:1097B0002121212121210D0A00000000F0B50446DD
:1097C0000F463B460A2615E02078FBF74FFA054680
:1097D000B5FBF6F030301870581C3978302900D1BC
:1097E0003846B5FBF6F106FB1151303100F8011B8C
:1097F0000346641C521E501CE6D13846F0BD0000E2
:1098000070B50546E9880C464FF0FF3626A0FDF7F7
:10981000B9FAB4F5817F2CD009DC012C15D0022CCB
:1098200018D0032C20D0B4F5807F3AD117E0B4F5DE
:10983000827F23D0B4F5847F25D0B4F5007F27D074
:10984000A4F50074013C2CD127E02846FFF7BEF9AF
:10985000064626E02846FFF71DFA064621E0284680
:10986000FFF758FA06461CE02846FFF733FA06468B
:1098700017E02846FFF762F9064612E02846FEF791
:10988000CFFF06460DE02846FFF73EFC064608E0FF
:109890002846FEF7DDFF064603E02846FEF778FF80
:1098A0000646304670BD00005B6A74383038467238
:1098B000616D65426F64795061636B6167655D20BE
:1098C0006D73675F69643A203078253034780D0A0B
:1098D0000000000070B50646B6F8EA414FF0FF35CB
:1098E00022462C492CA0FDF74DFA48F20410211A0B
:1098F000844230D017DC48F20300A4EB000184421C
:109900001AD00ADC7C2C3FD06FF40040C4423FD117
:109910003046FFF743F805463AE0FD2911D0B1F58E
:10992000807F35D112E001291FD0022918D00429E7
:1099300020D0FD292CD122E03046FEF70FFF05464E
:1099400026E03046FFF732FA054621E03046FFF7C1
:109950009BF805461CE03046FEF74AFF054617E037
:109960003046FEF72DFF054612E03046FFF716F9A8
:1099700005460DE03046FFF7A9FA054608E03046F7
:10998000FEF7EEFE054603E03046FFF7DBFB05463B
:10999000284670BDCDCA01085B25735D20637572D2
:1099A00072656E74206D73675F69643A2030782544
:1099B0003034780D0A0000007FB504460020009086
:1099C00001900290E088FBF744FA039003A8FEF7A9
:1099D000E1F8AD1C208940F480402081FBF739FA82
:1099E000039003A8FEF7D6F8AD1CA07AFEF7A6F800
:1099F0006D1C04F10B000646FAF724FC024669468A
:109A0000304600F09DFB0A216846FEF7A3F80A35B0
:109A1000208CFBF71EFA0390022103A8FEF79AF8A8
:109A2000AD1C2089800413D5608C012810D9FBF768
:109A300010FA0390022103A8FEF78CF8AD1CA08C4D
:109A4000FBF707FA0390022103A8FEF783F8AD1C89
:109A500004B0284670BD00002DE9F04105460E46D1
:109A600014464FF0FF38002C01D00F2E05D22EA047
:109A7000FDF788F94046BDE8F081A878697800EBE9
:109A80000120A4F8EA012879E97800EB0120A4F884
:109A9000EC01687984F8EE0104F2EF101421074616
:109AA000FAF7B3FB0A223946A81DFFF787FE002804
:109AB00027D0287BE97A00EB0120A4F80402B4F84F
:109AC000EC01810404D5C0F30900301A13281DD01D
:109AD0000020A4F80602A4F8080204F5F5741AA000
