:020000040800F2
:10000000F068002045010008DF040008C90400086A
:10001000DD04000875020008090B0008000000005C
:100020000000000000000000000000004906000879
:10003000B902000800000000450500085D01000845
:100040005F0100085F0100085F0100085F01000810
:100050005F0100085F0100085F0100085F01000800
:100060005F0100085F0100085F0100085F010008F0
:100070005F010008770200085F0100085F010008C7
:100080005F0100085F0100085F0100085F010008D0
:100090005F0100085F0100085F0100085F010008C0
:1000A0005F0100085F0100085F0100085F010008B0
:1000B0005F0100085F010008510700085F010008A8
:1000C0005F0100085F0100085F0100085F01000890
:1000D0005F0100084D080008B50800085F0100082E
:1000E0005F0100085F0100085F0100085F01000870
:1000F0005F0100085F0100085F0100085F01000860
:100100005F0100085F0100085F0100085F0100084F
:100110005F0100085F0100085F0100085F0100083F
:100120005F0100085F0100085F0100085F0100082F
:10013000DFF80CD000F08CF800480047C90F000829
:10014000F06800200648804706480047FEE7FEE7C3
:10015000FEE7FEE7FEE7FEE7FEE7FEE7FEE7FEE777
:10016000010700083101000840EA01039B0703D0A2
:1001700009E008C9121F08C0042AFAD203E011F8E6
:10018000013B00F8013B521EF9D27047D2B201E0A8
:1001900000F8012B491EFBD270470022F6E710B58C
:1001A00013460A4604461946FFF7F0FF204610BDE5
:1001B0002DE9F05F0546002092469B46884606469C
:1001C000814640241BE0284641464746224600F02F
:1001D0002FF853465A46C01A914110D3114618467B
:1001E000224600F016F82D1A67EB01084F4622460A
:1001F0000120002100F00DF817EB00094E41201EF0
:10020000A4F10104DFDC484631462A464346BDE8F6
:10021000F09F202A04DB203A00FA02F10020704708
:100220009140C2F1200320FA03F319439040704734
:10023000202A04DB203A21FA02F00021704721FA3B
:1002400002F3D040C2F120029140084319467047A2
:10025000064C074D06E0E06840F0010394E8070013
:1002600098471034AC42F6D3FFF766FFE812000857
:1002700008130008FEE700F007B90000C10002D52E
:100280000249086070470249486070470404024010
:100290000000024002460020D10002D5044909684E
:1002A00001E004490968114200D0012070470000B4
:1002B0000004024000000240704700000149C8608D
:1002C000704700000020024070B505464FF430260C
:1002D000304600F059F8042811D1094C206940F04B
:1002E000020020616561206940F0400020613046D5
:1002F00000F04AF8216941F6FD721140216170BD9C
:100300000020024004200849CA68D20701D0012019
:100310007047CA68520701D502207047C968C906EC
:10032000FBD503207047000000200240024801690D
:1003300041F080010161704700200240F0B506469F
:100340000D464FF40057384600F01EF804280CD133
:10035000064C206940F0010020613580384600F0ED
:1003600013F82169BA1E11402161F0BD002002403E
:1003700003480249416003494160704723016745D2
:1003800000200240AB89EFCD00B50346FFF7BAFF6E
:1003900002E0FFF7B7FF5B1E012801D1002BF8D167
:1003A000002B00D1052000BD70B506460D4654084F
:1003B000FFF7DEFF3520FFF781FF3046FFF784FFB0
:1003C00008E028786978AD1C40EA01213046FFF743
:1003D000B5FFB61C641EA4B2F3D2BDE87040FFF7AF
:1003E000A5BF2DE9F0410022CC7804F00F03E4060C
:1003F00001D58C7823430C784FF00F0714F0FF0FD2
:100400004FF0010C1CD005680CFA02F40E8826404F
:10041000A64211D1960007FA06F825EA080503FA64
:1004200006F848EA0505CE78282E02D0482E02D0DC
:1004300002E0446100E00461521C082AE4D3056034
:100440000A88FF2A1ED94568002202F108060CFA24
:1004500006F40E882640A64210D1960007FA06F848
:1004600025EA080503FA06F848EA0505CE78282E9D
:1004700000D14461CE78482E00D10461521C082A74
:10048000E3D34560BDE8F08170B54FF48066304637
:10049000FFF700FF0B4D012428B16C703046BDE81A
:1004A0007040FFF7EBBE4FF400763046FFF7F2FEE8
:1004B000002805D02C703046BDE87040FFF7DEBE46
:1004C00070BD000014000020FEE703E010F8013BBF
:1004D00001F8013B521E92B2F8D27047FEE7704716
:1004E00070B50F23C27801260178002A1ED0144A65
:1004F000126802F4E062C2F5E062120AC2F104047A
:10050000D3404578A54082781A402A43120101F170
:10051000E02181F80024007800F01F018E4040099E
:10052000800000F1E020C0F8006170BD01F01F0004
:1005300086404809800000F1E020C0F8806170BD6D
:100540000CED00E070470000054A002903D0116956
:1005500001431161704711698143116170470000C7
:1005600000100240054A002903D0916901439161BE
:10057000704791698143916170470000001002400B
:10058000054A002903D0D1680143D1607047D16882
:100590008143D160704700000010024010B5264A28
:1005A000516801F00C01254B002927D0042927D0E0
:1005B000082927D00360516801F0F0010909204B98
:1005C0005C5C0168E1404160546804F4E064240A22
:1005D0001C5D21FA04F48460546804F46054E40A55
:1005E0001B5DD940C160526802F44042920B144B2B
:1005F0001B1F9A5CB1FBF2F1016110BD0360DAE7E9
:100600000360D8E7516801F47011536803F4803334
:10061000022404EB914133B153689B0307D5094B86
:1006200059430160C7E7074B59430160C3E7034BD8
:1006300059430160BFE700000010024000127A0039
:100640000400002000093D00704700F001B80000E0
:100650000CB50022019200922748016841F48031D4
:1006600001604FF4A063016801F400310091019929
:10067000491C0191009911B901999942F3D101687E
:10068000890302D50121009100E00092009901291F
:1006900030D11A490A6842F010020A600A6822F052
:1006A00003020A600A6842F002020A60416841607F
:1006B00041684160416841F480614160416821F4D2
:1006C0007C114160416841F4E8114160016841F0EA
:1006D0008071016001688901FCD5416821F0030146
:1006E0004160416841F0020141604168C1F381010C
:1006F0000229FAD10CBD0000001002400020024087
:1007000010B50F48016841F00101016041680D4AD0
:100710001140416001680C4A11400160016821F4F8
:1007200080210160416821F4FE0141604FF41F0106
:100730008160FFF78AFF05494FF00060086010BD37
:10074000001002400000FFF8FFFFF6FE08ED00E099
:1007500010B5174C0121204600F069F8002825D07B
:100760000121204600F054F8124B134A1878A0B12A
:100770001178491CC9B21170814217D10020107044
:100780001870508840F400405080002000F016F8A7
:10079000BDE81040632000F029B8508840F40040C4
:1007A0005080BDE81040002000F008B810BD0000E7
:1007B00000080040200000201C00002010B50A4A5C
:1007C00000280AD014460021204600F03CF82046BC
:1007D000BDE81040012100F01EB8BDE81040002126
:1007E000104600F018B800000008004010B504469C
:1007F0000021064800F027F804492C31088800221F
:100800000A800A8822430A8010BD000000080040C8
:10081000C94301827047002904D0018841F00101D9
:1008200001807047018821F0010101807047024674
:100830000020138A0B4092890A40002B02D0002A24
:1008400000D00120704781847047000070B5164CBD
:1008500040F22551204600F0B9F800280ED020467D
:1008600000F04EF9C1B2114A1088030406D44404C2
:100870004FF0000307D50A2901D0138070BD40F462
:100880000040108070BD0D290AD0094DC0F30D0441
:100890002955401C80B21080C728F3D9138070BD41
:1008A00040F48040108070BD0038014016000020E8
:1008B0002400002070B5124C40F22551204600F073
:1008C00085F8002816D0204600F01AF9C5B20D4C64
:1008D0006088B0F5A05F0ED200210B48FFF7B3FF90
:1008E000608810B90120FFF769FF6088411C6180B2
:1008F00006490D5470BD40F40040608070BD00009A
:10090000004400401C00002000080040F0140020BB
:10091000002904D0818941F4005181817047818987
:1009200021F400518181704710B5234988420AD1D2
:1009300001218C032046FFF723FE2046BDE810402E
:100940000021FFF71DBE1D4988420AD101214C0438
:100950002046FFF7F9FD2046BDE810400021FFF7D3
:10096000F3BD174988420AD101218C042046FFF7C4
:10097000EBFD2046BDE810400021FFF7E5BD114921
:1009800088420AD10121CC042046FFF7DDFD204634
:10099000BDE810400021FFF7D7BD0B4988420AD1BE
:1009A00001210C052046FFF7CFFD2046BDE8104091
:1009B0000021FFF7C9BD10BD0038014000440040D0
:1009C00000480040004C00400050004070B500243A
:1009D00040F66A12C1F3421301F01F05012606FA20
:1009E00005F2012B0CD0022B0DD0838A1340090A8B
:1009F0008E40008830400BB100B10124204670BD0C
:100A000083891340F3E7038A1340F0E710B540F6FB
:100A10006A13C1F3421301F01F040121A140012B0D
:100A200007D0022B07D014303AB102680A430260A3
:100A300010BD0C30F8E71030F6E702688A43026018
:100A400010BD000030B585B004460D46208A4CF636
:100A5000FF710840E98801432182A0894EF6F31115
:100A60000840A9882A8911436A8902431143A18158
:100A7000A08A4FF6FF410840A9890143A182684638
:100A8000FFF78CFD1D48844201D1039800E00298D5
:100A9000A189090408D500EBC00101EB0010296809
:100AA0004900B0FBF1F007E000EBC00101EB0010E2
:100AB00029688900B0FBF1F06422B0FBF2F1090172
:100AC0000B096FF018056B4300EB8300A3891D042D
:100AD0004FF0320307D503EBC000B0FBF2F000F09B
:100AE0000700084306E003EB0010B0FBF2F000F053
:100AF0000F000843208105B030BD000000380140E0
:100B00008088C0F308007047FEE700000FB4054B73
:100B100010B503A9044A029800F018F810BC5DF85B
:100B200014FB0000B10F00081800002002E008C804
:100B3000121F08C1002AFAD170477047002001E057
:100B400001C1121F002AFBD1704700002DE9FF4FA1
:100B50008DB00F460546002606E025280BD0DDE9BE
:100B60000F1290476D1C761C28780028F5D111B023
:100B70003046BDE8F08F0024A246A1460122EC4990
:100B800000E0044315F8013F203B02FA03F008425D
:100B9000F7D128782A2810D06FF02F022878A0F1FA
:100BA0003001092914D80AEB8A0102EB410144F013
:100BB000020400EB010A6D1CF0E701CF5FEA000AB6
:100BC00003D544F40054CAF1000A44F002046D1C39
:100BD00028782E2817D115F8010F44F004042A288C
:100BE0000ED06FF02F022878A0F1300109290AD821
:100BF00009EB890102EB410100EB01096D1CF2E7F1
:100C000057F8049B6D1C28786C280FD006DC4C2804
:100C100017D068280DD06A2814D104E0742810D0A9
:100C20007A280FD10DE044F400140AE044F4801453
:100C300001E044F440146978814202D104F5801443
:100C40006D1C6D1C2A786E2A1FD00CDC632A31D0F3
:100C500004DC002A8BD0582A11D1A3E0642A68D082
:100C6000692A0CD165E0732A2ED004DC6F2A73D078
:100C7000702A04D19BE0752A6FD0782A6ED0104676
:100C8000DDE90F129047761C50E1C4F302500228B0
:100C900006D0032809D0042801CF09D0066045E119
:100CA00001CFF117C0E9006140E101CF06803DE1CD
:100CB00006703BE117F8040B8DF8000000208DF85A
:100CC0000100EB46012003E057F804BB4FF0FF3072
:100CD00061074FF0000102D40DE008F101018846E0
:100CE00049450FDA8045F8DB1BF808100029F4D1DC
:100CF00008E008F1010188468142FADB1BF8081080
:100D00000029F6D1DDE90F23AAEB08008146214630
:100D100000F036F9304400EB080604E0DDE90F127C
:100D20001BF8010B9047B8F10108F7D2214648465D
:100D3000F7E00A21C4F302534FF0000B0891022B95
:100D400004D001CFC117032B09D00AE0FF1D27F003
:100D50000707F7E8020108E032E01FE020E000B2F8
:100D6000C117042B01D140B2C117031E71F100035A
:100D700007DA4FF0000CD0EB0C006CEB01012D23D7
:100D800002E0230504D52B238DF82430012303E052
:100D9000E30701D02023F7E7984658E00A2110E046
:100DA00010210EE010204FF0000B08900CE01021F5
:100DB0004FF0000B44F004044FF00809089103E0E1
:100DC00008214FF0000B0891C4F30253022B04D00A
:100DD00001CF0021032B06D006E0FF1D27F00707F7
:100DE000F7E8020103E080B2042B00D1C0B24FF05B
:100DF000000823072BD5702A07D0DDF820C08CF01F
:100E0000100C5CEA0B0C05D00EE040238DF824306A
:100E1000012308E050EA010306D030238DF8243086
:100E20008DF8252002239846DDF820C08CF0080CB0
:100E30005CEA0B0C0BD150EA010301D1630706D524
:100E400030238DF824304FF00108A9F10109582A08
:100E500004D038A20B9208AA0A920BE03AA2F9E752
:100E60005B46089AFFF7A4F90B9B9B5C0A9A521EFB
:100E70000A92137050EA0102F2D10A98ADEB000019
:100E800000F1200B600702D524F4803401E04FF01C
:100E90000109D94502DDA9EB0B0000E0002000EBC1
:100EA0000B0141440890AAEB010AE00306D4DDE9F6
:100EB0000F232146504600F063F806444FF0000926
:100EC00008E009A911F80900DDE90F12904709F1BE
:100ED0000109761CC145F4DBE0030CD5DDE90F23E5
:100EE0002146504600F04CF8064404E0DDE90F12BC
:100EF00030209047761C0899481E08900029F5DCA0
:100F000008E00A980A990078491C0A91DDE90F1255
:100F10009047761CBBF10001ABF1010BF1DC2146DF
:100F20005046DDE90F2300F019F806446D1C1BE65E
:100F300009280100303132333435363738396162AF
:100F40006364656600000000303132333435363773
:100F50003839414243444546000000002DE9F04144
:100F6000044600251E461746880404D405E0394689
:100F70002020B0476D1C641EF9D52846BDE8F081DD
:100F80002DE9F041044600251E469046C80301D5D0
:100F9000302700E02027880404D505E04146384684
:100FA000B0476D1C641EF9D52846BDE8F0810000ED
:100FB00004490A885206FCD5024AC1B2121D1180AA
:100FC0007047000000380140C0B000243E943F94B8
:100FD000142139A8FFF7E1F8379438943494359404
:100FE0003694342127A8FFF7D8F834211AA8FFF740
:100FF000D4F84FF4E13000F025F92920ADF83400A1
:101000006620ADF8360045A000680E9041208DF8AE
:101010003C0044A00168CDF83D104168CDF8411076
:101020000089ADF8450042A00168CDF851108088D4
:10103000ADF8550031208DF8570002208DF858008A
:101040003DA00168CDF859108188ADF85D10807918
:101050008DF85F00342127A8FFF79FF834220DA9EF
:1010600027A8FFF781F8364C322227A92046FFF740
:101070009BF932221AA92046FFF727FA3421684645
:10108000FFF78BF834221AA96846FFF76DF8BDF810
:1010900000102CA0FFF73AFDBDF8021034A0FFF7B6
:1010A00035FD01983E909DF808008DF8FC003EA9A2
:1010B00039A0FFF72BFDDDF809003990DDF80D00B0
:1010C0003A90BDF81100ADF8EC0039A939A0FFF74E
:1010D0001DFDDDF81D003790BDF82100ADF8E000E2
:1010E0009DF823008DF8E20037A939A0FFF70EFD27
:1010F0009DF824103CA0FFF709FDDDF82500349091
:10110000BDF82900ADF8D4009DF82B008DF8D6006D
:1011100034A941A0FFF7FAFCFEE7000058494E440D
:10112000410000005A584941542D435A30320000C2
:101130003032303131303100414161310000000046
:1011400000800008706172612D3E7265676973747A
:1011500065725F696E666F2E70726F76696E636519
:101160005F6964203D203078253034780D0A000016
:10117000706172612D3E72656769737465725F6933
:101180006E666F2E636974795F6964203D203078E4
:10119000253034780D0A00007074725F6D616E75D1
:1011A00066616374757265725F6964203D202573A2
:1011B0000D0A00007074725F7465726D696E616C07
:1011C0005F6D6F64656C203D2025730D0A00000083
:1011D0007074725F7465726D696E616C5F696420B2
:1011E0003D2025730D0A0000706172612D3E72650D
:1011F0006769737465725F696E666F2E6361725F93
:10120000706C6174655F636F6C6F72203D20307825
:10121000253032780D0A0000706172612D3E7265D2
:101220006769737465725F696E666F2E6361725F62
:10123000706C6174655F6E756D203D2025730D0ABD
:1012400000000000F0B587B00546012144F204001B
:10125000FFF788F9224E3046FFF766FB7015ADF8B0
:10126000180003248DF81A4018208DF81B001D4F1C
:1012700006A93846FFF7B5F83015ADF81800042078
:101280008DF81B0006A93846FFF7ABF825208DF82E
:1012900004008DF805408DF8064001208DF8070008
:1012A00001A8FFF71DF902950020ADF80C00ADF87C
:1012B0000E00ADF81000ADF814000C20ADF81200CF
:1012C00002A93046FFF7BEFB012240F2255130460D
:1012D000FFF79CFB01213046FFF71AFB07B0F0BD7A
:1012E00000380140000801400813000800000020F9
:1012F000240000002C0B00082C1300082400002000
:10130000CC6800003C0B0008020406080000000046
:10131000010203040102030406070809000000009B
:0C132000000000000000000000000000C1
:0400000508000131BD
:00000001FF
